
VernonBootloader.elf:     file format elf32-littlearm

Sections:
Idx Name          Size      VMA       LMA       File off  Algn
  0 .isr_vector   00000198  08000000  08000000  00001000  2**0
                  CONTENTS, ALLOC, LOAD, READONLY, DATA
  1 .text         000038b0  080001a0  080001a0  000011a0  2**4
                  CONTENTS, ALLOC, LOAD, READONLY, CODE
  2 .rodata       000003e4  08003a50  08003a50  00004a50  2**2
                  CONTENTS, ALLOC, LOAD, READONLY, DATA
  3 .ARM.extab    00000000  08003e34  08003e34  00005068  2**0
                  CONTENTS
  4 .ARM          00000008  08003e34  08003e34  00004e34  2**2
                  CONTENTS, ALLOC, LOAD, READONLY, DATA
  5 .preinit_array 00000000  08003e3c  08003e3c  00005068  2**0
                  CONTENTS, ALLOC, LOAD, DATA
  6 .init_array   00000004  08003e3c  08003e3c  00004e3c  2**2
                  CONTENTS, ALLOC, LOAD, READONLY, DATA
  7 .fini_array   00000004  08003e40  08003e40  00004e40  2**2
                  CONTENTS, ALLOC, LOAD, READONLY, DATA
  8 .data         00000068  20000000  08003e44  00005000  2**2
                  CONTENTS, ALLOC, LOAD, DATA
  9 .bss          000001e8  20000068  08003eac  00005068  2**2
                  ALLOC
 10 ._user_heap_stack 00000600  20000250  08003eac  00005250  2**0
                  ALLOC
 11 .ARM.attributes 00000030  00000000  00000000  00005068  2**0
                  CONTENTS, READONLY
 12 .debug_info   00008fe9  00000000  00000000  00005098  2**0
                  CONTENTS, READONLY, DEBUGGING, OCTETS
 13 .debug_abbrev 00001f04  00000000  00000000  0000e081  2**0
                  CONTENTS, READONLY, DEBUGGING, OCTETS
 14 .debug_aranges 000008d8  00000000  00000000  0000ff88  2**3
                  CONTENTS, READONLY, DEBUGGING, OCTETS
 15 .debug_rnglists 000006a3  00000000  00000000  00010860  2**0
                  CONTENTS, READONLY, DEBUGGING, OCTETS
 16 .debug_macro  00016dcb  00000000  00000000  00010f03  2**0
                  CONTENTS, READONLY, DEBUGGING, OCTETS
 17 .debug_line   0000b882  00000000  00000000  00027cce  2**0
                  CONTENTS, READONLY, DEBUGGING, OCTETS
 18 .debug_str    000883c9  00000000  00000000  00033550  2**0
                  CONTENTS, READONLY, DEBUGGING, OCTETS
 19 .comment      00000043  00000000  00000000  000bb919  2**0
                  CONTENTS, READONLY
 20 .debug_frame  000029ac  00000000  00000000  000bb95c  2**2
                  CONTENTS, READONLY, DEBUGGING, OCTETS
 21 .debug_line_str 0000006a  00000000  00000000  000be308  2**0
                  CONTENTS, READONLY, DEBUGGING, OCTETS

Disassembly of section .text:

080001a0 <__do_global_dtors_aux>:
 80001a0:	b510      	push	{r4, lr}
 80001a2:	4c05      	ldr	r4, [pc, #20]	@ (80001b8 <__do_global_dtors_aux+0x18>)
 80001a4:	7823      	ldrb	r3, [r4, #0]
 80001a6:	b933      	cbnz	r3, 80001b6 <__do_global_dtors_aux+0x16>
 80001a8:	4b04      	ldr	r3, [pc, #16]	@ (80001bc <__do_global_dtors_aux+0x1c>)
 80001aa:	b113      	cbz	r3, 80001b2 <__do_global_dtors_aux+0x12>
 80001ac:	4804      	ldr	r0, [pc, #16]	@ (80001c0 <__do_global_dtors_aux+0x20>)
 80001ae:	f3af 8000 	nop.w
 80001b2:	2301      	movs	r3, #1
 80001b4:	7023      	strb	r3, [r4, #0]
 80001b6:	bd10      	pop	{r4, pc}
 80001b8:	20000068 	.word	0x20000068
 80001bc:	00000000 	.word	0x00000000
 80001c0:	08003a38 	.word	0x08003a38

080001c4 <frame_dummy>:
 80001c4:	b508      	push	{r3, lr}
 80001c6:	4b03      	ldr	r3, [pc, #12]	@ (80001d4 <frame_dummy+0x10>)
 80001c8:	b11b      	cbz	r3, 80001d2 <frame_dummy+0xe>
 80001ca:	4903      	ldr	r1, [pc, #12]	@ (80001d8 <frame_dummy+0x14>)
 80001cc:	4803      	ldr	r0, [pc, #12]	@ (80001dc <frame_dummy+0x18>)
 80001ce:	f3af 8000 	nop.w
 80001d2:	bd08      	pop	{r3, pc}
 80001d4:	00000000 	.word	0x00000000
 80001d8:	2000006c 	.word	0x2000006c
 80001dc:	08003a38 	.word	0x08003a38

080001e0 <memchr>:
 80001e0:	f001 01ff 	and.w	r1, r1, #255	@ 0xff
 80001e4:	2a10      	cmp	r2, #16
 80001e6:	db2b      	blt.n	8000240 <memchr+0x60>
 80001e8:	f010 0f07 	tst.w	r0, #7
 80001ec:	d008      	beq.n	8000200 <memchr+0x20>
 80001ee:	f810 3b01 	ldrb.w	r3, [r0], #1
 80001f2:	3a01      	subs	r2, #1
 80001f4:	428b      	cmp	r3, r1
 80001f6:	d02d      	beq.n	8000254 <memchr+0x74>
 80001f8:	f010 0f07 	tst.w	r0, #7
 80001fc:	b342      	cbz	r2, 8000250 <memchr+0x70>
 80001fe:	d1f6      	bne.n	80001ee <memchr+0xe>
 8000200:	b4f0      	push	{r4, r5, r6, r7}
 8000202:	ea41 2101 	orr.w	r1, r1, r1, lsl #8
 8000206:	ea41 4101 	orr.w	r1, r1, r1, lsl #16
 800020a:	f022 0407 	bic.w	r4, r2, #7
 800020e:	f07f 0700 	mvns.w	r7, #0
 8000212:	2300      	movs	r3, #0
 8000214:	e8f0 5602 	ldrd	r5, r6, [r0], #8
 8000218:	3c08      	subs	r4, #8
 800021a:	ea85 0501 	eor.w	r5, r5, r1
 800021e:	ea86 0601 	eor.w	r6, r6, r1
 8000222:	fa85 f547 	uadd8	r5, r5, r7
 8000226:	faa3 f587 	sel	r5, r3, r7
 800022a:	fa86 f647 	uadd8	r6, r6, r7
 800022e:	faa5 f687 	sel	r6, r5, r7
 8000232:	b98e      	cbnz	r6, 8000258 <memchr+0x78>
 8000234:	d1ee      	bne.n	8000214 <memchr+0x34>
 8000236:	bcf0      	pop	{r4, r5, r6, r7}
 8000238:	f001 01ff 	and.w	r1, r1, #255	@ 0xff
 800023c:	f002 0207 	and.w	r2, r2, #7
 8000240:	b132      	cbz	r2, 8000250 <memchr+0x70>
 8000242:	f810 3b01 	ldrb.w	r3, [r0], #1
 8000246:	3a01      	subs	r2, #1
 8000248:	ea83 0301 	eor.w	r3, r3, r1
 800024c:	b113      	cbz	r3, 8000254 <memchr+0x74>
 800024e:	d1f8      	bne.n	8000242 <memchr+0x62>
 8000250:	2000      	movs	r0, #0
 8000252:	4770      	bx	lr
 8000254:	3801      	subs	r0, #1
 8000256:	4770      	bx	lr
 8000258:	2d00      	cmp	r5, #0
 800025a:	bf06      	itte	eq
 800025c:	4635      	moveq	r5, r6
 800025e:	3803      	subeq	r0, #3
 8000260:	3807      	subne	r0, #7
 8000262:	f015 0f01 	tst.w	r5, #1
 8000266:	d107      	bne.n	8000278 <memchr+0x98>
 8000268:	3001      	adds	r0, #1
 800026a:	f415 7f80 	tst.w	r5, #256	@ 0x100
 800026e:	bf02      	ittt	eq
 8000270:	3001      	addeq	r0, #1
 8000272:	f415 3fc0 	tsteq.w	r5, #98304	@ 0x18000
 8000276:	3001      	addeq	r0, #1
 8000278:	bcf0      	pop	{r4, r5, r6, r7}
 800027a:	3801      	subs	r0, #1
 800027c:	4770      	bx	lr
 800027e:	bf00      	nop

08000280 <__aeabi_uldivmod>:
 8000280:	b953      	cbnz	r3, 8000298 <__aeabi_uldivmod+0x18>
 8000282:	b94a      	cbnz	r2, 8000298 <__aeabi_uldivmod+0x18>
 8000284:	2900      	cmp	r1, #0
 8000286:	bf08      	it	eq
 8000288:	2800      	cmpeq	r0, #0
 800028a:	bf1c      	itt	ne
 800028c:	f04f 31ff 	movne.w	r1, #4294967295
 8000290:	f04f 30ff 	movne.w	r0, #4294967295
 8000294:	f000 b96a 	b.w	800056c <__aeabi_idiv0>
 8000298:	f1ad 0c08 	sub.w	ip, sp, #8
 800029c:	e96d ce04 	strd	ip, lr, [sp, #-16]!
 80002a0:	f000 f806 	bl	80002b0 <__udivmoddi4>
 80002a4:	f8dd e004 	ldr.w	lr, [sp, #4]
 80002a8:	e9dd 2302 	ldrd	r2, r3, [sp, #8]
 80002ac:	b004      	add	sp, #16
 80002ae:	4770      	bx	lr

080002b0 <__udivmoddi4>:
 80002b0:	e92d 47f0 	stmdb	sp!, {r4, r5, r6, r7, r8, r9, sl, lr}
 80002b4:	9d08      	ldr	r5, [sp, #32]
 80002b6:	460c      	mov	r4, r1
 80002b8:	2b00      	cmp	r3, #0
 80002ba:	d14e      	bne.n	800035a <__udivmoddi4+0xaa>
 80002bc:	4694      	mov	ip, r2
 80002be:	458c      	cmp	ip, r1
 80002c0:	4686      	mov	lr, r0
 80002c2:	fab2 f282 	clz	r2, r2
 80002c6:	d962      	bls.n	800038e <__udivmoddi4+0xde>
 80002c8:	b14a      	cbz	r2, 80002de <__udivmoddi4+0x2e>
 80002ca:	f1c2 0320 	rsb	r3, r2, #32
 80002ce:	4091      	lsls	r1, r2
 80002d0:	fa20 f303 	lsr.w	r3, r0, r3
 80002d4:	fa0c fc02 	lsl.w	ip, ip, r2
 80002d8:	4319      	orrs	r1, r3
 80002da:	fa00 fe02 	lsl.w	lr, r0, r2
 80002de:	ea4f 471c 	mov.w	r7, ip, lsr #16
 80002e2:	fa1f f68c 	uxth.w	r6, ip
 80002e6:	fbb1 f4f7 	udiv	r4, r1, r7
 80002ea:	ea4f 431e 	mov.w	r3, lr, lsr #16
 80002ee:	fb07 1114 	mls	r1, r7, r4, r1
 80002f2:	ea43 4301 	orr.w	r3, r3, r1, lsl #16
 80002f6:	fb04 f106 	mul.w	r1, r4, r6
 80002fa:	4299      	cmp	r1, r3
 80002fc:	d90a      	bls.n	8000314 <__udivmoddi4+0x64>
 80002fe:	eb1c 0303 	adds.w	r3, ip, r3
 8000302:	f104 30ff 	add.w	r0, r4, #4294967295
 8000306:	f080 8112 	bcs.w	800052e <__udivmoddi4+0x27e>
 800030a:	4299      	cmp	r1, r3
 800030c:	f240 810f 	bls.w	800052e <__udivmoddi4+0x27e>
 8000310:	3c02      	subs	r4, #2
 8000312:	4463      	add	r3, ip
 8000314:	1a59      	subs	r1, r3, r1
 8000316:	fa1f f38e 	uxth.w	r3, lr
 800031a:	fbb1 f0f7 	udiv	r0, r1, r7
 800031e:	fb07 1110 	mls	r1, r7, r0, r1
 8000322:	ea43 4301 	orr.w	r3, r3, r1, lsl #16
 8000326:	fb00 f606 	mul.w	r6, r0, r6
 800032a:	429e      	cmp	r6, r3
 800032c:	d90a      	bls.n	8000344 <__udivmoddi4+0x94>
 800032e:	eb1c 0303 	adds.w	r3, ip, r3
 8000332:	f100 31ff 	add.w	r1, r0, #4294967295
 8000336:	f080 80fc 	bcs.w	8000532 <__udivmoddi4+0x282>
 800033a:	429e      	cmp	r6, r3
 800033c:	f240 80f9 	bls.w	8000532 <__udivmoddi4+0x282>
 8000340:	4463      	add	r3, ip
 8000342:	3802      	subs	r0, #2
 8000344:	1b9b      	subs	r3, r3, r6
 8000346:	ea40 4004 	orr.w	r0, r0, r4, lsl #16
 800034a:	2100      	movs	r1, #0
 800034c:	b11d      	cbz	r5, 8000356 <__udivmoddi4+0xa6>
 800034e:	40d3      	lsrs	r3, r2
 8000350:	2200      	movs	r2, #0
 8000352:	e9c5 3200 	strd	r3, r2, [r5]
 8000356:	e8bd 87f0 	ldmia.w	sp!, {r4, r5, r6, r7, r8, r9, sl, pc}
 800035a:	428b      	cmp	r3, r1
 800035c:	d905      	bls.n	800036a <__udivmoddi4+0xba>
 800035e:	b10d      	cbz	r5, 8000364 <__udivmoddi4+0xb4>
 8000360:	e9c5 0100 	strd	r0, r1, [r5]
 8000364:	2100      	movs	r1, #0
 8000366:	4608      	mov	r0, r1
 8000368:	e7f5      	b.n	8000356 <__udivmoddi4+0xa6>
 800036a:	fab3 f183 	clz	r1, r3
 800036e:	2900      	cmp	r1, #0
 8000370:	d146      	bne.n	8000400 <__udivmoddi4+0x150>
 8000372:	42a3      	cmp	r3, r4
 8000374:	d302      	bcc.n	800037c <__udivmoddi4+0xcc>
 8000376:	4290      	cmp	r0, r2
 8000378:	f0c0 80f0 	bcc.w	800055c <__udivmoddi4+0x2ac>
 800037c:	1a86      	subs	r6, r0, r2
 800037e:	eb64 0303 	sbc.w	r3, r4, r3
 8000382:	2001      	movs	r0, #1
 8000384:	2d00      	cmp	r5, #0
 8000386:	d0e6      	beq.n	8000356 <__udivmoddi4+0xa6>
 8000388:	e9c5 6300 	strd	r6, r3, [r5]
 800038c:	e7e3      	b.n	8000356 <__udivmoddi4+0xa6>
 800038e:	2a00      	cmp	r2, #0
 8000390:	f040 8090 	bne.w	80004b4 <__udivmoddi4+0x204>
 8000394:	eba1 040c 	sub.w	r4, r1, ip
 8000398:	ea4f 481c 	mov.w	r8, ip, lsr #16
 800039c:	fa1f f78c 	uxth.w	r7, ip
 80003a0:	2101      	movs	r1, #1
 80003a2:	fbb4 f6f8 	udiv	r6, r4, r8
 80003a6:	ea4f 431e 	mov.w	r3, lr, lsr #16
 80003aa:	fb08 4416 	mls	r4, r8, r6, r4
 80003ae:	ea43 4304 	orr.w	r3, r3, r4, lsl #16
 80003b2:	fb07 f006 	mul.w	r0, r7, r6
 80003b6:	4298      	cmp	r0, r3
 80003b8:	d908      	bls.n	80003cc <__udivmoddi4+0x11c>
 80003ba:	eb1c 0303 	adds.w	r3, ip, r3
 80003be:	f106 34ff 	add.w	r4, r6, #4294967295
 80003c2:	d202      	bcs.n	80003ca <__udivmoddi4+0x11a>
 80003c4:	4298      	cmp	r0, r3
 80003c6:	f200 80cd 	bhi.w	8000564 <__udivmoddi4+0x2b4>
 80003ca:	4626      	mov	r6, r4
 80003cc:	1a1c      	subs	r4, r3, r0
 80003ce:	fa1f f38e 	uxth.w	r3, lr
 80003d2:	fbb4 f0f8 	udiv	r0, r4, r8
 80003d6:	fb08 4410 	mls	r4, r8, r0, r4
 80003da:	ea43 4304 	orr.w	r3, r3, r4, lsl #16
 80003de:	fb00 f707 	mul.w	r7, r0, r7
 80003e2:	429f      	cmp	r7, r3
 80003e4:	d908      	bls.n	80003f8 <__udivmoddi4+0x148>
 80003e6:	eb1c 0303 	adds.w	r3, ip, r3
 80003ea:	f100 34ff 	add.w	r4, r0, #4294967295
 80003ee:	d202      	bcs.n	80003f6 <__udivmoddi4+0x146>
 80003f0:	429f      	cmp	r7, r3
 80003f2:	f200 80b0 	bhi.w	8000556 <__udivmoddi4+0x2a6>
 80003f6:	4620      	mov	r0, r4
 80003f8:	1bdb      	subs	r3, r3, r7
 80003fa:	ea40 4006 	orr.w	r0, r0, r6, lsl #16
 80003fe:	e7a5      	b.n	800034c <__udivmoddi4+0x9c>
 8000400:	f1c1 0620 	rsb	r6, r1, #32
 8000404:	408b      	lsls	r3, r1
 8000406:	fa22 f706 	lsr.w	r7, r2, r6
 800040a:	431f      	orrs	r7, r3
 800040c:	fa20 fc06 	lsr.w	ip, r0, r6
 8000410:	fa04 f301 	lsl.w	r3, r4, r1
 8000414:	ea43 030c 	orr.w	r3, r3, ip
 8000418:	40f4      	lsrs	r4, r6
 800041a:	fa00 f801 	lsl.w	r8, r0, r1
 800041e:	0c38      	lsrs	r0, r7, #16
 8000420:	ea4f 4913 	mov.w	r9, r3, lsr #16
 8000424:	fbb4 fef0 	udiv	lr, r4, r0
 8000428:	fa1f fc87 	uxth.w	ip, r7
 800042c:	fb00 441e 	mls	r4, r0, lr, r4
 8000430:	ea49 4404 	orr.w	r4, r9, r4, lsl #16
 8000434:	fb0e f90c 	mul.w	r9, lr, ip
 8000438:	45a1      	cmp	r9, r4
 800043a:	fa02 f201 	lsl.w	r2, r2, r1
 800043e:	d90a      	bls.n	8000456 <__udivmoddi4+0x1a6>
 8000440:	193c      	adds	r4, r7, r4
 8000442:	f10e 3aff 	add.w	sl, lr, #4294967295
 8000446:	f080 8084 	bcs.w	8000552 <__udivmoddi4+0x2a2>
 800044a:	45a1      	cmp	r9, r4
 800044c:	f240 8081 	bls.w	8000552 <__udivmoddi4+0x2a2>
 8000450:	f1ae 0e02 	sub.w	lr, lr, #2
 8000454:	443c      	add	r4, r7
 8000456:	eba4 0409 	sub.w	r4, r4, r9
 800045a:	fa1f f983 	uxth.w	r9, r3
 800045e:	fbb4 f3f0 	udiv	r3, r4, r0
 8000462:	fb00 4413 	mls	r4, r0, r3, r4
 8000466:	ea49 4404 	orr.w	r4, r9, r4, lsl #16
 800046a:	fb03 fc0c 	mul.w	ip, r3, ip
 800046e:	45a4      	cmp	ip, r4
 8000470:	d907      	bls.n	8000482 <__udivmoddi4+0x1d2>
 8000472:	193c      	adds	r4, r7, r4
 8000474:	f103 30ff 	add.w	r0, r3, #4294967295
 8000478:	d267      	bcs.n	800054a <__udivmoddi4+0x29a>
 800047a:	45a4      	cmp	ip, r4
 800047c:	d965      	bls.n	800054a <__udivmoddi4+0x29a>
 800047e:	3b02      	subs	r3, #2
 8000480:	443c      	add	r4, r7
 8000482:	ea43 400e 	orr.w	r0, r3, lr, lsl #16
 8000486:	fba0 9302 	umull	r9, r3, r0, r2
 800048a:	eba4 040c 	sub.w	r4, r4, ip
 800048e:	429c      	cmp	r4, r3
 8000490:	46ce      	mov	lr, r9
 8000492:	469c      	mov	ip, r3
 8000494:	d351      	bcc.n	800053a <__udivmoddi4+0x28a>
 8000496:	d04e      	beq.n	8000536 <__udivmoddi4+0x286>
 8000498:	b155      	cbz	r5, 80004b0 <__udivmoddi4+0x200>
 800049a:	ebb8 030e 	subs.w	r3, r8, lr
 800049e:	eb64 040c 	sbc.w	r4, r4, ip
 80004a2:	fa04 f606 	lsl.w	r6, r4, r6
 80004a6:	40cb      	lsrs	r3, r1
 80004a8:	431e      	orrs	r6, r3
 80004aa:	40cc      	lsrs	r4, r1
 80004ac:	e9c5 6400 	strd	r6, r4, [r5]
 80004b0:	2100      	movs	r1, #0
 80004b2:	e750      	b.n	8000356 <__udivmoddi4+0xa6>
 80004b4:	f1c2 0320 	rsb	r3, r2, #32
 80004b8:	fa20 f103 	lsr.w	r1, r0, r3
 80004bc:	fa0c fc02 	lsl.w	ip, ip, r2
 80004c0:	fa24 f303 	lsr.w	r3, r4, r3
 80004c4:	4094      	lsls	r4, r2
 80004c6:	430c      	orrs	r4, r1
 80004c8:	ea4f 481c 	mov.w	r8, ip, lsr #16
 80004cc:	fa00 fe02 	lsl.w	lr, r0, r2
 80004d0:	fa1f f78c 	uxth.w	r7, ip
 80004d4:	fbb3 f0f8 	udiv	r0, r3, r8
 80004d8:	fb08 3110 	mls	r1, r8, r0, r3
 80004dc:	0c23      	lsrs	r3, r4, #16
 80004de:	ea43 4301 	orr.w	r3, r3, r1, lsl #16
 80004e2:	fb00 f107 	mul.w	r1, r0, r7
 80004e6:	4299      	cmp	r1, r3
 80004e8:	d908      	bls.n	80004fc <__udivmoddi4+0x24c>
 80004ea:	eb1c 0303 	adds.w	r3, ip, r3
 80004ee:	f100 36ff 	add.w	r6, r0, #4294967295
 80004f2:	d22c      	bcs.n	800054e <__udivmoddi4+0x29e>
 80004f4:	4299      	cmp	r1, r3
 80004f6:	d92a      	bls.n	800054e <__udivmoddi4+0x29e>
 80004f8:	3802      	subs	r0, #2
 80004fa:	4463      	add	r3, ip
 80004fc:	1a5b      	subs	r3, r3, r1
 80004fe:	b2a4      	uxth	r4, r4
 8000500:	fbb3 f1f8 	udiv	r1, r3, r8
 8000504:	fb08 3311 	mls	r3, r8, r1, r3
 8000508:	ea44 4403 	orr.w	r4, r4, r3, lsl #16
 800050c:	fb01 f307 	mul.w	r3, r1, r7
 8000510:	42a3      	cmp	r3, r4
 8000512:	d908      	bls.n	8000526 <__udivmoddi4+0x276>
 8000514:	eb1c 0404 	adds.w	r4, ip, r4
 8000518:	f101 36ff 	add.w	r6, r1, #4294967295
 800051c:	d213      	bcs.n	8000546 <__udivmoddi4+0x296>
 800051e:	42a3      	cmp	r3, r4
 8000520:	d911      	bls.n	8000546 <__udivmoddi4+0x296>
 8000522:	3902      	subs	r1, #2
 8000524:	4464      	add	r4, ip
 8000526:	1ae4      	subs	r4, r4, r3
 8000528:	ea41 4100 	orr.w	r1, r1, r0, lsl #16
 800052c:	e739      	b.n	80003a2 <__udivmoddi4+0xf2>
 800052e:	4604      	mov	r4, r0
 8000530:	e6f0      	b.n	8000314 <__udivmoddi4+0x64>
 8000532:	4608      	mov	r0, r1
 8000534:	e706      	b.n	8000344 <__udivmoddi4+0x94>
 8000536:	45c8      	cmp	r8, r9
 8000538:	d2ae      	bcs.n	8000498 <__udivmoddi4+0x1e8>
 800053a:	ebb9 0e02 	subs.w	lr, r9, r2
 800053e:	eb63 0c07 	sbc.w	ip, r3, r7
 8000542:	3801      	subs	r0, #1
 8000544:	e7a8      	b.n	8000498 <__udivmoddi4+0x1e8>
 8000546:	4631      	mov	r1, r6
 8000548:	e7ed      	b.n	8000526 <__udivmoddi4+0x276>
 800054a:	4603      	mov	r3, r0
 800054c:	e799      	b.n	8000482 <__udivmoddi4+0x1d2>
 800054e:	4630      	mov	r0, r6
 8000550:	e7d4      	b.n	80004fc <__udivmoddi4+0x24c>
 8000552:	46d6      	mov	lr, sl
 8000554:	e77f      	b.n	8000456 <__udivmoddi4+0x1a6>
 8000556:	4463      	add	r3, ip
 8000558:	3802      	subs	r0, #2
 800055a:	e74d      	b.n	80003f8 <__udivmoddi4+0x148>
 800055c:	4606      	mov	r6, r0
 800055e:	4623      	mov	r3, r4
 8000560:	4608      	mov	r0, r1
 8000562:	e70f      	b.n	8000384 <__udivmoddi4+0xd4>
 8000564:	3e02      	subs	r6, #2
 8000566:	4463      	add	r3, ip
 8000568:	e730      	b.n	80003cc <__udivmoddi4+0x11c>
 800056a:	bf00      	nop

0800056c <__aeabi_idiv0>:
 800056c:	4770      	bx	lr
 800056e:	bf00      	nop

08000570 <MX_GPIO_Init>:
        * Output
        * EVENT_OUT
        * EXTI
*/
void MX_GPIO_Init(void)
{
 8000570:	b580      	push	{r7, lr}
 8000572:	b088      	sub	sp, #32
 8000574:	af00      	add	r7, sp, #0

  GPIO_InitTypeDef GPIO_InitStruct = {0};
 8000576:	f107 030c 	add.w	r3, r7, #12
 800057a:	2200      	movs	r2, #0
 800057c:	601a      	str	r2, [r3, #0]
 800057e:	605a      	str	r2, [r3, #4]
 8000580:	609a      	str	r2, [r3, #8]
 8000582:	60da      	str	r2, [r3, #12]
 8000584:	611a      	str	r2, [r3, #16]

  /* GPIO Ports Clock Enable */
  __HAL_RCC_GPIOH_CLK_ENABLE();
 8000586:	2300      	movs	r3, #0
 8000588:	60bb      	str	r3, [r7, #8]
 800058a:	4b18      	ldr	r3, [pc, #96]	@ (80005ec <MX_GPIO_Init+0x7c>)
 800058c:	6b1b      	ldr	r3, [r3, #48]	@ 0x30
 800058e:	4a17      	ldr	r2, [pc, #92]	@ (80005ec <MX_GPIO_Init+0x7c>)
 8000590:	f043 0380 	orr.w	r3, r3, #128	@ 0x80
 8000594:	6313      	str	r3, [r2, #48]	@ 0x30
 8000596:	4b15      	ldr	r3, [pc, #84]	@ (80005ec <MX_GPIO_Init+0x7c>)
 8000598:	6b1b      	ldr	r3, [r3, #48]	@ 0x30
 800059a:	f003 0380 	and.w	r3, r3, #128	@ 0x80
 800059e:	60bb      	str	r3, [r7, #8]
 80005a0:	68bb      	ldr	r3, [r7, #8]
  __HAL_RCC_GPIOA_CLK_ENABLE();
 80005a2:	2300      	movs	r3, #0
 80005a4:	607b      	str	r3, [r7, #4]
 80005a6:	4b11      	ldr	r3, [pc, #68]	@ (80005ec <MX_GPIO_Init+0x7c>)
 80005a8:	6b1b      	ldr	r3, [r3, #48]	@ 0x30
 80005aa:	4a10      	ldr	r2, [pc, #64]	@ (80005ec <MX_GPIO_Init+0x7c>)
 80005ac:	f043 0301 	orr.w	r3, r3, #1
 80005b0:	6313      	str	r3, [r2, #48]	@ 0x30
 80005b2:	4b0e      	ldr	r3, [pc, #56]	@ (80005ec <MX_GPIO_Init+0x7c>)
 80005b4:	6b1b      	ldr	r3, [r3, #48]	@ 0x30
 80005b6:	f003 0301 	and.w	r3, r3, #1
 80005ba:	607b      	str	r3, [r7, #4]
 80005bc:	687b      	ldr	r3, [r7, #4]

  /*Configure GPIO pin Output Level */
  HAL_GPIO_WritePin(GPIOA, GPIO_PIN_0, GPIO_PIN_SET);
 80005be:	2201      	movs	r2, #1
 80005c0:	2101      	movs	r1, #1
 80005c2:	480b      	ldr	r0, [pc, #44]	@ (80005f0 <MX_GPIO_Init+0x80>)
 80005c4:	f001 f874 	bl	80016b0 <HAL_GPIO_WritePin>

  /*Configure GPIO pin : PA0 */
  GPIO_InitStruct.Pin = GPIO_PIN_0;
 80005c8:	2301      	movs	r3, #1
 80005ca:	60fb      	str	r3, [r7, #12]
  GPIO_InitStruct.Mode = GPIO_MODE_OUTPUT_PP;
 80005cc:	2301      	movs	r3, #1
 80005ce:	613b      	str	r3, [r7, #16]
  GPIO_InitStruct.Pull = GPIO_NOPULL;
 80005d0:	2300      	movs	r3, #0
 80005d2:	617b      	str	r3, [r7, #20]
  GPIO_InitStruct.Speed = GPIO_SPEED_FREQ_LOW;
 80005d4:	2300      	movs	r3, #0
 80005d6:	61bb      	str	r3, [r7, #24]
  HAL_GPIO_Init(GPIOA, &GPIO_InitStruct);
 80005d8:	f107 030c 	add.w	r3, r7, #12
 80005dc:	4619      	mov	r1, r3
 80005de:	4804      	ldr	r0, [pc, #16]	@ (80005f0 <MX_GPIO_Init+0x80>)
 80005e0:	f000 fee2 	bl	80013a8 <HAL_GPIO_Init>

}
 80005e4:	bf00      	nop
 80005e6:	3720      	adds	r7, #32
 80005e8:	46bd      	mov	sp, r7
 80005ea:	bd80      	pop	{r7, pc}
 80005ec:	40023800 	.word	0x40023800
 80005f0:	40020000 	.word	0x40020000

080005f4 <__io_putchar>:
/* Private function prototypes -----------------------------------------------*/
void SystemClock_Config(void);
/* USER CODE BEGIN PFP */

PUTCHAR_PROTOTYPE
{
 80005f4:	b580      	push	{r7, lr}
 80005f6:	b082      	sub	sp, #8
 80005f8:	af00      	add	r7, sp, #0
 80005fa:	6078      	str	r0, [r7, #4]
	HAL_UART_Transmit(&huart1, (uint8_t*)&ch,1,HAL_MAX_DELAY);
 80005fc:	1d39      	adds	r1, r7, #4
 80005fe:	f04f 33ff 	mov.w	r3, #4294967295
 8000602:	2201      	movs	r2, #1
 8000604:	4803      	ldr	r0, [pc, #12]	@ (8000614 <__io_putchar+0x20>)
 8000606:	f001 fd15 	bl	8002034 <HAL_UART_Transmit>
    return ch;
 800060a:	687b      	ldr	r3, [r7, #4]
}
 800060c:	4618      	mov	r0, r3
 800060e:	3708      	adds	r7, #8
 8000610:	46bd      	mov	sp, r7
 8000612:	bd80      	pop	{r7, pc}
 8000614:	20000098 	.word	0x20000098

08000618 <IAP_LoadAPP>:

/* Private user code ---------------------------------------------------------*/
/* USER CODE BEGIN 0 */

uint8_t IAP_LoadAPP(uint32_t AppxAddr)
{
 8000618:	b580      	push	{r7, lr}
 800061a:	b084      	sub	sp, #16
 800061c:	af00      	add	r7, sp, #0
 800061e:	6078      	str	r0, [r7, #4]
	if (((*(__IO uint32_t*)AppxAddr) & 0x2FFE0000 ) == 0x20000000)
 8000620:	687b      	ldr	r3, [r7, #4]
 8000622:	681a      	ldr	r2, [r3, #0]
 8000624:	4b0f      	ldr	r3, [pc, #60]	@ (8000664 <IAP_LoadAPP+0x4c>)
 8000626:	4013      	ands	r3, r2
 8000628:	f1b3 5f00 	cmp.w	r3, #536870912	@ 0x20000000
 800062c:	d115      	bne.n	800065a <IAP_LoadAPP+0x42>
	{
		/* Jump to user application */
		JumpAddress = *(__IO uint32_t*) (AppxAddr + 4); //PC指针地址
 800062e:	687b      	ldr	r3, [r7, #4]
 8000630:	3304      	adds	r3, #4
 8000632:	681b      	ldr	r3, [r3, #0]
 8000634:	4a0c      	ldr	r2, [pc, #48]	@ (8000668 <IAP_LoadAPP+0x50>)
 8000636:	6013      	str	r3, [r2, #0]
		JumpToApplication = (pFunction) JumpAddress;
 8000638:	4b0b      	ldr	r3, [pc, #44]	@ (8000668 <IAP_LoadAPP+0x50>)
 800063a:	681b      	ldr	r3, [r3, #0]
 800063c:	461a      	mov	r2, r3
 800063e:	4b0b      	ldr	r3, [pc, #44]	@ (800066c <IAP_LoadAPP+0x54>)
 8000640:	601a      	str	r2, [r3, #0]
		/* Initialize user application's Stack Pointer */
		__set_MSP(*(__IO uint32_t*) AppxAddr); //设置MSP指针
 8000642:	687b      	ldr	r3, [r7, #4]
 8000644:	681b      	ldr	r3, [r3, #0]
 8000646:	60fb      	str	r3, [r7, #12]
  \details Assigns the given value to the Main Stack Pointer (MSP).
  \param [in]    topOfMainStack  Main Stack Pointer value to set
 */
__STATIC_FORCEINLINE void __set_MSP(uint32_t topOfMainStack)
{
  __ASM volatile ("MSR msp, %0" : : "r" (topOfMainStack) : );
 8000648:	68fb      	ldr	r3, [r7, #12]
 800064a:	f383 8808 	msr	MSP, r3
}
 800064e:	bf00      	nop
		JumpToApplication();
 8000650:	4b06      	ldr	r3, [pc, #24]	@ (800066c <IAP_LoadAPP+0x54>)
 8000652:	681b      	ldr	r3, [r3, #0]
 8000654:	4798      	blx	r3
		return 0;
 8000656:	2300      	movs	r3, #0
 8000658:	e000      	b.n	800065c <IAP_LoadAPP+0x44>
	}
	return -1;
 800065a:	23ff      	movs	r3, #255	@ 0xff
}
 800065c:	4618      	mov	r0, r3
 800065e:	3710      	adds	r7, #16
 8000660:	46bd      	mov	sp, r7
 8000662:	bd80      	pop	{r7, pc}
 8000664:	2ffe0000 	.word	0x2ffe0000
 8000668:	2000008c 	.word	0x2000008c
 800066c:	20000088 	.word	0x20000088

08000670 <print_boot_message>:

void print_boot_message(void)
{
 8000670:	b580      	push	{r7, lr}
 8000672:	af00      	add	r7, sp, #0
    printf("--------- Enter Vernon BootLoader --------\r\n");
 8000674:	4817      	ldr	r0, [pc, #92]	@ (80006d4 <print_boot_message+0x64>)
 8000676:	f002 fb7b 	bl	8002d70 <puts>
    printf("\r\n");
 800067a:	4817      	ldr	r0, [pc, #92]	@ (80006d8 <print_boot_message+0x68>)
 800067c:	f002 fb78 	bl	8002d70 <puts>
    printf("========= flash partition table ==========\r\n");
 8000680:	4816      	ldr	r0, [pc, #88]	@ (80006dc <print_boot_message+0x6c>)
 8000682:	f002 fb75 	bl	8002d70 <puts>
    printf("|     name     |   offset   |    size    |\r\n");
 8000686:	4816      	ldr	r0, [pc, #88]	@ (80006e0 <print_boot_message+0x70>)
 8000688:	f002 fb72 	bl	8002d70 <puts>
    printf("--------------------------------------\r\n");
 800068c:	4815      	ldr	r0, [pc, #84]	@ (80006e4 <print_boot_message+0x74>)
 800068e:	f002 fb6f 	bl	8002d70 <puts>
    printf("| bootloader   | 0x%08lx | 0x%08x |\r\n", BOOT_SECTOR_ADDR, BOOT_SECTOR_SIZE);
 8000692:	f44f 4280 	mov.w	r2, #16384	@ 0x4000
 8000696:	f04f 6100 	mov.w	r1, #134217728	@ 0x8000000
 800069a:	4813      	ldr	r0, [pc, #76]	@ (80006e8 <print_boot_message+0x78>)
 800069c:	f002 fb00 	bl	8002ca0 <iprintf>
    printf("| setting      | 0x%08lx | 0x%08x |\r\n", SETTING_SECTOR_ADDR, SETTING_SECTOR_SIZE);
 80006a0:	f44f 4280 	mov.w	r2, #16384	@ 0x4000
 80006a4:	4911      	ldr	r1, [pc, #68]	@ (80006ec <print_boot_message+0x7c>)
 80006a6:	4812      	ldr	r0, [pc, #72]	@ (80006f0 <print_boot_message+0x80>)
 80006a8:	f002 fafa 	bl	8002ca0 <iprintf>
    printf("| application1 | 0x%08lx | 0x%08x |\r\n", APP_SECTOR_ADDR, APP_SECTOR_SIZE);
 80006ac:	f44f 3260 	mov.w	r2, #229376	@ 0x38000
 80006b0:	4910      	ldr	r1, [pc, #64]	@ (80006f4 <print_boot_message+0x84>)
 80006b2:	4811      	ldr	r0, [pc, #68]	@ (80006f8 <print_boot_message+0x88>)
 80006b4:	f002 faf4 	bl	8002ca0 <iprintf>
    printf("| application2 | 0x%08lx | 0x%08x |\r\n", APP2_SECTOR_ADDR, APP2_SECTOR_SIZE);
 80006b8:	f44f 2280 	mov.w	r2, #262144	@ 0x40000
 80006bc:	490f      	ldr	r1, [pc, #60]	@ (80006fc <print_boot_message+0x8c>)
 80006be:	4810      	ldr	r0, [pc, #64]	@ (8000700 <print_boot_message+0x90>)
 80006c0:	f002 faee 	bl	8002ca0 <iprintf>
    printf("==========================================\r\n");
 80006c4:	480f      	ldr	r0, [pc, #60]	@ (8000704 <print_boot_message+0x94>)
 80006c6:	f002 fb53 	bl	8002d70 <puts>
    printf("\r\n");
 80006ca:	4803      	ldr	r0, [pc, #12]	@ (80006d8 <print_boot_message+0x68>)
 80006cc:	f002 fb50 	bl	8002d70 <puts>
}
 80006d0:	bf00      	nop
 80006d2:	bd80      	pop	{r7, pc}
 80006d4:	08003a50 	.word	0x08003a50
 80006d8:	08003a7c 	.word	0x08003a7c
 80006dc:	08003a80 	.word	0x08003a80
 80006e0:	08003aac 	.word	0x08003aac
 80006e4:	08003ad8 	.word	0x08003ad8
 80006e8:	08003b00 	.word	0x08003b00
 80006ec:	08004000 	.word	0x08004000
 80006f0:	08003b28 	.word	0x08003b28
 80006f4:	08008000 	.word	0x08008000
 80006f8:	08003b50 	.word	0x08003b50
 80006fc:	08040000 	.word	0x08040000
 8000700:	08003b78 	.word	0x08003b78
 8000704:	08003ba0 	.word	0x08003ba0

08000708 <main>:
/**
  * @brief  The application entry point.
  * @retval int
  */
int main(void)
{
 8000708:	b580      	push	{r7, lr}
 800070a:	b082      	sub	sp, #8
 800070c:	af00      	add	r7, sp, #0
  /* USER CODE END 1 */

  /* MCU Configuration--------------------------------------------------------*/

  /* Reset of all peripherals, Initializes the Flash interface and the Systick. */
  HAL_Init();
 800070e:	f000 fac5 	bl	8000c9c <HAL_Init>
  /* USER CODE BEGIN Init */

  /* USER CODE END Init */

  /* Configure the system clock */
  SystemClock_Config();
 8000712:	f000 f88b 	bl	800082c <SystemClock_Config>
  /* USER CODE BEGIN SysInit */

  /* USER CODE END SysInit */

  /* Initialize all configured peripherals */
  MX_GPIO_Init();
 8000716:	f7ff ff2b 	bl	8000570 <MX_GPIO_Init>
  MX_USART1_UART_Init();
 800071a:	f000 fa23 	bl	8000b64 <MX_USART1_UART_Init>
  /* USER CODE BEGIN 2 */

  print_boot_message();
 800071e:	f7ff ffa7 	bl	8000670 <print_boot_message>
//  if(err != 0)
//  {
//	  printf("FLASH ERROR!\r\n");
//  }

  boot_state = read_settings_boot_state();
 8000722:	f002 f97d 	bl	8002a20 <read_settings_boot_state>
 8000726:	4603      	mov	r3, r0
 8000728:	71fb      	strb	r3, [r7, #7]
  boot_partition_select = read_settings_boot_partition();
 800072a:	f002 f9e9 	bl	8002b00 <read_settings_boot_partition>
 800072e:	4603      	mov	r3, r0
 8000730:	71bb      	strb	r3, [r7, #6]

  switch(boot_state)
 8000732:	f997 3007 	ldrsb.w	r3, [r7, #7]
 8000736:	2b02      	cmp	r3, #2
 8000738:	d036      	beq.n	80007a8 <main+0xa0>
 800073a:	2b02      	cmp	r3, #2
 800073c:	dc47      	bgt.n	80007ce <main+0xc6>
 800073e:	2b00      	cmp	r3, #0
 8000740:	d002      	beq.n	8000748 <main+0x40>
 8000742:	2b01      	cmp	r3, #1
 8000744:	d02c      	beq.n	80007a0 <main+0x98>
 8000746:	e042      	b.n	80007ce <main+0xc6>
  {
	  case RUN_APP_STATE:
		  printf("[Bootloader]Start to run APP[%d] ...\r\n", boot_partition_select);
 8000748:	f997 3006 	ldrsb.w	r3, [r7, #6]
 800074c:	4619      	mov	r1, r3
 800074e:	482c      	ldr	r0, [pc, #176]	@ (8000800 <main+0xf8>)
 8000750:	f002 faa6 	bl	8002ca0 <iprintf>
		  if(boot_partition_select == RUN_APP1_partition){
 8000754:	f997 3006 	ldrsb.w	r3, [r7, #6]
 8000758:	2b01      	cmp	r3, #1
 800075a:	d10c      	bne.n	8000776 <main+0x6e>
			  err = IAP_LoadAPP(APP_SECTOR_ADDR);
 800075c:	4829      	ldr	r0, [pc, #164]	@ (8000804 <main+0xfc>)
 800075e:	f7ff ff5b 	bl	8000618 <IAP_LoadAPP>
 8000762:	4603      	mov	r3, r0
 8000764:	717b      	strb	r3, [r7, #5]
			  if(err != 0)
 8000766:	f997 3005 	ldrsb.w	r3, [r7, #5]
 800076a:	2b00      	cmp	r3, #0
 800076c:	d036      	beq.n	80007dc <main+0xd4>
			  {
				  printf("[Bootloader]Run App error, please flash the new bin...\r\n");
 800076e:	4826      	ldr	r0, [pc, #152]	@ (8000808 <main+0x100>)
 8000770:	f002 fafe 	bl	8002d70 <puts>
			  }
		  }else{
			  printf("[Bootloader]Can not find the select settings of the partition\r\n");
		  }

		  break;
 8000774:	e032      	b.n	80007dc <main+0xd4>
		  }else if(boot_partition_select == RUN_APP2_partition){
 8000776:	f997 3006 	ldrsb.w	r3, [r7, #6]
 800077a:	2b02      	cmp	r3, #2
 800077c:	d10c      	bne.n	8000798 <main+0x90>
			  err = IAP_LoadAPP(APP2_SECTOR_ADDR);
 800077e:	4823      	ldr	r0, [pc, #140]	@ (800080c <main+0x104>)
 8000780:	f7ff ff4a 	bl	8000618 <IAP_LoadAPP>
 8000784:	4603      	mov	r3, r0
 8000786:	717b      	strb	r3, [r7, #5]
			  if(err != 0)
 8000788:	f997 3005 	ldrsb.w	r3, [r7, #5]
 800078c:	2b00      	cmp	r3, #0
 800078e:	d025      	beq.n	80007dc <main+0xd4>
				  printf("[Bootloader]Run App error, please flash the new bin...\r\n");
 8000790:	481d      	ldr	r0, [pc, #116]	@ (8000808 <main+0x100>)
 8000792:	f002 faed 	bl	8002d70 <puts>
		  break;
 8000796:	e021      	b.n	80007dc <main+0xd4>
			  printf("[Bootloader]Can not find the select settings of the partition\r\n");
 8000798:	481d      	ldr	r0, [pc, #116]	@ (8000810 <main+0x108>)
 800079a:	f002 fae9 	bl	8002d70 <puts>
		  break;
 800079e:	e01d      	b.n	80007dc <main+0xd4>
	  case UPDATE_APP_STATE:
		  printf("[Bootloader]Update APP...\r\n");
 80007a0:	481c      	ldr	r0, [pc, #112]	@ (8000814 <main+0x10c>)
 80007a2:	f002 fae5 	bl	8002d70 <puts>
		  break;
 80007a6:	e01a      	b.n	80007de <main+0xd6>
	  case SUCCESS_UPDATE_APP_STATE:
		  printf("[Bootloader]Success Update APP...Then Reboot System\r\n");
 80007a8:	481b      	ldr	r0, [pc, #108]	@ (8000818 <main+0x110>)
 80007aa:	f002 fae1 	bl	8002d70 <puts>
		  err = write_settings_boot_state(RUN_APP_STATE);
 80007ae:	2000      	movs	r0, #0
 80007b0:	f002 f944 	bl	8002a3c <write_settings_boot_state>
 80007b4:	4603      	mov	r3, r0
 80007b6:	717b      	strb	r3, [r7, #5]
		  if(err != 0)
 80007b8:	f997 3005 	ldrsb.w	r3, [r7, #5]
 80007bc:	2b00      	cmp	r3, #0
 80007be:	d002      	beq.n	80007c6 <main+0xbe>
		  {
		    printf("FLASH ERROR!\r\n");
 80007c0:	4816      	ldr	r0, [pc, #88]	@ (800081c <main+0x114>)
 80007c2:	f002 fad5 	bl	8002d70 <puts>
		  }
		  __ASM volatile ("cpsid i"); //关闭总中断
 80007c6:	b672      	cpsid	i
		  HAL_NVIC_SystemReset();
 80007c8:	f000 fbc9 	bl	8000f5e <HAL_NVIC_SystemReset>

		  break;
 80007cc:	e007      	b.n	80007de <main+0xd6>
	  default:
		  printf("[Bootloader]Unknown Update APP...Error Code : %x\r\n", boot_state);
 80007ce:	f997 3007 	ldrsb.w	r3, [r7, #7]
 80007d2:	4619      	mov	r1, r3
 80007d4:	4812      	ldr	r0, [pc, #72]	@ (8000820 <main+0x118>)
 80007d6:	f002 fa63 	bl	8002ca0 <iprintf>
 80007da:	e000      	b.n	80007de <main+0xd6>
		  break;
 80007dc:	bf00      	nop
  while (1)
  {
    /* USER CODE END WHILE */

    /* USER CODE BEGIN 3 */
	if(led_blink_on)
 80007de:	4b11      	ldr	r3, [pc, #68]	@ (8000824 <main+0x11c>)
 80007e0:	781b      	ldrb	r3, [r3, #0]
 80007e2:	b2db      	uxtb	r3, r3
 80007e4:	2b00      	cmp	r3, #0
 80007e6:	d005      	beq.n	80007f4 <main+0xec>
	{
		HAL_GPIO_WritePin(BOOTLOADER_RUN_NOTIRY_LED_GPIO_FAMILY,
 80007e8:	2201      	movs	r2, #1
 80007ea:	2101      	movs	r1, #1
 80007ec:	480e      	ldr	r0, [pc, #56]	@ (8000828 <main+0x120>)
 80007ee:	f000 ff5f 	bl	80016b0 <HAL_GPIO_WritePin>
 80007f2:	e7f4      	b.n	80007de <main+0xd6>
				BOOTLOADER_RUN_NOTIFY_LED_PIN, GPIO_PIN_SET);
	}else{
		HAL_GPIO_WritePin(BOOTLOADER_RUN_NOTIRY_LED_GPIO_FAMILY,
 80007f4:	2200      	movs	r2, #0
 80007f6:	2101      	movs	r1, #1
 80007f8:	480b      	ldr	r0, [pc, #44]	@ (8000828 <main+0x120>)
 80007fa:	f000 ff59 	bl	80016b0 <HAL_GPIO_WritePin>
	if(led_blink_on)
 80007fe:	e7ee      	b.n	80007de <main+0xd6>
 8000800:	08003bcc 	.word	0x08003bcc
 8000804:	08008000 	.word	0x08008000
 8000808:	08003bf4 	.word	0x08003bf4
 800080c:	08040000 	.word	0x08040000
 8000810:	08003c2c 	.word	0x08003c2c
 8000814:	08003c6c 	.word	0x08003c6c
 8000818:	08003c88 	.word	0x08003c88
 800081c:	08003cc0 	.word	0x08003cc0
 8000820:	08003cd0 	.word	0x08003cd0
 8000824:	20000084 	.word	0x20000084
 8000828:	40020000 	.word	0x40020000

0800082c <SystemClock_Config>:
/**
  * @brief System Clock Configuration
  * @retval None
  */
void SystemClock_Config(void)
{
 800082c:	b580      	push	{r7, lr}
 800082e:	b094      	sub	sp, #80	@ 0x50
 8000830:	af00      	add	r7, sp, #0
  RCC_OscInitTypeDef RCC_OscInitStruct = {0};
 8000832:	f107 0320 	add.w	r3, r7, #32
 8000836:	2230      	movs	r2, #48	@ 0x30
 8000838:	2100      	movs	r1, #0
 800083a:	4618      	mov	r0, r3
 800083c:	f002 fb78 	bl	8002f30 <memset>
  RCC_ClkInitTypeDef RCC_ClkInitStruct = {0};
 8000840:	f107 030c 	add.w	r3, r7, #12
 8000844:	2200      	movs	r2, #0
 8000846:	601a      	str	r2, [r3, #0]
 8000848:	605a      	str	r2, [r3, #4]
 800084a:	609a      	str	r2, [r3, #8]
 800084c:	60da      	str	r2, [r3, #12]
 800084e:	611a      	str	r2, [r3, #16]

  /** Configure the main internal regulator output voltage
  */
  __HAL_RCC_PWR_CLK_ENABLE();
 8000850:	2300      	movs	r3, #0
 8000852:	60bb      	str	r3, [r7, #8]
 8000854:	4b27      	ldr	r3, [pc, #156]	@ (80008f4 <SystemClock_Config+0xc8>)
 8000856:	6c1b      	ldr	r3, [r3, #64]	@ 0x40
 8000858:	4a26      	ldr	r2, [pc, #152]	@ (80008f4 <SystemClock_Config+0xc8>)
 800085a:	f043 5380 	orr.w	r3, r3, #268435456	@ 0x10000000
 800085e:	6413      	str	r3, [r2, #64]	@ 0x40
 8000860:	4b24      	ldr	r3, [pc, #144]	@ (80008f4 <SystemClock_Config+0xc8>)
 8000862:	6c1b      	ldr	r3, [r3, #64]	@ 0x40
 8000864:	f003 5380 	and.w	r3, r3, #268435456	@ 0x10000000
 8000868:	60bb      	str	r3, [r7, #8]
 800086a:	68bb      	ldr	r3, [r7, #8]
  __HAL_PWR_VOLTAGESCALING_CONFIG(PWR_REGULATOR_VOLTAGE_SCALE1);
 800086c:	2300      	movs	r3, #0
 800086e:	607b      	str	r3, [r7, #4]
 8000870:	4b21      	ldr	r3, [pc, #132]	@ (80008f8 <SystemClock_Config+0xcc>)
 8000872:	681b      	ldr	r3, [r3, #0]
 8000874:	4a20      	ldr	r2, [pc, #128]	@ (80008f8 <SystemClock_Config+0xcc>)
 8000876:	f443 4340 	orr.w	r3, r3, #49152	@ 0xc000
 800087a:	6013      	str	r3, [r2, #0]
 800087c:	4b1e      	ldr	r3, [pc, #120]	@ (80008f8 <SystemClock_Config+0xcc>)
 800087e:	681b      	ldr	r3, [r3, #0]
 8000880:	f403 4340 	and.w	r3, r3, #49152	@ 0xc000
 8000884:	607b      	str	r3, [r7, #4]
 8000886:	687b      	ldr	r3, [r7, #4]

  /** Initializes the RCC Oscillators according to the specified parameters
  * in the RCC_OscInitTypeDef structure.
  */
  RCC_OscInitStruct.OscillatorType = RCC_OSCILLATORTYPE_HSE;
 8000888:	2301      	movs	r3, #1
 800088a:	623b      	str	r3, [r7, #32]
  RCC_OscInitStruct.HSEState = RCC_HSE_ON;
 800088c:	f44f 3380 	mov.w	r3, #65536	@ 0x10000
 8000890:	627b      	str	r3, [r7, #36]	@ 0x24
  RCC_OscInitStruct.PLL.PLLState = RCC_PLL_ON;
 8000892:	2302      	movs	r3, #2
 8000894:	63bb      	str	r3, [r7, #56]	@ 0x38
  RCC_OscInitStruct.PLL.PLLSource = RCC_PLLSOURCE_HSE;
 8000896:	f44f 0380 	mov.w	r3, #4194304	@ 0x400000
 800089a:	63fb      	str	r3, [r7, #60]	@ 0x3c
  RCC_OscInitStruct.PLL.PLLM = 6;
 800089c:	2306      	movs	r3, #6
 800089e:	643b      	str	r3, [r7, #64]	@ 0x40
  RCC_OscInitStruct.PLL.PLLN = 100;
 80008a0:	2364      	movs	r3, #100	@ 0x64
 80008a2:	647b      	str	r3, [r7, #68]	@ 0x44
  RCC_OscInitStruct.PLL.PLLP = RCC_PLLP_DIV2;
 80008a4:	2302      	movs	r3, #2
 80008a6:	64bb      	str	r3, [r7, #72]	@ 0x48
  RCC_OscInitStruct.PLL.PLLQ = 4;
 80008a8:	2304      	movs	r3, #4
 80008aa:	64fb      	str	r3, [r7, #76]	@ 0x4c
  if (HAL_RCC_OscConfig(&RCC_OscInitStruct) != HAL_OK)
 80008ac:	f107 0320 	add.w	r3, r7, #32
 80008b0:	4618      	mov	r0, r3
 80008b2:	f000 ff17 	bl	80016e4 <HAL_RCC_OscConfig>
 80008b6:	4603      	mov	r3, r0
 80008b8:	2b00      	cmp	r3, #0
 80008ba:	d001      	beq.n	80008c0 <SystemClock_Config+0x94>
  {
    Error_Handler();
 80008bc:	f000 f83e 	bl	800093c <Error_Handler>
  }

  /** Initializes the CPU, AHB and APB buses clocks
  */
  RCC_ClkInitStruct.ClockType = RCC_CLOCKTYPE_HCLK|RCC_CLOCKTYPE_SYSCLK
 80008c0:	230f      	movs	r3, #15
 80008c2:	60fb      	str	r3, [r7, #12]
                              |RCC_CLOCKTYPE_PCLK1|RCC_CLOCKTYPE_PCLK2;
  RCC_ClkInitStruct.SYSCLKSource = RCC_SYSCLKSOURCE_PLLCLK;
 80008c4:	2302      	movs	r3, #2
 80008c6:	613b      	str	r3, [r7, #16]
  RCC_ClkInitStruct.AHBCLKDivider = RCC_SYSCLK_DIV1;
 80008c8:	2300      	movs	r3, #0
 80008ca:	617b      	str	r3, [r7, #20]
  RCC_ClkInitStruct.APB1CLKDivider = RCC_HCLK_DIV2;
 80008cc:	f44f 5380 	mov.w	r3, #4096	@ 0x1000
 80008d0:	61bb      	str	r3, [r7, #24]
  RCC_ClkInitStruct.APB2CLKDivider = RCC_HCLK_DIV1;
 80008d2:	2300      	movs	r3, #0
 80008d4:	61fb      	str	r3, [r7, #28]

  if (HAL_RCC_ClockConfig(&RCC_ClkInitStruct, FLASH_LATENCY_3) != HAL_OK)
 80008d6:	f107 030c 	add.w	r3, r7, #12
 80008da:	2103      	movs	r1, #3
 80008dc:	4618      	mov	r0, r3
 80008de:	f001 f979 	bl	8001bd4 <HAL_RCC_ClockConfig>
 80008e2:	4603      	mov	r3, r0
 80008e4:	2b00      	cmp	r3, #0
 80008e6:	d001      	beq.n	80008ec <SystemClock_Config+0xc0>
  {
    Error_Handler();
 80008e8:	f000 f828 	bl	800093c <Error_Handler>
  }
}
 80008ec:	bf00      	nop
 80008ee:	3750      	adds	r7, #80	@ 0x50
 80008f0:	46bd      	mov	sp, r7
 80008f2:	bd80      	pop	{r7, pc}
 80008f4:	40023800 	.word	0x40023800
 80008f8:	40007000 	.word	0x40007000

080008fc <HAL_SYSTICK_Callback>:

/* USER CODE BEGIN 4 */
void HAL_SYSTICK_Callback(void){
 80008fc:	b480      	push	{r7}
 80008fe:	af00      	add	r7, sp, #0
	bootloader_run_notify_led_count ++;
 8000900:	4b0c      	ldr	r3, [pc, #48]	@ (8000934 <HAL_SYSTICK_Callback+0x38>)
 8000902:	681b      	ldr	r3, [r3, #0]
 8000904:	3301      	adds	r3, #1
 8000906:	4a0b      	ldr	r2, [pc, #44]	@ (8000934 <HAL_SYSTICK_Callback+0x38>)
 8000908:	6013      	str	r3, [r2, #0]
	if(bootloader_run_notify_led_count >= 600)
 800090a:	4b0a      	ldr	r3, [pc, #40]	@ (8000934 <HAL_SYSTICK_Callback+0x38>)
 800090c:	681b      	ldr	r3, [r3, #0]
 800090e:	f5b3 7f16 	cmp.w	r3, #600	@ 0x258
 8000912:	db09      	blt.n	8000928 <HAL_SYSTICK_Callback+0x2c>
	{
		bootloader_run_notify_led_count = 0;
 8000914:	4b07      	ldr	r3, [pc, #28]	@ (8000934 <HAL_SYSTICK_Callback+0x38>)
 8000916:	2200      	movs	r2, #0
 8000918:	601a      	str	r2, [r3, #0]
		led_blink_on = ~led_blink_on;
 800091a:	4b07      	ldr	r3, [pc, #28]	@ (8000938 <HAL_SYSTICK_Callback+0x3c>)
 800091c:	781b      	ldrb	r3, [r3, #0]
 800091e:	b2db      	uxtb	r3, r3
 8000920:	43db      	mvns	r3, r3
 8000922:	b2da      	uxtb	r2, r3
 8000924:	4b04      	ldr	r3, [pc, #16]	@ (8000938 <HAL_SYSTICK_Callback+0x3c>)
 8000926:	701a      	strb	r2, [r3, #0]
	}
}
 8000928:	bf00      	nop
 800092a:	46bd      	mov	sp, r7
 800092c:	f85d 7b04 	ldr.w	r7, [sp], #4
 8000930:	4770      	bx	lr
 8000932:	bf00      	nop
 8000934:	20000090 	.word	0x20000090
 8000938:	20000084 	.word	0x20000084

0800093c <Error_Handler>:
/**
  * @brief  This function is executed in case of error occurrence.
  * @retval None
  */
void Error_Handler(void)
{
 800093c:	b480      	push	{r7}
 800093e:	af00      	add	r7, sp, #0
  __ASM volatile ("cpsid i" : : : "memory");
 8000940:	b672      	cpsid	i
}
 8000942:	bf00      	nop
  /* USER CODE BEGIN Error_Handler_Debug */
  /* User can add his own implementation to report the HAL error return state */
  __disable_irq();
  while (1)
 8000944:	bf00      	nop
 8000946:	e7fd      	b.n	8000944 <Error_Handler+0x8>

08000948 <HAL_MspInit>:
/* USER CODE END 0 */
/**
  * Initializes the Global MSP.
  */
void HAL_MspInit(void)
{
 8000948:	b480      	push	{r7}
 800094a:	b083      	sub	sp, #12
 800094c:	af00      	add	r7, sp, #0

  /* USER CODE BEGIN MspInit 0 */

  /* USER CODE END MspInit 0 */

  __HAL_RCC_SYSCFG_CLK_ENABLE();
 800094e:	2300      	movs	r3, #0
 8000950:	607b      	str	r3, [r7, #4]
 8000952:	4b10      	ldr	r3, [pc, #64]	@ (8000994 <HAL_MspInit+0x4c>)
 8000954:	6c5b      	ldr	r3, [r3, #68]	@ 0x44
 8000956:	4a0f      	ldr	r2, [pc, #60]	@ (8000994 <HAL_MspInit+0x4c>)
 8000958:	f443 4380 	orr.w	r3, r3, #16384	@ 0x4000
 800095c:	6453      	str	r3, [r2, #68]	@ 0x44
 800095e:	4b0d      	ldr	r3, [pc, #52]	@ (8000994 <HAL_MspInit+0x4c>)
 8000960:	6c5b      	ldr	r3, [r3, #68]	@ 0x44
 8000962:	f403 4380 	and.w	r3, r3, #16384	@ 0x4000
 8000966:	607b      	str	r3, [r7, #4]
 8000968:	687b      	ldr	r3, [r7, #4]
  __HAL_RCC_PWR_CLK_ENABLE();
 800096a:	2300      	movs	r3, #0
 800096c:	603b      	str	r3, [r7, #0]
 800096e:	4b09      	ldr	r3, [pc, #36]	@ (8000994 <HAL_MspInit+0x4c>)
 8000970:	6c1b      	ldr	r3, [r3, #64]	@ 0x40
 8000972:	4a08      	ldr	r2, [pc, #32]	@ (8000994 <HAL_MspInit+0x4c>)
 8000974:	f043 5380 	orr.w	r3, r3, #268435456	@ 0x10000000
 8000978:	6413      	str	r3, [r2, #64]	@ 0x40
 800097a:	4b06      	ldr	r3, [pc, #24]	@ (8000994 <HAL_MspInit+0x4c>)
 800097c:	6c1b      	ldr	r3, [r3, #64]	@ 0x40
 800097e:	f003 5380 	and.w	r3, r3, #268435456	@ 0x10000000
 8000982:	603b      	str	r3, [r7, #0]
 8000984:	683b      	ldr	r3, [r7, #0]
  /* System interrupt init*/

  /* USER CODE BEGIN MspInit 1 */

  /* USER CODE END MspInit 1 */
}
 8000986:	bf00      	nop
 8000988:	370c      	adds	r7, #12
 800098a:	46bd      	mov	sp, r7
 800098c:	f85d 7b04 	ldr.w	r7, [sp], #4
 8000990:	4770      	bx	lr
 8000992:	bf00      	nop
 8000994:	40023800 	.word	0x40023800

08000998 <NMI_Handler>:
/******************************************************************************/
/**
  * @brief This function handles Non maskable interrupt.
  */
void NMI_Handler(void)
{
 8000998:	b480      	push	{r7}
 800099a:	af00      	add	r7, sp, #0
  /* USER CODE BEGIN NonMaskableInt_IRQn 0 */

  /* USER CODE END NonMaskableInt_IRQn 0 */
  /* USER CODE BEGIN NonMaskableInt_IRQn 1 */
   while (1)
 800099c:	bf00      	nop
 800099e:	e7fd      	b.n	800099c <NMI_Handler+0x4>

080009a0 <HardFault_Handler>:

/**
  * @brief This function handles Hard fault interrupt.
  */
void HardFault_Handler(void)
{
 80009a0:	b480      	push	{r7}
 80009a2:	af00      	add	r7, sp, #0
  /* USER CODE BEGIN HardFault_IRQn 0 */

  /* USER CODE END HardFault_IRQn 0 */
  while (1)
 80009a4:	bf00      	nop
 80009a6:	e7fd      	b.n	80009a4 <HardFault_Handler+0x4>

080009a8 <MemManage_Handler>:

/**
  * @brief This function handles Memory management fault.
  */
void MemManage_Handler(void)
{
 80009a8:	b480      	push	{r7}
 80009aa:	af00      	add	r7, sp, #0
  /* USER CODE BEGIN MemoryManagement_IRQn 0 */

  /* USER CODE END MemoryManagement_IRQn 0 */
  while (1)
 80009ac:	bf00      	nop
 80009ae:	e7fd      	b.n	80009ac <MemManage_Handler+0x4>

080009b0 <BusFault_Handler>:

/**
  * @brief This function handles Pre-fetch fault, memory access fault.
  */
void BusFault_Handler(void)
{
 80009b0:	b480      	push	{r7}
 80009b2:	af00      	add	r7, sp, #0
  /* USER CODE BEGIN BusFault_IRQn 0 */

  /* USER CODE END BusFault_IRQn 0 */
  while (1)
 80009b4:	bf00      	nop
 80009b6:	e7fd      	b.n	80009b4 <BusFault_Handler+0x4>

080009b8 <UsageFault_Handler>:

/**
  * @brief This function handles Undefined instruction or illegal state.
  */
void UsageFault_Handler(void)
{
 80009b8:	b480      	push	{r7}
 80009ba:	af00      	add	r7, sp, #0
  /* USER CODE BEGIN UsageFault_IRQn 0 */

  /* USER CODE END UsageFault_IRQn 0 */
  while (1)
 80009bc:	bf00      	nop
 80009be:	e7fd      	b.n	80009bc <UsageFault_Handler+0x4>

080009c0 <SVC_Handler>:

/**
  * @brief This function handles System service call via SWI instruction.
  */
void SVC_Handler(void)
{
 80009c0:	b480      	push	{r7}
 80009c2:	af00      	add	r7, sp, #0

  /* USER CODE END SVCall_IRQn 0 */
  /* USER CODE BEGIN SVCall_IRQn 1 */

  /* USER CODE END SVCall_IRQn 1 */
}
 80009c4:	bf00      	nop
 80009c6:	46bd      	mov	sp, r7
 80009c8:	f85d 7b04 	ldr.w	r7, [sp], #4
 80009cc:	4770      	bx	lr

080009ce <DebugMon_Handler>:

/**
  * @brief This function handles Debug monitor.
  */
void DebugMon_Handler(void)
{
 80009ce:	b480      	push	{r7}
 80009d0:	af00      	add	r7, sp, #0

  /* USER CODE END DebugMonitor_IRQn 0 */
  /* USER CODE BEGIN DebugMonitor_IRQn 1 */

  /* USER CODE END DebugMonitor_IRQn 1 */
}
 80009d2:	bf00      	nop
 80009d4:	46bd      	mov	sp, r7
 80009d6:	f85d 7b04 	ldr.w	r7, [sp], #4
 80009da:	4770      	bx	lr

080009dc <PendSV_Handler>:

/**
  * @brief This function handles Pendable request for system service.
  */
void PendSV_Handler(void)
{
 80009dc:	b480      	push	{r7}
 80009de:	af00      	add	r7, sp, #0

  /* USER CODE END PendSV_IRQn 0 */
  /* USER CODE BEGIN PendSV_IRQn 1 */

  /* USER CODE END PendSV_IRQn 1 */
}
 80009e0:	bf00      	nop
 80009e2:	46bd      	mov	sp, r7
 80009e4:	f85d 7b04 	ldr.w	r7, [sp], #4
 80009e8:	4770      	bx	lr

080009ea <SysTick_Handler>:

/**
  * @brief This function handles System tick timer.
  */
void SysTick_Handler(void)
{
 80009ea:	b580      	push	{r7, lr}
 80009ec:	af00      	add	r7, sp, #0
  /* USER CODE BEGIN SysTick_IRQn 0 */

  /* USER CODE END SysTick_IRQn 0 */
  HAL_IncTick();
 80009ee:	f000 f9a7 	bl	8000d40 <HAL_IncTick>
  /* USER CODE BEGIN SysTick_IRQn 1 */
  HAL_SYSTICK_IRQHandler();
 80009f2:	f000 fac4 	bl	8000f7e <HAL_SYSTICK_IRQHandler>
  /* USER CODE END SysTick_IRQn 1 */
}
 80009f6:	bf00      	nop
 80009f8:	bd80      	pop	{r7, pc}

080009fa <_read>:
  _kill(status, -1);
  while (1) {}    /* Make sure we hang here */
}

__attribute__((weak)) int _read(int file, char *ptr, int len)
{
 80009fa:	b580      	push	{r7, lr}
 80009fc:	b086      	sub	sp, #24
 80009fe:	af00      	add	r7, sp, #0
 8000a00:	60f8      	str	r0, [r7, #12]
 8000a02:	60b9      	str	r1, [r7, #8]
 8000a04:	607a      	str	r2, [r7, #4]
  (void)file;
  int DataIdx;

  for (DataIdx = 0; DataIdx < len; DataIdx++)
 8000a06:	2300      	movs	r3, #0
 8000a08:	617b      	str	r3, [r7, #20]
 8000a0a:	e00a      	b.n	8000a22 <_read+0x28>
  {
    *ptr++ = __io_getchar();
 8000a0c:	f3af 8000 	nop.w
 8000a10:	4601      	mov	r1, r0
 8000a12:	68bb      	ldr	r3, [r7, #8]
 8000a14:	1c5a      	adds	r2, r3, #1
 8000a16:	60ba      	str	r2, [r7, #8]
 8000a18:	b2ca      	uxtb	r2, r1
 8000a1a:	701a      	strb	r2, [r3, #0]
  for (DataIdx = 0; DataIdx < len; DataIdx++)
 8000a1c:	697b      	ldr	r3, [r7, #20]
 8000a1e:	3301      	adds	r3, #1
 8000a20:	617b      	str	r3, [r7, #20]
 8000a22:	697a      	ldr	r2, [r7, #20]
 8000a24:	687b      	ldr	r3, [r7, #4]
 8000a26:	429a      	cmp	r2, r3
 8000a28:	dbf0      	blt.n	8000a0c <_read+0x12>
  }

  return len;
 8000a2a:	687b      	ldr	r3, [r7, #4]
}
 8000a2c:	4618      	mov	r0, r3
 8000a2e:	3718      	adds	r7, #24
 8000a30:	46bd      	mov	sp, r7
 8000a32:	bd80      	pop	{r7, pc}

08000a34 <_write>:

__attribute__((weak)) int _write(int file, char *ptr, int len)
{
 8000a34:	b580      	push	{r7, lr}
 8000a36:	b086      	sub	sp, #24
 8000a38:	af00      	add	r7, sp, #0
 8000a3a:	60f8      	str	r0, [r7, #12]
 8000a3c:	60b9      	str	r1, [r7, #8]
 8000a3e:	607a      	str	r2, [r7, #4]
  (void)file;
  int DataIdx;

  for (DataIdx = 0; DataIdx < len; DataIdx++)
 8000a40:	2300      	movs	r3, #0
 8000a42:	617b      	str	r3, [r7, #20]
 8000a44:	e009      	b.n	8000a5a <_write+0x26>
  {
    __io_putchar(*ptr++);
 8000a46:	68bb      	ldr	r3, [r7, #8]
 8000a48:	1c5a      	adds	r2, r3, #1
 8000a4a:	60ba      	str	r2, [r7, #8]
 8000a4c:	781b      	ldrb	r3, [r3, #0]
 8000a4e:	4618      	mov	r0, r3
 8000a50:	f7ff fdd0 	bl	80005f4 <__io_putchar>
  for (DataIdx = 0; DataIdx < len; DataIdx++)
 8000a54:	697b      	ldr	r3, [r7, #20]
 8000a56:	3301      	adds	r3, #1
 8000a58:	617b      	str	r3, [r7, #20]
 8000a5a:	697a      	ldr	r2, [r7, #20]
 8000a5c:	687b      	ldr	r3, [r7, #4]
 8000a5e:	429a      	cmp	r2, r3
 8000a60:	dbf1      	blt.n	8000a46 <_write+0x12>
  }
  return len;
 8000a62:	687b      	ldr	r3, [r7, #4]
}
 8000a64:	4618      	mov	r0, r3
 8000a66:	3718      	adds	r7, #24
 8000a68:	46bd      	mov	sp, r7
 8000a6a:	bd80      	pop	{r7, pc}

08000a6c <_close>:

int _close(int file)
{
 8000a6c:	b480      	push	{r7}
 8000a6e:	b083      	sub	sp, #12
 8000a70:	af00      	add	r7, sp, #0
 8000a72:	6078      	str	r0, [r7, #4]
  (void)file;
  return -1;
 8000a74:	f04f 33ff 	mov.w	r3, #4294967295
}
 8000a78:	4618      	mov	r0, r3
 8000a7a:	370c      	adds	r7, #12
 8000a7c:	46bd      	mov	sp, r7
 8000a7e:	f85d 7b04 	ldr.w	r7, [sp], #4
 8000a82:	4770      	bx	lr

08000a84 <_fstat>:


int _fstat(int file, struct stat *st)
{
 8000a84:	b480      	push	{r7}
 8000a86:	b083      	sub	sp, #12
 8000a88:	af00      	add	r7, sp, #0
 8000a8a:	6078      	str	r0, [r7, #4]
 8000a8c:	6039      	str	r1, [r7, #0]
  (void)file;
  st->st_mode = S_IFCHR;
 8000a8e:	683b      	ldr	r3, [r7, #0]
 8000a90:	f44f 5200 	mov.w	r2, #8192	@ 0x2000
 8000a94:	605a      	str	r2, [r3, #4]
  return 0;
 8000a96:	2300      	movs	r3, #0
}
 8000a98:	4618      	mov	r0, r3
 8000a9a:	370c      	adds	r7, #12
 8000a9c:	46bd      	mov	sp, r7
 8000a9e:	f85d 7b04 	ldr.w	r7, [sp], #4
 8000aa2:	4770      	bx	lr

08000aa4 <_isatty>:

int _isatty(int file)
{
 8000aa4:	b480      	push	{r7}
 8000aa6:	b083      	sub	sp, #12
 8000aa8:	af00      	add	r7, sp, #0
 8000aaa:	6078      	str	r0, [r7, #4]
  (void)file;
  return 1;
 8000aac:	2301      	movs	r3, #1
}
 8000aae:	4618      	mov	r0, r3
 8000ab0:	370c      	adds	r7, #12
 8000ab2:	46bd      	mov	sp, r7
 8000ab4:	f85d 7b04 	ldr.w	r7, [sp], #4
 8000ab8:	4770      	bx	lr

08000aba <_lseek>:

int _lseek(int file, int ptr, int dir)
{
 8000aba:	b480      	push	{r7}
 8000abc:	b085      	sub	sp, #20
 8000abe:	af00      	add	r7, sp, #0
 8000ac0:	60f8      	str	r0, [r7, #12]
 8000ac2:	60b9      	str	r1, [r7, #8]
 8000ac4:	607a      	str	r2, [r7, #4]
  (void)file;
  (void)ptr;
  (void)dir;
  return 0;
 8000ac6:	2300      	movs	r3, #0
}
 8000ac8:	4618      	mov	r0, r3
 8000aca:	3714      	adds	r7, #20
 8000acc:	46bd      	mov	sp, r7
 8000ace:	f85d 7b04 	ldr.w	r7, [sp], #4
 8000ad2:	4770      	bx	lr

08000ad4 <_sbrk>:
 *
 * @param incr Memory size
 * @return Pointer to allocated memory
 */
void *_sbrk(ptrdiff_t incr)
{
 8000ad4:	b580      	push	{r7, lr}
 8000ad6:	b086      	sub	sp, #24
 8000ad8:	af00      	add	r7, sp, #0
 8000ada:	6078      	str	r0, [r7, #4]
  extern uint8_t _end; /* Symbol defined in the linker script */
  extern uint8_t _estack; /* Symbol defined in the linker script */
  extern uint32_t _Min_Stack_Size; /* Symbol defined in the linker script */
  const uint32_t stack_limit = (uint32_t)&_estack - (uint32_t)&_Min_Stack_Size;
 8000adc:	4a14      	ldr	r2, [pc, #80]	@ (8000b30 <_sbrk+0x5c>)
 8000ade:	4b15      	ldr	r3, [pc, #84]	@ (8000b34 <_sbrk+0x60>)
 8000ae0:	1ad3      	subs	r3, r2, r3
 8000ae2:	617b      	str	r3, [r7, #20]
  const uint8_t *max_heap = (uint8_t *)stack_limit;
 8000ae4:	697b      	ldr	r3, [r7, #20]
 8000ae6:	613b      	str	r3, [r7, #16]
  uint8_t *prev_heap_end;

  /* Initialize heap end at first call */
  if (NULL == __sbrk_heap_end)
 8000ae8:	4b13      	ldr	r3, [pc, #76]	@ (8000b38 <_sbrk+0x64>)
 8000aea:	681b      	ldr	r3, [r3, #0]
 8000aec:	2b00      	cmp	r3, #0
 8000aee:	d102      	bne.n	8000af6 <_sbrk+0x22>
  {
    __sbrk_heap_end = &_end;
 8000af0:	4b11      	ldr	r3, [pc, #68]	@ (8000b38 <_sbrk+0x64>)
 8000af2:	4a12      	ldr	r2, [pc, #72]	@ (8000b3c <_sbrk+0x68>)
 8000af4:	601a      	str	r2, [r3, #0]
  }

  /* Protect heap from growing into the reserved MSP stack */
  if (__sbrk_heap_end + incr > max_heap)
 8000af6:	4b10      	ldr	r3, [pc, #64]	@ (8000b38 <_sbrk+0x64>)
 8000af8:	681a      	ldr	r2, [r3, #0]
 8000afa:	687b      	ldr	r3, [r7, #4]
 8000afc:	4413      	add	r3, r2
 8000afe:	693a      	ldr	r2, [r7, #16]
 8000b00:	429a      	cmp	r2, r3
 8000b02:	d207      	bcs.n	8000b14 <_sbrk+0x40>
  {
    errno = ENOMEM;
 8000b04:	f002 fa62 	bl	8002fcc <__errno>
 8000b08:	4603      	mov	r3, r0
 8000b0a:	220c      	movs	r2, #12
 8000b0c:	601a      	str	r2, [r3, #0]
    return (void *)-1;
 8000b0e:	f04f 33ff 	mov.w	r3, #4294967295
 8000b12:	e009      	b.n	8000b28 <_sbrk+0x54>
  }

  prev_heap_end = __sbrk_heap_end;
 8000b14:	4b08      	ldr	r3, [pc, #32]	@ (8000b38 <_sbrk+0x64>)
 8000b16:	681b      	ldr	r3, [r3, #0]
 8000b18:	60fb      	str	r3, [r7, #12]
  __sbrk_heap_end += incr;
 8000b1a:	4b07      	ldr	r3, [pc, #28]	@ (8000b38 <_sbrk+0x64>)
 8000b1c:	681a      	ldr	r2, [r3, #0]
 8000b1e:	687b      	ldr	r3, [r7, #4]
 8000b20:	4413      	add	r3, r2
 8000b22:	4a05      	ldr	r2, [pc, #20]	@ (8000b38 <_sbrk+0x64>)
 8000b24:	6013      	str	r3, [r2, #0]

  return (void *)prev_heap_end;
 8000b26:	68fb      	ldr	r3, [r7, #12]
}
 8000b28:	4618      	mov	r0, r3
 8000b2a:	3718      	adds	r7, #24
 8000b2c:	46bd      	mov	sp, r7
 8000b2e:	bd80      	pop	{r7, pc}
 8000b30:	20020000 	.word	0x20020000
 8000b34:	00000400 	.word	0x00000400
 8000b38:	20000094 	.word	0x20000094
 8000b3c:	20000250 	.word	0x20000250

08000b40 <SystemInit>:
  *         configuration.
  * @param  None
  * @retval None
  */
void SystemInit(void)
{
 8000b40:	b480      	push	{r7}
 8000b42:	af00      	add	r7, sp, #0
  /* FPU settings ------------------------------------------------------------*/
  #if (__FPU_PRESENT == 1) && (__FPU_USED == 1)
    SCB->CPACR |= ((3UL << 10*2)|(3UL << 11*2));  /* set CP10 and CP11 Full Access */
 8000b44:	4b06      	ldr	r3, [pc, #24]	@ (8000b60 <SystemInit+0x20>)
 8000b46:	f8d3 3088 	ldr.w	r3, [r3, #136]	@ 0x88
 8000b4a:	4a05      	ldr	r2, [pc, #20]	@ (8000b60 <SystemInit+0x20>)
 8000b4c:	f443 0370 	orr.w	r3, r3, #15728640	@ 0xf00000
 8000b50:	f8c2 3088 	str.w	r3, [r2, #136]	@ 0x88

  /* Configure the Vector Table location -------------------------------------*/
#if defined(USER_VECT_TAB_ADDRESS)
  SCB->VTOR = VECT_TAB_BASE_ADDRESS | VECT_TAB_OFFSET; /* Vector Table Relocation in Internal SRAM */
#endif /* USER_VECT_TAB_ADDRESS */
}
 8000b54:	bf00      	nop
 8000b56:	46bd      	mov	sp, r7
 8000b58:	f85d 7b04 	ldr.w	r7, [sp], #4
 8000b5c:	4770      	bx	lr
 8000b5e:	bf00      	nop
 8000b60:	e000ed00 	.word	0xe000ed00

08000b64 <MX_USART1_UART_Init>:
UART_HandleTypeDef huart1;

/* USART1 init function */

void MX_USART1_UART_Init(void)
{
 8000b64:	b580      	push	{r7, lr}
 8000b66:	af00      	add	r7, sp, #0
  /* USER CODE END USART1_Init 0 */

  /* USER CODE BEGIN USART1_Init 1 */

  /* USER CODE END USART1_Init 1 */
  huart1.Instance = USART1;
 8000b68:	4b11      	ldr	r3, [pc, #68]	@ (8000bb0 <MX_USART1_UART_Init+0x4c>)
 8000b6a:	4a12      	ldr	r2, [pc, #72]	@ (8000bb4 <MX_USART1_UART_Init+0x50>)
 8000b6c:	601a      	str	r2, [r3, #0]
  huart1.Init.BaudRate = 115200;
 8000b6e:	4b10      	ldr	r3, [pc, #64]	@ (8000bb0 <MX_USART1_UART_Init+0x4c>)
 8000b70:	f44f 32e1 	mov.w	r2, #115200	@ 0x1c200
 8000b74:	605a      	str	r2, [r3, #4]
  huart1.Init.WordLength = UART_WORDLENGTH_8B;
 8000b76:	4b0e      	ldr	r3, [pc, #56]	@ (8000bb0 <MX_USART1_UART_Init+0x4c>)
 8000b78:	2200      	movs	r2, #0
 8000b7a:	609a      	str	r2, [r3, #8]
  huart1.Init.StopBits = UART_STOPBITS_1;
 8000b7c:	4b0c      	ldr	r3, [pc, #48]	@ (8000bb0 <MX_USART1_UART_Init+0x4c>)
 8000b7e:	2200      	movs	r2, #0
 8000b80:	60da      	str	r2, [r3, #12]
  huart1.Init.Parity = UART_PARITY_NONE;
 8000b82:	4b0b      	ldr	r3, [pc, #44]	@ (8000bb0 <MX_USART1_UART_Init+0x4c>)
 8000b84:	2200      	movs	r2, #0
 8000b86:	611a      	str	r2, [r3, #16]
  huart1.Init.Mode = UART_MODE_TX_RX;
 8000b88:	4b09      	ldr	r3, [pc, #36]	@ (8000bb0 <MX_USART1_UART_Init+0x4c>)
 8000b8a:	220c      	movs	r2, #12
 8000b8c:	615a      	str	r2, [r3, #20]
  huart1.Init.HwFlowCtl = UART_HWCONTROL_NONE;
 8000b8e:	4b08      	ldr	r3, [pc, #32]	@ (8000bb0 <MX_USART1_UART_Init+0x4c>)
 8000b90:	2200      	movs	r2, #0
 8000b92:	619a      	str	r2, [r3, #24]
  huart1.Init.OverSampling = UART_OVERSAMPLING_16;
 8000b94:	4b06      	ldr	r3, [pc, #24]	@ (8000bb0 <MX_USART1_UART_Init+0x4c>)
 8000b96:	2200      	movs	r2, #0
 8000b98:	61da      	str	r2, [r3, #28]
  if (HAL_UART_Init(&huart1) != HAL_OK)
 8000b9a:	4805      	ldr	r0, [pc, #20]	@ (8000bb0 <MX_USART1_UART_Init+0x4c>)
 8000b9c:	f001 f9fa 	bl	8001f94 <HAL_UART_Init>
 8000ba0:	4603      	mov	r3, r0
 8000ba2:	2b00      	cmp	r3, #0
 8000ba4:	d001      	beq.n	8000baa <MX_USART1_UART_Init+0x46>
  {
    Error_Handler();
 8000ba6:	f7ff fec9 	bl	800093c <Error_Handler>
  }
  /* USER CODE BEGIN USART1_Init 2 */

  /* USER CODE END USART1_Init 2 */

}
 8000baa:	bf00      	nop
 8000bac:	bd80      	pop	{r7, pc}
 8000bae:	bf00      	nop
 8000bb0:	20000098 	.word	0x20000098
 8000bb4:	40011000 	.word	0x40011000

08000bb8 <HAL_UART_MspInit>:

void HAL_UART_MspInit(UART_HandleTypeDef* uartHandle)
{
 8000bb8:	b580      	push	{r7, lr}
 8000bba:	b08a      	sub	sp, #40	@ 0x28
 8000bbc:	af00      	add	r7, sp, #0
 8000bbe:	6078      	str	r0, [r7, #4]

  GPIO_InitTypeDef GPIO_InitStruct = {0};
 8000bc0:	f107 0314 	add.w	r3, r7, #20
 8000bc4:	2200      	movs	r2, #0
 8000bc6:	601a      	str	r2, [r3, #0]
 8000bc8:	605a      	str	r2, [r3, #4]
 8000bca:	609a      	str	r2, [r3, #8]
 8000bcc:	60da      	str	r2, [r3, #12]
 8000bce:	611a      	str	r2, [r3, #16]
  if(uartHandle->Instance==USART1)
 8000bd0:	687b      	ldr	r3, [r7, #4]
 8000bd2:	681b      	ldr	r3, [r3, #0]
 8000bd4:	4a19      	ldr	r2, [pc, #100]	@ (8000c3c <HAL_UART_MspInit+0x84>)
 8000bd6:	4293      	cmp	r3, r2
 8000bd8:	d12c      	bne.n	8000c34 <HAL_UART_MspInit+0x7c>
  {
  /* USER CODE BEGIN USART1_MspInit 0 */

  /* USER CODE END USART1_MspInit 0 */
    /* USART1 clock enable */
    __HAL_RCC_USART1_CLK_ENABLE();
 8000bda:	2300      	movs	r3, #0
 8000bdc:	613b      	str	r3, [r7, #16]
 8000bde:	4b18      	ldr	r3, [pc, #96]	@ (8000c40 <HAL_UART_MspInit+0x88>)
 8000be0:	6c5b      	ldr	r3, [r3, #68]	@ 0x44
 8000be2:	4a17      	ldr	r2, [pc, #92]	@ (8000c40 <HAL_UART_MspInit+0x88>)
 8000be4:	f043 0310 	orr.w	r3, r3, #16
 8000be8:	6453      	str	r3, [r2, #68]	@ 0x44
 8000bea:	4b15      	ldr	r3, [pc, #84]	@ (8000c40 <HAL_UART_MspInit+0x88>)
 8000bec:	6c5b      	ldr	r3, [r3, #68]	@ 0x44
 8000bee:	f003 0310 	and.w	r3, r3, #16
 8000bf2:	613b      	str	r3, [r7, #16]
 8000bf4:	693b      	ldr	r3, [r7, #16]

    __HAL_RCC_GPIOA_CLK_ENABLE();
 8000bf6:	2300      	movs	r3, #0
 8000bf8:	60fb      	str	r3, [r7, #12]
 8000bfa:	4b11      	ldr	r3, [pc, #68]	@ (8000c40 <HAL_UART_MspInit+0x88>)
 8000bfc:	6b1b      	ldr	r3, [r3, #48]	@ 0x30
 8000bfe:	4a10      	ldr	r2, [pc, #64]	@ (8000c40 <HAL_UART_MspInit+0x88>)
 8000c00:	f043 0301 	orr.w	r3, r3, #1
 8000c04:	6313      	str	r3, [r2, #48]	@ 0x30
 8000c06:	4b0e      	ldr	r3, [pc, #56]	@ (8000c40 <HAL_UART_MspInit+0x88>)
 8000c08:	6b1b      	ldr	r3, [r3, #48]	@ 0x30
 8000c0a:	f003 0301 	and.w	r3, r3, #1
 8000c0e:	60fb      	str	r3, [r7, #12]
 8000c10:	68fb      	ldr	r3, [r7, #12]
    /**USART1 GPIO Configuration
    PA9     ------> USART1_TX
    PA10     ------> USART1_RX
    */
    GPIO_InitStruct.Pin = GPIO_PIN_9|GPIO_PIN_10;
 8000c12:	f44f 63c0 	mov.w	r3, #1536	@ 0x600
 8000c16:	617b      	str	r3, [r7, #20]
    GPIO_InitStruct.Mode = GPIO_MODE_AF_PP;
 8000c18:	2302      	movs	r3, #2
 8000c1a:	61bb      	str	r3, [r7, #24]
    GPIO_InitStruct.Pull = GPIO_NOPULL;
 8000c1c:	2300      	movs	r3, #0
 8000c1e:	61fb      	str	r3, [r7, #28]
    GPIO_InitStruct.Speed = GPIO_SPEED_FREQ_VERY_HIGH;
 8000c20:	2303      	movs	r3, #3
 8000c22:	623b      	str	r3, [r7, #32]
    GPIO_InitStruct.Alternate = GPIO_AF7_USART1;
 8000c24:	2307      	movs	r3, #7
 8000c26:	627b      	str	r3, [r7, #36]	@ 0x24
    HAL_GPIO_Init(GPIOA, &GPIO_InitStruct);
 8000c28:	f107 0314 	add.w	r3, r7, #20
 8000c2c:	4619      	mov	r1, r3
 8000c2e:	4805      	ldr	r0, [pc, #20]	@ (8000c44 <HAL_UART_MspInit+0x8c>)
 8000c30:	f000 fbba 	bl	80013a8 <HAL_GPIO_Init>

  /* USER CODE BEGIN USART1_MspInit 1 */

  /* USER CODE END USART1_MspInit 1 */
  }
}
 8000c34:	bf00      	nop
 8000c36:	3728      	adds	r7, #40	@ 0x28
 8000c38:	46bd      	mov	sp, r7
 8000c3a:	bd80      	pop	{r7, pc}
 8000c3c:	40011000 	.word	0x40011000
 8000c40:	40023800 	.word	0x40023800
 8000c44:	40020000 	.word	0x40020000

08000c48 <Reset_Handler>:

    .section  .text.Reset_Handler
  .weak  Reset_Handler
  .type  Reset_Handler, %function
Reset_Handler:  
  ldr   sp, =_estack    		 /* set stack pointer */
 8000c48:	f8df d034 	ldr.w	sp, [pc, #52]	@ 8000c80 <LoopFillZerobss+0xe>

/* Call the clock system initialization function.*/
  bl  SystemInit   
 8000c4c:	f7ff ff78 	bl	8000b40 <SystemInit>

/* Copy the data segment initializers from flash to SRAM */  
  ldr r0, =_sdata
 8000c50:	480c      	ldr	r0, [pc, #48]	@ (8000c84 <LoopFillZerobss+0x12>)
  ldr r1, =_edata
 8000c52:	490d      	ldr	r1, [pc, #52]	@ (8000c88 <LoopFillZerobss+0x16>)
  ldr r2, =_sidata
 8000c54:	4a0d      	ldr	r2, [pc, #52]	@ (8000c8c <LoopFillZerobss+0x1a>)
  movs r3, #0
 8000c56:	2300      	movs	r3, #0
  b LoopCopyDataInit
 8000c58:	e002      	b.n	8000c60 <LoopCopyDataInit>

08000c5a <CopyDataInit>:

CopyDataInit:
  ldr r4, [r2, r3]
 8000c5a:	58d4      	ldr	r4, [r2, r3]
  str r4, [r0, r3]
 8000c5c:	50c4      	str	r4, [r0, r3]
  adds r3, r3, #4
 8000c5e:	3304      	adds	r3, #4

08000c60 <LoopCopyDataInit>:

LoopCopyDataInit:
  adds r4, r0, r3
 8000c60:	18c4      	adds	r4, r0, r3
  cmp r4, r1
 8000c62:	428c      	cmp	r4, r1
  bcc CopyDataInit
 8000c64:	d3f9      	bcc.n	8000c5a <CopyDataInit>
  
/* Zero fill the bss segment. */
  ldr r2, =_sbss
 8000c66:	4a0a      	ldr	r2, [pc, #40]	@ (8000c90 <LoopFillZerobss+0x1e>)
  ldr r4, =_ebss
 8000c68:	4c0a      	ldr	r4, [pc, #40]	@ (8000c94 <LoopFillZerobss+0x22>)
  movs r3, #0
 8000c6a:	2300      	movs	r3, #0
  b LoopFillZerobss
 8000c6c:	e001      	b.n	8000c72 <LoopFillZerobss>

08000c6e <FillZerobss>:

FillZerobss:
  str  r3, [r2]
 8000c6e:	6013      	str	r3, [r2, #0]
  adds r2, r2, #4
 8000c70:	3204      	adds	r2, #4

08000c72 <LoopFillZerobss>:

LoopFillZerobss:
  cmp r2, r4
 8000c72:	42a2      	cmp	r2, r4
  bcc FillZerobss
 8000c74:	d3fb      	bcc.n	8000c6e <FillZerobss>

/* Call static constructors */
    bl __libc_init_array
 8000c76:	f002 f9af 	bl	8002fd8 <__libc_init_array>
/* Call the application's entry point.*/
  bl  main
 8000c7a:	f7ff fd45 	bl	8000708 <main>
  bx  lr    
 8000c7e:	4770      	bx	lr
  ldr   sp, =_estack    		 /* set stack pointer */
 8000c80:	20020000 	.word	0x20020000
  ldr r0, =_sdata
 8000c84:	20000000 	.word	0x20000000
  ldr r1, =_edata
 8000c88:	20000068 	.word	0x20000068
  ldr r2, =_sidata
 8000c8c:	08003e44 	.word	0x08003e44
  ldr r2, =_sbss
 8000c90:	20000068 	.word	0x20000068
  ldr r4, =_ebss
 8000c94:	20000250 	.word	0x20000250

08000c98 <ADC_IRQHandler>:
 * @retval None       
*/
    .section  .text.Default_Handler,"ax",%progbits
Default_Handler:
Infinite_Loop:
  b  Infinite_Loop
 8000c98:	e7fe      	b.n	8000c98 <ADC_IRQHandler>
	...

08000c9c <HAL_Init>:
  *         need to ensure that the SysTick time base is always set to 1 millisecond
  *         to have correct HAL operation.
  * @retval HAL status
  */
HAL_StatusTypeDef HAL_Init(void)
{
 8000c9c:	b580      	push	{r7, lr}
 8000c9e:	af00      	add	r7, sp, #0
  /* Configure Flash prefetch, Instruction cache, Data cache */ 
#if (INSTRUCTION_CACHE_ENABLE != 0U)
  __HAL_FLASH_INSTRUCTION_CACHE_ENABLE();
 8000ca0:	4b0e      	ldr	r3, [pc, #56]	@ (8000cdc <HAL_Init+0x40>)
 8000ca2:	681b      	ldr	r3, [r3, #0]
 8000ca4:	4a0d      	ldr	r2, [pc, #52]	@ (8000cdc <HAL_Init+0x40>)
 8000ca6:	f443 7300 	orr.w	r3, r3, #512	@ 0x200
 8000caa:	6013      	str	r3, [r2, #0]
#endif /* INSTRUCTION_CACHE_ENABLE */

#if (DATA_CACHE_ENABLE != 0U)
  __HAL_FLASH_DATA_CACHE_ENABLE();
 8000cac:	4b0b      	ldr	r3, [pc, #44]	@ (8000cdc <HAL_Init+0x40>)
 8000cae:	681b      	ldr	r3, [r3, #0]
 8000cb0:	4a0a      	ldr	r2, [pc, #40]	@ (8000cdc <HAL_Init+0x40>)
 8000cb2:	f443 6380 	orr.w	r3, r3, #1024	@ 0x400
 8000cb6:	6013      	str	r3, [r2, #0]
#endif /* DATA_CACHE_ENABLE */

#if (PREFETCH_ENABLE != 0U)
  __HAL_FLASH_PREFETCH_BUFFER_ENABLE();
 8000cb8:	4b08      	ldr	r3, [pc, #32]	@ (8000cdc <HAL_Init+0x40>)
 8000cba:	681b      	ldr	r3, [r3, #0]
 8000cbc:	4a07      	ldr	r2, [pc, #28]	@ (8000cdc <HAL_Init+0x40>)
 8000cbe:	f443 7380 	orr.w	r3, r3, #256	@ 0x100
 8000cc2:	6013      	str	r3, [r2, #0]
#endif /* PREFETCH_ENABLE */

  /* Set Interrupt Group Priority */
  HAL_NVIC_SetPriorityGrouping(NVIC_PRIORITYGROUP_4);
 8000cc4:	2003      	movs	r0, #3
 8000cc6:	f000 f923 	bl	8000f10 <HAL_NVIC_SetPriorityGrouping>

  /* Use systick as time base source and configure 1ms tick (default clock after Reset is HSI) */
  HAL_InitTick(TICK_INT_PRIORITY);
 8000cca:	200f      	movs	r0, #15
 8000ccc:	f000 f808 	bl	8000ce0 <HAL_InitTick>

  /* Init the low level hardware */
  HAL_MspInit();
 8000cd0:	f7ff fe3a 	bl	8000948 <HAL_MspInit>

  /* Return function status */
  return HAL_OK;
 8000cd4:	2300      	movs	r3, #0
}
 8000cd6:	4618      	mov	r0, r3
 8000cd8:	bd80      	pop	{r7, pc}
 8000cda:	bf00      	nop
 8000cdc:	40023c00 	.word	0x40023c00

08000ce0 <HAL_InitTick>:
  *       implementation  in user file.
  * @param TickPriority Tick interrupt priority.
  * @retval HAL status
  */
__weak HAL_StatusTypeDef HAL_InitTick(uint32_t TickPriority)
{
 8000ce0:	b580      	push	{r7, lr}
 8000ce2:	b082      	sub	sp, #8
 8000ce4:	af00      	add	r7, sp, #0
 8000ce6:	6078      	str	r0, [r7, #4]
  /* Configure the SysTick to have interrupt in 1ms time basis*/
  if (HAL_SYSTICK_Config(SystemCoreClock / (1000U / uwTickFreq)) > 0U)
 8000ce8:	4b12      	ldr	r3, [pc, #72]	@ (8000d34 <HAL_InitTick+0x54>)
 8000cea:	681a      	ldr	r2, [r3, #0]
 8000cec:	4b12      	ldr	r3, [pc, #72]	@ (8000d38 <HAL_InitTick+0x58>)
 8000cee:	781b      	ldrb	r3, [r3, #0]
 8000cf0:	4619      	mov	r1, r3
 8000cf2:	f44f 737a 	mov.w	r3, #1000	@ 0x3e8
 8000cf6:	fbb3 f3f1 	udiv	r3, r3, r1
 8000cfa:	fbb2 f3f3 	udiv	r3, r2, r3
 8000cfe:	4618      	mov	r0, r3
 8000d00:	f000 f931 	bl	8000f66 <HAL_SYSTICK_Config>
 8000d04:	4603      	mov	r3, r0
 8000d06:	2b00      	cmp	r3, #0
 8000d08:	d001      	beq.n	8000d0e <HAL_InitTick+0x2e>
  {
    return HAL_ERROR;
 8000d0a:	2301      	movs	r3, #1
 8000d0c:	e00e      	b.n	8000d2c <HAL_InitTick+0x4c>
  }

  /* Configure the SysTick IRQ priority */
  if (TickPriority < (1UL << __NVIC_PRIO_BITS))
 8000d0e:	687b      	ldr	r3, [r7, #4]
 8000d10:	2b0f      	cmp	r3, #15
 8000d12:	d80a      	bhi.n	8000d2a <HAL_InitTick+0x4a>
  {
    HAL_NVIC_SetPriority(SysTick_IRQn, TickPriority, 0U);
 8000d14:	2200      	movs	r2, #0
 8000d16:	6879      	ldr	r1, [r7, #4]
 8000d18:	f04f 30ff 	mov.w	r0, #4294967295
 8000d1c:	f000 f903 	bl	8000f26 <HAL_NVIC_SetPriority>
    uwTickPrio = TickPriority;
 8000d20:	4a06      	ldr	r2, [pc, #24]	@ (8000d3c <HAL_InitTick+0x5c>)
 8000d22:	687b      	ldr	r3, [r7, #4]
 8000d24:	6013      	str	r3, [r2, #0]
  {
    return HAL_ERROR;
  }

  /* Return function status */
  return HAL_OK;
 8000d26:	2300      	movs	r3, #0
 8000d28:	e000      	b.n	8000d2c <HAL_InitTick+0x4c>
    return HAL_ERROR;
 8000d2a:	2301      	movs	r3, #1
}
 8000d2c:	4618      	mov	r0, r3
 8000d2e:	3708      	adds	r7, #8
 8000d30:	46bd      	mov	sp, r7
 8000d32:	bd80      	pop	{r7, pc}
 8000d34:	20000000 	.word	0x20000000
 8000d38:	20000008 	.word	0x20000008
 8000d3c:	20000004 	.word	0x20000004

08000d40 <HAL_IncTick>:
 * @note This function is declared as __weak to be overwritten in case of other 
  *      implementations in user file.
  * @retval None
  */
__weak void HAL_IncTick(void)
{
 8000d40:	b480      	push	{r7}
 8000d42:	af00      	add	r7, sp, #0
  uwTick += uwTickFreq;
 8000d44:	4b06      	ldr	r3, [pc, #24]	@ (8000d60 <HAL_IncTick+0x20>)
 8000d46:	781b      	ldrb	r3, [r3, #0]
 8000d48:	461a      	mov	r2, r3
 8000d4a:	4b06      	ldr	r3, [pc, #24]	@ (8000d64 <HAL_IncTick+0x24>)
 8000d4c:	681b      	ldr	r3, [r3, #0]
 8000d4e:	4413      	add	r3, r2
 8000d50:	4a04      	ldr	r2, [pc, #16]	@ (8000d64 <HAL_IncTick+0x24>)
 8000d52:	6013      	str	r3, [r2, #0]
}
 8000d54:	bf00      	nop
 8000d56:	46bd      	mov	sp, r7
 8000d58:	f85d 7b04 	ldr.w	r7, [sp], #4
 8000d5c:	4770      	bx	lr
 8000d5e:	bf00      	nop
 8000d60:	20000008 	.word	0x20000008
 8000d64:	200000e0 	.word	0x200000e0

08000d68 <HAL_GetTick>:
  * @note This function is declared as __weak to be overwritten in case of other 
  *       implementations in user file.
  * @retval tick value
  */
__weak uint32_t HAL_GetTick(void)
{
 8000d68:	b480      	push	{r7}
 8000d6a:	af00      	add	r7, sp, #0
  return uwTick;
 8000d6c:	4b03      	ldr	r3, [pc, #12]	@ (8000d7c <HAL_GetTick+0x14>)
 8000d6e:	681b      	ldr	r3, [r3, #0]
}
 8000d70:	4618      	mov	r0, r3
 8000d72:	46bd      	mov	sp, r7
 8000d74:	f85d 7b04 	ldr.w	r7, [sp], #4
 8000d78:	4770      	bx	lr
 8000d7a:	bf00      	nop
 8000d7c:	200000e0 	.word	0x200000e0

08000d80 <__NVIC_SetPriorityGrouping>:
           In case of a conflict between priority grouping and available
           priority bits (__NVIC_PRIO_BITS), the smallest possible priority group is set.
  \param [in]      PriorityGroup  Priority grouping field.
 */
__STATIC_INLINE void __NVIC_SetPriorityGrouping(uint32_t PriorityGroup)
{
 8000d80:	b480      	push	{r7}
 8000d82:	b085      	sub	sp, #20
 8000d84:	af00      	add	r7, sp, #0
 8000d86:	6078      	str	r0, [r7, #4]
  uint32_t reg_value;
  uint32_t PriorityGroupTmp = (PriorityGroup & (uint32_t)0x07UL);             /* only values 0..7 are used          */
 8000d88:	687b      	ldr	r3, [r7, #4]
 8000d8a:	f003 0307 	and.w	r3, r3, #7
 8000d8e:	60fb      	str	r3, [r7, #12]

  reg_value  =  SCB->AIRCR;                                                   /* read old register configuration    */
 8000d90:	4b0c      	ldr	r3, [pc, #48]	@ (8000dc4 <__NVIC_SetPriorityGrouping+0x44>)
 8000d92:	68db      	ldr	r3, [r3, #12]
 8000d94:	60bb      	str	r3, [r7, #8]
  reg_value &= ~((uint32_t)(SCB_AIRCR_VECTKEY_Msk | SCB_AIRCR_PRIGROUP_Msk)); /* clear bits to change               */
 8000d96:	68ba      	ldr	r2, [r7, #8]
 8000d98:	f64f 03ff 	movw	r3, #63743	@ 0xf8ff
 8000d9c:	4013      	ands	r3, r2
 8000d9e:	60bb      	str	r3, [r7, #8]
  reg_value  =  (reg_value                                   |
                ((uint32_t)0x5FAUL << SCB_AIRCR_VECTKEY_Pos) |
                (PriorityGroupTmp << SCB_AIRCR_PRIGROUP_Pos)  );              /* Insert write key and priority group */
 8000da0:	68fb      	ldr	r3, [r7, #12]
 8000da2:	021a      	lsls	r2, r3, #8
                ((uint32_t)0x5FAUL << SCB_AIRCR_VECTKEY_Pos) |
 8000da4:	68bb      	ldr	r3, [r7, #8]
 8000da6:	4313      	orrs	r3, r2
  reg_value  =  (reg_value                                   |
 8000da8:	f043 63bf 	orr.w	r3, r3, #100139008	@ 0x5f80000
 8000dac:	f443 3300 	orr.w	r3, r3, #131072	@ 0x20000
 8000db0:	60bb      	str	r3, [r7, #8]
  SCB->AIRCR =  reg_value;
 8000db2:	4a04      	ldr	r2, [pc, #16]	@ (8000dc4 <__NVIC_SetPriorityGrouping+0x44>)
 8000db4:	68bb      	ldr	r3, [r7, #8]
 8000db6:	60d3      	str	r3, [r2, #12]
}
 8000db8:	bf00      	nop
 8000dba:	3714      	adds	r7, #20
 8000dbc:	46bd      	mov	sp, r7
 8000dbe:	f85d 7b04 	ldr.w	r7, [sp], #4
 8000dc2:	4770      	bx	lr
 8000dc4:	e000ed00 	.word	0xe000ed00

08000dc8 <__NVIC_GetPriorityGrouping>:
  \brief   Get Priority Grouping
  \details Reads the priority grouping field from the NVIC Interrupt Controller.
  \return                Priority grouping field (SCB->AIRCR [10:8] PRIGROUP field).
 */
__STATIC_INLINE uint32_t __NVIC_GetPriorityGrouping(void)
{
 8000dc8:	b480      	push	{r7}
 8000dca:	af00      	add	r7, sp, #0
  return ((uint32_t)((SCB->AIRCR & SCB_AIRCR_PRIGROUP_Msk) >> SCB_AIRCR_PRIGROUP_Pos));
 8000dcc:	4b04      	ldr	r3, [pc, #16]	@ (8000de0 <__NVIC_GetPriorityGrouping+0x18>)
 8000dce:	68db      	ldr	r3, [r3, #12]
 8000dd0:	0a1b      	lsrs	r3, r3, #8
 8000dd2:	f003 0307 	and.w	r3, r3, #7
}
 8000dd6:	4618      	mov	r0, r3
 8000dd8:	46bd      	mov	sp, r7
 8000dda:	f85d 7b04 	ldr.w	r7, [sp], #4
 8000dde:	4770      	bx	lr
 8000de0:	e000ed00 	.word	0xe000ed00

08000de4 <__NVIC_SetPriority>:
  \param [in]      IRQn  Interrupt number.
  \param [in]  priority  Priority to set.
  \note    The priority cannot be set for every processor exception.
 */
__STATIC_INLINE void __NVIC_SetPriority(IRQn_Type IRQn, uint32_t priority)
{
 8000de4:	b480      	push	{r7}
 8000de6:	b083      	sub	sp, #12
 8000de8:	af00      	add	r7, sp, #0
 8000dea:	4603      	mov	r3, r0
 8000dec:	6039      	str	r1, [r7, #0]
 8000dee:	71fb      	strb	r3, [r7, #7]
  if ((int32_t)(IRQn) >= 0)
 8000df0:	f997 3007 	ldrsb.w	r3, [r7, #7]
 8000df4:	2b00      	cmp	r3, #0
 8000df6:	db0a      	blt.n	8000e0e <__NVIC_SetPriority+0x2a>
  {
    NVIC->IP[((uint32_t)IRQn)]               = (uint8_t)((priority << (8U - __NVIC_PRIO_BITS)) & (uint32_t)0xFFUL);
 8000df8:	683b      	ldr	r3, [r7, #0]
 8000dfa:	b2da      	uxtb	r2, r3
 8000dfc:	490c      	ldr	r1, [pc, #48]	@ (8000e30 <__NVIC_SetPriority+0x4c>)
 8000dfe:	f997 3007 	ldrsb.w	r3, [r7, #7]
 8000e02:	0112      	lsls	r2, r2, #4
 8000e04:	b2d2      	uxtb	r2, r2
 8000e06:	440b      	add	r3, r1
 8000e08:	f883 2300 	strb.w	r2, [r3, #768]	@ 0x300
  }
  else
  {
    SCB->SHP[(((uint32_t)IRQn) & 0xFUL)-4UL] = (uint8_t)((priority << (8U - __NVIC_PRIO_BITS)) & (uint32_t)0xFFUL);
  }
}
 8000e0c:	e00a      	b.n	8000e24 <__NVIC_SetPriority+0x40>
    SCB->SHP[(((uint32_t)IRQn) & 0xFUL)-4UL] = (uint8_t)((priority << (8U - __NVIC_PRIO_BITS)) & (uint32_t)0xFFUL);
 8000e0e:	683b      	ldr	r3, [r7, #0]
 8000e10:	b2da      	uxtb	r2, r3
 8000e12:	4908      	ldr	r1, [pc, #32]	@ (8000e34 <__NVIC_SetPriority+0x50>)
 8000e14:	79fb      	ldrb	r3, [r7, #7]
 8000e16:	f003 030f 	and.w	r3, r3, #15
 8000e1a:	3b04      	subs	r3, #4
 8000e1c:	0112      	lsls	r2, r2, #4
 8000e1e:	b2d2      	uxtb	r2, r2
 8000e20:	440b      	add	r3, r1
 8000e22:	761a      	strb	r2, [r3, #24]
}
 8000e24:	bf00      	nop
 8000e26:	370c      	adds	r7, #12
 8000e28:	46bd      	mov	sp, r7
 8000e2a:	f85d 7b04 	ldr.w	r7, [sp], #4
 8000e2e:	4770      	bx	lr
 8000e30:	e000e100 	.word	0xe000e100
 8000e34:	e000ed00 	.word	0xe000ed00

08000e38 <NVIC_EncodePriority>:
  \param [in]   PreemptPriority  Preemptive priority value (starting from 0).
  \param [in]       SubPriority  Subpriority value (starting from 0).
  \return                        Encoded priority. Value can be used in the function \ref NVIC_SetPriority().
 */
__STATIC_INLINE uint32_t NVIC_EncodePriority (uint32_t PriorityGroup, uint32_t PreemptPriority, uint32_t SubPriority)
{
 8000e38:	b480      	push	{r7}
 8000e3a:	b089      	sub	sp, #36	@ 0x24
 8000e3c:	af00      	add	r7, sp, #0
 8000e3e:	60f8      	str	r0, [r7, #12]
 8000e40:	60b9      	str	r1, [r7, #8]
 8000e42:	607a      	str	r2, [r7, #4]
  uint32_t PriorityGroupTmp = (PriorityGroup & (uint32_t)0x07UL);   /* only values 0..7 are used          */
 8000e44:	68fb      	ldr	r3, [r7, #12]
 8000e46:	f003 0307 	and.w	r3, r3, #7
 8000e4a:	61fb      	str	r3, [r7, #28]
  uint32_t PreemptPriorityBits;
  uint32_t SubPriorityBits;

  PreemptPriorityBits = ((7UL - PriorityGroupTmp) > (uint32_t)(__NVIC_PRIO_BITS)) ? (uint32_t)(__NVIC_PRIO_BITS) : (uint32_t)(7UL - PriorityGroupTmp);
 8000e4c:	69fb      	ldr	r3, [r7, #28]
 8000e4e:	f1c3 0307 	rsb	r3, r3, #7
 8000e52:	2b04      	cmp	r3, #4
 8000e54:	bf28      	it	cs
 8000e56:	2304      	movcs	r3, #4
 8000e58:	61bb      	str	r3, [r7, #24]
  SubPriorityBits     = ((PriorityGroupTmp + (uint32_t)(__NVIC_PRIO_BITS)) < (uint32_t)7UL) ? (uint32_t)0UL : (uint32_t)((PriorityGroupTmp - 7UL) + (uint32_t)(__NVIC_PRIO_BITS));
 8000e5a:	69fb      	ldr	r3, [r7, #28]
 8000e5c:	3304      	adds	r3, #4
 8000e5e:	2b06      	cmp	r3, #6
 8000e60:	d902      	bls.n	8000e68 <NVIC_EncodePriority+0x30>
 8000e62:	69fb      	ldr	r3, [r7, #28]
 8000e64:	3b03      	subs	r3, #3
 8000e66:	e000      	b.n	8000e6a <NVIC_EncodePriority+0x32>
 8000e68:	2300      	movs	r3, #0
 8000e6a:	617b      	str	r3, [r7, #20]

  return (
           ((PreemptPriority & (uint32_t)((1UL << (PreemptPriorityBits)) - 1UL)) << SubPriorityBits) |
 8000e6c:	f04f 32ff 	mov.w	r2, #4294967295
 8000e70:	69bb      	ldr	r3, [r7, #24]
 8000e72:	fa02 f303 	lsl.w	r3, r2, r3
 8000e76:	43da      	mvns	r2, r3
 8000e78:	68bb      	ldr	r3, [r7, #8]
 8000e7a:	401a      	ands	r2, r3
 8000e7c:	697b      	ldr	r3, [r7, #20]
 8000e7e:	409a      	lsls	r2, r3
           ((SubPriority     & (uint32_t)((1UL << (SubPriorityBits    )) - 1UL)))
 8000e80:	f04f 31ff 	mov.w	r1, #4294967295
 8000e84:	697b      	ldr	r3, [r7, #20]
 8000e86:	fa01 f303 	lsl.w	r3, r1, r3
 8000e8a:	43d9      	mvns	r1, r3
 8000e8c:	687b      	ldr	r3, [r7, #4]
 8000e8e:	400b      	ands	r3, r1
           ((PreemptPriority & (uint32_t)((1UL << (PreemptPriorityBits)) - 1UL)) << SubPriorityBits) |
 8000e90:	4313      	orrs	r3, r2
         );
}
 8000e92:	4618      	mov	r0, r3
 8000e94:	3724      	adds	r7, #36	@ 0x24
 8000e96:	46bd      	mov	sp, r7
 8000e98:	f85d 7b04 	ldr.w	r7, [sp], #4
 8000e9c:	4770      	bx	lr
	...

08000ea0 <__NVIC_SystemReset>:
/**
  \brief   System Reset
  \details Initiates a system reset request to reset the MCU.
 */
__NO_RETURN __STATIC_INLINE void __NVIC_SystemReset(void)
{
 8000ea0:	b480      	push	{r7}
 8000ea2:	af00      	add	r7, sp, #0
  __ASM volatile ("dsb 0xF":::"memory");
 8000ea4:	f3bf 8f4f 	dsb	sy
}
 8000ea8:	bf00      	nop
  __DSB();                                                          /* Ensure all outstanding memory accesses included
                                                                       buffered write are completed before reset */
  SCB->AIRCR  = (uint32_t)((0x5FAUL << SCB_AIRCR_VECTKEY_Pos)    |
                           (SCB->AIRCR & SCB_AIRCR_PRIGROUP_Msk) |
 8000eaa:	4b06      	ldr	r3, [pc, #24]	@ (8000ec4 <__NVIC_SystemReset+0x24>)
 8000eac:	68db      	ldr	r3, [r3, #12]
 8000eae:	f403 62e0 	and.w	r2, r3, #1792	@ 0x700
  SCB->AIRCR  = (uint32_t)((0x5FAUL << SCB_AIRCR_VECTKEY_Pos)    |
 8000eb2:	4904      	ldr	r1, [pc, #16]	@ (8000ec4 <__NVIC_SystemReset+0x24>)
 8000eb4:	4b04      	ldr	r3, [pc, #16]	@ (8000ec8 <__NVIC_SystemReset+0x28>)
 8000eb6:	4313      	orrs	r3, r2
 8000eb8:	60cb      	str	r3, [r1, #12]
  __ASM volatile ("dsb 0xF":::"memory");
 8000eba:	f3bf 8f4f 	dsb	sy
}
 8000ebe:	bf00      	nop
                            SCB_AIRCR_SYSRESETREQ_Msk    );         /* Keep priority group unchanged */
  __DSB();                                                          /* Ensure completion of memory access */

  for(;;)                                                           /* wait until reset */
  {
    __NOP();
 8000ec0:	bf00      	nop
 8000ec2:	e7fd      	b.n	8000ec0 <__NVIC_SystemReset+0x20>
 8000ec4:	e000ed00 	.word	0xe000ed00
 8000ec8:	05fa0004 	.word	0x05fa0004

08000ecc <SysTick_Config>:
  \note    When the variable <b>__Vendor_SysTickConfig</b> is set to 1, then the
           function <b>SysTick_Config</b> is not included. In this case, the file <b><i>device</i>.h</b>
           must contain a vendor-specific implementation of this function.
 */
__STATIC_INLINE uint32_t SysTick_Config(uint32_t ticks)
{
 8000ecc:	b580      	push	{r7, lr}
 8000ece:	b082      	sub	sp, #8
 8000ed0:	af00      	add	r7, sp, #0
 8000ed2:	6078      	str	r0, [r7, #4]
  if ((ticks - 1UL) > SysTick_LOAD_RELOAD_Msk)
 8000ed4:	687b      	ldr	r3, [r7, #4]
 8000ed6:	3b01      	subs	r3, #1
 8000ed8:	f1b3 7f80 	cmp.w	r3, #16777216	@ 0x1000000
 8000edc:	d301      	bcc.n	8000ee2 <SysTick_Config+0x16>
  {
    return (1UL);                                                   /* Reload value impossible */
 8000ede:	2301      	movs	r3, #1
 8000ee0:	e00f      	b.n	8000f02 <SysTick_Config+0x36>
  }

  SysTick->LOAD  = (uint32_t)(ticks - 1UL);                         /* set reload register */
 8000ee2:	4a0a      	ldr	r2, [pc, #40]	@ (8000f0c <SysTick_Config+0x40>)
 8000ee4:	687b      	ldr	r3, [r7, #4]
 8000ee6:	3b01      	subs	r3, #1
 8000ee8:	6053      	str	r3, [r2, #4]
  NVIC_SetPriority (SysTick_IRQn, (1UL << __NVIC_PRIO_BITS) - 1UL); /* set Priority for Systick Interrupt */
 8000eea:	210f      	movs	r1, #15
 8000eec:	f04f 30ff 	mov.w	r0, #4294967295
 8000ef0:	f7ff ff78 	bl	8000de4 <__NVIC_SetPriority>
  SysTick->VAL   = 0UL;                                             /* Load the SysTick Counter Value */
 8000ef4:	4b05      	ldr	r3, [pc, #20]	@ (8000f0c <SysTick_Config+0x40>)
 8000ef6:	2200      	movs	r2, #0
 8000ef8:	609a      	str	r2, [r3, #8]
  SysTick->CTRL  = SysTick_CTRL_CLKSOURCE_Msk |
 8000efa:	4b04      	ldr	r3, [pc, #16]	@ (8000f0c <SysTick_Config+0x40>)
 8000efc:	2207      	movs	r2, #7
 8000efe:	601a      	str	r2, [r3, #0]
                   SysTick_CTRL_TICKINT_Msk   |
                   SysTick_CTRL_ENABLE_Msk;                         /* Enable SysTick IRQ and SysTick Timer */
  return (0UL);                                                     /* Function successful */
 8000f00:	2300      	movs	r3, #0
}
 8000f02:	4618      	mov	r0, r3
 8000f04:	3708      	adds	r7, #8
 8000f06:	46bd      	mov	sp, r7
 8000f08:	bd80      	pop	{r7, pc}
 8000f0a:	bf00      	nop
 8000f0c:	e000e010 	.word	0xe000e010

08000f10 <HAL_NVIC_SetPriorityGrouping>:
  * @note   When the NVIC_PriorityGroup_0 is selected, IRQ preemption is no more possible. 
  *         The pending IRQ priority will be managed only by the subpriority. 
  * @retval None
  */
void HAL_NVIC_SetPriorityGrouping(uint32_t PriorityGroup)
{
 8000f10:	b580      	push	{r7, lr}
 8000f12:	b082      	sub	sp, #8
 8000f14:	af00      	add	r7, sp, #0
 8000f16:	6078      	str	r0, [r7, #4]
  /* Check the parameters */
  assert_param(IS_NVIC_PRIORITY_GROUP(PriorityGroup));
  
  /* Set the PRIGROUP[10:8] bits according to the PriorityGroup parameter value */
  NVIC_SetPriorityGrouping(PriorityGroup);
 8000f18:	6878      	ldr	r0, [r7, #4]
 8000f1a:	f7ff ff31 	bl	8000d80 <__NVIC_SetPriorityGrouping>
}
 8000f1e:	bf00      	nop
 8000f20:	3708      	adds	r7, #8
 8000f22:	46bd      	mov	sp, r7
 8000f24:	bd80      	pop	{r7, pc}

08000f26 <HAL_NVIC_SetPriority>:
  *         This parameter can be a value between 0 and 15
  *         A lower priority value indicates a higher priority.          
  * @retval None
  */
void HAL_NVIC_SetPriority(IRQn_Type IRQn, uint32_t PreemptPriority, uint32_t SubPriority)
{ 
 8000f26:	b580      	push	{r7, lr}
 8000f28:	b086      	sub	sp, #24
 8000f2a:	af00      	add	r7, sp, #0
 8000f2c:	4603      	mov	r3, r0
 8000f2e:	60b9      	str	r1, [r7, #8]
 8000f30:	607a      	str	r2, [r7, #4]
 8000f32:	73fb      	strb	r3, [r7, #15]
  uint32_t prioritygroup = 0x00U;
 8000f34:	2300      	movs	r3, #0
 8000f36:	617b      	str	r3, [r7, #20]
  
  /* Check the parameters */
  assert_param(IS_NVIC_SUB_PRIORITY(SubPriority));
  assert_param(IS_NVIC_PREEMPTION_PRIORITY(PreemptPriority));
  
  prioritygroup = NVIC_GetPriorityGrouping();
 8000f38:	f7ff ff46 	bl	8000dc8 <__NVIC_GetPriorityGrouping>
 8000f3c:	6178      	str	r0, [r7, #20]
  
  NVIC_SetPriority(IRQn, NVIC_EncodePriority(prioritygroup, PreemptPriority, SubPriority));
 8000f3e:	687a      	ldr	r2, [r7, #4]
 8000f40:	68b9      	ldr	r1, [r7, #8]
 8000f42:	6978      	ldr	r0, [r7, #20]
 8000f44:	f7ff ff78 	bl	8000e38 <NVIC_EncodePriority>
 8000f48:	4602      	mov	r2, r0
 8000f4a:	f997 300f 	ldrsb.w	r3, [r7, #15]
 8000f4e:	4611      	mov	r1, r2
 8000f50:	4618      	mov	r0, r3
 8000f52:	f7ff ff47 	bl	8000de4 <__NVIC_SetPriority>
}
 8000f56:	bf00      	nop
 8000f58:	3718      	adds	r7, #24
 8000f5a:	46bd      	mov	sp, r7
 8000f5c:	bd80      	pop	{r7, pc}

08000f5e <HAL_NVIC_SystemReset>:
/**
  * @brief  Initiates a system reset request to reset the MCU.
  * @retval None
  */
void HAL_NVIC_SystemReset(void)
{
 8000f5e:	b580      	push	{r7, lr}
 8000f60:	af00      	add	r7, sp, #0
  /* System Reset */
  NVIC_SystemReset();
 8000f62:	f7ff ff9d 	bl	8000ea0 <__NVIC_SystemReset>

08000f66 <HAL_SYSTICK_Config>:
  * @param  TicksNumb Specifies the ticks Number of ticks between two interrupts.
  * @retval status:  - 0  Function succeeded.
  *                  - 1  Function failed.
  */
uint32_t HAL_SYSTICK_Config(uint32_t TicksNumb)
{
 8000f66:	b580      	push	{r7, lr}
 8000f68:	b082      	sub	sp, #8
 8000f6a:	af00      	add	r7, sp, #0
 8000f6c:	6078      	str	r0, [r7, #4]
   return SysTick_Config(TicksNumb);
 8000f6e:	6878      	ldr	r0, [r7, #4]
 8000f70:	f7ff ffac 	bl	8000ecc <SysTick_Config>
 8000f74:	4603      	mov	r3, r0
}
 8000f76:	4618      	mov	r0, r3
 8000f78:	3708      	adds	r7, #8
 8000f7a:	46bd      	mov	sp, r7
 8000f7c:	bd80      	pop	{r7, pc}

08000f7e <HAL_SYSTICK_IRQHandler>:
/**
  * @brief  This function handles SYSTICK interrupt request.
  * @retval None
  */
void HAL_SYSTICK_IRQHandler(void)
{
 8000f7e:	b580      	push	{r7, lr}
 8000f80:	af00      	add	r7, sp, #0
  HAL_SYSTICK_Callback();
 8000f82:	f7ff fcbb 	bl	80008fc <HAL_SYSTICK_Callback>
}
 8000f86:	bf00      	nop
 8000f88:	bd80      	pop	{r7, pc}
	...

08000f8c <HAL_FLASH_Program>:
  * @param  Data specifies the data to be programmed
  * 
  * @retval HAL_StatusTypeDef HAL Status
  */
HAL_StatusTypeDef HAL_FLASH_Program(uint32_t TypeProgram, uint32_t Address, uint64_t Data)
{
 8000f8c:	b580      	push	{r7, lr}
 8000f8e:	b086      	sub	sp, #24
 8000f90:	af00      	add	r7, sp, #0
 8000f92:	60f8      	str	r0, [r7, #12]
 8000f94:	60b9      	str	r1, [r7, #8]
 8000f96:	e9c7 2300 	strd	r2, r3, [r7]
  HAL_StatusTypeDef status = HAL_ERROR;
 8000f9a:	2301      	movs	r3, #1
 8000f9c:	75fb      	strb	r3, [r7, #23]
  
  /* Process Locked */
  __HAL_LOCK(&pFlash);
 8000f9e:	4b23      	ldr	r3, [pc, #140]	@ (800102c <HAL_FLASH_Program+0xa0>)
 8000fa0:	7e1b      	ldrb	r3, [r3, #24]
 8000fa2:	2b01      	cmp	r3, #1
 8000fa4:	d101      	bne.n	8000faa <HAL_FLASH_Program+0x1e>
 8000fa6:	2302      	movs	r3, #2
 8000fa8:	e03b      	b.n	8001022 <HAL_FLASH_Program+0x96>
 8000faa:	4b20      	ldr	r3, [pc, #128]	@ (800102c <HAL_FLASH_Program+0xa0>)
 8000fac:	2201      	movs	r2, #1
 8000fae:	761a      	strb	r2, [r3, #24]
  
  /* Check the parameters */
  assert_param(IS_FLASH_TYPEPROGRAM(TypeProgram));
  
  /* Wait for last operation to be completed */
  status = FLASH_WaitForLastOperation((uint32_t)FLASH_TIMEOUT_VALUE);
 8000fb0:	f24c 3050 	movw	r0, #50000	@ 0xc350
 8000fb4:	f000 f870 	bl	8001098 <FLASH_WaitForLastOperation>
 8000fb8:	4603      	mov	r3, r0
 8000fba:	75fb      	strb	r3, [r7, #23]
  
  if(status == HAL_OK)
 8000fbc:	7dfb      	ldrb	r3, [r7, #23]
 8000fbe:	2b00      	cmp	r3, #0
 8000fc0:	d12b      	bne.n	800101a <HAL_FLASH_Program+0x8e>
  {
    if(TypeProgram == FLASH_TYPEPROGRAM_BYTE)
 8000fc2:	68fb      	ldr	r3, [r7, #12]
 8000fc4:	2b00      	cmp	r3, #0
 8000fc6:	d105      	bne.n	8000fd4 <HAL_FLASH_Program+0x48>
    {
      /*Program byte (8-bit) at a specified address.*/
      FLASH_Program_Byte(Address, (uint8_t) Data);
 8000fc8:	783b      	ldrb	r3, [r7, #0]
 8000fca:	4619      	mov	r1, r3
 8000fcc:	68b8      	ldr	r0, [r7, #8]
 8000fce:	f000 f91b 	bl	8001208 <FLASH_Program_Byte>
 8000fd2:	e016      	b.n	8001002 <HAL_FLASH_Program+0x76>
    }
    else if(TypeProgram == FLASH_TYPEPROGRAM_HALFWORD)
 8000fd4:	68fb      	ldr	r3, [r7, #12]
 8000fd6:	2b01      	cmp	r3, #1
 8000fd8:	d105      	bne.n	8000fe6 <HAL_FLASH_Program+0x5a>
    {
      /*Program halfword (16-bit) at a specified address.*/
      FLASH_Program_HalfWord(Address, (uint16_t) Data);
 8000fda:	883b      	ldrh	r3, [r7, #0]
 8000fdc:	4619      	mov	r1, r3
 8000fde:	68b8      	ldr	r0, [r7, #8]
 8000fe0:	f000 f8ee 	bl	80011c0 <FLASH_Program_HalfWord>
 8000fe4:	e00d      	b.n	8001002 <HAL_FLASH_Program+0x76>
    }
    else if(TypeProgram == FLASH_TYPEPROGRAM_WORD)
 8000fe6:	68fb      	ldr	r3, [r7, #12]
 8000fe8:	2b02      	cmp	r3, #2
 8000fea:	d105      	bne.n	8000ff8 <HAL_FLASH_Program+0x6c>
    {
      /*Program word (32-bit) at a specified address.*/
      FLASH_Program_Word(Address, (uint32_t) Data);
 8000fec:	683b      	ldr	r3, [r7, #0]
 8000fee:	4619      	mov	r1, r3
 8000ff0:	68b8      	ldr	r0, [r7, #8]
 8000ff2:	f000 f8c3 	bl	800117c <FLASH_Program_Word>
 8000ff6:	e004      	b.n	8001002 <HAL_FLASH_Program+0x76>
    }
    else
    {
      /*Program double word (64-bit) at a specified address.*/
      FLASH_Program_DoubleWord(Address, Data);
 8000ff8:	e9d7 2300 	ldrd	r2, r3, [r7]
 8000ffc:	68b8      	ldr	r0, [r7, #8]
 8000ffe:	f000 f88b 	bl	8001118 <FLASH_Program_DoubleWord>
    }
    
    /* Wait for last operation to be completed */
    status = FLASH_WaitForLastOperation((uint32_t)FLASH_TIMEOUT_VALUE);
 8001002:	f24c 3050 	movw	r0, #50000	@ 0xc350
 8001006:	f000 f847 	bl	8001098 <FLASH_WaitForLastOperation>
 800100a:	4603      	mov	r3, r0
 800100c:	75fb      	strb	r3, [r7, #23]
    
    /* If the program operation is completed, disable the PG Bit */
    FLASH->CR &= (~FLASH_CR_PG);  
 800100e:	4b08      	ldr	r3, [pc, #32]	@ (8001030 <HAL_FLASH_Program+0xa4>)
 8001010:	691b      	ldr	r3, [r3, #16]
 8001012:	4a07      	ldr	r2, [pc, #28]	@ (8001030 <HAL_FLASH_Program+0xa4>)
 8001014:	f023 0301 	bic.w	r3, r3, #1
 8001018:	6113      	str	r3, [r2, #16]
  }
  
  /* Process Unlocked */
  __HAL_UNLOCK(&pFlash);
 800101a:	4b04      	ldr	r3, [pc, #16]	@ (800102c <HAL_FLASH_Program+0xa0>)
 800101c:	2200      	movs	r2, #0
 800101e:	761a      	strb	r2, [r3, #24]
  
  return status;
 8001020:	7dfb      	ldrb	r3, [r7, #23]
}
 8001022:	4618      	mov	r0, r3
 8001024:	3718      	adds	r7, #24
 8001026:	46bd      	mov	sp, r7
 8001028:	bd80      	pop	{r7, pc}
 800102a:	bf00      	nop
 800102c:	200000e4 	.word	0x200000e4
 8001030:	40023c00 	.word	0x40023c00

08001034 <HAL_FLASH_Unlock>:
/**
  * @brief  Unlock the FLASH control register access
  * @retval HAL Status
  */
HAL_StatusTypeDef HAL_FLASH_Unlock(void)
{
 8001034:	b480      	push	{r7}
 8001036:	b083      	sub	sp, #12
 8001038:	af00      	add	r7, sp, #0
  HAL_StatusTypeDef status = HAL_OK;
 800103a:	2300      	movs	r3, #0
 800103c:	71fb      	strb	r3, [r7, #7]

  if(READ_BIT(FLASH->CR, FLASH_CR_LOCK) != RESET)
 800103e:	4b0b      	ldr	r3, [pc, #44]	@ (800106c <HAL_FLASH_Unlock+0x38>)
 8001040:	691b      	ldr	r3, [r3, #16]
 8001042:	2b00      	cmp	r3, #0
 8001044:	da0b      	bge.n	800105e <HAL_FLASH_Unlock+0x2a>
  {
    /* Authorize the FLASH Registers access */
    WRITE_REG(FLASH->KEYR, FLASH_KEY1);
 8001046:	4b09      	ldr	r3, [pc, #36]	@ (800106c <HAL_FLASH_Unlock+0x38>)
 8001048:	4a09      	ldr	r2, [pc, #36]	@ (8001070 <HAL_FLASH_Unlock+0x3c>)
 800104a:	605a      	str	r2, [r3, #4]
    WRITE_REG(FLASH->KEYR, FLASH_KEY2);
 800104c:	4b07      	ldr	r3, [pc, #28]	@ (800106c <HAL_FLASH_Unlock+0x38>)
 800104e:	4a09      	ldr	r2, [pc, #36]	@ (8001074 <HAL_FLASH_Unlock+0x40>)
 8001050:	605a      	str	r2, [r3, #4]

    /* Verify Flash is unlocked */
    if(READ_BIT(FLASH->CR, FLASH_CR_LOCK) != RESET)
 8001052:	4b06      	ldr	r3, [pc, #24]	@ (800106c <HAL_FLASH_Unlock+0x38>)
 8001054:	691b      	ldr	r3, [r3, #16]
 8001056:	2b00      	cmp	r3, #0
 8001058:	da01      	bge.n	800105e <HAL_FLASH_Unlock+0x2a>
    {
      status = HAL_ERROR;
 800105a:	2301      	movs	r3, #1
 800105c:	71fb      	strb	r3, [r7, #7]
    }
  }

  return status;
 800105e:	79fb      	ldrb	r3, [r7, #7]
}
 8001060:	4618      	mov	r0, r3
 8001062:	370c      	adds	r7, #12
 8001064:	46bd      	mov	sp, r7
 8001066:	f85d 7b04 	ldr.w	r7, [sp], #4
 800106a:	4770      	bx	lr
 800106c:	40023c00 	.word	0x40023c00
 8001070:	45670123 	.word	0x45670123
 8001074:	cdef89ab 	.word	0xcdef89ab

08001078 <HAL_FLASH_Lock>:
/**
  * @brief  Locks the FLASH control register access
  * @retval HAL Status
  */
HAL_StatusTypeDef HAL_FLASH_Lock(void)
{
 8001078:	b480      	push	{r7}
 800107a:	af00      	add	r7, sp, #0
  /* Set the LOCK Bit to lock the FLASH Registers access */
  FLASH->CR |= FLASH_CR_LOCK;
 800107c:	4b05      	ldr	r3, [pc, #20]	@ (8001094 <HAL_FLASH_Lock+0x1c>)
 800107e:	691b      	ldr	r3, [r3, #16]
 8001080:	4a04      	ldr	r2, [pc, #16]	@ (8001094 <HAL_FLASH_Lock+0x1c>)
 8001082:	f043 4300 	orr.w	r3, r3, #2147483648	@ 0x80000000
 8001086:	6113      	str	r3, [r2, #16]
  
  return HAL_OK;  
 8001088:	2300      	movs	r3, #0
}
 800108a:	4618      	mov	r0, r3
 800108c:	46bd      	mov	sp, r7
 800108e:	f85d 7b04 	ldr.w	r7, [sp], #4
 8001092:	4770      	bx	lr
 8001094:	40023c00 	.word	0x40023c00

08001098 <FLASH_WaitForLastOperation>:
  * @brief  Wait for a FLASH operation to complete.
  * @param  Timeout maximum flash operationtimeout
  * @retval HAL Status
  */
HAL_StatusTypeDef FLASH_WaitForLastOperation(uint32_t Timeout)
{ 
 8001098:	b580      	push	{r7, lr}
 800109a:	b084      	sub	sp, #16
 800109c:	af00      	add	r7, sp, #0
 800109e:	6078      	str	r0, [r7, #4]
  uint32_t tickstart = 0U;
 80010a0:	2300      	movs	r3, #0
 80010a2:	60fb      	str	r3, [r7, #12]
  
  /* Clear Error Code */
  pFlash.ErrorCode = HAL_FLASH_ERROR_NONE;
 80010a4:	4b1a      	ldr	r3, [pc, #104]	@ (8001110 <FLASH_WaitForLastOperation+0x78>)
 80010a6:	2200      	movs	r2, #0
 80010a8:	61da      	str	r2, [r3, #28]
  
  /* Wait for the FLASH operation to complete by polling on BUSY flag to be reset.
     Even if the FLASH operation fails, the BUSY flag will be reset and an error
     flag will be set */
  /* Get tick */
  tickstart = HAL_GetTick();
 80010aa:	f7ff fe5d 	bl	8000d68 <HAL_GetTick>
 80010ae:	60f8      	str	r0, [r7, #12]

  while(__HAL_FLASH_GET_FLAG(FLASH_FLAG_BSY) != RESET) 
 80010b0:	e010      	b.n	80010d4 <FLASH_WaitForLastOperation+0x3c>
  { 
    if(Timeout != HAL_MAX_DELAY)
 80010b2:	687b      	ldr	r3, [r7, #4]
 80010b4:	f1b3 3fff 	cmp.w	r3, #4294967295
 80010b8:	d00c      	beq.n	80010d4 <FLASH_WaitForLastOperation+0x3c>
    {
      if((Timeout == 0U)||((HAL_GetTick() - tickstart ) > Timeout))
 80010ba:	687b      	ldr	r3, [r7, #4]
 80010bc:	2b00      	cmp	r3, #0
 80010be:	d007      	beq.n	80010d0 <FLASH_WaitForLastOperation+0x38>
 80010c0:	f7ff fe52 	bl	8000d68 <HAL_GetTick>
 80010c4:	4602      	mov	r2, r0
 80010c6:	68fb      	ldr	r3, [r7, #12]
 80010c8:	1ad3      	subs	r3, r2, r3
 80010ca:	687a      	ldr	r2, [r7, #4]
 80010cc:	429a      	cmp	r2, r3
 80010ce:	d201      	bcs.n	80010d4 <FLASH_WaitForLastOperation+0x3c>
      {
        return HAL_TIMEOUT;
 80010d0:	2303      	movs	r3, #3
 80010d2:	e019      	b.n	8001108 <FLASH_WaitForLastOperation+0x70>
  while(__HAL_FLASH_GET_FLAG(FLASH_FLAG_BSY) != RESET) 
 80010d4:	4b0f      	ldr	r3, [pc, #60]	@ (8001114 <FLASH_WaitForLastOperation+0x7c>)
 80010d6:	68db      	ldr	r3, [r3, #12]
 80010d8:	f403 3380 	and.w	r3, r3, #65536	@ 0x10000
 80010dc:	2b00      	cmp	r3, #0
 80010de:	d1e8      	bne.n	80010b2 <FLASH_WaitForLastOperation+0x1a>
      }
    } 
  }

  /* Check FLASH End of Operation flag  */
  if (__HAL_FLASH_GET_FLAG(FLASH_FLAG_EOP) != RESET)
 80010e0:	4b0c      	ldr	r3, [pc, #48]	@ (8001114 <FLASH_WaitForLastOperation+0x7c>)
 80010e2:	68db      	ldr	r3, [r3, #12]
 80010e4:	f003 0301 	and.w	r3, r3, #1
 80010e8:	2b00      	cmp	r3, #0
 80010ea:	d002      	beq.n	80010f2 <FLASH_WaitForLastOperation+0x5a>
  {
    /* Clear FLASH End of Operation pending bit */
    __HAL_FLASH_CLEAR_FLAG(FLASH_FLAG_EOP);
 80010ec:	4b09      	ldr	r3, [pc, #36]	@ (8001114 <FLASH_WaitForLastOperation+0x7c>)
 80010ee:	2201      	movs	r2, #1
 80010f0:	60da      	str	r2, [r3, #12]
  }
#if defined(FLASH_SR_RDERR)  
  if(__HAL_FLASH_GET_FLAG((FLASH_FLAG_OPERR | FLASH_FLAG_WRPERR | FLASH_FLAG_PGAERR | \
 80010f2:	4b08      	ldr	r3, [pc, #32]	@ (8001114 <FLASH_WaitForLastOperation+0x7c>)
 80010f4:	68db      	ldr	r3, [r3, #12]
 80010f6:	f403 73f9 	and.w	r3, r3, #498	@ 0x1f2
 80010fa:	2b00      	cmp	r3, #0
 80010fc:	d003      	beq.n	8001106 <FLASH_WaitForLastOperation+0x6e>
  if(__HAL_FLASH_GET_FLAG((FLASH_FLAG_OPERR | FLASH_FLAG_WRPERR | FLASH_FLAG_PGAERR | \
                           FLASH_FLAG_PGPERR | FLASH_FLAG_PGSERR)) != RESET)
#endif /* FLASH_SR_RDERR */
  {
    /*Save the error code*/
    FLASH_SetErrorCode();
 80010fe:	f000 f8a5 	bl	800124c <FLASH_SetErrorCode>
    return HAL_ERROR;
 8001102:	2301      	movs	r3, #1
 8001104:	e000      	b.n	8001108 <FLASH_WaitForLastOperation+0x70>
  }

  /* If there is no error flag set */
  return HAL_OK;
 8001106:	2300      	movs	r3, #0
  
}  
 8001108:	4618      	mov	r0, r3
 800110a:	3710      	adds	r7, #16
 800110c:	46bd      	mov	sp, r7
 800110e:	bd80      	pop	{r7, pc}
 8001110:	200000e4 	.word	0x200000e4
 8001114:	40023c00 	.word	0x40023c00

08001118 <FLASH_Program_DoubleWord>:
  * @param  Address specifies the address to be programmed.
  * @param  Data specifies the data to be programmed.
  * @retval None
  */
static void FLASH_Program_DoubleWord(uint32_t Address, uint64_t Data)
{
 8001118:	b480      	push	{r7}
 800111a:	b085      	sub	sp, #20
 800111c:	af00      	add	r7, sp, #0
 800111e:	60f8      	str	r0, [r7, #12]
 8001120:	e9c7 2300 	strd	r2, r3, [r7]
  /* Check the parameters */
  assert_param(IS_FLASH_ADDRESS(Address));
  
  /* If the previous operation is completed, proceed to program the new data */
  CLEAR_BIT(FLASH->CR, FLASH_CR_PSIZE);
 8001124:	4b14      	ldr	r3, [pc, #80]	@ (8001178 <FLASH_Program_DoubleWord+0x60>)
 8001126:	691b      	ldr	r3, [r3, #16]
 8001128:	4a13      	ldr	r2, [pc, #76]	@ (8001178 <FLASH_Program_DoubleWord+0x60>)
 800112a:	f423 7340 	bic.w	r3, r3, #768	@ 0x300
 800112e:	6113      	str	r3, [r2, #16]
  FLASH->CR |= FLASH_PSIZE_DOUBLE_WORD;
 8001130:	4b11      	ldr	r3, [pc, #68]	@ (8001178 <FLASH_Program_DoubleWord+0x60>)
 8001132:	691b      	ldr	r3, [r3, #16]
 8001134:	4a10      	ldr	r2, [pc, #64]	@ (8001178 <FLASH_Program_DoubleWord+0x60>)
 8001136:	f443 7340 	orr.w	r3, r3, #768	@ 0x300
 800113a:	6113      	str	r3, [r2, #16]
  FLASH->CR |= FLASH_CR_PG;
 800113c:	4b0e      	ldr	r3, [pc, #56]	@ (8001178 <FLASH_Program_DoubleWord+0x60>)
 800113e:	691b      	ldr	r3, [r3, #16]
 8001140:	4a0d      	ldr	r2, [pc, #52]	@ (8001178 <FLASH_Program_DoubleWord+0x60>)
 8001142:	f043 0301 	orr.w	r3, r3, #1
 8001146:	6113      	str	r3, [r2, #16]

  /* Program first word */
  *(__IO uint32_t*)Address = (uint32_t)Data;
 8001148:	68fb      	ldr	r3, [r7, #12]
 800114a:	683a      	ldr	r2, [r7, #0]
 800114c:	601a      	str	r2, [r3, #0]
  __ASM volatile ("isb 0xF":::"memory");
 800114e:	f3bf 8f6f 	isb	sy
}
 8001152:	bf00      	nop
  /* Barrier to ensure programming is performed in 2 steps, in right order
    (independently of compiler optimization behavior) */
  __ISB();

  /* Program second word */
  *(__IO uint32_t*)(Address+4) = (uint32_t)(Data >> 32);
 8001154:	e9d7 0100 	ldrd	r0, r1, [r7]
 8001158:	f04f 0200 	mov.w	r2, #0
 800115c:	f04f 0300 	mov.w	r3, #0
 8001160:	000a      	movs	r2, r1
 8001162:	2300      	movs	r3, #0
 8001164:	68f9      	ldr	r1, [r7, #12]
 8001166:	3104      	adds	r1, #4
 8001168:	4613      	mov	r3, r2
 800116a:	600b      	str	r3, [r1, #0]
}
 800116c:	bf00      	nop
 800116e:	3714      	adds	r7, #20
 8001170:	46bd      	mov	sp, r7
 8001172:	f85d 7b04 	ldr.w	r7, [sp], #4
 8001176:	4770      	bx	lr
 8001178:	40023c00 	.word	0x40023c00

0800117c <FLASH_Program_Word>:
  * @param  Address specifies the address to be programmed.
  * @param  Data specifies the data to be programmed.
  * @retval None
  */
static void FLASH_Program_Word(uint32_t Address, uint32_t Data)
{
 800117c:	b480      	push	{r7}
 800117e:	b083      	sub	sp, #12
 8001180:	af00      	add	r7, sp, #0
 8001182:	6078      	str	r0, [r7, #4]
 8001184:	6039      	str	r1, [r7, #0]
  /* Check the parameters */
  assert_param(IS_FLASH_ADDRESS(Address));
  
  /* If the previous operation is completed, proceed to program the new data */
  CLEAR_BIT(FLASH->CR, FLASH_CR_PSIZE);
 8001186:	4b0d      	ldr	r3, [pc, #52]	@ (80011bc <FLASH_Program_Word+0x40>)
 8001188:	691b      	ldr	r3, [r3, #16]
 800118a:	4a0c      	ldr	r2, [pc, #48]	@ (80011bc <FLASH_Program_Word+0x40>)
 800118c:	f423 7340 	bic.w	r3, r3, #768	@ 0x300
 8001190:	6113      	str	r3, [r2, #16]
  FLASH->CR |= FLASH_PSIZE_WORD;
 8001192:	4b0a      	ldr	r3, [pc, #40]	@ (80011bc <FLASH_Program_Word+0x40>)
 8001194:	691b      	ldr	r3, [r3, #16]
 8001196:	4a09      	ldr	r2, [pc, #36]	@ (80011bc <FLASH_Program_Word+0x40>)
 8001198:	f443 7300 	orr.w	r3, r3, #512	@ 0x200
 800119c:	6113      	str	r3, [r2, #16]
  FLASH->CR |= FLASH_CR_PG;
 800119e:	4b07      	ldr	r3, [pc, #28]	@ (80011bc <FLASH_Program_Word+0x40>)
 80011a0:	691b      	ldr	r3, [r3, #16]
 80011a2:	4a06      	ldr	r2, [pc, #24]	@ (80011bc <FLASH_Program_Word+0x40>)
 80011a4:	f043 0301 	orr.w	r3, r3, #1
 80011a8:	6113      	str	r3, [r2, #16]

  *(__IO uint32_t*)Address = Data;
 80011aa:	687b      	ldr	r3, [r7, #4]
 80011ac:	683a      	ldr	r2, [r7, #0]
 80011ae:	601a      	str	r2, [r3, #0]
}
 80011b0:	bf00      	nop
 80011b2:	370c      	adds	r7, #12
 80011b4:	46bd      	mov	sp, r7
 80011b6:	f85d 7b04 	ldr.w	r7, [sp], #4
 80011ba:	4770      	bx	lr
 80011bc:	40023c00 	.word	0x40023c00

080011c0 <FLASH_Program_HalfWord>:
  * @param  Address specifies the address to be programmed.
  * @param  Data specifies the data to be programmed.
  * @retval None
  */
static void FLASH_Program_HalfWord(uint32_t Address, uint16_t Data)
{
 80011c0:	b480      	push	{r7}
 80011c2:	b083      	sub	sp, #12
 80011c4:	af00      	add	r7, sp, #0
 80011c6:	6078      	str	r0, [r7, #4]
 80011c8:	460b      	mov	r3, r1
 80011ca:	807b      	strh	r3, [r7, #2]
  /* Check the parameters */
  assert_param(IS_FLASH_ADDRESS(Address));
  
  /* If the previous operation is completed, proceed to program the new data */
  CLEAR_BIT(FLASH->CR, FLASH_CR_PSIZE);
 80011cc:	4b0d      	ldr	r3, [pc, #52]	@ (8001204 <FLASH_Program_HalfWord+0x44>)
 80011ce:	691b      	ldr	r3, [r3, #16]
 80011d0:	4a0c      	ldr	r2, [pc, #48]	@ (8001204 <FLASH_Program_HalfWord+0x44>)
 80011d2:	f423 7340 	bic.w	r3, r3, #768	@ 0x300
 80011d6:	6113      	str	r3, [r2, #16]
  FLASH->CR |= FLASH_PSIZE_HALF_WORD;
 80011d8:	4b0a      	ldr	r3, [pc, #40]	@ (8001204 <FLASH_Program_HalfWord+0x44>)
 80011da:	691b      	ldr	r3, [r3, #16]
 80011dc:	4a09      	ldr	r2, [pc, #36]	@ (8001204 <FLASH_Program_HalfWord+0x44>)
 80011de:	f443 7380 	orr.w	r3, r3, #256	@ 0x100
 80011e2:	6113      	str	r3, [r2, #16]
  FLASH->CR |= FLASH_CR_PG;
 80011e4:	4b07      	ldr	r3, [pc, #28]	@ (8001204 <FLASH_Program_HalfWord+0x44>)
 80011e6:	691b      	ldr	r3, [r3, #16]
 80011e8:	4a06      	ldr	r2, [pc, #24]	@ (8001204 <FLASH_Program_HalfWord+0x44>)
 80011ea:	f043 0301 	orr.w	r3, r3, #1
 80011ee:	6113      	str	r3, [r2, #16]

  *(__IO uint16_t*)Address = Data;
 80011f0:	687b      	ldr	r3, [r7, #4]
 80011f2:	887a      	ldrh	r2, [r7, #2]
 80011f4:	801a      	strh	r2, [r3, #0]
}
 80011f6:	bf00      	nop
 80011f8:	370c      	adds	r7, #12
 80011fa:	46bd      	mov	sp, r7
 80011fc:	f85d 7b04 	ldr.w	r7, [sp], #4
 8001200:	4770      	bx	lr
 8001202:	bf00      	nop
 8001204:	40023c00 	.word	0x40023c00

08001208 <FLASH_Program_Byte>:
  * @param  Address specifies the address to be programmed.
  * @param  Data specifies the data to be programmed.
  * @retval None
  */
static void FLASH_Program_Byte(uint32_t Address, uint8_t Data)
{
 8001208:	b480      	push	{r7}
 800120a:	b083      	sub	sp, #12
 800120c:	af00      	add	r7, sp, #0
 800120e:	6078      	str	r0, [r7, #4]
 8001210:	460b      	mov	r3, r1
 8001212:	70fb      	strb	r3, [r7, #3]
  /* Check the parameters */
  assert_param(IS_FLASH_ADDRESS(Address));
  
  /* If the previous operation is completed, proceed to program the new data */
  CLEAR_BIT(FLASH->CR, FLASH_CR_PSIZE);
 8001214:	4b0c      	ldr	r3, [pc, #48]	@ (8001248 <FLASH_Program_Byte+0x40>)
 8001216:	691b      	ldr	r3, [r3, #16]
 8001218:	4a0b      	ldr	r2, [pc, #44]	@ (8001248 <FLASH_Program_Byte+0x40>)
 800121a:	f423 7340 	bic.w	r3, r3, #768	@ 0x300
 800121e:	6113      	str	r3, [r2, #16]
  FLASH->CR |= FLASH_PSIZE_BYTE;
 8001220:	4b09      	ldr	r3, [pc, #36]	@ (8001248 <FLASH_Program_Byte+0x40>)
 8001222:	4a09      	ldr	r2, [pc, #36]	@ (8001248 <FLASH_Program_Byte+0x40>)
 8001224:	691b      	ldr	r3, [r3, #16]
 8001226:	6113      	str	r3, [r2, #16]
  FLASH->CR |= FLASH_CR_PG;
 8001228:	4b07      	ldr	r3, [pc, #28]	@ (8001248 <FLASH_Program_Byte+0x40>)
 800122a:	691b      	ldr	r3, [r3, #16]
 800122c:	4a06      	ldr	r2, [pc, #24]	@ (8001248 <FLASH_Program_Byte+0x40>)
 800122e:	f043 0301 	orr.w	r3, r3, #1
 8001232:	6113      	str	r3, [r2, #16]

  *(__IO uint8_t*)Address = Data;
 8001234:	687b      	ldr	r3, [r7, #4]
 8001236:	78fa      	ldrb	r2, [r7, #3]
 8001238:	701a      	strb	r2, [r3, #0]
}
 800123a:	bf00      	nop
 800123c:	370c      	adds	r7, #12
 800123e:	46bd      	mov	sp, r7
 8001240:	f85d 7b04 	ldr.w	r7, [sp], #4
 8001244:	4770      	bx	lr
 8001246:	bf00      	nop
 8001248:	40023c00 	.word	0x40023c00

0800124c <FLASH_SetErrorCode>:
/**
  * @brief  Set the specific FLASH error flag.
  * @retval None
  */
static void FLASH_SetErrorCode(void)
{ 
 800124c:	b480      	push	{r7}
 800124e:	af00      	add	r7, sp, #0
  if(__HAL_FLASH_GET_FLAG(FLASH_FLAG_WRPERR) != RESET)
 8001250:	4b2f      	ldr	r3, [pc, #188]	@ (8001310 <FLASH_SetErrorCode+0xc4>)
 8001252:	68db      	ldr	r3, [r3, #12]
 8001254:	f003 0310 	and.w	r3, r3, #16
 8001258:	2b00      	cmp	r3, #0
 800125a:	d008      	beq.n	800126e <FLASH_SetErrorCode+0x22>
  {
   pFlash.ErrorCode |= HAL_FLASH_ERROR_WRP;
 800125c:	4b2d      	ldr	r3, [pc, #180]	@ (8001314 <FLASH_SetErrorCode+0xc8>)
 800125e:	69db      	ldr	r3, [r3, #28]
 8001260:	f043 0310 	orr.w	r3, r3, #16
 8001264:	4a2b      	ldr	r2, [pc, #172]	@ (8001314 <FLASH_SetErrorCode+0xc8>)
 8001266:	61d3      	str	r3, [r2, #28]
   
   /* Clear FLASH write protection error pending bit */
   __HAL_FLASH_CLEAR_FLAG(FLASH_FLAG_WRPERR);
 8001268:	4b29      	ldr	r3, [pc, #164]	@ (8001310 <FLASH_SetErrorCode+0xc4>)
 800126a:	2210      	movs	r2, #16
 800126c:	60da      	str	r2, [r3, #12]
  }
  
  if(__HAL_FLASH_GET_FLAG(FLASH_FLAG_PGAERR) != RESET)
 800126e:	4b28      	ldr	r3, [pc, #160]	@ (8001310 <FLASH_SetErrorCode+0xc4>)
 8001270:	68db      	ldr	r3, [r3, #12]
 8001272:	f003 0320 	and.w	r3, r3, #32
 8001276:	2b00      	cmp	r3, #0
 8001278:	d008      	beq.n	800128c <FLASH_SetErrorCode+0x40>
  {
   pFlash.ErrorCode |= HAL_FLASH_ERROR_PGA;
 800127a:	4b26      	ldr	r3, [pc, #152]	@ (8001314 <FLASH_SetErrorCode+0xc8>)
 800127c:	69db      	ldr	r3, [r3, #28]
 800127e:	f043 0308 	orr.w	r3, r3, #8
 8001282:	4a24      	ldr	r2, [pc, #144]	@ (8001314 <FLASH_SetErrorCode+0xc8>)
 8001284:	61d3      	str	r3, [r2, #28]
   
   /* Clear FLASH Programming alignment error pending bit */
   __HAL_FLASH_CLEAR_FLAG(FLASH_FLAG_PGAERR);
 8001286:	4b22      	ldr	r3, [pc, #136]	@ (8001310 <FLASH_SetErrorCode+0xc4>)
 8001288:	2220      	movs	r2, #32
 800128a:	60da      	str	r2, [r3, #12]
  }
  
  if(__HAL_FLASH_GET_FLAG(FLASH_FLAG_PGPERR) != RESET)
 800128c:	4b20      	ldr	r3, [pc, #128]	@ (8001310 <FLASH_SetErrorCode+0xc4>)
 800128e:	68db      	ldr	r3, [r3, #12]
 8001290:	f003 0340 	and.w	r3, r3, #64	@ 0x40
 8001294:	2b00      	cmp	r3, #0
 8001296:	d008      	beq.n	80012aa <FLASH_SetErrorCode+0x5e>
  {
    pFlash.ErrorCode |= HAL_FLASH_ERROR_PGP;
 8001298:	4b1e      	ldr	r3, [pc, #120]	@ (8001314 <FLASH_SetErrorCode+0xc8>)
 800129a:	69db      	ldr	r3, [r3, #28]
 800129c:	f043 0304 	orr.w	r3, r3, #4
 80012a0:	4a1c      	ldr	r2, [pc, #112]	@ (8001314 <FLASH_SetErrorCode+0xc8>)
 80012a2:	61d3      	str	r3, [r2, #28]
    
    /* Clear FLASH Programming parallelism error pending bit */
    __HAL_FLASH_CLEAR_FLAG(FLASH_FLAG_PGPERR);
 80012a4:	4b1a      	ldr	r3, [pc, #104]	@ (8001310 <FLASH_SetErrorCode+0xc4>)
 80012a6:	2240      	movs	r2, #64	@ 0x40
 80012a8:	60da      	str	r2, [r3, #12]
  }
  
  if(__HAL_FLASH_GET_FLAG(FLASH_FLAG_PGSERR) != RESET)
 80012aa:	4b19      	ldr	r3, [pc, #100]	@ (8001310 <FLASH_SetErrorCode+0xc4>)
 80012ac:	68db      	ldr	r3, [r3, #12]
 80012ae:	f003 0380 	and.w	r3, r3, #128	@ 0x80
 80012b2:	2b00      	cmp	r3, #0
 80012b4:	d008      	beq.n	80012c8 <FLASH_SetErrorCode+0x7c>
  {
    pFlash.ErrorCode |= HAL_FLASH_ERROR_PGS;
 80012b6:	4b17      	ldr	r3, [pc, #92]	@ (8001314 <FLASH_SetErrorCode+0xc8>)
 80012b8:	69db      	ldr	r3, [r3, #28]
 80012ba:	f043 0302 	orr.w	r3, r3, #2
 80012be:	4a15      	ldr	r2, [pc, #84]	@ (8001314 <FLASH_SetErrorCode+0xc8>)
 80012c0:	61d3      	str	r3, [r2, #28]
    
    /* Clear FLASH Programming sequence error pending bit */
    __HAL_FLASH_CLEAR_FLAG(FLASH_FLAG_PGSERR);
 80012c2:	4b13      	ldr	r3, [pc, #76]	@ (8001310 <FLASH_SetErrorCode+0xc4>)
 80012c4:	2280      	movs	r2, #128	@ 0x80
 80012c6:	60da      	str	r2, [r3, #12]
  }
#if defined(FLASH_SR_RDERR) 
  if(__HAL_FLASH_GET_FLAG(FLASH_FLAG_RDERR) != RESET)
 80012c8:	4b11      	ldr	r3, [pc, #68]	@ (8001310 <FLASH_SetErrorCode+0xc4>)
 80012ca:	68db      	ldr	r3, [r3, #12]
 80012cc:	f403 7380 	and.w	r3, r3, #256	@ 0x100
 80012d0:	2b00      	cmp	r3, #0
 80012d2:	d009      	beq.n	80012e8 <FLASH_SetErrorCode+0x9c>
  {
    pFlash.ErrorCode |= HAL_FLASH_ERROR_RD;
 80012d4:	4b0f      	ldr	r3, [pc, #60]	@ (8001314 <FLASH_SetErrorCode+0xc8>)
 80012d6:	69db      	ldr	r3, [r3, #28]
 80012d8:	f043 0301 	orr.w	r3, r3, #1
 80012dc:	4a0d      	ldr	r2, [pc, #52]	@ (8001314 <FLASH_SetErrorCode+0xc8>)
 80012de:	61d3      	str	r3, [r2, #28]
    
    /* Clear FLASH Proprietary readout protection error pending bit */
    __HAL_FLASH_CLEAR_FLAG(FLASH_FLAG_RDERR);
 80012e0:	4b0b      	ldr	r3, [pc, #44]	@ (8001310 <FLASH_SetErrorCode+0xc4>)
 80012e2:	f44f 7280 	mov.w	r2, #256	@ 0x100
 80012e6:	60da      	str	r2, [r3, #12]
  }
#endif /* FLASH_SR_RDERR */  
  if(__HAL_FLASH_GET_FLAG(FLASH_FLAG_OPERR) != RESET)
 80012e8:	4b09      	ldr	r3, [pc, #36]	@ (8001310 <FLASH_SetErrorCode+0xc4>)
 80012ea:	68db      	ldr	r3, [r3, #12]
 80012ec:	f003 0302 	and.w	r3, r3, #2
 80012f0:	2b00      	cmp	r3, #0
 80012f2:	d008      	beq.n	8001306 <FLASH_SetErrorCode+0xba>
  {
    pFlash.ErrorCode |= HAL_FLASH_ERROR_OPERATION;
 80012f4:	4b07      	ldr	r3, [pc, #28]	@ (8001314 <FLASH_SetErrorCode+0xc8>)
 80012f6:	69db      	ldr	r3, [r3, #28]
 80012f8:	f043 0320 	orr.w	r3, r3, #32
 80012fc:	4a05      	ldr	r2, [pc, #20]	@ (8001314 <FLASH_SetErrorCode+0xc8>)
 80012fe:	61d3      	str	r3, [r2, #28]
    
    /* Clear FLASH Operation error pending bit */
    __HAL_FLASH_CLEAR_FLAG(FLASH_FLAG_OPERR);
 8001300:	4b03      	ldr	r3, [pc, #12]	@ (8001310 <FLASH_SetErrorCode+0xc4>)
 8001302:	2202      	movs	r2, #2
 8001304:	60da      	str	r2, [r3, #12]
  }
}
 8001306:	bf00      	nop
 8001308:	46bd      	mov	sp, r7
 800130a:	f85d 7b04 	ldr.w	r7, [sp], #4
 800130e:	4770      	bx	lr
 8001310:	40023c00 	.word	0x40023c00
 8001314:	200000e4 	.word	0x200000e4

08001318 <FLASH_Erase_Sector>:
  *                                  the operation will be done by double word (64-bit)
  *
  * @retval None
  */
void FLASH_Erase_Sector(uint32_t Sector, uint8_t VoltageRange)
{
 8001318:	b480      	push	{r7}
 800131a:	b085      	sub	sp, #20
 800131c:	af00      	add	r7, sp, #0
 800131e:	6078      	str	r0, [r7, #4]
 8001320:	460b      	mov	r3, r1
 8001322:	70fb      	strb	r3, [r7, #3]
  uint32_t tmp_psize = 0U;
 8001324:	2300      	movs	r3, #0
 8001326:	60fb      	str	r3, [r7, #12]

  /* Check the parameters */
  assert_param(IS_FLASH_SECTOR(Sector));
  assert_param(IS_VOLTAGERANGE(VoltageRange));

  if (VoltageRange == FLASH_VOLTAGE_RANGE_1)
 8001328:	78fb      	ldrb	r3, [r7, #3]
 800132a:	2b00      	cmp	r3, #0
 800132c:	d102      	bne.n	8001334 <FLASH_Erase_Sector+0x1c>
  {
    tmp_psize = FLASH_PSIZE_BYTE;
 800132e:	2300      	movs	r3, #0
 8001330:	60fb      	str	r3, [r7, #12]
 8001332:	e010      	b.n	8001356 <FLASH_Erase_Sector+0x3e>
  }
  else if (VoltageRange == FLASH_VOLTAGE_RANGE_2)
 8001334:	78fb      	ldrb	r3, [r7, #3]
 8001336:	2b01      	cmp	r3, #1
 8001338:	d103      	bne.n	8001342 <FLASH_Erase_Sector+0x2a>
  {
    tmp_psize = FLASH_PSIZE_HALF_WORD;
 800133a:	f44f 7380 	mov.w	r3, #256	@ 0x100
 800133e:	60fb      	str	r3, [r7, #12]
 8001340:	e009      	b.n	8001356 <FLASH_Erase_Sector+0x3e>
  }
  else if (VoltageRange == FLASH_VOLTAGE_RANGE_3)
 8001342:	78fb      	ldrb	r3, [r7, #3]
 8001344:	2b02      	cmp	r3, #2
 8001346:	d103      	bne.n	8001350 <FLASH_Erase_Sector+0x38>
  {
    tmp_psize = FLASH_PSIZE_WORD;
 8001348:	f44f 7300 	mov.w	r3, #512	@ 0x200
 800134c:	60fb      	str	r3, [r7, #12]
 800134e:	e002      	b.n	8001356 <FLASH_Erase_Sector+0x3e>
  }
  else
  {
    tmp_psize = FLASH_PSIZE_DOUBLE_WORD;
 8001350:	f44f 7340 	mov.w	r3, #768	@ 0x300
 8001354:	60fb      	str	r3, [r7, #12]
  }

  /* If the previous operation is completed, proceed to erase the sector */
  CLEAR_BIT(FLASH->CR, FLASH_CR_PSIZE);
 8001356:	4b13      	ldr	r3, [pc, #76]	@ (80013a4 <FLASH_Erase_Sector+0x8c>)
 8001358:	691b      	ldr	r3, [r3, #16]
 800135a:	4a12      	ldr	r2, [pc, #72]	@ (80013a4 <FLASH_Erase_Sector+0x8c>)
 800135c:	f423 7340 	bic.w	r3, r3, #768	@ 0x300
 8001360:	6113      	str	r3, [r2, #16]
  FLASH->CR |= tmp_psize;
 8001362:	4b10      	ldr	r3, [pc, #64]	@ (80013a4 <FLASH_Erase_Sector+0x8c>)
 8001364:	691a      	ldr	r2, [r3, #16]
 8001366:	490f      	ldr	r1, [pc, #60]	@ (80013a4 <FLASH_Erase_Sector+0x8c>)
 8001368:	68fb      	ldr	r3, [r7, #12]
 800136a:	4313      	orrs	r3, r2
 800136c:	610b      	str	r3, [r1, #16]
  CLEAR_BIT(FLASH->CR, FLASH_CR_SNB);
 800136e:	4b0d      	ldr	r3, [pc, #52]	@ (80013a4 <FLASH_Erase_Sector+0x8c>)
 8001370:	691b      	ldr	r3, [r3, #16]
 8001372:	4a0c      	ldr	r2, [pc, #48]	@ (80013a4 <FLASH_Erase_Sector+0x8c>)
 8001374:	f023 03f8 	bic.w	r3, r3, #248	@ 0xf8
 8001378:	6113      	str	r3, [r2, #16]
  FLASH->CR |= FLASH_CR_SER | (Sector << FLASH_CR_SNB_Pos);
 800137a:	4b0a      	ldr	r3, [pc, #40]	@ (80013a4 <FLASH_Erase_Sector+0x8c>)
 800137c:	691a      	ldr	r2, [r3, #16]
 800137e:	687b      	ldr	r3, [r7, #4]
 8001380:	00db      	lsls	r3, r3, #3
 8001382:	4313      	orrs	r3, r2
 8001384:	4a07      	ldr	r2, [pc, #28]	@ (80013a4 <FLASH_Erase_Sector+0x8c>)
 8001386:	f043 0302 	orr.w	r3, r3, #2
 800138a:	6113      	str	r3, [r2, #16]
  FLASH->CR |= FLASH_CR_STRT;
 800138c:	4b05      	ldr	r3, [pc, #20]	@ (80013a4 <FLASH_Erase_Sector+0x8c>)
 800138e:	691b      	ldr	r3, [r3, #16]
 8001390:	4a04      	ldr	r2, [pc, #16]	@ (80013a4 <FLASH_Erase_Sector+0x8c>)
 8001392:	f443 3380 	orr.w	r3, r3, #65536	@ 0x10000
 8001396:	6113      	str	r3, [r2, #16]
}
 8001398:	bf00      	nop
 800139a:	3714      	adds	r7, #20
 800139c:	46bd      	mov	sp, r7
 800139e:	f85d 7b04 	ldr.w	r7, [sp], #4
 80013a2:	4770      	bx	lr
 80013a4:	40023c00 	.word	0x40023c00

080013a8 <HAL_GPIO_Init>:
  * @param  GPIO_Init pointer to a GPIO_InitTypeDef structure that contains
  *         the configuration information for the specified GPIO peripheral.
  * @retval None
  */
void HAL_GPIO_Init(GPIO_TypeDef  *GPIOx, GPIO_InitTypeDef *GPIO_Init)
{
 80013a8:	b480      	push	{r7}
 80013aa:	b089      	sub	sp, #36	@ 0x24
 80013ac:	af00      	add	r7, sp, #0
 80013ae:	6078      	str	r0, [r7, #4]
 80013b0:	6039      	str	r1, [r7, #0]
  uint32_t position;
  uint32_t ioposition = 0x00U;
 80013b2:	2300      	movs	r3, #0
 80013b4:	617b      	str	r3, [r7, #20]
  uint32_t iocurrent = 0x00U;
 80013b6:	2300      	movs	r3, #0
 80013b8:	613b      	str	r3, [r7, #16]
  uint32_t temp = 0x00U;
 80013ba:	2300      	movs	r3, #0
 80013bc:	61bb      	str	r3, [r7, #24]
  assert_param(IS_GPIO_ALL_INSTANCE(GPIOx));
  assert_param(IS_GPIO_PIN(GPIO_Init->Pin));
  assert_param(IS_GPIO_MODE(GPIO_Init->Mode));

  /* Configure the port pins */
  for(position = 0U; position < GPIO_NUMBER; position++)
 80013be:	2300      	movs	r3, #0
 80013c0:	61fb      	str	r3, [r7, #28]
 80013c2:	e159      	b.n	8001678 <HAL_GPIO_Init+0x2d0>
  {
    /* Get the IO position */
    ioposition = 0x01U << position;
 80013c4:	2201      	movs	r2, #1
 80013c6:	69fb      	ldr	r3, [r7, #28]
 80013c8:	fa02 f303 	lsl.w	r3, r2, r3
 80013cc:	617b      	str	r3, [r7, #20]
    /* Get the current IO position */
    iocurrent = (uint32_t)(GPIO_Init->Pin) & ioposition;
 80013ce:	683b      	ldr	r3, [r7, #0]
 80013d0:	681b      	ldr	r3, [r3, #0]
 80013d2:	697a      	ldr	r2, [r7, #20]
 80013d4:	4013      	ands	r3, r2
 80013d6:	613b      	str	r3, [r7, #16]

    if(iocurrent == ioposition)
 80013d8:	693a      	ldr	r2, [r7, #16]
 80013da:	697b      	ldr	r3, [r7, #20]
 80013dc:	429a      	cmp	r2, r3
 80013de:	f040 8148 	bne.w	8001672 <HAL_GPIO_Init+0x2ca>
    {
      /*--------------------- GPIO Mode Configuration ------------------------*/
      /* In case of Output or Alternate function mode selection */
      if(((GPIO_Init->Mode & GPIO_MODE) == MODE_OUTPUT) || \
 80013e2:	683b      	ldr	r3, [r7, #0]
 80013e4:	685b      	ldr	r3, [r3, #4]
 80013e6:	f003 0303 	and.w	r3, r3, #3
 80013ea:	2b01      	cmp	r3, #1
 80013ec:	d005      	beq.n	80013fa <HAL_GPIO_Init+0x52>
          (GPIO_Init->Mode & GPIO_MODE) == MODE_AF)
 80013ee:	683b      	ldr	r3, [r7, #0]
 80013f0:	685b      	ldr	r3, [r3, #4]
 80013f2:	f003 0303 	and.w	r3, r3, #3
      if(((GPIO_Init->Mode & GPIO_MODE) == MODE_OUTPUT) || \
 80013f6:	2b02      	cmp	r3, #2
 80013f8:	d130      	bne.n	800145c <HAL_GPIO_Init+0xb4>
      {
        /* Check the Speed parameter */
        assert_param(IS_GPIO_SPEED(GPIO_Init->Speed));
        /* Configure the IO Speed */
        temp = GPIOx->OSPEEDR; 
 80013fa:	687b      	ldr	r3, [r7, #4]
 80013fc:	689b      	ldr	r3, [r3, #8]
 80013fe:	61bb      	str	r3, [r7, #24]
        temp &= ~(GPIO_OSPEEDER_OSPEEDR0 << (position * 2U));
 8001400:	69fb      	ldr	r3, [r7, #28]
 8001402:	005b      	lsls	r3, r3, #1
 8001404:	2203      	movs	r2, #3
 8001406:	fa02 f303 	lsl.w	r3, r2, r3
 800140a:	43db      	mvns	r3, r3
 800140c:	69ba      	ldr	r2, [r7, #24]
 800140e:	4013      	ands	r3, r2
 8001410:	61bb      	str	r3, [r7, #24]
        temp |= (GPIO_Init->Speed << (position * 2U));
 8001412:	683b      	ldr	r3, [r7, #0]
 8001414:	68da      	ldr	r2, [r3, #12]
 8001416:	69fb      	ldr	r3, [r7, #28]
 8001418:	005b      	lsls	r3, r3, #1
 800141a:	fa02 f303 	lsl.w	r3, r2, r3
 800141e:	69ba      	ldr	r2, [r7, #24]
 8001420:	4313      	orrs	r3, r2
 8001422:	61bb      	str	r3, [r7, #24]
        GPIOx->OSPEEDR = temp;
 8001424:	687b      	ldr	r3, [r7, #4]
 8001426:	69ba      	ldr	r2, [r7, #24]
 8001428:	609a      	str	r2, [r3, #8]

        /* Configure the IO Output Type */
        temp = GPIOx->OTYPER;
 800142a:	687b      	ldr	r3, [r7, #4]
 800142c:	685b      	ldr	r3, [r3, #4]
 800142e:	61bb      	str	r3, [r7, #24]
        temp &= ~(GPIO_OTYPER_OT_0 << position) ;
 8001430:	2201      	movs	r2, #1
 8001432:	69fb      	ldr	r3, [r7, #28]
 8001434:	fa02 f303 	lsl.w	r3, r2, r3
 8001438:	43db      	mvns	r3, r3
 800143a:	69ba      	ldr	r2, [r7, #24]
 800143c:	4013      	ands	r3, r2
 800143e:	61bb      	str	r3, [r7, #24]
        temp |= (((GPIO_Init->Mode & OUTPUT_TYPE) >> OUTPUT_TYPE_Pos) << position);
 8001440:	683b      	ldr	r3, [r7, #0]
 8001442:	685b      	ldr	r3, [r3, #4]
 8001444:	091b      	lsrs	r3, r3, #4
 8001446:	f003 0201 	and.w	r2, r3, #1
 800144a:	69fb      	ldr	r3, [r7, #28]
 800144c:	fa02 f303 	lsl.w	r3, r2, r3
 8001450:	69ba      	ldr	r2, [r7, #24]
 8001452:	4313      	orrs	r3, r2
 8001454:	61bb      	str	r3, [r7, #24]
        GPIOx->OTYPER = temp;
 8001456:	687b      	ldr	r3, [r7, #4]
 8001458:	69ba      	ldr	r2, [r7, #24]
 800145a:	605a      	str	r2, [r3, #4]
       }

      if((GPIO_Init->Mode & GPIO_MODE) != MODE_ANALOG)
 800145c:	683b      	ldr	r3, [r7, #0]
 800145e:	685b      	ldr	r3, [r3, #4]
 8001460:	f003 0303 	and.w	r3, r3, #3
 8001464:	2b03      	cmp	r3, #3
 8001466:	d017      	beq.n	8001498 <HAL_GPIO_Init+0xf0>
      {
        /* Check the parameters */
        assert_param(IS_GPIO_PULL(GPIO_Init->Pull));
        
        /* Activate the Pull-up or Pull down resistor for the current IO */
        temp = GPIOx->PUPDR;
 8001468:	687b      	ldr	r3, [r7, #4]
 800146a:	68db      	ldr	r3, [r3, #12]
 800146c:	61bb      	str	r3, [r7, #24]
        temp &= ~(GPIO_PUPDR_PUPDR0 << (position * 2U));
 800146e:	69fb      	ldr	r3, [r7, #28]
 8001470:	005b      	lsls	r3, r3, #1
 8001472:	2203      	movs	r2, #3
 8001474:	fa02 f303 	lsl.w	r3, r2, r3
 8001478:	43db      	mvns	r3, r3
 800147a:	69ba      	ldr	r2, [r7, #24]
 800147c:	4013      	ands	r3, r2
 800147e:	61bb      	str	r3, [r7, #24]
        temp |= ((GPIO_Init->Pull) << (position * 2U));
 8001480:	683b      	ldr	r3, [r7, #0]
 8001482:	689a      	ldr	r2, [r3, #8]
 8001484:	69fb      	ldr	r3, [r7, #28]
 8001486:	005b      	lsls	r3, r3, #1
 8001488:	fa02 f303 	lsl.w	r3, r2, r3
 800148c:	69ba      	ldr	r2, [r7, #24]
 800148e:	4313      	orrs	r3, r2
 8001490:	61bb      	str	r3, [r7, #24]
        GPIOx->PUPDR = temp;
 8001492:	687b      	ldr	r3, [r7, #4]
 8001494:	69ba      	ldr	r2, [r7, #24]
 8001496:	60da      	str	r2, [r3, #12]
      }

      /* In case of Alternate function mode selection */
      if((GPIO_Init->Mode & GPIO_MODE) == MODE_AF)
 8001498:	683b      	ldr	r3, [r7, #0]
 800149a:	685b      	ldr	r3, [r3, #4]
 800149c:	f003 0303 	and.w	r3, r3, #3
 80014a0:	2b02      	cmp	r3, #2
 80014a2:	d123      	bne.n	80014ec <HAL_GPIO_Init+0x144>
      {
        /* Check the Alternate function parameter */
        assert_param(IS_GPIO_AF(GPIO_Init->Alternate));
        /* Configure Alternate function mapped with the current IO */
        temp = GPIOx->AFR[position >> 3U];
 80014a4:	69fb      	ldr	r3, [r7, #28]
 80014a6:	08da      	lsrs	r2, r3, #3
 80014a8:	687b      	ldr	r3, [r7, #4]
 80014aa:	3208      	adds	r2, #8
 80014ac:	f853 3022 	ldr.w	r3, [r3, r2, lsl #2]
 80014b0:	61bb      	str	r3, [r7, #24]
        temp &= ~(0xFU << ((uint32_t)(position & 0x07U) * 4U)) ;
 80014b2:	69fb      	ldr	r3, [r7, #28]
 80014b4:	f003 0307 	and.w	r3, r3, #7
 80014b8:	009b      	lsls	r3, r3, #2
 80014ba:	220f      	movs	r2, #15
 80014bc:	fa02 f303 	lsl.w	r3, r2, r3
 80014c0:	43db      	mvns	r3, r3
 80014c2:	69ba      	ldr	r2, [r7, #24]
 80014c4:	4013      	ands	r3, r2
 80014c6:	61bb      	str	r3, [r7, #24]
        temp |= ((uint32_t)(GPIO_Init->Alternate) << (((uint32_t)position & 0x07U) * 4U));
 80014c8:	683b      	ldr	r3, [r7, #0]
 80014ca:	691a      	ldr	r2, [r3, #16]
 80014cc:	69fb      	ldr	r3, [r7, #28]
 80014ce:	f003 0307 	and.w	r3, r3, #7
 80014d2:	009b      	lsls	r3, r3, #2
 80014d4:	fa02 f303 	lsl.w	r3, r2, r3
 80014d8:	69ba      	ldr	r2, [r7, #24]
 80014da:	4313      	orrs	r3, r2
 80014dc:	61bb      	str	r3, [r7, #24]
        GPIOx->AFR[position >> 3U] = temp;
 80014de:	69fb      	ldr	r3, [r7, #28]
 80014e0:	08da      	lsrs	r2, r3, #3
 80014e2:	687b      	ldr	r3, [r7, #4]
 80014e4:	3208      	adds	r2, #8
 80014e6:	69b9      	ldr	r1, [r7, #24]
 80014e8:	f843 1022 	str.w	r1, [r3, r2, lsl #2]
      }

      /* Configure IO Direction mode (Input, Output, Alternate or Analog) */
      temp = GPIOx->MODER;
 80014ec:	687b      	ldr	r3, [r7, #4]
 80014ee:	681b      	ldr	r3, [r3, #0]
 80014f0:	61bb      	str	r3, [r7, #24]
      temp &= ~(GPIO_MODER_MODER0 << (position * 2U));
 80014f2:	69fb      	ldr	r3, [r7, #28]
 80014f4:	005b      	lsls	r3, r3, #1
 80014f6:	2203      	movs	r2, #3
 80014f8:	fa02 f303 	lsl.w	r3, r2, r3
 80014fc:	43db      	mvns	r3, r3
 80014fe:	69ba      	ldr	r2, [r7, #24]
 8001500:	4013      	ands	r3, r2
 8001502:	61bb      	str	r3, [r7, #24]
      temp |= ((GPIO_Init->Mode & GPIO_MODE) << (position * 2U));
 8001504:	683b      	ldr	r3, [r7, #0]
 8001506:	685b      	ldr	r3, [r3, #4]
 8001508:	f003 0203 	and.w	r2, r3, #3
 800150c:	69fb      	ldr	r3, [r7, #28]
 800150e:	005b      	lsls	r3, r3, #1
 8001510:	fa02 f303 	lsl.w	r3, r2, r3
 8001514:	69ba      	ldr	r2, [r7, #24]
 8001516:	4313      	orrs	r3, r2
 8001518:	61bb      	str	r3, [r7, #24]
      GPIOx->MODER = temp;
 800151a:	687b      	ldr	r3, [r7, #4]
 800151c:	69ba      	ldr	r2, [r7, #24]
 800151e:	601a      	str	r2, [r3, #0]

      /*--------------------- EXTI Mode Configuration ------------------------*/
      /* Configure the External Interrupt or event for the current IO */
      if((GPIO_Init->Mode & EXTI_MODE) != 0x00U)
 8001520:	683b      	ldr	r3, [r7, #0]
 8001522:	685b      	ldr	r3, [r3, #4]
 8001524:	f403 3340 	and.w	r3, r3, #196608	@ 0x30000
 8001528:	2b00      	cmp	r3, #0
 800152a:	f000 80a2 	beq.w	8001672 <HAL_GPIO_Init+0x2ca>
      {
        /* Enable SYSCFG Clock */
        __HAL_RCC_SYSCFG_CLK_ENABLE();
 800152e:	2300      	movs	r3, #0
 8001530:	60fb      	str	r3, [r7, #12]
 8001532:	4b57      	ldr	r3, [pc, #348]	@ (8001690 <HAL_GPIO_Init+0x2e8>)
 8001534:	6c5b      	ldr	r3, [r3, #68]	@ 0x44
 8001536:	4a56      	ldr	r2, [pc, #344]	@ (8001690 <HAL_GPIO_Init+0x2e8>)
 8001538:	f443 4380 	orr.w	r3, r3, #16384	@ 0x4000
 800153c:	6453      	str	r3, [r2, #68]	@ 0x44
 800153e:	4b54      	ldr	r3, [pc, #336]	@ (8001690 <HAL_GPIO_Init+0x2e8>)
 8001540:	6c5b      	ldr	r3, [r3, #68]	@ 0x44
 8001542:	f403 4380 	and.w	r3, r3, #16384	@ 0x4000
 8001546:	60fb      	str	r3, [r7, #12]
 8001548:	68fb      	ldr	r3, [r7, #12]

        temp = SYSCFG->EXTICR[position >> 2U];
 800154a:	4a52      	ldr	r2, [pc, #328]	@ (8001694 <HAL_GPIO_Init+0x2ec>)
 800154c:	69fb      	ldr	r3, [r7, #28]
 800154e:	089b      	lsrs	r3, r3, #2
 8001550:	3302      	adds	r3, #2
 8001552:	f852 3023 	ldr.w	r3, [r2, r3, lsl #2]
 8001556:	61bb      	str	r3, [r7, #24]
        temp &= ~(0x0FU << (4U * (position & 0x03U)));
 8001558:	69fb      	ldr	r3, [r7, #28]
 800155a:	f003 0303 	and.w	r3, r3, #3
 800155e:	009b      	lsls	r3, r3, #2
 8001560:	220f      	movs	r2, #15
 8001562:	fa02 f303 	lsl.w	r3, r2, r3
 8001566:	43db      	mvns	r3, r3
 8001568:	69ba      	ldr	r2, [r7, #24]
 800156a:	4013      	ands	r3, r2
 800156c:	61bb      	str	r3, [r7, #24]
        temp |= ((uint32_t)(GPIO_GET_INDEX(GPIOx)) << (4U * (position & 0x03U)));
 800156e:	687b      	ldr	r3, [r7, #4]
 8001570:	4a49      	ldr	r2, [pc, #292]	@ (8001698 <HAL_GPIO_Init+0x2f0>)
 8001572:	4293      	cmp	r3, r2
 8001574:	d019      	beq.n	80015aa <HAL_GPIO_Init+0x202>
 8001576:	687b      	ldr	r3, [r7, #4]
 8001578:	4a48      	ldr	r2, [pc, #288]	@ (800169c <HAL_GPIO_Init+0x2f4>)
 800157a:	4293      	cmp	r3, r2
 800157c:	d013      	beq.n	80015a6 <HAL_GPIO_Init+0x1fe>
 800157e:	687b      	ldr	r3, [r7, #4]
 8001580:	4a47      	ldr	r2, [pc, #284]	@ (80016a0 <HAL_GPIO_Init+0x2f8>)
 8001582:	4293      	cmp	r3, r2
 8001584:	d00d      	beq.n	80015a2 <HAL_GPIO_Init+0x1fa>
 8001586:	687b      	ldr	r3, [r7, #4]
 8001588:	4a46      	ldr	r2, [pc, #280]	@ (80016a4 <HAL_GPIO_Init+0x2fc>)
 800158a:	4293      	cmp	r3, r2
 800158c:	d007      	beq.n	800159e <HAL_GPIO_Init+0x1f6>
 800158e:	687b      	ldr	r3, [r7, #4]
 8001590:	4a45      	ldr	r2, [pc, #276]	@ (80016a8 <HAL_GPIO_Init+0x300>)
 8001592:	4293      	cmp	r3, r2
 8001594:	d101      	bne.n	800159a <HAL_GPIO_Init+0x1f2>
 8001596:	2304      	movs	r3, #4
 8001598:	e008      	b.n	80015ac <HAL_GPIO_Init+0x204>
 800159a:	2307      	movs	r3, #7
 800159c:	e006      	b.n	80015ac <HAL_GPIO_Init+0x204>
 800159e:	2303      	movs	r3, #3
 80015a0:	e004      	b.n	80015ac <HAL_GPIO_Init+0x204>
 80015a2:	2302      	movs	r3, #2
 80015a4:	e002      	b.n	80015ac <HAL_GPIO_Init+0x204>
 80015a6:	2301      	movs	r3, #1
 80015a8:	e000      	b.n	80015ac <HAL_GPIO_Init+0x204>
 80015aa:	2300      	movs	r3, #0
 80015ac:	69fa      	ldr	r2, [r7, #28]
 80015ae:	f002 0203 	and.w	r2, r2, #3
 80015b2:	0092      	lsls	r2, r2, #2
 80015b4:	4093      	lsls	r3, r2
 80015b6:	69ba      	ldr	r2, [r7, #24]
 80015b8:	4313      	orrs	r3, r2
 80015ba:	61bb      	str	r3, [r7, #24]
        SYSCFG->EXTICR[position >> 2U] = temp;
 80015bc:	4935      	ldr	r1, [pc, #212]	@ (8001694 <HAL_GPIO_Init+0x2ec>)
 80015be:	69fb      	ldr	r3, [r7, #28]
 80015c0:	089b      	lsrs	r3, r3, #2
 80015c2:	3302      	adds	r3, #2
 80015c4:	69ba      	ldr	r2, [r7, #24]
 80015c6:	f841 2023 	str.w	r2, [r1, r3, lsl #2]

        /* Clear Rising Falling edge configuration */
        temp = EXTI->RTSR;
 80015ca:	4b38      	ldr	r3, [pc, #224]	@ (80016ac <HAL_GPIO_Init+0x304>)
 80015cc:	689b      	ldr	r3, [r3, #8]
 80015ce:	61bb      	str	r3, [r7, #24]
        temp &= ~((uint32_t)iocurrent);
 80015d0:	693b      	ldr	r3, [r7, #16]
 80015d2:	43db      	mvns	r3, r3
 80015d4:	69ba      	ldr	r2, [r7, #24]
 80015d6:	4013      	ands	r3, r2
 80015d8:	61bb      	str	r3, [r7, #24]
        if((GPIO_Init->Mode & TRIGGER_RISING) != 0x00U)
 80015da:	683b      	ldr	r3, [r7, #0]
 80015dc:	685b      	ldr	r3, [r3, #4]
 80015de:	f403 1380 	and.w	r3, r3, #1048576	@ 0x100000
 80015e2:	2b00      	cmp	r3, #0
 80015e4:	d003      	beq.n	80015ee <HAL_GPIO_Init+0x246>
        {
          temp |= iocurrent;
 80015e6:	69ba      	ldr	r2, [r7, #24]
 80015e8:	693b      	ldr	r3, [r7, #16]
 80015ea:	4313      	orrs	r3, r2
 80015ec:	61bb      	str	r3, [r7, #24]
        }
        EXTI->RTSR = temp;
 80015ee:	4a2f      	ldr	r2, [pc, #188]	@ (80016ac <HAL_GPIO_Init+0x304>)
 80015f0:	69bb      	ldr	r3, [r7, #24]
 80015f2:	6093      	str	r3, [r2, #8]

        temp = EXTI->FTSR;
 80015f4:	4b2d      	ldr	r3, [pc, #180]	@ (80016ac <HAL_GPIO_Init+0x304>)
 80015f6:	68db      	ldr	r3, [r3, #12]
 80015f8:	61bb      	str	r3, [r7, #24]
        temp &= ~((uint32_t)iocurrent);
 80015fa:	693b      	ldr	r3, [r7, #16]
 80015fc:	43db      	mvns	r3, r3
 80015fe:	69ba      	ldr	r2, [r7, #24]
 8001600:	4013      	ands	r3, r2
 8001602:	61bb      	str	r3, [r7, #24]
        if((GPIO_Init->Mode & TRIGGER_FALLING) != 0x00U)
 8001604:	683b      	ldr	r3, [r7, #0]
 8001606:	685b      	ldr	r3, [r3, #4]
 8001608:	f403 1300 	and.w	r3, r3, #2097152	@ 0x200000
 800160c:	2b00      	cmp	r3, #0
 800160e:	d003      	beq.n	8001618 <HAL_GPIO_Init+0x270>
        {
          temp |= iocurrent;
 8001610:	69ba      	ldr	r2, [r7, #24]
 8001612:	693b      	ldr	r3, [r7, #16]
 8001614:	4313      	orrs	r3, r2
 8001616:	61bb      	str	r3, [r7, #24]
        }
        EXTI->FTSR = temp;
 8001618:	4a24      	ldr	r2, [pc, #144]	@ (80016ac <HAL_GPIO_Init+0x304>)
 800161a:	69bb      	ldr	r3, [r7, #24]
 800161c:	60d3      	str	r3, [r2, #12]

        temp = EXTI->EMR;
 800161e:	4b23      	ldr	r3, [pc, #140]	@ (80016ac <HAL_GPIO_Init+0x304>)
 8001620:	685b      	ldr	r3, [r3, #4]
 8001622:	61bb      	str	r3, [r7, #24]
        temp &= ~((uint32_t)iocurrent);
 8001624:	693b      	ldr	r3, [r7, #16]
 8001626:	43db      	mvns	r3, r3
 8001628:	69ba      	ldr	r2, [r7, #24]
 800162a:	4013      	ands	r3, r2
 800162c:	61bb      	str	r3, [r7, #24]
        if((GPIO_Init->Mode & EXTI_EVT) != 0x00U)
 800162e:	683b      	ldr	r3, [r7, #0]
 8001630:	685b      	ldr	r3, [r3, #4]
 8001632:	f403 3300 	and.w	r3, r3, #131072	@ 0x20000
 8001636:	2b00      	cmp	r3, #0
 8001638:	d003      	beq.n	8001642 <HAL_GPIO_Init+0x29a>
        {
          temp |= iocurrent;
 800163a:	69ba      	ldr	r2, [r7, #24]
 800163c:	693b      	ldr	r3, [r7, #16]
 800163e:	4313      	orrs	r3, r2
 8001640:	61bb      	str	r3, [r7, #24]
        }
        EXTI->EMR = temp;
 8001642:	4a1a      	ldr	r2, [pc, #104]	@ (80016ac <HAL_GPIO_Init+0x304>)
 8001644:	69bb      	ldr	r3, [r7, #24]
 8001646:	6053      	str	r3, [r2, #4]

        /* Clear EXTI line configuration */
        temp = EXTI->IMR;
 8001648:	4b18      	ldr	r3, [pc, #96]	@ (80016ac <HAL_GPIO_Init+0x304>)
 800164a:	681b      	ldr	r3, [r3, #0]
 800164c:	61bb      	str	r3, [r7, #24]
        temp &= ~((uint32_t)iocurrent);
 800164e:	693b      	ldr	r3, [r7, #16]
 8001650:	43db      	mvns	r3, r3
 8001652:	69ba      	ldr	r2, [r7, #24]
 8001654:	4013      	ands	r3, r2
 8001656:	61bb      	str	r3, [r7, #24]
        if((GPIO_Init->Mode & EXTI_IT) != 0x00U)
 8001658:	683b      	ldr	r3, [r7, #0]
 800165a:	685b      	ldr	r3, [r3, #4]
 800165c:	f403 3380 	and.w	r3, r3, #65536	@ 0x10000
 8001660:	2b00      	cmp	r3, #0
 8001662:	d003      	beq.n	800166c <HAL_GPIO_Init+0x2c4>
        {
          temp |= iocurrent;
 8001664:	69ba      	ldr	r2, [r7, #24]
 8001666:	693b      	ldr	r3, [r7, #16]
 8001668:	4313      	orrs	r3, r2
 800166a:	61bb      	str	r3, [r7, #24]
        }
        EXTI->IMR = temp;
 800166c:	4a0f      	ldr	r2, [pc, #60]	@ (80016ac <HAL_GPIO_Init+0x304>)
 800166e:	69bb      	ldr	r3, [r7, #24]
 8001670:	6013      	str	r3, [r2, #0]
  for(position = 0U; position < GPIO_NUMBER; position++)
 8001672:	69fb      	ldr	r3, [r7, #28]
 8001674:	3301      	adds	r3, #1
 8001676:	61fb      	str	r3, [r7, #28]
 8001678:	69fb      	ldr	r3, [r7, #28]
 800167a:	2b0f      	cmp	r3, #15
 800167c:	f67f aea2 	bls.w	80013c4 <HAL_GPIO_Init+0x1c>
      }
    }
  }
}
 8001680:	bf00      	nop
 8001682:	bf00      	nop
 8001684:	3724      	adds	r7, #36	@ 0x24
 8001686:	46bd      	mov	sp, r7
 8001688:	f85d 7b04 	ldr.w	r7, [sp], #4
 800168c:	4770      	bx	lr
 800168e:	bf00      	nop
 8001690:	40023800 	.word	0x40023800
 8001694:	40013800 	.word	0x40013800
 8001698:	40020000 	.word	0x40020000
 800169c:	40020400 	.word	0x40020400
 80016a0:	40020800 	.word	0x40020800
 80016a4:	40020c00 	.word	0x40020c00
 80016a8:	40021000 	.word	0x40021000
 80016ac:	40013c00 	.word	0x40013c00

080016b0 <HAL_GPIO_WritePin>:
  *            @arg GPIO_PIN_RESET: to clear the port pin
  *            @arg GPIO_PIN_SET: to set the port pin
  * @retval None
  */
void HAL_GPIO_WritePin(GPIO_TypeDef* GPIOx, uint16_t GPIO_Pin, GPIO_PinState PinState)
{
 80016b0:	b480      	push	{r7}
 80016b2:	b083      	sub	sp, #12
 80016b4:	af00      	add	r7, sp, #0
 80016b6:	6078      	str	r0, [r7, #4]
 80016b8:	460b      	mov	r3, r1
 80016ba:	807b      	strh	r3, [r7, #2]
 80016bc:	4613      	mov	r3, r2
 80016be:	707b      	strb	r3, [r7, #1]
  /* Check the parameters */
  assert_param(IS_GPIO_PIN(GPIO_Pin));
  assert_param(IS_GPIO_PIN_ACTION(PinState));

  if(PinState != GPIO_PIN_RESET)
 80016c0:	787b      	ldrb	r3, [r7, #1]
 80016c2:	2b00      	cmp	r3, #0
 80016c4:	d003      	beq.n	80016ce <HAL_GPIO_WritePin+0x1e>
  {
    GPIOx->BSRR = GPIO_Pin;
 80016c6:	887a      	ldrh	r2, [r7, #2]
 80016c8:	687b      	ldr	r3, [r7, #4]
 80016ca:	619a      	str	r2, [r3, #24]
  }
  else
  {
    GPIOx->BSRR = (uint32_t)GPIO_Pin << 16U;
  }
}
 80016cc:	e003      	b.n	80016d6 <HAL_GPIO_WritePin+0x26>
    GPIOx->BSRR = (uint32_t)GPIO_Pin << 16U;
 80016ce:	887b      	ldrh	r3, [r7, #2]
 80016d0:	041a      	lsls	r2, r3, #16
 80016d2:	687b      	ldr	r3, [r7, #4]
 80016d4:	619a      	str	r2, [r3, #24]
}
 80016d6:	bf00      	nop
 80016d8:	370c      	adds	r7, #12
 80016da:	46bd      	mov	sp, r7
 80016dc:	f85d 7b04 	ldr.w	r7, [sp], #4
 80016e0:	4770      	bx	lr
	...

080016e4 <HAL_RCC_OscConfig>:
  *         supported by this API. User should request a transition to HSE Off
  *         first and then HSE On or HSE Bypass.
  * @retval HAL status
  */
__weak HAL_StatusTypeDef HAL_RCC_OscConfig(RCC_OscInitTypeDef  *RCC_OscInitStruct)
{
 80016e4:	b580      	push	{r7, lr}
 80016e6:	b086      	sub	sp, #24
 80016e8:	af00      	add	r7, sp, #0
 80016ea:	6078      	str	r0, [r7, #4]
  uint32_t tickstart, pll_config;

  /* Check Null pointer */
  if(RCC_OscInitStruct == NULL)
 80016ec:	687b      	ldr	r3, [r7, #4]
 80016ee:	2b00      	cmp	r3, #0
 80016f0:	d101      	bne.n	80016f6 <HAL_RCC_OscConfig+0x12>
  {
    return HAL_ERROR;
 80016f2:	2301      	movs	r3, #1
 80016f4:	e267      	b.n	8001bc6 <HAL_RCC_OscConfig+0x4e2>
  }

  /* Check the parameters */
  assert_param(IS_RCC_OSCILLATORTYPE(RCC_OscInitStruct->OscillatorType));
  /*------------------------------- HSE Configuration ------------------------*/
  if(((RCC_OscInitStruct->OscillatorType) & RCC_OSCILLATORTYPE_HSE) == RCC_OSCILLATORTYPE_HSE)
 80016f6:	687b      	ldr	r3, [r7, #4]
 80016f8:	681b      	ldr	r3, [r3, #0]
 80016fa:	f003 0301 	and.w	r3, r3, #1
 80016fe:	2b00      	cmp	r3, #0
 8001700:	d075      	beq.n	80017ee <HAL_RCC_OscConfig+0x10a>
  {
    /* Check the parameters */
    assert_param(IS_RCC_HSE(RCC_OscInitStruct->HSEState));
    /* When the HSE is used as system clock or clock source for PLL in these cases HSE will not disabled */
    if((__HAL_RCC_GET_SYSCLK_SOURCE() == RCC_CFGR_SWS_HSE) ||\
 8001702:	4b88      	ldr	r3, [pc, #544]	@ (8001924 <HAL_RCC_OscConfig+0x240>)
 8001704:	689b      	ldr	r3, [r3, #8]
 8001706:	f003 030c 	and.w	r3, r3, #12
 800170a:	2b04      	cmp	r3, #4
 800170c:	d00c      	beq.n	8001728 <HAL_RCC_OscConfig+0x44>
      ((__HAL_RCC_GET_SYSCLK_SOURCE() == RCC_CFGR_SWS_PLL) && ((RCC->PLLCFGR & RCC_PLLCFGR_PLLSRC) == RCC_PLLCFGR_PLLSRC_HSE)))
 800170e:	4b85      	ldr	r3, [pc, #532]	@ (8001924 <HAL_RCC_OscConfig+0x240>)
 8001710:	689b      	ldr	r3, [r3, #8]
 8001712:	f003 030c 	and.w	r3, r3, #12
    if((__HAL_RCC_GET_SYSCLK_SOURCE() == RCC_CFGR_SWS_HSE) ||\
 8001716:	2b08      	cmp	r3, #8
 8001718:	d112      	bne.n	8001740 <HAL_RCC_OscConfig+0x5c>
      ((__HAL_RCC_GET_SYSCLK_SOURCE() == RCC_CFGR_SWS_PLL) && ((RCC->PLLCFGR & RCC_PLLCFGR_PLLSRC) == RCC_PLLCFGR_PLLSRC_HSE)))
 800171a:	4b82      	ldr	r3, [pc, #520]	@ (8001924 <HAL_RCC_OscConfig+0x240>)
 800171c:	685b      	ldr	r3, [r3, #4]
 800171e:	f403 0380 	and.w	r3, r3, #4194304	@ 0x400000
 8001722:	f5b3 0f80 	cmp.w	r3, #4194304	@ 0x400000
 8001726:	d10b      	bne.n	8001740 <HAL_RCC_OscConfig+0x5c>
    {
      if((__HAL_RCC_GET_FLAG(RCC_FLAG_HSERDY) != RESET) && (RCC_OscInitStruct->HSEState == RCC_HSE_OFF))
 8001728:	4b7e      	ldr	r3, [pc, #504]	@ (8001924 <HAL_RCC_OscConfig+0x240>)
 800172a:	681b      	ldr	r3, [r3, #0]
 800172c:	f403 3300 	and.w	r3, r3, #131072	@ 0x20000
 8001730:	2b00      	cmp	r3, #0
 8001732:	d05b      	beq.n	80017ec <HAL_RCC_OscConfig+0x108>
 8001734:	687b      	ldr	r3, [r7, #4]
 8001736:	685b      	ldr	r3, [r3, #4]
 8001738:	2b00      	cmp	r3, #0
 800173a:	d157      	bne.n	80017ec <HAL_RCC_OscConfig+0x108>
      {
        return HAL_ERROR;
 800173c:	2301      	movs	r3, #1
 800173e:	e242      	b.n	8001bc6 <HAL_RCC_OscConfig+0x4e2>
      }
    }
    else
    {
      /* Set the new HSE configuration ---------------------------------------*/
      __HAL_RCC_HSE_CONFIG(RCC_OscInitStruct->HSEState);
 8001740:	687b      	ldr	r3, [r7, #4]
 8001742:	685b      	ldr	r3, [r3, #4]
 8001744:	f5b3 3f80 	cmp.w	r3, #65536	@ 0x10000
 8001748:	d106      	bne.n	8001758 <HAL_RCC_OscConfig+0x74>
 800174a:	4b76      	ldr	r3, [pc, #472]	@ (8001924 <HAL_RCC_OscConfig+0x240>)
 800174c:	681b      	ldr	r3, [r3, #0]
 800174e:	4a75      	ldr	r2, [pc, #468]	@ (8001924 <HAL_RCC_OscConfig+0x240>)
 8001750:	f443 3380 	orr.w	r3, r3, #65536	@ 0x10000
 8001754:	6013      	str	r3, [r2, #0]
 8001756:	e01d      	b.n	8001794 <HAL_RCC_OscConfig+0xb0>
 8001758:	687b      	ldr	r3, [r7, #4]
 800175a:	685b      	ldr	r3, [r3, #4]
 800175c:	f5b3 2fa0 	cmp.w	r3, #327680	@ 0x50000
 8001760:	d10c      	bne.n	800177c <HAL_RCC_OscConfig+0x98>
 8001762:	4b70      	ldr	r3, [pc, #448]	@ (8001924 <HAL_RCC_OscConfig+0x240>)
 8001764:	681b      	ldr	r3, [r3, #0]
 8001766:	4a6f      	ldr	r2, [pc, #444]	@ (8001924 <HAL_RCC_OscConfig+0x240>)
 8001768:	f443 2380 	orr.w	r3, r3, #262144	@ 0x40000
 800176c:	6013      	str	r3, [r2, #0]
 800176e:	4b6d      	ldr	r3, [pc, #436]	@ (8001924 <HAL_RCC_OscConfig+0x240>)
 8001770:	681b      	ldr	r3, [r3, #0]
 8001772:	4a6c      	ldr	r2, [pc, #432]	@ (8001924 <HAL_RCC_OscConfig+0x240>)
 8001774:	f443 3380 	orr.w	r3, r3, #65536	@ 0x10000
 8001778:	6013      	str	r3, [r2, #0]
 800177a:	e00b      	b.n	8001794 <HAL_RCC_OscConfig+0xb0>
 800177c:	4b69      	ldr	r3, [pc, #420]	@ (8001924 <HAL_RCC_OscConfig+0x240>)
 800177e:	681b      	ldr	r3, [r3, #0]
 8001780:	4a68      	ldr	r2, [pc, #416]	@ (8001924 <HAL_RCC_OscConfig+0x240>)
 8001782:	f423 3380 	bic.w	r3, r3, #65536	@ 0x10000
 8001786:	6013      	str	r3, [r2, #0]
 8001788:	4b66      	ldr	r3, [pc, #408]	@ (8001924 <HAL_RCC_OscConfig+0x240>)
 800178a:	681b      	ldr	r3, [r3, #0]
 800178c:	4a65      	ldr	r2, [pc, #404]	@ (8001924 <HAL_RCC_OscConfig+0x240>)
 800178e:	f423 2380 	bic.w	r3, r3, #262144	@ 0x40000
 8001792:	6013      	str	r3, [r2, #0]

      /* Check the HSE State */
      if((RCC_OscInitStruct->HSEState) != RCC_HSE_OFF)
 8001794:	687b      	ldr	r3, [r7, #4]
 8001796:	685b      	ldr	r3, [r3, #4]
 8001798:	2b00      	cmp	r3, #0
 800179a:	d013      	beq.n	80017c4 <HAL_RCC_OscConfig+0xe0>
      {
        /* Get Start Tick */
        tickstart = HAL_GetTick();
 800179c:	f7ff fae4 	bl	8000d68 <HAL_GetTick>
 80017a0:	6138      	str	r0, [r7, #16]

        /* Wait till HSE is ready */
        while(__HAL_RCC_GET_FLAG(RCC_FLAG_HSERDY) == RESET)
 80017a2:	e008      	b.n	80017b6 <HAL_RCC_OscConfig+0xd2>
        {
          if((HAL_GetTick() - tickstart ) > HSE_TIMEOUT_VALUE)
 80017a4:	f7ff fae0 	bl	8000d68 <HAL_GetTick>
 80017a8:	4602      	mov	r2, r0
 80017aa:	693b      	ldr	r3, [r7, #16]
 80017ac:	1ad3      	subs	r3, r2, r3
 80017ae:	2b64      	cmp	r3, #100	@ 0x64
 80017b0:	d901      	bls.n	80017b6 <HAL_RCC_OscConfig+0xd2>
          {
            return HAL_TIMEOUT;
 80017b2:	2303      	movs	r3, #3
 80017b4:	e207      	b.n	8001bc6 <HAL_RCC_OscConfig+0x4e2>
        while(__HAL_RCC_GET_FLAG(RCC_FLAG_HSERDY) == RESET)
 80017b6:	4b5b      	ldr	r3, [pc, #364]	@ (8001924 <HAL_RCC_OscConfig+0x240>)
 80017b8:	681b      	ldr	r3, [r3, #0]
 80017ba:	f403 3300 	and.w	r3, r3, #131072	@ 0x20000
 80017be:	2b00      	cmp	r3, #0
 80017c0:	d0f0      	beq.n	80017a4 <HAL_RCC_OscConfig+0xc0>
 80017c2:	e014      	b.n	80017ee <HAL_RCC_OscConfig+0x10a>
        }
      }
      else
      {
        /* Get Start Tick */
        tickstart = HAL_GetTick();
 80017c4:	f7ff fad0 	bl	8000d68 <HAL_GetTick>
 80017c8:	6138      	str	r0, [r7, #16]

        /* Wait till HSE is bypassed or disabled */
        while(__HAL_RCC_GET_FLAG(RCC_FLAG_HSERDY) != RESET)
 80017ca:	e008      	b.n	80017de <HAL_RCC_OscConfig+0xfa>
        {
          if((HAL_GetTick() - tickstart ) > HSE_TIMEOUT_VALUE)
 80017cc:	f7ff facc 	bl	8000d68 <HAL_GetTick>
 80017d0:	4602      	mov	r2, r0
 80017d2:	693b      	ldr	r3, [r7, #16]
 80017d4:	1ad3      	subs	r3, r2, r3
 80017d6:	2b64      	cmp	r3, #100	@ 0x64
 80017d8:	d901      	bls.n	80017de <HAL_RCC_OscConfig+0xfa>
          {
            return HAL_TIMEOUT;
 80017da:	2303      	movs	r3, #3
 80017dc:	e1f3      	b.n	8001bc6 <HAL_RCC_OscConfig+0x4e2>
        while(__HAL_RCC_GET_FLAG(RCC_FLAG_HSERDY) != RESET)
 80017de:	4b51      	ldr	r3, [pc, #324]	@ (8001924 <HAL_RCC_OscConfig+0x240>)
 80017e0:	681b      	ldr	r3, [r3, #0]
 80017e2:	f403 3300 	and.w	r3, r3, #131072	@ 0x20000
 80017e6:	2b00      	cmp	r3, #0
 80017e8:	d1f0      	bne.n	80017cc <HAL_RCC_OscConfig+0xe8>
 80017ea:	e000      	b.n	80017ee <HAL_RCC_OscConfig+0x10a>
      if((__HAL_RCC_GET_FLAG(RCC_FLAG_HSERDY) != RESET) && (RCC_OscInitStruct->HSEState == RCC_HSE_OFF))
 80017ec:	bf00      	nop
        }
      }
    }
  }
  /*----------------------------- HSI Configuration --------------------------*/
  if(((RCC_OscInitStruct->OscillatorType) & RCC_OSCILLATORTYPE_HSI) == RCC_OSCILLATORTYPE_HSI)
 80017ee:	687b      	ldr	r3, [r7, #4]
 80017f0:	681b      	ldr	r3, [r3, #0]
 80017f2:	f003 0302 	and.w	r3, r3, #2
 80017f6:	2b00      	cmp	r3, #0
 80017f8:	d063      	beq.n	80018c2 <HAL_RCC_OscConfig+0x1de>
    /* Check the parameters */
    assert_param(IS_RCC_HSI(RCC_OscInitStruct->HSIState));
    assert_param(IS_RCC_CALIBRATION_VALUE(RCC_OscInitStruct->HSICalibrationValue));

    /* Check if HSI is used as system clock or as PLL source when PLL is selected as system clock */
    if((__HAL_RCC_GET_SYSCLK_SOURCE() == RCC_CFGR_SWS_HSI) ||\
 80017fa:	4b4a      	ldr	r3, [pc, #296]	@ (8001924 <HAL_RCC_OscConfig+0x240>)
 80017fc:	689b      	ldr	r3, [r3, #8]
 80017fe:	f003 030c 	and.w	r3, r3, #12
 8001802:	2b00      	cmp	r3, #0
 8001804:	d00b      	beq.n	800181e <HAL_RCC_OscConfig+0x13a>
      ((__HAL_RCC_GET_SYSCLK_SOURCE() == RCC_CFGR_SWS_PLL) && ((RCC->PLLCFGR & RCC_PLLCFGR_PLLSRC) == RCC_PLLCFGR_PLLSRC_HSI)))
 8001806:	4b47      	ldr	r3, [pc, #284]	@ (8001924 <HAL_RCC_OscConfig+0x240>)
 8001808:	689b      	ldr	r3, [r3, #8]
 800180a:	f003 030c 	and.w	r3, r3, #12
    if((__HAL_RCC_GET_SYSCLK_SOURCE() == RCC_CFGR_SWS_HSI) ||\
 800180e:	2b08      	cmp	r3, #8
 8001810:	d11c      	bne.n	800184c <HAL_RCC_OscConfig+0x168>
      ((__HAL_RCC_GET_SYSCLK_SOURCE() == RCC_CFGR_SWS_PLL) && ((RCC->PLLCFGR & RCC_PLLCFGR_PLLSRC) == RCC_PLLCFGR_PLLSRC_HSI)))
 8001812:	4b44      	ldr	r3, [pc, #272]	@ (8001924 <HAL_RCC_OscConfig+0x240>)
 8001814:	685b      	ldr	r3, [r3, #4]
 8001816:	f403 0380 	and.w	r3, r3, #4194304	@ 0x400000
 800181a:	2b00      	cmp	r3, #0
 800181c:	d116      	bne.n	800184c <HAL_RCC_OscConfig+0x168>
    {
      /* When HSI is used as system clock it will not disabled */
      if((__HAL_RCC_GET_FLAG(RCC_FLAG_HSIRDY) != RESET) && (RCC_OscInitStruct->HSIState != RCC_HSI_ON))
 800181e:	4b41      	ldr	r3, [pc, #260]	@ (8001924 <HAL_RCC_OscConfig+0x240>)
 8001820:	681b      	ldr	r3, [r3, #0]
 8001822:	f003 0302 	and.w	r3, r3, #2
 8001826:	2b00      	cmp	r3, #0
 8001828:	d005      	beq.n	8001836 <HAL_RCC_OscConfig+0x152>
 800182a:	687b      	ldr	r3, [r7, #4]
 800182c:	68db      	ldr	r3, [r3, #12]
 800182e:	2b01      	cmp	r3, #1
 8001830:	d001      	beq.n	8001836 <HAL_RCC_OscConfig+0x152>
      {
        return HAL_ERROR;
 8001832:	2301      	movs	r3, #1
 8001834:	e1c7      	b.n	8001bc6 <HAL_RCC_OscConfig+0x4e2>
      }
      /* Otherwise, just the calibration is allowed */
      else
      {
        /* Adjusts the Internal High Speed oscillator (HSI) calibration value.*/
        __HAL_RCC_HSI_CALIBRATIONVALUE_ADJUST(RCC_OscInitStruct->HSICalibrationValue);
 8001836:	4b3b      	ldr	r3, [pc, #236]	@ (8001924 <HAL_RCC_OscConfig+0x240>)
 8001838:	681b      	ldr	r3, [r3, #0]
 800183a:	f023 02f8 	bic.w	r2, r3, #248	@ 0xf8
 800183e:	687b      	ldr	r3, [r7, #4]
 8001840:	691b      	ldr	r3, [r3, #16]
 8001842:	00db      	lsls	r3, r3, #3
 8001844:	4937      	ldr	r1, [pc, #220]	@ (8001924 <HAL_RCC_OscConfig+0x240>)
 8001846:	4313      	orrs	r3, r2
 8001848:	600b      	str	r3, [r1, #0]
      if((__HAL_RCC_GET_FLAG(RCC_FLAG_HSIRDY) != RESET) && (RCC_OscInitStruct->HSIState != RCC_HSI_ON))
 800184a:	e03a      	b.n	80018c2 <HAL_RCC_OscConfig+0x1de>
      }
    }
    else
    {
      /* Check the HSI State */
      if((RCC_OscInitStruct->HSIState)!= RCC_HSI_OFF)
 800184c:	687b      	ldr	r3, [r7, #4]
 800184e:	68db      	ldr	r3, [r3, #12]
 8001850:	2b00      	cmp	r3, #0
 8001852:	d020      	beq.n	8001896 <HAL_RCC_OscConfig+0x1b2>
      {
        /* Enable the Internal High Speed oscillator (HSI). */
        __HAL_RCC_HSI_ENABLE();
 8001854:	4b34      	ldr	r3, [pc, #208]	@ (8001928 <HAL_RCC_OscConfig+0x244>)
 8001856:	2201      	movs	r2, #1
 8001858:	601a      	str	r2, [r3, #0]

        /* Get Start Tick*/
        tickstart = HAL_GetTick();
 800185a:	f7ff fa85 	bl	8000d68 <HAL_GetTick>
 800185e:	6138      	str	r0, [r7, #16]

        /* Wait till HSI is ready */
        while(__HAL_RCC_GET_FLAG(RCC_FLAG_HSIRDY) == RESET)
 8001860:	e008      	b.n	8001874 <HAL_RCC_OscConfig+0x190>
        {
          if((HAL_GetTick() - tickstart ) > HSI_TIMEOUT_VALUE)
 8001862:	f7ff fa81 	bl	8000d68 <HAL_GetTick>
 8001866:	4602      	mov	r2, r0
 8001868:	693b      	ldr	r3, [r7, #16]
 800186a:	1ad3      	subs	r3, r2, r3
 800186c:	2b02      	cmp	r3, #2
 800186e:	d901      	bls.n	8001874 <HAL_RCC_OscConfig+0x190>
          {
            return HAL_TIMEOUT;
 8001870:	2303      	movs	r3, #3
 8001872:	e1a8      	b.n	8001bc6 <HAL_RCC_OscConfig+0x4e2>
        while(__HAL_RCC_GET_FLAG(RCC_FLAG_HSIRDY) == RESET)
 8001874:	4b2b      	ldr	r3, [pc, #172]	@ (8001924 <HAL_RCC_OscConfig+0x240>)
 8001876:	681b      	ldr	r3, [r3, #0]
 8001878:	f003 0302 	and.w	r3, r3, #2
 800187c:	2b00      	cmp	r3, #0
 800187e:	d0f0      	beq.n	8001862 <HAL_RCC_OscConfig+0x17e>
          }
        }

        /* Adjusts the Internal High Speed oscillator (HSI) calibration value. */
        __HAL_RCC_HSI_CALIBRATIONVALUE_ADJUST(RCC_OscInitStruct->HSICalibrationValue);
 8001880:	4b28      	ldr	r3, [pc, #160]	@ (8001924 <HAL_RCC_OscConfig+0x240>)
 8001882:	681b      	ldr	r3, [r3, #0]
 8001884:	f023 02f8 	bic.w	r2, r3, #248	@ 0xf8
 8001888:	687b      	ldr	r3, [r7, #4]
 800188a:	691b      	ldr	r3, [r3, #16]
 800188c:	00db      	lsls	r3, r3, #3
 800188e:	4925      	ldr	r1, [pc, #148]	@ (8001924 <HAL_RCC_OscConfig+0x240>)
 8001890:	4313      	orrs	r3, r2
 8001892:	600b      	str	r3, [r1, #0]
 8001894:	e015      	b.n	80018c2 <HAL_RCC_OscConfig+0x1de>
      }
      else
      {
        /* Disable the Internal High Speed oscillator (HSI). */
        __HAL_RCC_HSI_DISABLE();
 8001896:	4b24      	ldr	r3, [pc, #144]	@ (8001928 <HAL_RCC_OscConfig+0x244>)
 8001898:	2200      	movs	r2, #0
 800189a:	601a      	str	r2, [r3, #0]

        /* Get Start Tick*/
        tickstart = HAL_GetTick();
 800189c:	f7ff fa64 	bl	8000d68 <HAL_GetTick>
 80018a0:	6138      	str	r0, [r7, #16]

        /* Wait till HSI is ready */
        while(__HAL_RCC_GET_FLAG(RCC_FLAG_HSIRDY) != RESET)
 80018a2:	e008      	b.n	80018b6 <HAL_RCC_OscConfig+0x1d2>
        {
          if((HAL_GetTick() - tickstart ) > HSI_TIMEOUT_VALUE)
 80018a4:	f7ff fa60 	bl	8000d68 <HAL_GetTick>
 80018a8:	4602      	mov	r2, r0
 80018aa:	693b      	ldr	r3, [r7, #16]
 80018ac:	1ad3      	subs	r3, r2, r3
 80018ae:	2b02      	cmp	r3, #2
 80018b0:	d901      	bls.n	80018b6 <HAL_RCC_OscConfig+0x1d2>
          {
            return HAL_TIMEOUT;
 80018b2:	2303      	movs	r3, #3
 80018b4:	e187      	b.n	8001bc6 <HAL_RCC_OscConfig+0x4e2>
        while(__HAL_RCC_GET_FLAG(RCC_FLAG_HSIRDY) != RESET)
 80018b6:	4b1b      	ldr	r3, [pc, #108]	@ (8001924 <HAL_RCC_OscConfig+0x240>)
 80018b8:	681b      	ldr	r3, [r3, #0]
 80018ba:	f003 0302 	and.w	r3, r3, #2
 80018be:	2b00      	cmp	r3, #0
 80018c0:	d1f0      	bne.n	80018a4 <HAL_RCC_OscConfig+0x1c0>
        }
      }
    }
  }
  /*------------------------------ LSI Configuration -------------------------*/
  if(((RCC_OscInitStruct->OscillatorType) & RCC_OSCILLATORTYPE_LSI) == RCC_OSCILLATORTYPE_LSI)
 80018c2:	687b      	ldr	r3, [r7, #4]
 80018c4:	681b      	ldr	r3, [r3, #0]
 80018c6:	f003 0308 	and.w	r3, r3, #8
 80018ca:	2b00      	cmp	r3, #0
 80018cc:	d036      	beq.n	800193c <HAL_RCC_OscConfig+0x258>
  {
    /* Check the parameters */
    assert_param(IS_RCC_LSI(RCC_OscInitStruct->LSIState));

    /* Check the LSI State */
    if((RCC_OscInitStruct->LSIState)!= RCC_LSI_OFF)
 80018ce:	687b      	ldr	r3, [r7, #4]
 80018d0:	695b      	ldr	r3, [r3, #20]
 80018d2:	2b00      	cmp	r3, #0
 80018d4:	d016      	beq.n	8001904 <HAL_RCC_OscConfig+0x220>
    {
      /* Enable the Internal Low Speed oscillator (LSI). */
      __HAL_RCC_LSI_ENABLE();
 80018d6:	4b15      	ldr	r3, [pc, #84]	@ (800192c <HAL_RCC_OscConfig+0x248>)
 80018d8:	2201      	movs	r2, #1
 80018da:	601a      	str	r2, [r3, #0]

      /* Get Start Tick*/
      tickstart = HAL_GetTick();
 80018dc:	f7ff fa44 	bl	8000d68 <HAL_GetTick>
 80018e0:	6138      	str	r0, [r7, #16]

      /* Wait till LSI is ready */
      while(__HAL_RCC_GET_FLAG(RCC_FLAG_LSIRDY) == RESET)
 80018e2:	e008      	b.n	80018f6 <HAL_RCC_OscConfig+0x212>
      {
        if((HAL_GetTick() - tickstart ) > LSI_TIMEOUT_VALUE)
 80018e4:	f7ff fa40 	bl	8000d68 <HAL_GetTick>
 80018e8:	4602      	mov	r2, r0
 80018ea:	693b      	ldr	r3, [r7, #16]
 80018ec:	1ad3      	subs	r3, r2, r3
 80018ee:	2b02      	cmp	r3, #2
 80018f0:	d901      	bls.n	80018f6 <HAL_RCC_OscConfig+0x212>
        {
          return HAL_TIMEOUT;
 80018f2:	2303      	movs	r3, #3
 80018f4:	e167      	b.n	8001bc6 <HAL_RCC_OscConfig+0x4e2>
      while(__HAL_RCC_GET_FLAG(RCC_FLAG_LSIRDY) == RESET)
 80018f6:	4b0b      	ldr	r3, [pc, #44]	@ (8001924 <HAL_RCC_OscConfig+0x240>)
 80018f8:	6f5b      	ldr	r3, [r3, #116]	@ 0x74
 80018fa:	f003 0302 	and.w	r3, r3, #2
 80018fe:	2b00      	cmp	r3, #0
 8001900:	d0f0      	beq.n	80018e4 <HAL_RCC_OscConfig+0x200>
 8001902:	e01b      	b.n	800193c <HAL_RCC_OscConfig+0x258>
      }
    }
    else
    {
      /* Disable the Internal Low Speed oscillator (LSI). */
      __HAL_RCC_LSI_DISABLE();
 8001904:	4b09      	ldr	r3, [pc, #36]	@ (800192c <HAL_RCC_OscConfig+0x248>)
 8001906:	2200      	movs	r2, #0
 8001908:	601a      	str	r2, [r3, #0]

      /* Get Start Tick */
      tickstart = HAL_GetTick();
 800190a:	f7ff fa2d 	bl	8000d68 <HAL_GetTick>
 800190e:	6138      	str	r0, [r7, #16]

      /* Wait till LSI is ready */
      while(__HAL_RCC_GET_FLAG(RCC_FLAG_LSIRDY) != RESET)
 8001910:	e00e      	b.n	8001930 <HAL_RCC_OscConfig+0x24c>
      {
        if((HAL_GetTick() - tickstart ) > LSI_TIMEOUT_VALUE)
 8001912:	f7ff fa29 	bl	8000d68 <HAL_GetTick>
 8001916:	4602      	mov	r2, r0
 8001918:	693b      	ldr	r3, [r7, #16]
 800191a:	1ad3      	subs	r3, r2, r3
 800191c:	2b02      	cmp	r3, #2
 800191e:	d907      	bls.n	8001930 <HAL_RCC_OscConfig+0x24c>
        {
          return HAL_TIMEOUT;
 8001920:	2303      	movs	r3, #3
 8001922:	e150      	b.n	8001bc6 <HAL_RCC_OscConfig+0x4e2>
 8001924:	40023800 	.word	0x40023800
 8001928:	42470000 	.word	0x42470000
 800192c:	42470e80 	.word	0x42470e80
      while(__HAL_RCC_GET_FLAG(RCC_FLAG_LSIRDY) != RESET)
 8001930:	4b88      	ldr	r3, [pc, #544]	@ (8001b54 <HAL_RCC_OscConfig+0x470>)
 8001932:	6f5b      	ldr	r3, [r3, #116]	@ 0x74
 8001934:	f003 0302 	and.w	r3, r3, #2
 8001938:	2b00      	cmp	r3, #0
 800193a:	d1ea      	bne.n	8001912 <HAL_RCC_OscConfig+0x22e>
        }
      }
    }
  }
  /*------------------------------ LSE Configuration -------------------------*/
  if(((RCC_OscInitStruct->OscillatorType) & RCC_OSCILLATORTYPE_LSE) == RCC_OSCILLATORTYPE_LSE)
 800193c:	687b      	ldr	r3, [r7, #4]
 800193e:	681b      	ldr	r3, [r3, #0]
 8001940:	f003 0304 	and.w	r3, r3, #4
 8001944:	2b00      	cmp	r3, #0
 8001946:	f000 8097 	beq.w	8001a78 <HAL_RCC_OscConfig+0x394>
  {
    FlagStatus       pwrclkchanged = RESET;
 800194a:	2300      	movs	r3, #0
 800194c:	75fb      	strb	r3, [r7, #23]
    /* Check the parameters */
    assert_param(IS_RCC_LSE(RCC_OscInitStruct->LSEState));

    /* Update LSE configuration in Backup Domain control register    */
    /* Requires to enable write access to Backup Domain of necessary */
    if(__HAL_RCC_PWR_IS_CLK_DISABLED())
 800194e:	4b81      	ldr	r3, [pc, #516]	@ (8001b54 <HAL_RCC_OscConfig+0x470>)
 8001950:	6c1b      	ldr	r3, [r3, #64]	@ 0x40
 8001952:	f003 5380 	and.w	r3, r3, #268435456	@ 0x10000000
 8001956:	2b00      	cmp	r3, #0
 8001958:	d10f      	bne.n	800197a <HAL_RCC_OscConfig+0x296>
    {
      __HAL_RCC_PWR_CLK_ENABLE();
 800195a:	2300      	movs	r3, #0
 800195c:	60bb      	str	r3, [r7, #8]
 800195e:	4b7d      	ldr	r3, [pc, #500]	@ (8001b54 <HAL_RCC_OscConfig+0x470>)
 8001960:	6c1b      	ldr	r3, [r3, #64]	@ 0x40
 8001962:	4a7c      	ldr	r2, [pc, #496]	@ (8001b54 <HAL_RCC_OscConfig+0x470>)
 8001964:	f043 5380 	orr.w	r3, r3, #268435456	@ 0x10000000
 8001968:	6413      	str	r3, [r2, #64]	@ 0x40
 800196a:	4b7a      	ldr	r3, [pc, #488]	@ (8001b54 <HAL_RCC_OscConfig+0x470>)
 800196c:	6c1b      	ldr	r3, [r3, #64]	@ 0x40
 800196e:	f003 5380 	and.w	r3, r3, #268435456	@ 0x10000000
 8001972:	60bb      	str	r3, [r7, #8]
 8001974:	68bb      	ldr	r3, [r7, #8]
      pwrclkchanged = SET;
 8001976:	2301      	movs	r3, #1
 8001978:	75fb      	strb	r3, [r7, #23]
    }

    if(HAL_IS_BIT_CLR(PWR->CR, PWR_CR_DBP))
 800197a:	4b77      	ldr	r3, [pc, #476]	@ (8001b58 <HAL_RCC_OscConfig+0x474>)
 800197c:	681b      	ldr	r3, [r3, #0]
 800197e:	f403 7380 	and.w	r3, r3, #256	@ 0x100
 8001982:	2b00      	cmp	r3, #0
 8001984:	d118      	bne.n	80019b8 <HAL_RCC_OscConfig+0x2d4>
    {
      /* Enable write access to Backup domain */
      SET_BIT(PWR->CR, PWR_CR_DBP);
 8001986:	4b74      	ldr	r3, [pc, #464]	@ (8001b58 <HAL_RCC_OscConfig+0x474>)
 8001988:	681b      	ldr	r3, [r3, #0]
 800198a:	4a73      	ldr	r2, [pc, #460]	@ (8001b58 <HAL_RCC_OscConfig+0x474>)
 800198c:	f443 7380 	orr.w	r3, r3, #256	@ 0x100
 8001990:	6013      	str	r3, [r2, #0]

      /* Wait for Backup domain Write protection disable */
      tickstart = HAL_GetTick();
 8001992:	f7ff f9e9 	bl	8000d68 <HAL_GetTick>
 8001996:	6138      	str	r0, [r7, #16]

      while(HAL_IS_BIT_CLR(PWR->CR, PWR_CR_DBP))
 8001998:	e008      	b.n	80019ac <HAL_RCC_OscConfig+0x2c8>
      {
        if((HAL_GetTick() - tickstart) > RCC_DBP_TIMEOUT_VALUE)
 800199a:	f7ff f9e5 	bl	8000d68 <HAL_GetTick>
 800199e:	4602      	mov	r2, r0
 80019a0:	693b      	ldr	r3, [r7, #16]
 80019a2:	1ad3      	subs	r3, r2, r3
 80019a4:	2b02      	cmp	r3, #2
 80019a6:	d901      	bls.n	80019ac <HAL_RCC_OscConfig+0x2c8>
        {
          return HAL_TIMEOUT;
 80019a8:	2303      	movs	r3, #3
 80019aa:	e10c      	b.n	8001bc6 <HAL_RCC_OscConfig+0x4e2>
      while(HAL_IS_BIT_CLR(PWR->CR, PWR_CR_DBP))
 80019ac:	4b6a      	ldr	r3, [pc, #424]	@ (8001b58 <HAL_RCC_OscConfig+0x474>)
 80019ae:	681b      	ldr	r3, [r3, #0]
 80019b0:	f403 7380 	and.w	r3, r3, #256	@ 0x100
 80019b4:	2b00      	cmp	r3, #0
 80019b6:	d0f0      	beq.n	800199a <HAL_RCC_OscConfig+0x2b6>
        }
      }
    }

    /* Set the new LSE configuration -----------------------------------------*/
    __HAL_RCC_LSE_CONFIG(RCC_OscInitStruct->LSEState);
 80019b8:	687b      	ldr	r3, [r7, #4]
 80019ba:	689b      	ldr	r3, [r3, #8]
 80019bc:	2b01      	cmp	r3, #1
 80019be:	d106      	bne.n	80019ce <HAL_RCC_OscConfig+0x2ea>
 80019c0:	4b64      	ldr	r3, [pc, #400]	@ (8001b54 <HAL_RCC_OscConfig+0x470>)
 80019c2:	6f1b      	ldr	r3, [r3, #112]	@ 0x70
 80019c4:	4a63      	ldr	r2, [pc, #396]	@ (8001b54 <HAL_RCC_OscConfig+0x470>)
 80019c6:	f043 0301 	orr.w	r3, r3, #1
 80019ca:	6713      	str	r3, [r2, #112]	@ 0x70
 80019cc:	e01c      	b.n	8001a08 <HAL_RCC_OscConfig+0x324>
 80019ce:	687b      	ldr	r3, [r7, #4]
 80019d0:	689b      	ldr	r3, [r3, #8]
 80019d2:	2b05      	cmp	r3, #5
 80019d4:	d10c      	bne.n	80019f0 <HAL_RCC_OscConfig+0x30c>
 80019d6:	4b5f      	ldr	r3, [pc, #380]	@ (8001b54 <HAL_RCC_OscConfig+0x470>)
 80019d8:	6f1b      	ldr	r3, [r3, #112]	@ 0x70
 80019da:	4a5e      	ldr	r2, [pc, #376]	@ (8001b54 <HAL_RCC_OscConfig+0x470>)
 80019dc:	f043 0304 	orr.w	r3, r3, #4
 80019e0:	6713      	str	r3, [r2, #112]	@ 0x70
 80019e2:	4b5c      	ldr	r3, [pc, #368]	@ (8001b54 <HAL_RCC_OscConfig+0x470>)
 80019e4:	6f1b      	ldr	r3, [r3, #112]	@ 0x70
 80019e6:	4a5b      	ldr	r2, [pc, #364]	@ (8001b54 <HAL_RCC_OscConfig+0x470>)
 80019e8:	f043 0301 	orr.w	r3, r3, #1
 80019ec:	6713      	str	r3, [r2, #112]	@ 0x70
 80019ee:	e00b      	b.n	8001a08 <HAL_RCC_OscConfig+0x324>
 80019f0:	4b58      	ldr	r3, [pc, #352]	@ (8001b54 <HAL_RCC_OscConfig+0x470>)
 80019f2:	6f1b      	ldr	r3, [r3, #112]	@ 0x70
 80019f4:	4a57      	ldr	r2, [pc, #348]	@ (8001b54 <HAL_RCC_OscConfig+0x470>)
 80019f6:	f023 0301 	bic.w	r3, r3, #1
 80019fa:	6713      	str	r3, [r2, #112]	@ 0x70
 80019fc:	4b55      	ldr	r3, [pc, #340]	@ (8001b54 <HAL_RCC_OscConfig+0x470>)
 80019fe:	6f1b      	ldr	r3, [r3, #112]	@ 0x70
 8001a00:	4a54      	ldr	r2, [pc, #336]	@ (8001b54 <HAL_RCC_OscConfig+0x470>)
 8001a02:	f023 0304 	bic.w	r3, r3, #4
 8001a06:	6713      	str	r3, [r2, #112]	@ 0x70
    /* Check the LSE State */
    if((RCC_OscInitStruct->LSEState) != RCC_LSE_OFF)
 8001a08:	687b      	ldr	r3, [r7, #4]
 8001a0a:	689b      	ldr	r3, [r3, #8]
 8001a0c:	2b00      	cmp	r3, #0
 8001a0e:	d015      	beq.n	8001a3c <HAL_RCC_OscConfig+0x358>
    {
      /* Get Start Tick*/
      tickstart = HAL_GetTick();
 8001a10:	f7ff f9aa 	bl	8000d68 <HAL_GetTick>
 8001a14:	6138      	str	r0, [r7, #16]

      /* Wait till LSE is ready */
      while(__HAL_RCC_GET_FLAG(RCC_FLAG_LSERDY) == RESET)
 8001a16:	e00a      	b.n	8001a2e <HAL_RCC_OscConfig+0x34a>
      {
        if((HAL_GetTick() - tickstart ) > RCC_LSE_TIMEOUT_VALUE)
 8001a18:	f7ff f9a6 	bl	8000d68 <HAL_GetTick>
 8001a1c:	4602      	mov	r2, r0
 8001a1e:	693b      	ldr	r3, [r7, #16]
 8001a20:	1ad3      	subs	r3, r2, r3
 8001a22:	f241 3288 	movw	r2, #5000	@ 0x1388
 8001a26:	4293      	cmp	r3, r2
 8001a28:	d901      	bls.n	8001a2e <HAL_RCC_OscConfig+0x34a>
        {
          return HAL_TIMEOUT;
 8001a2a:	2303      	movs	r3, #3
 8001a2c:	e0cb      	b.n	8001bc6 <HAL_RCC_OscConfig+0x4e2>
      while(__HAL_RCC_GET_FLAG(RCC_FLAG_LSERDY) == RESET)
 8001a2e:	4b49      	ldr	r3, [pc, #292]	@ (8001b54 <HAL_RCC_OscConfig+0x470>)
 8001a30:	6f1b      	ldr	r3, [r3, #112]	@ 0x70
 8001a32:	f003 0302 	and.w	r3, r3, #2
 8001a36:	2b00      	cmp	r3, #0
 8001a38:	d0ee      	beq.n	8001a18 <HAL_RCC_OscConfig+0x334>
 8001a3a:	e014      	b.n	8001a66 <HAL_RCC_OscConfig+0x382>
      }
    }
    else
    {
      /* Get Start Tick */
      tickstart = HAL_GetTick();
 8001a3c:	f7ff f994 	bl	8000d68 <HAL_GetTick>
 8001a40:	6138      	str	r0, [r7, #16]

      /* Wait till LSE is ready */
      while(__HAL_RCC_GET_FLAG(RCC_FLAG_LSERDY) != RESET)
 8001a42:	e00a      	b.n	8001a5a <HAL_RCC_OscConfig+0x376>
      {
        if((HAL_GetTick() - tickstart ) > RCC_LSE_TIMEOUT_VALUE)
 8001a44:	f7ff f990 	bl	8000d68 <HAL_GetTick>
 8001a48:	4602      	mov	r2, r0
 8001a4a:	693b      	ldr	r3, [r7, #16]
 8001a4c:	1ad3      	subs	r3, r2, r3
 8001a4e:	f241 3288 	movw	r2, #5000	@ 0x1388
 8001a52:	4293      	cmp	r3, r2
 8001a54:	d901      	bls.n	8001a5a <HAL_RCC_OscConfig+0x376>
        {
          return HAL_TIMEOUT;
 8001a56:	2303      	movs	r3, #3
 8001a58:	e0b5      	b.n	8001bc6 <HAL_RCC_OscConfig+0x4e2>
      while(__HAL_RCC_GET_FLAG(RCC_FLAG_LSERDY) != RESET)
 8001a5a:	4b3e      	ldr	r3, [pc, #248]	@ (8001b54 <HAL_RCC_OscConfig+0x470>)
 8001a5c:	6f1b      	ldr	r3, [r3, #112]	@ 0x70
 8001a5e:	f003 0302 	and.w	r3, r3, #2
 8001a62:	2b00      	cmp	r3, #0
 8001a64:	d1ee      	bne.n	8001a44 <HAL_RCC_OscConfig+0x360>
        }
      }
    }

    /* Restore clock configuration if changed */
    if(pwrclkchanged == SET)
 8001a66:	7dfb      	ldrb	r3, [r7, #23]
 8001a68:	2b01      	cmp	r3, #1
 8001a6a:	d105      	bne.n	8001a78 <HAL_RCC_OscConfig+0x394>
    {
      __HAL_RCC_PWR_CLK_DISABLE();
 8001a6c:	4b39      	ldr	r3, [pc, #228]	@ (8001b54 <HAL_RCC_OscConfig+0x470>)
 8001a6e:	6c1b      	ldr	r3, [r3, #64]	@ 0x40
 8001a70:	4a38      	ldr	r2, [pc, #224]	@ (8001b54 <HAL_RCC_OscConfig+0x470>)
 8001a72:	f023 5380 	bic.w	r3, r3, #268435456	@ 0x10000000
 8001a76:	6413      	str	r3, [r2, #64]	@ 0x40
    }
  }
  /*-------------------------------- PLL Configuration -----------------------*/
  /* Check the parameters */
  assert_param(IS_RCC_PLL(RCC_OscInitStruct->PLL.PLLState));
  if ((RCC_OscInitStruct->PLL.PLLState) != RCC_PLL_NONE)
 8001a78:	687b      	ldr	r3, [r7, #4]
 8001a7a:	699b      	ldr	r3, [r3, #24]
 8001a7c:	2b00      	cmp	r3, #0
 8001a7e:	f000 80a1 	beq.w	8001bc4 <HAL_RCC_OscConfig+0x4e0>
  {
    /* Check if the PLL is used as system clock or not */
    if(__HAL_RCC_GET_SYSCLK_SOURCE() != RCC_CFGR_SWS_PLL)
 8001a82:	4b34      	ldr	r3, [pc, #208]	@ (8001b54 <HAL_RCC_OscConfig+0x470>)
 8001a84:	689b      	ldr	r3, [r3, #8]
 8001a86:	f003 030c 	and.w	r3, r3, #12
 8001a8a:	2b08      	cmp	r3, #8
 8001a8c:	d05c      	beq.n	8001b48 <HAL_RCC_OscConfig+0x464>
    {
      if((RCC_OscInitStruct->PLL.PLLState) == RCC_PLL_ON)
 8001a8e:	687b      	ldr	r3, [r7, #4]
 8001a90:	699b      	ldr	r3, [r3, #24]
 8001a92:	2b02      	cmp	r3, #2
 8001a94:	d141      	bne.n	8001b1a <HAL_RCC_OscConfig+0x436>
        assert_param(IS_RCC_PLLN_VALUE(RCC_OscInitStruct->PLL.PLLN));
        assert_param(IS_RCC_PLLP_VALUE(RCC_OscInitStruct->PLL.PLLP));
        assert_param(IS_RCC_PLLQ_VALUE(RCC_OscInitStruct->PLL.PLLQ));

        /* Disable the main PLL. */
        __HAL_RCC_PLL_DISABLE();
 8001a96:	4b31      	ldr	r3, [pc, #196]	@ (8001b5c <HAL_RCC_OscConfig+0x478>)
 8001a98:	2200      	movs	r2, #0
 8001a9a:	601a      	str	r2, [r3, #0]

        /* Get Start Tick */
        tickstart = HAL_GetTick();
 8001a9c:	f7ff f964 	bl	8000d68 <HAL_GetTick>
 8001aa0:	6138      	str	r0, [r7, #16]

        /* Wait till PLL is disabled */
        while(__HAL_RCC_GET_FLAG(RCC_FLAG_PLLRDY) != RESET)
 8001aa2:	e008      	b.n	8001ab6 <HAL_RCC_OscConfig+0x3d2>
        {
          if((HAL_GetTick() - tickstart ) > PLL_TIMEOUT_VALUE)
 8001aa4:	f7ff f960 	bl	8000d68 <HAL_GetTick>
 8001aa8:	4602      	mov	r2, r0
 8001aaa:	693b      	ldr	r3, [r7, #16]
 8001aac:	1ad3      	subs	r3, r2, r3
 8001aae:	2b02      	cmp	r3, #2
 8001ab0:	d901      	bls.n	8001ab6 <HAL_RCC_OscConfig+0x3d2>
          {
            return HAL_TIMEOUT;
 8001ab2:	2303      	movs	r3, #3
 8001ab4:	e087      	b.n	8001bc6 <HAL_RCC_OscConfig+0x4e2>
        while(__HAL_RCC_GET_FLAG(RCC_FLAG_PLLRDY) != RESET)
 8001ab6:	4b27      	ldr	r3, [pc, #156]	@ (8001b54 <HAL_RCC_OscConfig+0x470>)
 8001ab8:	681b      	ldr	r3, [r3, #0]
 8001aba:	f003 7300 	and.w	r3, r3, #33554432	@ 0x2000000
 8001abe:	2b00      	cmp	r3, #0
 8001ac0:	d1f0      	bne.n	8001aa4 <HAL_RCC_OscConfig+0x3c0>
          }
        }

        /* Configure the main PLL clock source, multiplication and division factors. */
        WRITE_REG(RCC->PLLCFGR, (RCC_OscInitStruct->PLL.PLLSource                                            | \
 8001ac2:	687b      	ldr	r3, [r7, #4]
 8001ac4:	69da      	ldr	r2, [r3, #28]
 8001ac6:	687b      	ldr	r3, [r7, #4]
 8001ac8:	6a1b      	ldr	r3, [r3, #32]
 8001aca:	431a      	orrs	r2, r3
 8001acc:	687b      	ldr	r3, [r7, #4]
 8001ace:	6a5b      	ldr	r3, [r3, #36]	@ 0x24
 8001ad0:	019b      	lsls	r3, r3, #6
 8001ad2:	431a      	orrs	r2, r3
 8001ad4:	687b      	ldr	r3, [r7, #4]
 8001ad6:	6a9b      	ldr	r3, [r3, #40]	@ 0x28
 8001ad8:	085b      	lsrs	r3, r3, #1
 8001ada:	3b01      	subs	r3, #1
 8001adc:	041b      	lsls	r3, r3, #16
 8001ade:	431a      	orrs	r2, r3
 8001ae0:	687b      	ldr	r3, [r7, #4]
 8001ae2:	6adb      	ldr	r3, [r3, #44]	@ 0x2c
 8001ae4:	061b      	lsls	r3, r3, #24
 8001ae6:	491b      	ldr	r1, [pc, #108]	@ (8001b54 <HAL_RCC_OscConfig+0x470>)
 8001ae8:	4313      	orrs	r3, r2
 8001aea:	604b      	str	r3, [r1, #4]
                                 RCC_OscInitStruct->PLL.PLLM                                                 | \
                                 (RCC_OscInitStruct->PLL.PLLN << RCC_PLLCFGR_PLLN_Pos)             | \
                                 (((RCC_OscInitStruct->PLL.PLLP >> 1U) - 1U) << RCC_PLLCFGR_PLLP_Pos) | \
                                 (RCC_OscInitStruct->PLL.PLLQ << RCC_PLLCFGR_PLLQ_Pos)));
        /* Enable the main PLL. */
        __HAL_RCC_PLL_ENABLE();
 8001aec:	4b1b      	ldr	r3, [pc, #108]	@ (8001b5c <HAL_RCC_OscConfig+0x478>)
 8001aee:	2201      	movs	r2, #1
 8001af0:	601a      	str	r2, [r3, #0]

        /* Get Start Tick */
        tickstart = HAL_GetTick();
 8001af2:	f7ff f939 	bl	8000d68 <HAL_GetTick>
 8001af6:	6138      	str	r0, [r7, #16]

        /* Wait till PLL is ready */
        while(__HAL_RCC_GET_FLAG(RCC_FLAG_PLLRDY) == RESET)
 8001af8:	e008      	b.n	8001b0c <HAL_RCC_OscConfig+0x428>
        {
          if((HAL_GetTick() - tickstart ) > PLL_TIMEOUT_VALUE)
 8001afa:	f7ff f935 	bl	8000d68 <HAL_GetTick>
 8001afe:	4602      	mov	r2, r0
 8001b00:	693b      	ldr	r3, [r7, #16]
 8001b02:	1ad3      	subs	r3, r2, r3
 8001b04:	2b02      	cmp	r3, #2
 8001b06:	d901      	bls.n	8001b0c <HAL_RCC_OscConfig+0x428>
          {
            return HAL_TIMEOUT;
 8001b08:	2303      	movs	r3, #3
 8001b0a:	e05c      	b.n	8001bc6 <HAL_RCC_OscConfig+0x4e2>
        while(__HAL_RCC_GET_FLAG(RCC_FLAG_PLLRDY) == RESET)
 8001b0c:	4b11      	ldr	r3, [pc, #68]	@ (8001b54 <HAL_RCC_OscConfig+0x470>)
 8001b0e:	681b      	ldr	r3, [r3, #0]
 8001b10:	f003 7300 	and.w	r3, r3, #33554432	@ 0x2000000
 8001b14:	2b00      	cmp	r3, #0
 8001b16:	d0f0      	beq.n	8001afa <HAL_RCC_OscConfig+0x416>
 8001b18:	e054      	b.n	8001bc4 <HAL_RCC_OscConfig+0x4e0>
        }
      }
      else
      {
        /* Disable the main PLL. */
        __HAL_RCC_PLL_DISABLE();
 8001b1a:	4b10      	ldr	r3, [pc, #64]	@ (8001b5c <HAL_RCC_OscConfig+0x478>)
 8001b1c:	2200      	movs	r2, #0
 8001b1e:	601a      	str	r2, [r3, #0]

        /* Get Start Tick */
        tickstart = HAL_GetTick();
 8001b20:	f7ff f922 	bl	8000d68 <HAL_GetTick>
 8001b24:	6138      	str	r0, [r7, #16]

        /* Wait till PLL is disabled */
        while(__HAL_RCC_GET_FLAG(RCC_FLAG_PLLRDY) != RESET)
 8001b26:	e008      	b.n	8001b3a <HAL_RCC_OscConfig+0x456>
        {
          if((HAL_GetTick() - tickstart ) > PLL_TIMEOUT_VALUE)
 8001b28:	f7ff f91e 	bl	8000d68 <HAL_GetTick>
 8001b2c:	4602      	mov	r2, r0
 8001b2e:	693b      	ldr	r3, [r7, #16]
 8001b30:	1ad3      	subs	r3, r2, r3
 8001b32:	2b02      	cmp	r3, #2
 8001b34:	d901      	bls.n	8001b3a <HAL_RCC_OscConfig+0x456>
          {
            return HAL_TIMEOUT;
 8001b36:	2303      	movs	r3, #3
 8001b38:	e045      	b.n	8001bc6 <HAL_RCC_OscConfig+0x4e2>
        while(__HAL_RCC_GET_FLAG(RCC_FLAG_PLLRDY) != RESET)
 8001b3a:	4b06      	ldr	r3, [pc, #24]	@ (8001b54 <HAL_RCC_OscConfig+0x470>)
 8001b3c:	681b      	ldr	r3, [r3, #0]
 8001b3e:	f003 7300 	and.w	r3, r3, #33554432	@ 0x2000000
 8001b42:	2b00      	cmp	r3, #0
 8001b44:	d1f0      	bne.n	8001b28 <HAL_RCC_OscConfig+0x444>
 8001b46:	e03d      	b.n	8001bc4 <HAL_RCC_OscConfig+0x4e0>
      }
    }
    else
    {
      /* Check if there is a request to disable the PLL used as System clock source */
      if((RCC_OscInitStruct->PLL.PLLState) == RCC_PLL_OFF)
 8001b48:	687b      	ldr	r3, [r7, #4]
 8001b4a:	699b      	ldr	r3, [r3, #24]
 8001b4c:	2b01      	cmp	r3, #1
 8001b4e:	d107      	bne.n	8001b60 <HAL_RCC_OscConfig+0x47c>
      {
        return HAL_ERROR;
 8001b50:	2301      	movs	r3, #1
 8001b52:	e038      	b.n	8001bc6 <HAL_RCC_OscConfig+0x4e2>
 8001b54:	40023800 	.word	0x40023800
 8001b58:	40007000 	.word	0x40007000
 8001b5c:	42470060 	.word	0x42470060
      }
      else
      {
        /* Do not return HAL_ERROR if request repeats the current configuration */
        pll_config = RCC->PLLCFGR;
 8001b60:	4b1b      	ldr	r3, [pc, #108]	@ (8001bd0 <HAL_RCC_OscConfig+0x4ec>)
 8001b62:	685b      	ldr	r3, [r3, #4]
 8001b64:	60fb      	str	r3, [r7, #12]
            (READ_BIT(pll_config, RCC_PLLCFGR_PLLN) != (RCC_OscInitStruct->PLL.PLLN) << RCC_PLLCFGR_PLLN_Pos) ||
            (READ_BIT(pll_config, RCC_PLLCFGR_PLLP) != (((RCC_OscInitStruct->PLL.PLLP >> 1U) - 1U)) << RCC_PLLCFGR_PLLP_Pos) ||
            (READ_BIT(pll_config, RCC_PLLCFGR_PLLQ) != (RCC_OscInitStruct->PLL.PLLQ << RCC_PLLCFGR_PLLQ_Pos)) ||
            (READ_BIT(pll_config, RCC_PLLCFGR_PLLR) != (RCC_OscInitStruct->PLL.PLLR << RCC_PLLCFGR_PLLR_Pos)))
#else
        if (((RCC_OscInitStruct->PLL.PLLState) == RCC_PLL_OFF) ||
 8001b66:	687b      	ldr	r3, [r7, #4]
 8001b68:	699b      	ldr	r3, [r3, #24]
 8001b6a:	2b01      	cmp	r3, #1
 8001b6c:	d028      	beq.n	8001bc0 <HAL_RCC_OscConfig+0x4dc>
            (READ_BIT(pll_config, RCC_PLLCFGR_PLLSRC) != RCC_OscInitStruct->PLL.PLLSource) ||
 8001b6e:	68fb      	ldr	r3, [r7, #12]
 8001b70:	f403 0280 	and.w	r2, r3, #4194304	@ 0x400000
 8001b74:	687b      	ldr	r3, [r7, #4]
 8001b76:	69db      	ldr	r3, [r3, #28]
        if (((RCC_OscInitStruct->PLL.PLLState) == RCC_PLL_OFF) ||
 8001b78:	429a      	cmp	r2, r3
 8001b7a:	d121      	bne.n	8001bc0 <HAL_RCC_OscConfig+0x4dc>
            (READ_BIT(pll_config, RCC_PLLCFGR_PLLM) != (RCC_OscInitStruct->PLL.PLLM) << RCC_PLLCFGR_PLLM_Pos) ||
 8001b7c:	68fb      	ldr	r3, [r7, #12]
 8001b7e:	f003 023f 	and.w	r2, r3, #63	@ 0x3f
 8001b82:	687b      	ldr	r3, [r7, #4]
 8001b84:	6a1b      	ldr	r3, [r3, #32]
            (READ_BIT(pll_config, RCC_PLLCFGR_PLLSRC) != RCC_OscInitStruct->PLL.PLLSource) ||
 8001b86:	429a      	cmp	r2, r3
 8001b88:	d11a      	bne.n	8001bc0 <HAL_RCC_OscConfig+0x4dc>
            (READ_BIT(pll_config, RCC_PLLCFGR_PLLN) != (RCC_OscInitStruct->PLL.PLLN) << RCC_PLLCFGR_PLLN_Pos) ||
 8001b8a:	68fa      	ldr	r2, [r7, #12]
 8001b8c:	f647 73c0 	movw	r3, #32704	@ 0x7fc0
 8001b90:	4013      	ands	r3, r2
 8001b92:	687a      	ldr	r2, [r7, #4]
 8001b94:	6a52      	ldr	r2, [r2, #36]	@ 0x24
 8001b96:	0192      	lsls	r2, r2, #6
            (READ_BIT(pll_config, RCC_PLLCFGR_PLLM) != (RCC_OscInitStruct->PLL.PLLM) << RCC_PLLCFGR_PLLM_Pos) ||
 8001b98:	4293      	cmp	r3, r2
 8001b9a:	d111      	bne.n	8001bc0 <HAL_RCC_OscConfig+0x4dc>
            (READ_BIT(pll_config, RCC_PLLCFGR_PLLP) != (((RCC_OscInitStruct->PLL.PLLP >> 1U) - 1U)) << RCC_PLLCFGR_PLLP_Pos) ||
 8001b9c:	68fb      	ldr	r3, [r7, #12]
 8001b9e:	f403 3240 	and.w	r2, r3, #196608	@ 0x30000
 8001ba2:	687b      	ldr	r3, [r7, #4]
 8001ba4:	6a9b      	ldr	r3, [r3, #40]	@ 0x28
 8001ba6:	085b      	lsrs	r3, r3, #1
 8001ba8:	3b01      	subs	r3, #1
 8001baa:	041b      	lsls	r3, r3, #16
            (READ_BIT(pll_config, RCC_PLLCFGR_PLLN) != (RCC_OscInitStruct->PLL.PLLN) << RCC_PLLCFGR_PLLN_Pos) ||
 8001bac:	429a      	cmp	r2, r3
 8001bae:	d107      	bne.n	8001bc0 <HAL_RCC_OscConfig+0x4dc>
            (READ_BIT(pll_config, RCC_PLLCFGR_PLLQ) != (RCC_OscInitStruct->PLL.PLLQ << RCC_PLLCFGR_PLLQ_Pos)))
 8001bb0:	68fb      	ldr	r3, [r7, #12]
 8001bb2:	f003 6270 	and.w	r2, r3, #251658240	@ 0xf000000
 8001bb6:	687b      	ldr	r3, [r7, #4]
 8001bb8:	6adb      	ldr	r3, [r3, #44]	@ 0x2c
 8001bba:	061b      	lsls	r3, r3, #24
            (READ_BIT(pll_config, RCC_PLLCFGR_PLLP) != (((RCC_OscInitStruct->PLL.PLLP >> 1U) - 1U)) << RCC_PLLCFGR_PLLP_Pos) ||
 8001bbc:	429a      	cmp	r2, r3
 8001bbe:	d001      	beq.n	8001bc4 <HAL_RCC_OscConfig+0x4e0>
#endif
        {
          return HAL_ERROR;
 8001bc0:	2301      	movs	r3, #1
 8001bc2:	e000      	b.n	8001bc6 <HAL_RCC_OscConfig+0x4e2>
        }
      }
    }
  }
  return HAL_OK;
 8001bc4:	2300      	movs	r3, #0
}
 8001bc6:	4618      	mov	r0, r3
 8001bc8:	3718      	adds	r7, #24
 8001bca:	46bd      	mov	sp, r7
 8001bcc:	bd80      	pop	{r7, pc}
 8001bce:	bf00      	nop
 8001bd0:	40023800 	.word	0x40023800

08001bd4 <HAL_RCC_ClockConfig>:
  *         HPRE[3:0] bits to ensure that HCLK not exceed the maximum allowed frequency
  *         (for more details refer to section above "Initialization/de-initialization functions")
  * @retval None
  */
HAL_StatusTypeDef HAL_RCC_ClockConfig(RCC_ClkInitTypeDef  *RCC_ClkInitStruct, uint32_t FLatency)
{
 8001bd4:	b580      	push	{r7, lr}
 8001bd6:	b084      	sub	sp, #16
 8001bd8:	af00      	add	r7, sp, #0
 8001bda:	6078      	str	r0, [r7, #4]
 8001bdc:	6039      	str	r1, [r7, #0]
  uint32_t tickstart;

  /* Check Null pointer */
  if(RCC_ClkInitStruct == NULL)
 8001bde:	687b      	ldr	r3, [r7, #4]
 8001be0:	2b00      	cmp	r3, #0
 8001be2:	d101      	bne.n	8001be8 <HAL_RCC_ClockConfig+0x14>
  {
    return HAL_ERROR;
 8001be4:	2301      	movs	r3, #1
 8001be6:	e0cc      	b.n	8001d82 <HAL_RCC_ClockConfig+0x1ae>
  /* To correctly read data from FLASH memory, the number of wait states (LATENCY)
    must be correctly programmed according to the frequency of the CPU clock
    (HCLK) and the supply voltage of the device. */

  /* Increasing the number of wait states because of higher CPU frequency */
  if(FLatency > __HAL_FLASH_GET_LATENCY())
 8001be8:	4b68      	ldr	r3, [pc, #416]	@ (8001d8c <HAL_RCC_ClockConfig+0x1b8>)
 8001bea:	681b      	ldr	r3, [r3, #0]
 8001bec:	f003 0307 	and.w	r3, r3, #7
 8001bf0:	683a      	ldr	r2, [r7, #0]
 8001bf2:	429a      	cmp	r2, r3
 8001bf4:	d90c      	bls.n	8001c10 <HAL_RCC_ClockConfig+0x3c>
  {
    /* Program the new number of wait states to the LATENCY bits in the FLASH_ACR register */
    __HAL_FLASH_SET_LATENCY(FLatency);
 8001bf6:	4b65      	ldr	r3, [pc, #404]	@ (8001d8c <HAL_RCC_ClockConfig+0x1b8>)
 8001bf8:	683a      	ldr	r2, [r7, #0]
 8001bfa:	b2d2      	uxtb	r2, r2
 8001bfc:	701a      	strb	r2, [r3, #0]

    /* Check that the new number of wait states is taken into account to access the Flash
    memory by reading the FLASH_ACR register */
    if(__HAL_FLASH_GET_LATENCY() != FLatency)
 8001bfe:	4b63      	ldr	r3, [pc, #396]	@ (8001d8c <HAL_RCC_ClockConfig+0x1b8>)
 8001c00:	681b      	ldr	r3, [r3, #0]
 8001c02:	f003 0307 	and.w	r3, r3, #7
 8001c06:	683a      	ldr	r2, [r7, #0]
 8001c08:	429a      	cmp	r2, r3
 8001c0a:	d001      	beq.n	8001c10 <HAL_RCC_ClockConfig+0x3c>
    {
      return HAL_ERROR;
 8001c0c:	2301      	movs	r3, #1
 8001c0e:	e0b8      	b.n	8001d82 <HAL_RCC_ClockConfig+0x1ae>
    }
  }

  /*-------------------------- HCLK Configuration --------------------------*/
  if(((RCC_ClkInitStruct->ClockType) & RCC_CLOCKTYPE_HCLK) == RCC_CLOCKTYPE_HCLK)
 8001c10:	687b      	ldr	r3, [r7, #4]
 8001c12:	681b      	ldr	r3, [r3, #0]
 8001c14:	f003 0302 	and.w	r3, r3, #2
 8001c18:	2b00      	cmp	r3, #0
 8001c1a:	d020      	beq.n	8001c5e <HAL_RCC_ClockConfig+0x8a>
  {
    /* Set the highest APBx dividers in order to ensure that we do not go through
       a non-spec phase whatever we decrease or increase HCLK. */
    if(((RCC_ClkInitStruct->ClockType) & RCC_CLOCKTYPE_PCLK1) == RCC_CLOCKTYPE_PCLK1)
 8001c1c:	687b      	ldr	r3, [r7, #4]
 8001c1e:	681b      	ldr	r3, [r3, #0]
 8001c20:	f003 0304 	and.w	r3, r3, #4
 8001c24:	2b00      	cmp	r3, #0
 8001c26:	d005      	beq.n	8001c34 <HAL_RCC_ClockConfig+0x60>
    {
      MODIFY_REG(RCC->CFGR, RCC_CFGR_PPRE1, RCC_HCLK_DIV16);
 8001c28:	4b59      	ldr	r3, [pc, #356]	@ (8001d90 <HAL_RCC_ClockConfig+0x1bc>)
 8001c2a:	689b      	ldr	r3, [r3, #8]
 8001c2c:	4a58      	ldr	r2, [pc, #352]	@ (8001d90 <HAL_RCC_ClockConfig+0x1bc>)
 8001c2e:	f443 53e0 	orr.w	r3, r3, #7168	@ 0x1c00
 8001c32:	6093      	str	r3, [r2, #8]
    }

    if(((RCC_ClkInitStruct->ClockType) & RCC_CLOCKTYPE_PCLK2) == RCC_CLOCKTYPE_PCLK2)
 8001c34:	687b      	ldr	r3, [r7, #4]
 8001c36:	681b      	ldr	r3, [r3, #0]
 8001c38:	f003 0308 	and.w	r3, r3, #8
 8001c3c:	2b00      	cmp	r3, #0
 8001c3e:	d005      	beq.n	8001c4c <HAL_RCC_ClockConfig+0x78>
    {
      MODIFY_REG(RCC->CFGR, RCC_CFGR_PPRE2, (RCC_HCLK_DIV16 << 3));
 8001c40:	4b53      	ldr	r3, [pc, #332]	@ (8001d90 <HAL_RCC_ClockConfig+0x1bc>)
 8001c42:	689b      	ldr	r3, [r3, #8]
 8001c44:	4a52      	ldr	r2, [pc, #328]	@ (8001d90 <HAL_RCC_ClockConfig+0x1bc>)
 8001c46:	f443 4360 	orr.w	r3, r3, #57344	@ 0xe000
 8001c4a:	6093      	str	r3, [r2, #8]
    }

    assert_param(IS_RCC_HCLK(RCC_ClkInitStruct->AHBCLKDivider));
    MODIFY_REG(RCC->CFGR, RCC_CFGR_HPRE, RCC_ClkInitStruct->AHBCLKDivider);
 8001c4c:	4b50      	ldr	r3, [pc, #320]	@ (8001d90 <HAL_RCC_ClockConfig+0x1bc>)
 8001c4e:	689b      	ldr	r3, [r3, #8]
 8001c50:	f023 02f0 	bic.w	r2, r3, #240	@ 0xf0
 8001c54:	687b      	ldr	r3, [r7, #4]
 8001c56:	689b      	ldr	r3, [r3, #8]
 8001c58:	494d      	ldr	r1, [pc, #308]	@ (8001d90 <HAL_RCC_ClockConfig+0x1bc>)
 8001c5a:	4313      	orrs	r3, r2
 8001c5c:	608b      	str	r3, [r1, #8]
  }

  /*------------------------- SYSCLK Configuration ---------------------------*/
  if(((RCC_ClkInitStruct->ClockType) & RCC_CLOCKTYPE_SYSCLK) == RCC_CLOCKTYPE_SYSCLK)
 8001c5e:	687b      	ldr	r3, [r7, #4]
 8001c60:	681b      	ldr	r3, [r3, #0]
 8001c62:	f003 0301 	and.w	r3, r3, #1
 8001c66:	2b00      	cmp	r3, #0
 8001c68:	d044      	beq.n	8001cf4 <HAL_RCC_ClockConfig+0x120>
  {
    assert_param(IS_RCC_SYSCLKSOURCE(RCC_ClkInitStruct->SYSCLKSource));

    /* HSE is selected as System Clock Source */
    if(RCC_ClkInitStruct->SYSCLKSource == RCC_SYSCLKSOURCE_HSE)
 8001c6a:	687b      	ldr	r3, [r7, #4]
 8001c6c:	685b      	ldr	r3, [r3, #4]
 8001c6e:	2b01      	cmp	r3, #1
 8001c70:	d107      	bne.n	8001c82 <HAL_RCC_ClockConfig+0xae>
    {
      /* Check the HSE ready flag */
      if(__HAL_RCC_GET_FLAG(RCC_FLAG_HSERDY) == RESET)
 8001c72:	4b47      	ldr	r3, [pc, #284]	@ (8001d90 <HAL_RCC_ClockConfig+0x1bc>)
 8001c74:	681b      	ldr	r3, [r3, #0]
 8001c76:	f403 3300 	and.w	r3, r3, #131072	@ 0x20000
 8001c7a:	2b00      	cmp	r3, #0
 8001c7c:	d119      	bne.n	8001cb2 <HAL_RCC_ClockConfig+0xde>
      {
        return HAL_ERROR;
 8001c7e:	2301      	movs	r3, #1
 8001c80:	e07f      	b.n	8001d82 <HAL_RCC_ClockConfig+0x1ae>
      }
    }
    /* PLL is selected as System Clock Source */
    else if((RCC_ClkInitStruct->SYSCLKSource == RCC_SYSCLKSOURCE_PLLCLK)   ||
 8001c82:	687b      	ldr	r3, [r7, #4]
 8001c84:	685b      	ldr	r3, [r3, #4]
 8001c86:	2b02      	cmp	r3, #2
 8001c88:	d003      	beq.n	8001c92 <HAL_RCC_ClockConfig+0xbe>
            (RCC_ClkInitStruct->SYSCLKSource == RCC_SYSCLKSOURCE_PLLRCLK))
 8001c8a:	687b      	ldr	r3, [r7, #4]
 8001c8c:	685b      	ldr	r3, [r3, #4]
    else if((RCC_ClkInitStruct->SYSCLKSource == RCC_SYSCLKSOURCE_PLLCLK)   ||
 8001c8e:	2b03      	cmp	r3, #3
 8001c90:	d107      	bne.n	8001ca2 <HAL_RCC_ClockConfig+0xce>
    {
      /* Check the PLL ready flag */
      if(__HAL_RCC_GET_FLAG(RCC_FLAG_PLLRDY) == RESET)
 8001c92:	4b3f      	ldr	r3, [pc, #252]	@ (8001d90 <HAL_RCC_ClockConfig+0x1bc>)
 8001c94:	681b      	ldr	r3, [r3, #0]
 8001c96:	f003 7300 	and.w	r3, r3, #33554432	@ 0x2000000
 8001c9a:	2b00      	cmp	r3, #0
 8001c9c:	d109      	bne.n	8001cb2 <HAL_RCC_ClockConfig+0xde>
      {
        return HAL_ERROR;
 8001c9e:	2301      	movs	r3, #1
 8001ca0:	e06f      	b.n	8001d82 <HAL_RCC_ClockConfig+0x1ae>
    }
    /* HSI is selected as System Clock Source */
    else
    {
      /* Check the HSI ready flag */
      if(__HAL_RCC_GET_FLAG(RCC_FLAG_HSIRDY) == RESET)
 8001ca2:	4b3b      	ldr	r3, [pc, #236]	@ (8001d90 <HAL_RCC_ClockConfig+0x1bc>)
 8001ca4:	681b      	ldr	r3, [r3, #0]
 8001ca6:	f003 0302 	and.w	r3, r3, #2
 8001caa:	2b00      	cmp	r3, #0
 8001cac:	d101      	bne.n	8001cb2 <HAL_RCC_ClockConfig+0xde>
      {
        return HAL_ERROR;
 8001cae:	2301      	movs	r3, #1
 8001cb0:	e067      	b.n	8001d82 <HAL_RCC_ClockConfig+0x1ae>
      }
    }

    __HAL_RCC_SYSCLK_CONFIG(RCC_ClkInitStruct->SYSCLKSource);
 8001cb2:	4b37      	ldr	r3, [pc, #220]	@ (8001d90 <HAL_RCC_ClockConfig+0x1bc>)
 8001cb4:	689b      	ldr	r3, [r3, #8]
 8001cb6:	f023 0203 	bic.w	r2, r3, #3
 8001cba:	687b      	ldr	r3, [r7, #4]
 8001cbc:	685b      	ldr	r3, [r3, #4]
 8001cbe:	4934      	ldr	r1, [pc, #208]	@ (8001d90 <HAL_RCC_ClockConfig+0x1bc>)
 8001cc0:	4313      	orrs	r3, r2
 8001cc2:	608b      	str	r3, [r1, #8]

    /* Get Start Tick */
    tickstart = HAL_GetTick();
 8001cc4:	f7ff f850 	bl	8000d68 <HAL_GetTick>
 8001cc8:	60f8      	str	r0, [r7, #12]

    while (__HAL_RCC_GET_SYSCLK_SOURCE() != (RCC_ClkInitStruct->SYSCLKSource << RCC_CFGR_SWS_Pos))
 8001cca:	e00a      	b.n	8001ce2 <HAL_RCC_ClockConfig+0x10e>
    {
      if ((HAL_GetTick() - tickstart) > CLOCKSWITCH_TIMEOUT_VALUE)
 8001ccc:	f7ff f84c 	bl	8000d68 <HAL_GetTick>
 8001cd0:	4602      	mov	r2, r0
 8001cd2:	68fb      	ldr	r3, [r7, #12]
 8001cd4:	1ad3      	subs	r3, r2, r3
 8001cd6:	f241 3288 	movw	r2, #5000	@ 0x1388
 8001cda:	4293      	cmp	r3, r2
 8001cdc:	d901      	bls.n	8001ce2 <HAL_RCC_ClockConfig+0x10e>
      {
        return HAL_TIMEOUT;
 8001cde:	2303      	movs	r3, #3
 8001ce0:	e04f      	b.n	8001d82 <HAL_RCC_ClockConfig+0x1ae>
    while (__HAL_RCC_GET_SYSCLK_SOURCE() != (RCC_ClkInitStruct->SYSCLKSource << RCC_CFGR_SWS_Pos))
 8001ce2:	4b2b      	ldr	r3, [pc, #172]	@ (8001d90 <HAL_RCC_ClockConfig+0x1bc>)
 8001ce4:	689b      	ldr	r3, [r3, #8]
 8001ce6:	f003 020c 	and.w	r2, r3, #12
 8001cea:	687b      	ldr	r3, [r7, #4]
 8001cec:	685b      	ldr	r3, [r3, #4]
 8001cee:	009b      	lsls	r3, r3, #2
 8001cf0:	429a      	cmp	r2, r3
 8001cf2:	d1eb      	bne.n	8001ccc <HAL_RCC_ClockConfig+0xf8>
      }
    }
  }

  /* Decreasing the number of wait states because of lower CPU frequency */
  if(FLatency < __HAL_FLASH_GET_LATENCY())
 8001cf4:	4b25      	ldr	r3, [pc, #148]	@ (8001d8c <HAL_RCC_ClockConfig+0x1b8>)
 8001cf6:	681b      	ldr	r3, [r3, #0]
 8001cf8:	f003 0307 	and.w	r3, r3, #7
 8001cfc:	683a      	ldr	r2, [r7, #0]
 8001cfe:	429a      	cmp	r2, r3
 8001d00:	d20c      	bcs.n	8001d1c <HAL_RCC_ClockConfig+0x148>
  {
     /* Program the new number of wait states to the LATENCY bits in the FLASH_ACR register */
    __HAL_FLASH_SET_LATENCY(FLatency);
 8001d02:	4b22      	ldr	r3, [pc, #136]	@ (8001d8c <HAL_RCC_ClockConfig+0x1b8>)
 8001d04:	683a      	ldr	r2, [r7, #0]
 8001d06:	b2d2      	uxtb	r2, r2
 8001d08:	701a      	strb	r2, [r3, #0]

    /* Check that the new number of wait states is taken into account to access the Flash
    memory by reading the FLASH_ACR register */
    if(__HAL_FLASH_GET_LATENCY() != FLatency)
 8001d0a:	4b20      	ldr	r3, [pc, #128]	@ (8001d8c <HAL_RCC_ClockConfig+0x1b8>)
 8001d0c:	681b      	ldr	r3, [r3, #0]
 8001d0e:	f003 0307 	and.w	r3, r3, #7
 8001d12:	683a      	ldr	r2, [r7, #0]
 8001d14:	429a      	cmp	r2, r3
 8001d16:	d001      	beq.n	8001d1c <HAL_RCC_ClockConfig+0x148>
    {
      return HAL_ERROR;
 8001d18:	2301      	movs	r3, #1
 8001d1a:	e032      	b.n	8001d82 <HAL_RCC_ClockConfig+0x1ae>
    }
  }

  /*-------------------------- PCLK1 Configuration ---------------------------*/
  if(((RCC_ClkInitStruct->ClockType) & RCC_CLOCKTYPE_PCLK1) == RCC_CLOCKTYPE_PCLK1)
 8001d1c:	687b      	ldr	r3, [r7, #4]
 8001d1e:	681b      	ldr	r3, [r3, #0]
 8001d20:	f003 0304 	and.w	r3, r3, #4
 8001d24:	2b00      	cmp	r3, #0
 8001d26:	d008      	beq.n	8001d3a <HAL_RCC_ClockConfig+0x166>
  {
    assert_param(IS_RCC_PCLK(RCC_ClkInitStruct->APB1CLKDivider));
    MODIFY_REG(RCC->CFGR, RCC_CFGR_PPRE1, RCC_ClkInitStruct->APB1CLKDivider);
 8001d28:	4b19      	ldr	r3, [pc, #100]	@ (8001d90 <HAL_RCC_ClockConfig+0x1bc>)
 8001d2a:	689b      	ldr	r3, [r3, #8]
 8001d2c:	f423 52e0 	bic.w	r2, r3, #7168	@ 0x1c00
 8001d30:	687b      	ldr	r3, [r7, #4]
 8001d32:	68db      	ldr	r3, [r3, #12]
 8001d34:	4916      	ldr	r1, [pc, #88]	@ (8001d90 <HAL_RCC_ClockConfig+0x1bc>)
 8001d36:	4313      	orrs	r3, r2
 8001d38:	608b      	str	r3, [r1, #8]
  }

  /*-------------------------- PCLK2 Configuration ---------------------------*/
  if(((RCC_ClkInitStruct->ClockType) & RCC_CLOCKTYPE_PCLK2) == RCC_CLOCKTYPE_PCLK2)
 8001d3a:	687b      	ldr	r3, [r7, #4]
 8001d3c:	681b      	ldr	r3, [r3, #0]
 8001d3e:	f003 0308 	and.w	r3, r3, #8
 8001d42:	2b00      	cmp	r3, #0
 8001d44:	d009      	beq.n	8001d5a <HAL_RCC_ClockConfig+0x186>
  {
    assert_param(IS_RCC_PCLK(RCC_ClkInitStruct->APB2CLKDivider));
    MODIFY_REG(RCC->CFGR, RCC_CFGR_PPRE2, ((RCC_ClkInitStruct->APB2CLKDivider) << 3U));
 8001d46:	4b12      	ldr	r3, [pc, #72]	@ (8001d90 <HAL_RCC_ClockConfig+0x1bc>)
 8001d48:	689b      	ldr	r3, [r3, #8]
 8001d4a:	f423 4260 	bic.w	r2, r3, #57344	@ 0xe000
 8001d4e:	687b      	ldr	r3, [r7, #4]
 8001d50:	691b      	ldr	r3, [r3, #16]
 8001d52:	00db      	lsls	r3, r3, #3
 8001d54:	490e      	ldr	r1, [pc, #56]	@ (8001d90 <HAL_RCC_ClockConfig+0x1bc>)
 8001d56:	4313      	orrs	r3, r2
 8001d58:	608b      	str	r3, [r1, #8]
  }

  /* Update the SystemCoreClock global variable */
  SystemCoreClock = HAL_RCC_GetSysClockFreq() >> AHBPrescTable[(RCC->CFGR & RCC_CFGR_HPRE)>> RCC_CFGR_HPRE_Pos];
 8001d5a:	f000 f821 	bl	8001da0 <HAL_RCC_GetSysClockFreq>
 8001d5e:	4602      	mov	r2, r0
 8001d60:	4b0b      	ldr	r3, [pc, #44]	@ (8001d90 <HAL_RCC_ClockConfig+0x1bc>)
 8001d62:	689b      	ldr	r3, [r3, #8]
 8001d64:	091b      	lsrs	r3, r3, #4
 8001d66:	f003 030f 	and.w	r3, r3, #15
 8001d6a:	490a      	ldr	r1, [pc, #40]	@ (8001d94 <HAL_RCC_ClockConfig+0x1c0>)
 8001d6c:	5ccb      	ldrb	r3, [r1, r3]
 8001d6e:	fa22 f303 	lsr.w	r3, r2, r3
 8001d72:	4a09      	ldr	r2, [pc, #36]	@ (8001d98 <HAL_RCC_ClockConfig+0x1c4>)
 8001d74:	6013      	str	r3, [r2, #0]

  /* Configure the source of time base considering new system clocks settings */
  HAL_InitTick (uwTickPrio);
 8001d76:	4b09      	ldr	r3, [pc, #36]	@ (8001d9c <HAL_RCC_ClockConfig+0x1c8>)
 8001d78:	681b      	ldr	r3, [r3, #0]
 8001d7a:	4618      	mov	r0, r3
 8001d7c:	f7fe ffb0 	bl	8000ce0 <HAL_InitTick>

  return HAL_OK;
 8001d80:	2300      	movs	r3, #0
}
 8001d82:	4618      	mov	r0, r3
 8001d84:	3710      	adds	r7, #16
 8001d86:	46bd      	mov	sp, r7
 8001d88:	bd80      	pop	{r7, pc}
 8001d8a:	bf00      	nop
 8001d8c:	40023c00 	.word	0x40023c00
 8001d90:	40023800 	.word	0x40023800
 8001d94:	08003de8 	.word	0x08003de8
 8001d98:	20000000 	.word	0x20000000
 8001d9c:	20000004 	.word	0x20000004

08001da0 <HAL_RCC_GetSysClockFreq>:
  *
  *
  * @retval SYSCLK frequency
  */
__weak uint32_t HAL_RCC_GetSysClockFreq(void)
{
 8001da0:	e92d 4fb0 	stmdb	sp!, {r4, r5, r7, r8, r9, sl, fp, lr}
 8001da4:	b090      	sub	sp, #64	@ 0x40
 8001da6:	af00      	add	r7, sp, #0
  uint32_t pllm = 0U, pllvco = 0U, pllp = 0U;
 8001da8:	2300      	movs	r3, #0
 8001daa:	637b      	str	r3, [r7, #52]	@ 0x34
 8001dac:	2300      	movs	r3, #0
 8001dae:	63fb      	str	r3, [r7, #60]	@ 0x3c
 8001db0:	2300      	movs	r3, #0
 8001db2:	633b      	str	r3, [r7, #48]	@ 0x30
  uint32_t sysclockfreq = 0U;
 8001db4:	2300      	movs	r3, #0
 8001db6:	63bb      	str	r3, [r7, #56]	@ 0x38

  /* Get SYSCLK source -------------------------------------------------------*/
  switch (RCC->CFGR & RCC_CFGR_SWS)
 8001db8:	4b59      	ldr	r3, [pc, #356]	@ (8001f20 <HAL_RCC_GetSysClockFreq+0x180>)
 8001dba:	689b      	ldr	r3, [r3, #8]
 8001dbc:	f003 030c 	and.w	r3, r3, #12
 8001dc0:	2b08      	cmp	r3, #8
 8001dc2:	d00d      	beq.n	8001de0 <HAL_RCC_GetSysClockFreq+0x40>
 8001dc4:	2b08      	cmp	r3, #8
 8001dc6:	f200 80a1 	bhi.w	8001f0c <HAL_RCC_GetSysClockFreq+0x16c>
 8001dca:	2b00      	cmp	r3, #0
 8001dcc:	d002      	beq.n	8001dd4 <HAL_RCC_GetSysClockFreq+0x34>
 8001dce:	2b04      	cmp	r3, #4
 8001dd0:	d003      	beq.n	8001dda <HAL_RCC_GetSysClockFreq+0x3a>
 8001dd2:	e09b      	b.n	8001f0c <HAL_RCC_GetSysClockFreq+0x16c>
  {
    case RCC_CFGR_SWS_HSI:  /* HSI used as system clock source */
    {
      sysclockfreq = HSI_VALUE;
 8001dd4:	4b53      	ldr	r3, [pc, #332]	@ (8001f24 <HAL_RCC_GetSysClockFreq+0x184>)
 8001dd6:	63bb      	str	r3, [r7, #56]	@ 0x38
       break;
 8001dd8:	e09b      	b.n	8001f12 <HAL_RCC_GetSysClockFreq+0x172>
    }
    case RCC_CFGR_SWS_HSE:  /* HSE used as system clock  source */
    {
      sysclockfreq = HSE_VALUE;
 8001dda:	4b53      	ldr	r3, [pc, #332]	@ (8001f28 <HAL_RCC_GetSysClockFreq+0x188>)
 8001ddc:	63bb      	str	r3, [r7, #56]	@ 0x38
      break;
 8001dde:	e098      	b.n	8001f12 <HAL_RCC_GetSysClockFreq+0x172>
    }
    case RCC_CFGR_SWS_PLL:  /* PLL used as system clock  source */
    {
      /* PLL_VCO = (HSE_VALUE or HSI_VALUE / PLLM) * PLLN
      SYSCLK = PLL_VCO / PLLP */
      pllm = RCC->PLLCFGR & RCC_PLLCFGR_PLLM;
 8001de0:	4b4f      	ldr	r3, [pc, #316]	@ (8001f20 <HAL_RCC_GetSysClockFreq+0x180>)
 8001de2:	685b      	ldr	r3, [r3, #4]
 8001de4:	f003 033f 	and.w	r3, r3, #63	@ 0x3f
 8001de8:	637b      	str	r3, [r7, #52]	@ 0x34
      if(__HAL_RCC_GET_PLL_OSCSOURCE() != RCC_PLLSOURCE_HSI)
 8001dea:	4b4d      	ldr	r3, [pc, #308]	@ (8001f20 <HAL_RCC_GetSysClockFreq+0x180>)
 8001dec:	685b      	ldr	r3, [r3, #4]
 8001dee:	f403 0380 	and.w	r3, r3, #4194304	@ 0x400000
 8001df2:	2b00      	cmp	r3, #0
 8001df4:	d028      	beq.n	8001e48 <HAL_RCC_GetSysClockFreq+0xa8>
      {
        /* HSE used as PLL clock source */
        pllvco = (uint32_t) ((((uint64_t) HSE_VALUE * ((uint64_t) ((RCC->PLLCFGR & RCC_PLLCFGR_PLLN) >> RCC_PLLCFGR_PLLN_Pos)))) / (uint64_t)pllm);
 8001df6:	4b4a      	ldr	r3, [pc, #296]	@ (8001f20 <HAL_RCC_GetSysClockFreq+0x180>)
 8001df8:	685b      	ldr	r3, [r3, #4]
 8001dfa:	099b      	lsrs	r3, r3, #6
 8001dfc:	2200      	movs	r2, #0
 8001dfe:	623b      	str	r3, [r7, #32]
 8001e00:	627a      	str	r2, [r7, #36]	@ 0x24
 8001e02:	6a3b      	ldr	r3, [r7, #32]
 8001e04:	f3c3 0008 	ubfx	r0, r3, #0, #9
 8001e08:	2100      	movs	r1, #0
 8001e0a:	4b47      	ldr	r3, [pc, #284]	@ (8001f28 <HAL_RCC_GetSysClockFreq+0x188>)
 8001e0c:	fb03 f201 	mul.w	r2, r3, r1
 8001e10:	2300      	movs	r3, #0
 8001e12:	fb00 f303 	mul.w	r3, r0, r3
 8001e16:	4413      	add	r3, r2
 8001e18:	4a43      	ldr	r2, [pc, #268]	@ (8001f28 <HAL_RCC_GetSysClockFreq+0x188>)
 8001e1a:	fba0 1202 	umull	r1, r2, r0, r2
 8001e1e:	62fa      	str	r2, [r7, #44]	@ 0x2c
 8001e20:	460a      	mov	r2, r1
 8001e22:	62ba      	str	r2, [r7, #40]	@ 0x28
 8001e24:	6afa      	ldr	r2, [r7, #44]	@ 0x2c
 8001e26:	4413      	add	r3, r2
 8001e28:	62fb      	str	r3, [r7, #44]	@ 0x2c
 8001e2a:	6b7b      	ldr	r3, [r7, #52]	@ 0x34
 8001e2c:	2200      	movs	r2, #0
 8001e2e:	61bb      	str	r3, [r7, #24]
 8001e30:	61fa      	str	r2, [r7, #28]
 8001e32:	e9d7 2306 	ldrd	r2, r3, [r7, #24]
 8001e36:	e9d7 010a 	ldrd	r0, r1, [r7, #40]	@ 0x28
 8001e3a:	f7fe fa21 	bl	8000280 <__aeabi_uldivmod>
 8001e3e:	4602      	mov	r2, r0
 8001e40:	460b      	mov	r3, r1
 8001e42:	4613      	mov	r3, r2
 8001e44:	63fb      	str	r3, [r7, #60]	@ 0x3c
 8001e46:	e053      	b.n	8001ef0 <HAL_RCC_GetSysClockFreq+0x150>
      }
      else
      {
        /* HSI used as PLL clock source */
        pllvco = (uint32_t) ((((uint64_t) HSI_VALUE * ((uint64_t) ((RCC->PLLCFGR & RCC_PLLCFGR_PLLN) >> RCC_PLLCFGR_PLLN_Pos)))) / (uint64_t)pllm);
 8001e48:	4b35      	ldr	r3, [pc, #212]	@ (8001f20 <HAL_RCC_GetSysClockFreq+0x180>)
 8001e4a:	685b      	ldr	r3, [r3, #4]
 8001e4c:	099b      	lsrs	r3, r3, #6
 8001e4e:	2200      	movs	r2, #0
 8001e50:	613b      	str	r3, [r7, #16]
 8001e52:	617a      	str	r2, [r7, #20]
 8001e54:	693b      	ldr	r3, [r7, #16]
 8001e56:	f3c3 0a08 	ubfx	sl, r3, #0, #9
 8001e5a:	f04f 0b00 	mov.w	fp, #0
 8001e5e:	4652      	mov	r2, sl
 8001e60:	465b      	mov	r3, fp
 8001e62:	f04f 0000 	mov.w	r0, #0
 8001e66:	f04f 0100 	mov.w	r1, #0
 8001e6a:	0159      	lsls	r1, r3, #5
 8001e6c:	ea41 61d2 	orr.w	r1, r1, r2, lsr #27
 8001e70:	0150      	lsls	r0, r2, #5
 8001e72:	4602      	mov	r2, r0
 8001e74:	460b      	mov	r3, r1
 8001e76:	ebb2 080a 	subs.w	r8, r2, sl
 8001e7a:	eb63 090b 	sbc.w	r9, r3, fp
 8001e7e:	f04f 0200 	mov.w	r2, #0
 8001e82:	f04f 0300 	mov.w	r3, #0
 8001e86:	ea4f 1389 	mov.w	r3, r9, lsl #6
 8001e8a:	ea43 6398 	orr.w	r3, r3, r8, lsr #26
 8001e8e:	ea4f 1288 	mov.w	r2, r8, lsl #6
 8001e92:	ebb2 0408 	subs.w	r4, r2, r8
 8001e96:	eb63 0509 	sbc.w	r5, r3, r9
 8001e9a:	f04f 0200 	mov.w	r2, #0
 8001e9e:	f04f 0300 	mov.w	r3, #0
 8001ea2:	00eb      	lsls	r3, r5, #3
 8001ea4:	ea43 7354 	orr.w	r3, r3, r4, lsr #29
 8001ea8:	00e2      	lsls	r2, r4, #3
 8001eaa:	4614      	mov	r4, r2
 8001eac:	461d      	mov	r5, r3
 8001eae:	eb14 030a 	adds.w	r3, r4, sl
 8001eb2:	603b      	str	r3, [r7, #0]
 8001eb4:	eb45 030b 	adc.w	r3, r5, fp
 8001eb8:	607b      	str	r3, [r7, #4]
 8001eba:	f04f 0200 	mov.w	r2, #0
 8001ebe:	f04f 0300 	mov.w	r3, #0
 8001ec2:	e9d7 4500 	ldrd	r4, r5, [r7]
 8001ec6:	4629      	mov	r1, r5
 8001ec8:	028b      	lsls	r3, r1, #10
 8001eca:	4621      	mov	r1, r4
 8001ecc:	ea43 5391 	orr.w	r3, r3, r1, lsr #22
 8001ed0:	4621      	mov	r1, r4
 8001ed2:	028a      	lsls	r2, r1, #10
 8001ed4:	4610      	mov	r0, r2
 8001ed6:	4619      	mov	r1, r3
 8001ed8:	6b7b      	ldr	r3, [r7, #52]	@ 0x34
 8001eda:	2200      	movs	r2, #0
 8001edc:	60bb      	str	r3, [r7, #8]
 8001ede:	60fa      	str	r2, [r7, #12]
 8001ee0:	e9d7 2302 	ldrd	r2, r3, [r7, #8]
 8001ee4:	f7fe f9cc 	bl	8000280 <__aeabi_uldivmod>
 8001ee8:	4602      	mov	r2, r0
 8001eea:	460b      	mov	r3, r1
 8001eec:	4613      	mov	r3, r2
 8001eee:	63fb      	str	r3, [r7, #60]	@ 0x3c
      }
      pllp = ((((RCC->PLLCFGR & RCC_PLLCFGR_PLLP) >> RCC_PLLCFGR_PLLP_Pos) + 1U) *2U);
 8001ef0:	4b0b      	ldr	r3, [pc, #44]	@ (8001f20 <HAL_RCC_GetSysClockFreq+0x180>)
 8001ef2:	685b      	ldr	r3, [r3, #4]
 8001ef4:	0c1b      	lsrs	r3, r3, #16
 8001ef6:	f003 0303 	and.w	r3, r3, #3
 8001efa:	3301      	adds	r3, #1
 8001efc:	005b      	lsls	r3, r3, #1
 8001efe:	633b      	str	r3, [r7, #48]	@ 0x30

      sysclockfreq = pllvco/pllp;
 8001f00:	6bfa      	ldr	r2, [r7, #60]	@ 0x3c
 8001f02:	6b3b      	ldr	r3, [r7, #48]	@ 0x30
 8001f04:	fbb2 f3f3 	udiv	r3, r2, r3
 8001f08:	63bb      	str	r3, [r7, #56]	@ 0x38
      break;
 8001f0a:	e002      	b.n	8001f12 <HAL_RCC_GetSysClockFreq+0x172>
    }
    default:
    {
      sysclockfreq = HSI_VALUE;
 8001f0c:	4b05      	ldr	r3, [pc, #20]	@ (8001f24 <HAL_RCC_GetSysClockFreq+0x184>)
 8001f0e:	63bb      	str	r3, [r7, #56]	@ 0x38
      break;
 8001f10:	bf00      	nop
    }
  }
  return sysclockfreq;
 8001f12:	6bbb      	ldr	r3, [r7, #56]	@ 0x38
}
 8001f14:	4618      	mov	r0, r3
 8001f16:	3740      	adds	r7, #64	@ 0x40
 8001f18:	46bd      	mov	sp, r7
 8001f1a:	e8bd 8fb0 	ldmia.w	sp!, {r4, r5, r7, r8, r9, sl, fp, pc}
 8001f1e:	bf00      	nop
 8001f20:	40023800 	.word	0x40023800
 8001f24:	00f42400 	.word	0x00f42400
 8001f28:	00b71b00 	.word	0x00b71b00

08001f2c <HAL_RCC_GetHCLKFreq>:
  * @note   The SystemCoreClock CMSIS variable is used to store System Clock Frequency
  *         and updated within this function
  * @retval HCLK frequency
  */
uint32_t HAL_RCC_GetHCLKFreq(void)
{
 8001f2c:	b480      	push	{r7}
 8001f2e:	af00      	add	r7, sp, #0
  return SystemCoreClock;
 8001f30:	4b03      	ldr	r3, [pc, #12]	@ (8001f40 <HAL_RCC_GetHCLKFreq+0x14>)
 8001f32:	681b      	ldr	r3, [r3, #0]
}
 8001f34:	4618      	mov	r0, r3
 8001f36:	46bd      	mov	sp, r7
 8001f38:	f85d 7b04 	ldr.w	r7, [sp], #4
 8001f3c:	4770      	bx	lr
 8001f3e:	bf00      	nop
 8001f40:	20000000 	.word	0x20000000

08001f44 <HAL_RCC_GetPCLK1Freq>:
  * @note   Each time PCLK1 changes, this function must be called to update the
  *         right PCLK1 value. Otherwise, any configuration based on this function will be incorrect.
  * @retval PCLK1 frequency
  */
uint32_t HAL_RCC_GetPCLK1Freq(void)
{
 8001f44:	b580      	push	{r7, lr}
 8001f46:	af00      	add	r7, sp, #0
  /* Get HCLK source and Compute PCLK1 frequency ---------------------------*/
  return (HAL_RCC_GetHCLKFreq() >> APBPrescTable[(RCC->CFGR & RCC_CFGR_PPRE1)>> RCC_CFGR_PPRE1_Pos]);
 8001f48:	f7ff fff0 	bl	8001f2c <HAL_RCC_GetHCLKFreq>
 8001f4c:	4602      	mov	r2, r0
 8001f4e:	4b05      	ldr	r3, [pc, #20]	@ (8001f64 <HAL_RCC_GetPCLK1Freq+0x20>)
 8001f50:	689b      	ldr	r3, [r3, #8]
 8001f52:	0a9b      	lsrs	r3, r3, #10
 8001f54:	f003 0307 	and.w	r3, r3, #7
 8001f58:	4903      	ldr	r1, [pc, #12]	@ (8001f68 <HAL_RCC_GetPCLK1Freq+0x24>)
 8001f5a:	5ccb      	ldrb	r3, [r1, r3]
 8001f5c:	fa22 f303 	lsr.w	r3, r2, r3
}
 8001f60:	4618      	mov	r0, r3
 8001f62:	bd80      	pop	{r7, pc}
 8001f64:	40023800 	.word	0x40023800
 8001f68:	08003df8 	.word	0x08003df8

08001f6c <HAL_RCC_GetPCLK2Freq>:
  * @note   Each time PCLK2 changes, this function must be called to update the
  *         right PCLK2 value. Otherwise, any configuration based on this function will be incorrect.
  * @retval PCLK2 frequency
  */
uint32_t HAL_RCC_GetPCLK2Freq(void)
{
 8001f6c:	b580      	push	{r7, lr}
 8001f6e:	af00      	add	r7, sp, #0
  /* Get HCLK source and Compute PCLK2 frequency ---------------------------*/
  return (HAL_RCC_GetHCLKFreq()>> APBPrescTable[(RCC->CFGR & RCC_CFGR_PPRE2)>> RCC_CFGR_PPRE2_Pos]);
 8001f70:	f7ff ffdc 	bl	8001f2c <HAL_RCC_GetHCLKFreq>
 8001f74:	4602      	mov	r2, r0
 8001f76:	4b05      	ldr	r3, [pc, #20]	@ (8001f8c <HAL_RCC_GetPCLK2Freq+0x20>)
 8001f78:	689b      	ldr	r3, [r3, #8]
 8001f7a:	0b5b      	lsrs	r3, r3, #13
 8001f7c:	f003 0307 	and.w	r3, r3, #7
 8001f80:	4903      	ldr	r1, [pc, #12]	@ (8001f90 <HAL_RCC_GetPCLK2Freq+0x24>)
 8001f82:	5ccb      	ldrb	r3, [r1, r3]
 8001f84:	fa22 f303 	lsr.w	r3, r2, r3
}
 8001f88:	4618      	mov	r0, r3
 8001f8a:	bd80      	pop	{r7, pc}
 8001f8c:	40023800 	.word	0x40023800
 8001f90:	08003df8 	.word	0x08003df8

08001f94 <HAL_UART_Init>:
  * @param  huart  Pointer to a UART_HandleTypeDef structure that contains
  *                the configuration information for the specified UART module.
  * @retval HAL status
  */
HAL_StatusTypeDef HAL_UART_Init(UART_HandleTypeDef *huart)
{
 8001f94:	b580      	push	{r7, lr}
 8001f96:	b082      	sub	sp, #8
 8001f98:	af00      	add	r7, sp, #0
 8001f9a:	6078      	str	r0, [r7, #4]
  /* Check the UART handle allocation */
  if (huart == NULL)
 8001f9c:	687b      	ldr	r3, [r7, #4]
 8001f9e:	2b00      	cmp	r3, #0
 8001fa0:	d101      	bne.n	8001fa6 <HAL_UART_Init+0x12>
  {
    return HAL_ERROR;
 8001fa2:	2301      	movs	r3, #1
 8001fa4:	e042      	b.n	800202c <HAL_UART_Init+0x98>
    assert_param(IS_UART_INSTANCE(huart->Instance));
  }
  assert_param(IS_UART_WORD_LENGTH(huart->Init.WordLength));
  assert_param(IS_UART_OVERSAMPLING(huart->Init.OverSampling));

  if (huart->gState == HAL_UART_STATE_RESET)
 8001fa6:	687b      	ldr	r3, [r7, #4]
 8001fa8:	f893 3041 	ldrb.w	r3, [r3, #65]	@ 0x41
 8001fac:	b2db      	uxtb	r3, r3
 8001fae:	2b00      	cmp	r3, #0
 8001fb0:	d106      	bne.n	8001fc0 <HAL_UART_Init+0x2c>
  {
    /* Allocate lock resource and initialize it */
    huart->Lock = HAL_UNLOCKED;
 8001fb2:	687b      	ldr	r3, [r7, #4]
 8001fb4:	2200      	movs	r2, #0
 8001fb6:	f883 2040 	strb.w	r2, [r3, #64]	@ 0x40

    /* Init the low level hardware */
    huart->MspInitCallback(huart);
#else
    /* Init the low level hardware : GPIO, CLOCK */
    HAL_UART_MspInit(huart);
 8001fba:	6878      	ldr	r0, [r7, #4]
