
VernonBootloader.elf:     file format elf32-littlearm

Sections:
Idx Name          Size      VMA       LMA       File off  Algn
  0 .isr_vector   00000198  08000000  08000000  00001000  2**0
                  CONTENTS, ALLOC, LOAD, READONLY, DATA
  1 .text         000025e4  080001a0  080001a0  000011a0  2**4
                  CONTENTS, ALLOC, LOAD, READONLY, CODE
  2 .rodata       000003c8  08002784  08002784  00003784  2**0
                  CONTENTS, ALLOC, LOAD, READONLY, DATA
  3 .ARM.extab    00000000  08002b4c  08002b4c  00004068  2**0
                  CONTENTS
  4 .ARM          00000008  08002b4c  08002b4c  00003b4c  2**2
                  CONTENTS, ALLOC, LOAD, READONLY, DATA
  5 .preinit_array 00000000  08002b54  08002b54  00004068  2**0
                  CONTENTS, ALLOC, LOAD, DATA
  6 .init_array   00000004  08002b54  08002b54  00003b54  2**2
                  CONTENTS, ALLOC, LOAD, READONLY, DATA
  7 .fini_array   00000004  08002b58  08002b58  00003b58  2**2
                  CONTENTS, ALLOC, LOAD, READONLY, DATA
  8 .data         00000068  20000000  08002b5c  00004000  2**2
                  CONTENTS, ALLOC, LOAD, DATA
  9 .bss          000001e0  20000068  08002bc4  00004068  2**2
                  ALLOC
 10 ._user_heap_stack 00000600  20000248  08002bc4  00004248  2**0
                  ALLOC
 11 .ARM.attributes 00000030  00000000  00000000  00004068  2**0
                  CONTENTS, READONLY
 12 .comment      00000043  00000000  00000000  00004098  2**0
                  CONTENTS, READONLY
 13 .debug_frame  00000870  00000000  00000000  000040dc  2**2
                  CONTENTS, READONLY, DEBUGGING, OCTETS

Disassembly of section .text:

080001a0 <__do_global_dtors_aux>:
 80001a0:	b510      	push	{r4, lr}
 80001a2:	4c05      	ldr	r4, [pc, #20]	@ (80001b8 <__do_global_dtors_aux+0x18>)
 80001a4:	7823      	ldrb	r3, [r4, #0]
 80001a6:	b933      	cbnz	r3, 80001b6 <__do_global_dtors_aux+0x16>
 80001a8:	4b04      	ldr	r3, [pc, #16]	@ (80001bc <__do_global_dtors_aux+0x1c>)
 80001aa:	b113      	cbz	r3, 80001b2 <__do_global_dtors_aux+0x12>
 80001ac:	4804      	ldr	r0, [pc, #16]	@ (80001c0 <__do_global_dtors_aux+0x20>)
 80001ae:	f3af 8000 	nop.w
 80001b2:	2301      	movs	r3, #1
 80001b4:	7023      	strb	r3, [r4, #0]
 80001b6:	bd10      	pop	{r4, pc}
 80001b8:	20000068 	.word	0x20000068
 80001bc:	00000000 	.word	0x00000000
 80001c0:	0800276c 	.word	0x0800276c

080001c4 <frame_dummy>:
 80001c4:	b508      	push	{r3, lr}
 80001c6:	4b03      	ldr	r3, [pc, #12]	@ (80001d4 <frame_dummy+0x10>)
 80001c8:	b11b      	cbz	r3, 80001d2 <frame_dummy+0xe>
 80001ca:	4903      	ldr	r1, [pc, #12]	@ (80001d8 <frame_dummy+0x14>)
 80001cc:	4803      	ldr	r0, [pc, #12]	@ (80001dc <frame_dummy+0x18>)
 80001ce:	f3af 8000 	nop.w
 80001d2:	bd08      	pop	{r3, pc}
 80001d4:	00000000 	.word	0x00000000
 80001d8:	2000006c 	.word	0x2000006c
 80001dc:	0800276c 	.word	0x0800276c

080001e0 <memchr>:
 80001e0:	f001 01ff 	and.w	r1, r1, #255	@ 0xff
 80001e4:	2a10      	cmp	r2, #16
 80001e6:	db2b      	blt.n	8000240 <memchr+0x60>
 80001e8:	f010 0f07 	tst.w	r0, #7
 80001ec:	d008      	beq.n	8000200 <memchr+0x20>
 80001ee:	f810 3b01 	ldrb.w	r3, [r0], #1
 80001f2:	3a01      	subs	r2, #1
 80001f4:	428b      	cmp	r3, r1
 80001f6:	d02d      	beq.n	8000254 <memchr+0x74>
 80001f8:	f010 0f07 	tst.w	r0, #7
 80001fc:	b342      	cbz	r2, 8000250 <memchr+0x70>
 80001fe:	d1f6      	bne.n	80001ee <memchr+0xe>
 8000200:	b4f0      	push	{r4, r5, r6, r7}
 8000202:	ea41 2101 	orr.w	r1, r1, r1, lsl #8
 8000206:	ea41 4101 	orr.w	r1, r1, r1, lsl #16
 800020a:	f022 0407 	bic.w	r4, r2, #7
 800020e:	f07f 0700 	mvns.w	r7, #0
 8000212:	2300      	movs	r3, #0
 8000214:	e8f0 5602 	ldrd	r5, r6, [r0], #8
 8000218:	3c08      	subs	r4, #8
 800021a:	ea85 0501 	eor.w	r5, r5, r1
 800021e:	ea86 0601 	eor.w	r6, r6, r1
 8000222:	fa85 f547 	uadd8	r5, r5, r7
 8000226:	faa3 f587 	sel	r5, r3, r7
 800022a:	fa86 f647 	uadd8	r6, r6, r7
 800022e:	faa5 f687 	sel	r6, r5, r7
 8000232:	b98e      	cbnz	r6, 8000258 <memchr+0x78>
 8000234:	d1ee      	bne.n	8000214 <memchr+0x34>
 8000236:	bcf0      	pop	{r4, r5, r6, r7}
 8000238:	f001 01ff 	and.w	r1, r1, #255	@ 0xff
 800023c:	f002 0207 	and.w	r2, r2, #7
 8000240:	b132      	cbz	r2, 8000250 <memchr+0x70>
 8000242:	f810 3b01 	ldrb.w	r3, [r0], #1
 8000246:	3a01      	subs	r2, #1
 8000248:	ea83 0301 	eor.w	r3, r3, r1
 800024c:	b113      	cbz	r3, 8000254 <memchr+0x74>
 800024e:	d1f8      	bne.n	8000242 <memchr+0x62>
 8000250:	2000      	movs	r0, #0
 8000252:	4770      	bx	lr
 8000254:	3801      	subs	r0, #1
 8000256:	4770      	bx	lr
 8000258:	2d00      	cmp	r5, #0
 800025a:	bf06      	itte	eq
 800025c:	4635      	moveq	r5, r6
 800025e:	3803      	subeq	r0, #3
 8000260:	3807      	subne	r0, #7
 8000262:	f015 0f01 	tst.w	r5, #1
 8000266:	d107      	bne.n	8000278 <memchr+0x98>
 8000268:	3001      	adds	r0, #1
 800026a:	f415 7f80 	tst.w	r5, #256	@ 0x100
 800026e:	bf02      	ittt	eq
 8000270:	3001      	addeq	r0, #1
 8000272:	f415 3fc0 	tsteq.w	r5, #98304	@ 0x18000
 8000276:	3001      	addeq	r0, #1
 8000278:	bcf0      	pop	{r4, r5, r6, r7}
 800027a:	3801      	subs	r0, #1
 800027c:	4770      	bx	lr
 800027e:	bf00      	nop

08000280 <__aeabi_uldivmod>:
 8000280:	b953      	cbnz	r3, 8000298 <__aeabi_uldivmod+0x18>
 8000282:	b94a      	cbnz	r2, 8000298 <__aeabi_uldivmod+0x18>
 8000284:	2900      	cmp	r1, #0
 8000286:	bf08      	it	eq
 8000288:	2800      	cmpeq	r0, #0
 800028a:	bf1c      	itt	ne
 800028c:	f04f 31ff 	movne.w	r1, #4294967295
 8000290:	f04f 30ff 	movne.w	r0, #4294967295
 8000294:	f000 b96a 	b.w	800056c <__aeabi_idiv0>
 8000298:	f1ad 0c08 	sub.w	ip, sp, #8
 800029c:	e96d ce04 	strd	ip, lr, [sp, #-16]!
 80002a0:	f000 f806 	bl	80002b0 <__udivmoddi4>
 80002a4:	f8dd e004 	ldr.w	lr, [sp, #4]
 80002a8:	e9dd 2302 	ldrd	r2, r3, [sp, #8]
 80002ac:	b004      	add	sp, #16
 80002ae:	4770      	bx	lr

080002b0 <__udivmoddi4>:
 80002b0:	e92d 47f0 	stmdb	sp!, {r4, r5, r6, r7, r8, r9, sl, lr}
 80002b4:	9d08      	ldr	r5, [sp, #32]
 80002b6:	460c      	mov	r4, r1
 80002b8:	2b00      	cmp	r3, #0
 80002ba:	d14e      	bne.n	800035a <__udivmoddi4+0xaa>
 80002bc:	4694      	mov	ip, r2
 80002be:	458c      	cmp	ip, r1
 80002c0:	4686      	mov	lr, r0
 80002c2:	fab2 f282 	clz	r2, r2
 80002c6:	d962      	bls.n	800038e <__udivmoddi4+0xde>
 80002c8:	b14a      	cbz	r2, 80002de <__udivmoddi4+0x2e>
 80002ca:	f1c2 0320 	rsb	r3, r2, #32
 80002ce:	4091      	lsls	r1, r2
 80002d0:	fa20 f303 	lsr.w	r3, r0, r3
 80002d4:	fa0c fc02 	lsl.w	ip, ip, r2
 80002d8:	4319      	orrs	r1, r3
 80002da:	fa00 fe02 	lsl.w	lr, r0, r2
 80002de:	ea4f 471c 	mov.w	r7, ip, lsr #16
 80002e2:	fa1f f68c 	uxth.w	r6, ip
 80002e6:	fbb1 f4f7 	udiv	r4, r1, r7
 80002ea:	ea4f 431e 	mov.w	r3, lr, lsr #16
 80002ee:	fb07 1114 	mls	r1, r7, r4, r1
 80002f2:	ea43 4301 	orr.w	r3, r3, r1, lsl #16
 80002f6:	fb04 f106 	mul.w	r1, r4, r6
 80002fa:	4299      	cmp	r1, r3
 80002fc:	d90a      	bls.n	8000314 <__udivmoddi4+0x64>
 80002fe:	eb1c 0303 	adds.w	r3, ip, r3
 8000302:	f104 30ff 	add.w	r0, r4, #4294967295
 8000306:	f080 8112 	bcs.w	800052e <__udivmoddi4+0x27e>
 800030a:	4299      	cmp	r1, r3
 800030c:	f240 810f 	bls.w	800052e <__udivmoddi4+0x27e>
 8000310:	3c02      	subs	r4, #2
 8000312:	4463      	add	r3, ip
 8000314:	1a59      	subs	r1, r3, r1
 8000316:	fa1f f38e 	uxth.w	r3, lr
 800031a:	fbb1 f0f7 	udiv	r0, r1, r7
 800031e:	fb07 1110 	mls	r1, r7, r0, r1
 8000322:	ea43 4301 	orr.w	r3, r3, r1, lsl #16
 8000326:	fb00 f606 	mul.w	r6, r0, r6
 800032a:	429e      	cmp	r6, r3
 800032c:	d90a      	bls.n	8000344 <__udivmoddi4+0x94>
 800032e:	eb1c 0303 	adds.w	r3, ip, r3
 8000332:	f100 31ff 	add.w	r1, r0, #4294967295
 8000336:	f080 80fc 	bcs.w	8000532 <__udivmoddi4+0x282>
 800033a:	429e      	cmp	r6, r3
 800033c:	f240 80f9 	bls.w	8000532 <__udivmoddi4+0x282>
 8000340:	4463      	add	r3, ip
 8000342:	3802      	subs	r0, #2
 8000344:	1b9b      	subs	r3, r3, r6
 8000346:	ea40 4004 	orr.w	r0, r0, r4, lsl #16
 800034a:	2100      	movs	r1, #0
 800034c:	b11d      	cbz	r5, 8000356 <__udivmoddi4+0xa6>
 800034e:	40d3      	lsrs	r3, r2
 8000350:	2200      	movs	r2, #0
 8000352:	e9c5 3200 	strd	r3, r2, [r5]
 8000356:	e8bd 87f0 	ldmia.w	sp!, {r4, r5, r6, r7, r8, r9, sl, pc}
 800035a:	428b      	cmp	r3, r1
 800035c:	d905      	bls.n	800036a <__udivmoddi4+0xba>
 800035e:	b10d      	cbz	r5, 8000364 <__udivmoddi4+0xb4>
 8000360:	e9c5 0100 	strd	r0, r1, [r5]
 8000364:	2100      	movs	r1, #0
 8000366:	4608      	mov	r0, r1
 8000368:	e7f5      	b.n	8000356 <__udivmoddi4+0xa6>
 800036a:	fab3 f183 	clz	r1, r3
 800036e:	2900      	cmp	r1, #0
 8000370:	d146      	bne.n	8000400 <__udivmoddi4+0x150>
 8000372:	42a3      	cmp	r3, r4
 8000374:	d302      	bcc.n	800037c <__udivmoddi4+0xcc>
 8000376:	4290      	cmp	r0, r2
 8000378:	f0c0 80f0 	bcc.w	800055c <__udivmoddi4+0x2ac>
 800037c:	1a86      	subs	r6, r0, r2
 800037e:	eb64 0303 	sbc.w	r3, r4, r3
 8000382:	2001      	movs	r0, #1
 8000384:	2d00      	cmp	r5, #0
 8000386:	d0e6      	beq.n	8000356 <__udivmoddi4+0xa6>
 8000388:	e9c5 6300 	strd	r6, r3, [r5]
 800038c:	e7e3      	b.n	8000356 <__udivmoddi4+0xa6>
 800038e:	2a00      	cmp	r2, #0
 8000390:	f040 8090 	bne.w	80004b4 <__udivmoddi4+0x204>
 8000394:	eba1 040c 	sub.w	r4, r1, ip
 8000398:	ea4f 481c 	mov.w	r8, ip, lsr #16
 800039c:	fa1f f78c 	uxth.w	r7, ip
 80003a0:	2101      	movs	r1, #1
 80003a2:	fbb4 f6f8 	udiv	r6, r4, r8
 80003a6:	ea4f 431e 	mov.w	r3, lr, lsr #16
 80003aa:	fb08 4416 	mls	r4, r8, r6, r4
 80003ae:	ea43 4304 	orr.w	r3, r3, r4, lsl #16
 80003b2:	fb07 f006 	mul.w	r0, r7, r6
 80003b6:	4298      	cmp	r0, r3
 80003b8:	d908      	bls.n	80003cc <__udivmoddi4+0x11c>
 80003ba:	eb1c 0303 	adds.w	r3, ip, r3
 80003be:	f106 34ff 	add.w	r4, r6, #4294967295
 80003c2:	d202      	bcs.n	80003ca <__udivmoddi4+0x11a>
 80003c4:	4298      	cmp	r0, r3
 80003c6:	f200 80cd 	bhi.w	8000564 <__udivmoddi4+0x2b4>
 80003ca:	4626      	mov	r6, r4
 80003cc:	1a1c      	subs	r4, r3, r0
 80003ce:	fa1f f38e 	uxth.w	r3, lr
 80003d2:	fbb4 f0f8 	udiv	r0, r4, r8
 80003d6:	fb08 4410 	mls	r4, r8, r0, r4
 80003da:	ea43 4304 	orr.w	r3, r3, r4, lsl #16
 80003de:	fb00 f707 	mul.w	r7, r0, r7
 80003e2:	429f      	cmp	r7, r3
 80003e4:	d908      	bls.n	80003f8 <__udivmoddi4+0x148>
 80003e6:	eb1c 0303 	adds.w	r3, ip, r3
 80003ea:	f100 34ff 	add.w	r4, r0, #4294967295
 80003ee:	d202      	bcs.n	80003f6 <__udivmoddi4+0x146>
 80003f0:	429f      	cmp	r7, r3
 80003f2:	f200 80b0 	bhi.w	8000556 <__udivmoddi4+0x2a6>
 80003f6:	4620      	mov	r0, r4
 80003f8:	1bdb      	subs	r3, r3, r7
 80003fa:	ea40 4006 	orr.w	r0, r0, r6, lsl #16
 80003fe:	e7a5      	b.n	800034c <__udivmoddi4+0x9c>
 8000400:	f1c1 0620 	rsb	r6, r1, #32
 8000404:	408b      	lsls	r3, r1
 8000406:	fa22 f706 	lsr.w	r7, r2, r6
 800040a:	431f      	orrs	r7, r3
 800040c:	fa20 fc06 	lsr.w	ip, r0, r6
 8000410:	fa04 f301 	lsl.w	r3, r4, r1
 8000414:	ea43 030c 	orr.w	r3, r3, ip
 8000418:	40f4      	lsrs	r4, r6
 800041a:	fa00 f801 	lsl.w	r8, r0, r1
 800041e:	0c38      	lsrs	r0, r7, #16
 8000420:	ea4f 4913 	mov.w	r9, r3, lsr #16
 8000424:	fbb4 fef0 	udiv	lr, r4, r0
 8000428:	fa1f fc87 	uxth.w	ip, r7
 800042c:	fb00 441e 	mls	r4, r0, lr, r4
 8000430:	ea49 4404 	orr.w	r4, r9, r4, lsl #16
 8000434:	fb0e f90c 	mul.w	r9, lr, ip
 8000438:	45a1      	cmp	r9, r4
 800043a:	fa02 f201 	lsl.w	r2, r2, r1
 800043e:	d90a      	bls.n	8000456 <__udivmoddi4+0x1a6>
 8000440:	193c      	adds	r4, r7, r4
 8000442:	f10e 3aff 	add.w	sl, lr, #4294967295
 8000446:	f080 8084 	bcs.w	8000552 <__udivmoddi4+0x2a2>
 800044a:	45a1      	cmp	r9, r4
 800044c:	f240 8081 	bls.w	8000552 <__udivmoddi4+0x2a2>
 8000450:	f1ae 0e02 	sub.w	lr, lr, #2
 8000454:	443c      	add	r4, r7
 8000456:	eba4 0409 	sub.w	r4, r4, r9
 800045a:	fa1f f983 	uxth.w	r9, r3
 800045e:	fbb4 f3f0 	udiv	r3, r4, r0
 8000462:	fb00 4413 	mls	r4, r0, r3, r4
 8000466:	ea49 4404 	orr.w	r4, r9, r4, lsl #16
 800046a:	fb03 fc0c 	mul.w	ip, r3, ip
 800046e:	45a4      	cmp	ip, r4
 8000470:	d907      	bls.n	8000482 <__udivmoddi4+0x1d2>
 8000472:	193c      	adds	r4, r7, r4
 8000474:	f103 30ff 	add.w	r0, r3, #4294967295
 8000478:	d267      	bcs.n	800054a <__udivmoddi4+0x29a>
 800047a:	45a4      	cmp	ip, r4
 800047c:	d965      	bls.n	800054a <__udivmoddi4+0x29a>
 800047e:	3b02      	subs	r3, #2
 8000480:	443c      	add	r4, r7
 8000482:	ea43 400e 	orr.w	r0, r3, lr, lsl #16
 8000486:	fba0 9302 	umull	r9, r3, r0, r2
 800048a:	eba4 040c 	sub.w	r4, r4, ip
 800048e:	429c      	cmp	r4, r3
 8000490:	46ce      	mov	lr, r9
 8000492:	469c      	mov	ip, r3
 8000494:	d351      	bcc.n	800053a <__udivmoddi4+0x28a>
 8000496:	d04e      	beq.n	8000536 <__udivmoddi4+0x286>
 8000498:	b155      	cbz	r5, 80004b0 <__udivmoddi4+0x200>
 800049a:	ebb8 030e 	subs.w	r3, r8, lr
 800049e:	eb64 040c 	sbc.w	r4, r4, ip
 80004a2:	fa04 f606 	lsl.w	r6, r4, r6
 80004a6:	40cb      	lsrs	r3, r1
 80004a8:	431e      	orrs	r6, r3
 80004aa:	40cc      	lsrs	r4, r1
 80004ac:	e9c5 6400 	strd	r6, r4, [r5]
 80004b0:	2100      	movs	r1, #0
 80004b2:	e750      	b.n	8000356 <__udivmoddi4+0xa6>
 80004b4:	f1c2 0320 	rsb	r3, r2, #32
 80004b8:	fa20 f103 	lsr.w	r1, r0, r3
 80004bc:	fa0c fc02 	lsl.w	ip, ip, r2
 80004c0:	fa24 f303 	lsr.w	r3, r4, r3
 80004c4:	4094      	lsls	r4, r2
 80004c6:	430c      	orrs	r4, r1
 80004c8:	ea4f 481c 	mov.w	r8, ip, lsr #16
 80004cc:	fa00 fe02 	lsl.w	lr, r0, r2
 80004d0:	fa1f f78c 	uxth.w	r7, ip
 80004d4:	fbb3 f0f8 	udiv	r0, r3, r8
 80004d8:	fb08 3110 	mls	r1, r8, r0, r3
 80004dc:	0c23      	lsrs	r3, r4, #16
 80004de:	ea43 4301 	orr.w	r3, r3, r1, lsl #16
 80004e2:	fb00 f107 	mul.w	r1, r0, r7
 80004e6:	4299      	cmp	r1, r3
 80004e8:	d908      	bls.n	80004fc <__udivmoddi4+0x24c>
 80004ea:	eb1c 0303 	adds.w	r3, ip, r3
 80004ee:	f100 36ff 	add.w	r6, r0, #4294967295
 80004f2:	d22c      	bcs.n	800054e <__udivmoddi4+0x29e>
 80004f4:	4299      	cmp	r1, r3
 80004f6:	d92a      	bls.n	800054e <__udivmoddi4+0x29e>
 80004f8:	3802      	subs	r0, #2
 80004fa:	4463      	add	r3, ip
 80004fc:	1a5b      	subs	r3, r3, r1
 80004fe:	b2a4      	uxth	r4, r4
 8000500:	fbb3 f1f8 	udiv	r1, r3, r8
 8000504:	fb08 3311 	mls	r3, r8, r1, r3
 8000508:	ea44 4403 	orr.w	r4, r4, r3, lsl #16
 800050c:	fb01 f307 	mul.w	r3, r1, r7
 8000510:	42a3      	cmp	r3, r4
 8000512:	d908      	bls.n	8000526 <__udivmoddi4+0x276>
 8000514:	eb1c 0404 	adds.w	r4, ip, r4
 8000518:	f101 36ff 	add.w	r6, r1, #4294967295
 800051c:	d213      	bcs.n	8000546 <__udivmoddi4+0x296>
 800051e:	42a3      	cmp	r3, r4
 8000520:	d911      	bls.n	8000546 <__udivmoddi4+0x296>
 8000522:	3902      	subs	r1, #2
 8000524:	4464      	add	r4, ip
 8000526:	1ae4      	subs	r4, r4, r3
 8000528:	ea41 4100 	orr.w	r1, r1, r0, lsl #16
 800052c:	e739      	b.n	80003a2 <__udivmoddi4+0xf2>
 800052e:	4604      	mov	r4, r0
 8000530:	e6f0      	b.n	8000314 <__udivmoddi4+0x64>
 8000532:	4608      	mov	r0, r1
 8000534:	e706      	b.n	8000344 <__udivmoddi4+0x94>
 8000536:	45c8      	cmp	r8, r9
 8000538:	d2ae      	bcs.n	8000498 <__udivmoddi4+0x1e8>
 800053a:	ebb9 0e02 	subs.w	lr, r9, r2
 800053e:	eb63 0c07 	sbc.w	ip, r3, r7
 8000542:	3801      	subs	r0, #1
 8000544:	e7a8      	b.n	8000498 <__udivmoddi4+0x1e8>
 8000546:	4631      	mov	r1, r6
 8000548:	e7ed      	b.n	8000526 <__udivmoddi4+0x276>
 800054a:	4603      	mov	r3, r0
 800054c:	e799      	b.n	8000482 <__udivmoddi4+0x1d2>
 800054e:	4630      	mov	r0, r6
 8000550:	e7d4      	b.n	80004fc <__udivmoddi4+0x24c>
 8000552:	46d6      	mov	lr, sl
 8000554:	e77f      	b.n	8000456 <__udivmoddi4+0x1a6>
 8000556:	4463      	add	r3, ip
 8000558:	3802      	subs	r0, #2
 800055a:	e74d      	b.n	80003f8 <__udivmoddi4+0x148>
 800055c:	4606      	mov	r6, r0
 800055e:	4623      	mov	r3, r4
 8000560:	4608      	mov	r0, r1
 8000562:	e70f      	b.n	8000384 <__udivmoddi4+0xd4>
 8000564:	3e02      	subs	r6, #2
 8000566:	4463      	add	r3, ip
 8000568:	e730      	b.n	80003cc <__udivmoddi4+0x11c>
 800056a:	bf00      	nop

0800056c <__aeabi_idiv0>:
 800056c:	4770      	bx	lr
 800056e:	bf00      	nop

08000570 <MX_GPIO_Init>:
 8000570:	b530      	push	{r4, r5, lr}
 8000572:	b089      	sub	sp, #36	@ 0x24
 8000574:	2214      	movs	r2, #20
 8000576:	2100      	movs	r1, #0
 8000578:	a803      	add	r0, sp, #12
 800057a:	f001 fb73 	bl	8001c64 <memset>
 800057e:	2400      	movs	r4, #0
 8000580:	4b12      	ldr	r3, [pc, #72]	@ (80005cc <MX_GPIO_Init+0x5c>)
 8000582:	9401      	str	r4, [sp, #4]
 8000584:	6b1a      	ldr	r2, [r3, #48]	@ 0x30
 8000586:	4d12      	ldr	r5, [pc, #72]	@ (80005d0 <MX_GPIO_Init+0x60>)
 8000588:	f042 0280 	orr.w	r2, r2, #128	@ 0x80
 800058c:	631a      	str	r2, [r3, #48]	@ 0x30
 800058e:	6b1a      	ldr	r2, [r3, #48]	@ 0x30
 8000590:	f002 0280 	and.w	r2, r2, #128	@ 0x80
 8000594:	9201      	str	r2, [sp, #4]
 8000596:	9a01      	ldr	r2, [sp, #4]
 8000598:	9402      	str	r4, [sp, #8]
 800059a:	6b1a      	ldr	r2, [r3, #48]	@ 0x30
 800059c:	f042 0201 	orr.w	r2, r2, #1
 80005a0:	631a      	str	r2, [r3, #48]	@ 0x30
 80005a2:	6b1b      	ldr	r3, [r3, #48]	@ 0x30
 80005a4:	2201      	movs	r2, #1
 80005a6:	f003 0301 	and.w	r3, r3, #1
 80005aa:	4611      	mov	r1, r2
 80005ac:	9302      	str	r3, [sp, #8]
 80005ae:	4628      	mov	r0, r5
 80005b0:	9b02      	ldr	r3, [sp, #8]
 80005b2:	f000 fcf7 	bl	8000fa4 <HAL_GPIO_WritePin>
 80005b6:	2301      	movs	r3, #1
 80005b8:	a903      	add	r1, sp, #12
 80005ba:	4628      	mov	r0, r5
 80005bc:	e9cd 3303 	strd	r3, r3, [sp, #12]
 80005c0:	e9cd 4405 	strd	r4, r4, [sp, #20]
 80005c4:	f000 fc28 	bl	8000e18 <HAL_GPIO_Init>
 80005c8:	b009      	add	sp, #36	@ 0x24
 80005ca:	bd30      	pop	{r4, r5, pc}
 80005cc:	40023800 	.word	0x40023800
 80005d0:	40020000 	.word	0x40020000

080005d4 <__io_putchar>:
 80005d4:	b507      	push	{r0, r1, r2, lr}
 80005d6:	f04f 33ff 	mov.w	r3, #4294967295
 80005da:	9001      	str	r0, [sp, #4]
 80005dc:	2201      	movs	r2, #1
 80005de:	a901      	add	r1, sp, #4
 80005e0:	4803      	ldr	r0, [pc, #12]	@ (80005f0 <__io_putchar+0x1c>)
 80005e2:	f001 f868 	bl	80016b6 <HAL_UART_Transmit>
 80005e6:	9801      	ldr	r0, [sp, #4]
 80005e8:	b003      	add	sp, #12
 80005ea:	f85d fb04 	ldr.w	pc, [sp], #4
 80005ee:	bf00      	nop
 80005f0:	20000090 	.word	0x20000090

080005f4 <IAP_LoadAPP>:
 80005f4:	b508      	push	{r3, lr}
 80005f6:	6802      	ldr	r2, [r0, #0]
 80005f8:	4b06      	ldr	r3, [pc, #24]	@ (8000614 <IAP_LoadAPP+0x20>)
 80005fa:	4013      	ands	r3, r2
 80005fc:	f1b3 5f00 	cmp.w	r3, #536870912	@ 0x20000000
 8000600:	d106      	bne.n	8000610 <IAP_LoadAPP+0x1c>
 8000602:	6843      	ldr	r3, [r0, #4]
 8000604:	6802      	ldr	r2, [r0, #0]
 8000606:	f382 8808 	msr	MSP, r2
 800060a:	4798      	blx	r3
 800060c:	2000      	movs	r0, #0
 800060e:	bd08      	pop	{r3, pc}
 8000610:	20ff      	movs	r0, #255	@ 0xff
 8000612:	e7fc      	b.n	800060e <IAP_LoadAPP+0x1a>
 8000614:	2ffe0000 	.word	0x2ffe0000

08000618 <print_boot_message>:
 8000618:	b510      	push	{r4, lr}
 800061a:	4c18      	ldr	r4, [pc, #96]	@ (800067c <print_boot_message+0x64>)
 800061c:	4818      	ldr	r0, [pc, #96]	@ (8000680 <print_boot_message+0x68>)
 800061e:	f001 fa41 	bl	8001aa4 <puts>
 8000622:	4620      	mov	r0, r4
 8000624:	f001 fa3e 	bl	8001aa4 <puts>
 8000628:	4816      	ldr	r0, [pc, #88]	@ (8000684 <print_boot_message+0x6c>)
 800062a:	f001 fa3b 	bl	8001aa4 <puts>
 800062e:	4816      	ldr	r0, [pc, #88]	@ (8000688 <print_boot_message+0x70>)
 8000630:	f001 fa38 	bl	8001aa4 <puts>
 8000634:	4815      	ldr	r0, [pc, #84]	@ (800068c <print_boot_message+0x74>)
 8000636:	f001 fa35 	bl	8001aa4 <puts>
 800063a:	f44f 4280 	mov.w	r2, #16384	@ 0x4000
 800063e:	f04f 6100 	mov.w	r1, #134217728	@ 0x8000000
 8000642:	4813      	ldr	r0, [pc, #76]	@ (8000690 <print_boot_message+0x78>)
 8000644:	f001 f9c6 	bl	80019d4 <iprintf>
 8000648:	4912      	ldr	r1, [pc, #72]	@ (8000694 <print_boot_message+0x7c>)
 800064a:	4813      	ldr	r0, [pc, #76]	@ (8000698 <print_boot_message+0x80>)
 800064c:	f44f 4280 	mov.w	r2, #16384	@ 0x4000
 8000650:	f001 f9c0 	bl	80019d4 <iprintf>
 8000654:	4911      	ldr	r1, [pc, #68]	@ (800069c <print_boot_message+0x84>)
 8000656:	4812      	ldr	r0, [pc, #72]	@ (80006a0 <print_boot_message+0x88>)
 8000658:	f44f 3260 	mov.w	r2, #229376	@ 0x38000
 800065c:	f001 f9ba 	bl	80019d4 <iprintf>
 8000660:	4910      	ldr	r1, [pc, #64]	@ (80006a4 <print_boot_message+0x8c>)
 8000662:	4811      	ldr	r0, [pc, #68]	@ (80006a8 <print_boot_message+0x90>)
 8000664:	f44f 2280 	mov.w	r2, #262144	@ 0x40000
 8000668:	f001 f9b4 	bl	80019d4 <iprintf>
 800066c:	480f      	ldr	r0, [pc, #60]	@ (80006ac <print_boot_message+0x94>)
 800066e:	f001 fa19 	bl	8001aa4 <puts>
 8000672:	4620      	mov	r0, r4
 8000674:	e8bd 4010 	ldmia.w	sp!, {r4, lr}
 8000678:	f001 ba14 	b.w	8001aa4 <puts>
 800067c:	08002902 	.word	0x08002902
 8000680:	08002784 	.word	0x08002784
 8000684:	080027b2 	.word	0x080027b2
 8000688:	080027de 	.word	0x080027de
 800068c:	0800280a 	.word	0x0800280a
 8000690:	08002832 	.word	0x08002832
 8000694:	08004000 	.word	0x08004000
 8000698:	08002858 	.word	0x08002858
 800069c:	08008000 	.word	0x08008000
 80006a0:	0800287e 	.word	0x0800287e
 80006a4:	08040000 	.word	0x08040000
 80006a8:	080028a4 	.word	0x080028a4
 80006ac:	080028ca 	.word	0x080028ca

080006b0 <SystemClock_Config>:
 80006b0:	b510      	push	{r4, lr}
 80006b2:	b094      	sub	sp, #80	@ 0x50
 80006b4:	2210      	movs	r2, #16
 80006b6:	2100      	movs	r1, #0
 80006b8:	a80a      	add	r0, sp, #40	@ 0x28
 80006ba:	f001 fad3 	bl	8001c64 <memset>
 80006be:	2214      	movs	r2, #20
 80006c0:	2100      	movs	r1, #0
 80006c2:	a803      	add	r0, sp, #12
 80006c4:	f001 face 	bl	8001c64 <memset>
 80006c8:	4b1f      	ldr	r3, [pc, #124]	@ (8000748 <SystemClock_Config+0x98>)
 80006ca:	2100      	movs	r1, #0
 80006cc:	9101      	str	r1, [sp, #4]
 80006ce:	6c1a      	ldr	r2, [r3, #64]	@ 0x40
 80006d0:	f042 5280 	orr.w	r2, r2, #268435456	@ 0x10000000
 80006d4:	641a      	str	r2, [r3, #64]	@ 0x40
 80006d6:	6c1b      	ldr	r3, [r3, #64]	@ 0x40
 80006d8:	f003 5380 	and.w	r3, r3, #268435456	@ 0x10000000
 80006dc:	9301      	str	r3, [sp, #4]
 80006de:	9b01      	ldr	r3, [sp, #4]
 80006e0:	4b1a      	ldr	r3, [pc, #104]	@ (800074c <SystemClock_Config+0x9c>)
 80006e2:	9102      	str	r1, [sp, #8]
 80006e4:	681a      	ldr	r2, [r3, #0]
 80006e6:	f442 4240 	orr.w	r2, r2, #49152	@ 0xc000
 80006ea:	601a      	str	r2, [r3, #0]
 80006ec:	681b      	ldr	r3, [r3, #0]
 80006ee:	f403 4340 	and.w	r3, r3, #49152	@ 0xc000
 80006f2:	9302      	str	r3, [sp, #8]
 80006f4:	9b02      	ldr	r3, [sp, #8]
 80006f6:	2201      	movs	r2, #1
 80006f8:	f44f 3380 	mov.w	r3, #65536	@ 0x10000
 80006fc:	2402      	movs	r4, #2
 80006fe:	e9cd 2308 	strd	r2, r3, [sp, #32]
 8000702:	f44f 0380 	mov.w	r3, #4194304	@ 0x400000
 8000706:	e9cd 430e 	strd	r4, r3, [sp, #56]	@ 0x38
 800070a:	2106      	movs	r1, #6
 800070c:	2364      	movs	r3, #100	@ 0x64
 800070e:	e9cd 1310 	strd	r1, r3, [sp, #64]	@ 0x40
 8000712:	a808      	add	r0, sp, #32
 8000714:	2304      	movs	r3, #4
 8000716:	9412      	str	r4, [sp, #72]	@ 0x48
 8000718:	9313      	str	r3, [sp, #76]	@ 0x4c
 800071a:	f000 fc49 	bl	8000fb0 <HAL_RCC_OscConfig>
 800071e:	b108      	cbz	r0, 8000724 <SystemClock_Config+0x74>
 8000720:	b672      	cpsid	i
 8000722:	e7fe      	b.n	8000722 <SystemClock_Config+0x72>
 8000724:	230f      	movs	r3, #15
 8000726:	e9cd 3403 	strd	r3, r4, [sp, #12]
 800072a:	f44f 5380 	mov.w	r3, #4096	@ 0x1000
 800072e:	e9cd 3006 	strd	r3, r0, [sp, #24]
 8000732:	9005      	str	r0, [sp, #20]
 8000734:	2103      	movs	r1, #3
 8000736:	a803      	add	r0, sp, #12
 8000738:	f000 fe16 	bl	8001368 <HAL_RCC_ClockConfig>
 800073c:	b108      	cbz	r0, 8000742 <SystemClock_Config+0x92>
 800073e:	b672      	cpsid	i
 8000740:	e7fe      	b.n	8000740 <SystemClock_Config+0x90>
 8000742:	b014      	add	sp, #80	@ 0x50
 8000744:	bd10      	pop	{r4, pc}
 8000746:	bf00      	nop
 8000748:	40023800 	.word	0x40023800
 800074c:	40007000 	.word	0x40007000

08000750 <main>:
 8000750:	b538      	push	{r3, r4, r5, lr}
 8000752:	f000 f99f 	bl	8000a94 <HAL_Init>
 8000756:	f7ff ffab 	bl	80006b0 <SystemClock_Config>
 800075a:	f7ff ff09 	bl	8000570 <MX_GPIO_Init>
 800075e:	f000 f8f9 	bl	8000954 <MX_USART1_UART_Init>
 8000762:	f7ff ff59 	bl	8000618 <print_boot_message>
 8000766:	2000      	movs	r0, #0
 8000768:	f000 fffa 	bl	8001760 <write_settings_boot_state>
 800076c:	b110      	cbz	r0, 8000774 <main+0x24>
 800076e:	4824      	ldr	r0, [pc, #144]	@ (8000800 <main+0xb0>)
 8000770:	f001 f998 	bl	8001aa4 <puts>
 8000774:	2001      	movs	r0, #1
 8000776:	f001 f831 	bl	80017dc <write_settings_boot_partition>
 800077a:	b110      	cbz	r0, 8000782 <main+0x32>
 800077c:	4820      	ldr	r0, [pc, #128]	@ (8000800 <main+0xb0>)
 800077e:	f001 f991 	bl	8001aa4 <puts>
 8000782:	f000 ffe7 	bl	8001754 <read_settings_boot_state>
 8000786:	4604      	mov	r4, r0
 8000788:	f001 f822 	bl	80017d0 <read_settings_boot_partition>
 800078c:	2c01      	cmp	r4, #1
 800078e:	4605      	mov	r5, r0
 8000790:	d021      	beq.n	80007d6 <main+0x86>
 8000792:	2c02      	cmp	r4, #2
 8000794:	d021      	beq.n	80007da <main+0x8a>
 8000796:	bb74      	cbnz	r4, 80007f6 <main+0xa6>
 8000798:	4601      	mov	r1, r0
 800079a:	481a      	ldr	r0, [pc, #104]	@ (8000804 <main+0xb4>)
 800079c:	f001 f91a 	bl	80019d4 <iprintf>
 80007a0:	2d01      	cmp	r5, #1
 80007a2:	d112      	bne.n	80007ca <main+0x7a>
 80007a4:	4818      	ldr	r0, [pc, #96]	@ (8000808 <main+0xb8>)
 80007a6:	f7ff ff25 	bl	80005f4 <IAP_LoadAPP>
 80007aa:	b110      	cbz	r0, 80007b2 <main+0x62>
 80007ac:	4817      	ldr	r0, [pc, #92]	@ (800080c <main+0xbc>)
 80007ae:	f001 f979 	bl	8001aa4 <puts>
 80007b2:	4d17      	ldr	r5, [pc, #92]	@ (8000810 <main+0xc0>)
 80007b4:	4c17      	ldr	r4, [pc, #92]	@ (8000814 <main+0xc4>)
 80007b6:	782b      	ldrb	r3, [r5, #0]
 80007b8:	f003 02ff 	and.w	r2, r3, #255	@ 0xff
 80007bc:	b103      	cbz	r3, 80007c0 <main+0x70>
 80007be:	2201      	movs	r2, #1
 80007c0:	2101      	movs	r1, #1
 80007c2:	4620      	mov	r0, r4
 80007c4:	f000 fbee 	bl	8000fa4 <HAL_GPIO_WritePin>
 80007c8:	e7f5      	b.n	80007b6 <main+0x66>
 80007ca:	2d02      	cmp	r5, #2
 80007cc:	d101      	bne.n	80007d2 <main+0x82>
 80007ce:	4812      	ldr	r0, [pc, #72]	@ (8000818 <main+0xc8>)
 80007d0:	e7e9      	b.n	80007a6 <main+0x56>
 80007d2:	4812      	ldr	r0, [pc, #72]	@ (800081c <main+0xcc>)
 80007d4:	e7eb      	b.n	80007ae <main+0x5e>
 80007d6:	4812      	ldr	r0, [pc, #72]	@ (8000820 <main+0xd0>)
 80007d8:	e7e9      	b.n	80007ae <main+0x5e>
 80007da:	4812      	ldr	r0, [pc, #72]	@ (8000824 <main+0xd4>)
 80007dc:	f001 f962 	bl	8001aa4 <puts>
 80007e0:	2000      	movs	r0, #0
 80007e2:	f000 ffbd 	bl	8001760 <write_settings_boot_state>
 80007e6:	b110      	cbz	r0, 80007ee <main+0x9e>
 80007e8:	4805      	ldr	r0, [pc, #20]	@ (8000800 <main+0xb0>)
 80007ea:	f001 f95b 	bl	8001aa4 <puts>
 80007ee:	b672      	cpsid	i
 80007f0:	f000 f9c0 	bl	8000b74 <HAL_NVIC_SystemReset>
 80007f4:	e7dd      	b.n	80007b2 <main+0x62>
 80007f6:	4621      	mov	r1, r4
 80007f8:	480b      	ldr	r0, [pc, #44]	@ (8000828 <main+0xd8>)
 80007fa:	f001 f8eb 	bl	80019d4 <iprintf>
 80007fe:	e7d8      	b.n	80007b2 <main+0x62>
 8000800:	080028f6 	.word	0x080028f6
 8000804:	08002904 	.word	0x08002904
 8000808:	08008000 	.word	0x08008000
 800080c:	0800292b 	.word	0x0800292b
 8000810:	20000088 	.word	0x20000088
 8000814:	40020000 	.word	0x40020000
 8000818:	08040000 	.word	0x08040000
 800081c:	08002963 	.word	0x08002963
 8000820:	080029a2 	.word	0x080029a2
 8000824:	080029bd 	.word	0x080029bd
 8000828:	080029f2 	.word	0x080029f2

0800082c <HAL_SYSTICK_Callback>:
 800082c:	4a07      	ldr	r2, [pc, #28]	@ (800084c <HAL_SYSTICK_Callback+0x20>)
 800082e:	6813      	ldr	r3, [r2, #0]
 8000830:	3301      	adds	r3, #1
 8000832:	f5b3 7f16 	cmp.w	r3, #600	@ 0x258
 8000836:	bfa3      	ittte	ge
 8000838:	2300      	movge	r3, #0
 800083a:	6013      	strge	r3, [r2, #0]
 800083c:	4a04      	ldrge	r2, [pc, #16]	@ (8000850 <HAL_SYSTICK_Callback+0x24>)
 800083e:	6013      	strlt	r3, [r2, #0]
 8000840:	bfa1      	itttt	ge
 8000842:	7813      	ldrbge	r3, [r2, #0]
 8000844:	43db      	mvnge	r3, r3
 8000846:	b2db      	uxtbge	r3, r3
 8000848:	7013      	strbge	r3, [r2, #0]
 800084a:	4770      	bx	lr
 800084c:	20000084 	.word	0x20000084
 8000850:	20000088 	.word	0x20000088

08000854 <Error_Handler>:
 8000854:	b672      	cpsid	i
 8000856:	e7fe      	b.n	8000856 <Error_Handler+0x2>

08000858 <HAL_MspInit>:
 8000858:	b082      	sub	sp, #8
 800085a:	4b0c      	ldr	r3, [pc, #48]	@ (800088c <HAL_MspInit+0x34>)
 800085c:	2100      	movs	r1, #0
 800085e:	9100      	str	r1, [sp, #0]
 8000860:	6c5a      	ldr	r2, [r3, #68]	@ 0x44
 8000862:	f442 4280 	orr.w	r2, r2, #16384	@ 0x4000
 8000866:	645a      	str	r2, [r3, #68]	@ 0x44
 8000868:	6c5a      	ldr	r2, [r3, #68]	@ 0x44
 800086a:	f402 4280 	and.w	r2, r2, #16384	@ 0x4000
 800086e:	9200      	str	r2, [sp, #0]
 8000870:	9a00      	ldr	r2, [sp, #0]
 8000872:	9101      	str	r1, [sp, #4]
 8000874:	6c1a      	ldr	r2, [r3, #64]	@ 0x40
 8000876:	f042 5280 	orr.w	r2, r2, #268435456	@ 0x10000000
 800087a:	641a      	str	r2, [r3, #64]	@ 0x40
 800087c:	6c1b      	ldr	r3, [r3, #64]	@ 0x40
 800087e:	f003 5380 	and.w	r3, r3, #268435456	@ 0x10000000
 8000882:	9301      	str	r3, [sp, #4]
 8000884:	9b01      	ldr	r3, [sp, #4]
 8000886:	b002      	add	sp, #8
 8000888:	4770      	bx	lr
 800088a:	bf00      	nop
 800088c:	40023800 	.word	0x40023800

08000890 <NMI_Handler>:
 8000890:	e7fe      	b.n	8000890 <NMI_Handler>

08000892 <HardFault_Handler>:
 8000892:	e7fe      	b.n	8000892 <HardFault_Handler>

08000894 <MemManage_Handler>:
 8000894:	e7fe      	b.n	8000894 <MemManage_Handler>

08000896 <BusFault_Handler>:
 8000896:	e7fe      	b.n	8000896 <BusFault_Handler>

08000898 <UsageFault_Handler>:
 8000898:	e7fe      	b.n	8000898 <UsageFault_Handler>

0800089a <SVC_Handler>:
 800089a:	4770      	bx	lr

0800089c <DebugMon_Handler>:
 800089c:	4770      	bx	lr

0800089e <PendSV_Handler>:
 800089e:	4770      	bx	lr

080008a0 <SysTick_Handler>:
 80008a0:	b508      	push	{r3, lr}
 80008a2:	f000 f911 	bl	8000ac8 <HAL_IncTick>
 80008a6:	e8bd 4008 	ldmia.w	sp!, {r3, lr}
 80008aa:	f000 b989 	b.w	8000bc0 <HAL_SYSTICK_IRQHandler>

080008ae <_read>:
 80008ae:	b570      	push	{r4, r5, r6, lr}
 80008b0:	460d      	mov	r5, r1
 80008b2:	4614      	mov	r4, r2
 80008b4:	460e      	mov	r6, r1
 80008b6:	1b73      	subs	r3, r6, r5
 80008b8:	429c      	cmp	r4, r3
 80008ba:	dc01      	bgt.n	80008c0 <_read+0x12>
 80008bc:	4620      	mov	r0, r4
 80008be:	bd70      	pop	{r4, r5, r6, pc}
 80008c0:	f3af 8000 	nop.w
 80008c4:	f806 0b01 	strb.w	r0, [r6], #1
 80008c8:	e7f5      	b.n	80008b6 <_read+0x8>

080008ca <_write>:
 80008ca:	b570      	push	{r4, r5, r6, lr}
 80008cc:	460d      	mov	r5, r1
 80008ce:	4614      	mov	r4, r2
 80008d0:	460e      	mov	r6, r1
 80008d2:	1b73      	subs	r3, r6, r5
 80008d4:	429c      	cmp	r4, r3
 80008d6:	dc01      	bgt.n	80008dc <_write+0x12>
 80008d8:	4620      	mov	r0, r4
 80008da:	bd70      	pop	{r4, r5, r6, pc}
 80008dc:	f816 0b01 	ldrb.w	r0, [r6], #1
 80008e0:	f7ff fe78 	bl	80005d4 <__io_putchar>
 80008e4:	e7f5      	b.n	80008d2 <_write+0x8>

080008e6 <_close>:
 80008e6:	f04f 30ff 	mov.w	r0, #4294967295
 80008ea:	4770      	bx	lr

080008ec <_fstat>:
 80008ec:	f44f 5300 	mov.w	r3, #8192	@ 0x2000
 80008f0:	604b      	str	r3, [r1, #4]
 80008f2:	2000      	movs	r0, #0
 80008f4:	4770      	bx	lr

080008f6 <_isatty>:
 80008f6:	2001      	movs	r0, #1
 80008f8:	4770      	bx	lr

080008fa <_lseek>:
 80008fa:	2000      	movs	r0, #0
 80008fc:	4770      	bx	lr
	...

08000900 <_sbrk>:
 8000900:	4a0b      	ldr	r2, [pc, #44]	@ (8000930 <_sbrk+0x30>)
 8000902:	6811      	ldr	r1, [r2, #0]
 8000904:	b510      	push	{r4, lr}
 8000906:	4603      	mov	r3, r0
 8000908:	b909      	cbnz	r1, 800090e <_sbrk+0xe>
 800090a:	490a      	ldr	r1, [pc, #40]	@ (8000934 <_sbrk+0x34>)
 800090c:	6011      	str	r1, [r2, #0]
 800090e:	6810      	ldr	r0, [r2, #0]
 8000910:	4909      	ldr	r1, [pc, #36]	@ (8000938 <_sbrk+0x38>)
 8000912:	4c0a      	ldr	r4, [pc, #40]	@ (800093c <_sbrk+0x3c>)
 8000914:	4403      	add	r3, r0
 8000916:	1b09      	subs	r1, r1, r4
 8000918:	428b      	cmp	r3, r1
 800091a:	d906      	bls.n	800092a <_sbrk+0x2a>
 800091c:	f001 f9f0 	bl	8001d00 <__errno>
 8000920:	230c      	movs	r3, #12
 8000922:	6003      	str	r3, [r0, #0]
 8000924:	f04f 30ff 	mov.w	r0, #4294967295
 8000928:	bd10      	pop	{r4, pc}
 800092a:	6013      	str	r3, [r2, #0]
 800092c:	e7fc      	b.n	8000928 <_sbrk+0x28>
 800092e:	bf00      	nop
 8000930:	2000008c 	.word	0x2000008c
 8000934:	20000248 	.word	0x20000248
 8000938:	20020000 	.word	0x20020000
 800093c:	00000400 	.word	0x00000400

08000940 <SystemInit>:
 8000940:	4a03      	ldr	r2, [pc, #12]	@ (8000950 <SystemInit+0x10>)
 8000942:	f8d2 3088 	ldr.w	r3, [r2, #136]	@ 0x88
 8000946:	f443 0370 	orr.w	r3, r3, #15728640	@ 0xf00000
 800094a:	f8c2 3088 	str.w	r3, [r2, #136]	@ 0x88
 800094e:	4770      	bx	lr
 8000950:	e000ed00 	.word	0xe000ed00

08000954 <MX_USART1_UART_Init>:
 8000954:	480b      	ldr	r0, [pc, #44]	@ (8000984 <MX_USART1_UART_Init+0x30>)
 8000956:	4a0c      	ldr	r2, [pc, #48]	@ (8000988 <MX_USART1_UART_Init+0x34>)
 8000958:	b508      	push	{r3, lr}
 800095a:	f44f 33e1 	mov.w	r3, #115200	@ 0x1c200
 800095e:	e9c0 2300 	strd	r2, r3, [r0]
 8000962:	2300      	movs	r3, #0
 8000964:	220c      	movs	r2, #12
 8000966:	e9c0 3302 	strd	r3, r3, [r0, #8]
 800096a:	e9c0 2305 	strd	r2, r3, [r0, #20]
 800096e:	6103      	str	r3, [r0, #16]
 8000970:	61c3      	str	r3, [r0, #28]
 8000972:	f000 fe71 	bl	8001658 <HAL_UART_Init>
 8000976:	b118      	cbz	r0, 8000980 <MX_USART1_UART_Init+0x2c>
 8000978:	e8bd 4008 	ldmia.w	sp!, {r3, lr}
 800097c:	f7ff bf6a 	b.w	8000854 <Error_Handler>
 8000980:	bd08      	pop	{r3, pc}
 8000982:	bf00      	nop
 8000984:	20000090 	.word	0x20000090
 8000988:	40011000 	.word	0x40011000

0800098c <HAL_UART_MspInit>:
 800098c:	b510      	push	{r4, lr}
 800098e:	4604      	mov	r4, r0
 8000990:	b088      	sub	sp, #32
 8000992:	2214      	movs	r2, #20
 8000994:	2100      	movs	r1, #0
 8000996:	a803      	add	r0, sp, #12
 8000998:	f001 f964 	bl	8001c64 <memset>
 800099c:	6822      	ldr	r2, [r4, #0]
 800099e:	4b14      	ldr	r3, [pc, #80]	@ (80009f0 <HAL_UART_MspInit+0x64>)
 80009a0:	429a      	cmp	r2, r3
 80009a2:	d123      	bne.n	80009ec <HAL_UART_MspInit+0x60>
 80009a4:	f503 3394 	add.w	r3, r3, #75776	@ 0x12800
 80009a8:	2100      	movs	r1, #0
 80009aa:	9101      	str	r1, [sp, #4]
 80009ac:	6c5a      	ldr	r2, [r3, #68]	@ 0x44
 80009ae:	4811      	ldr	r0, [pc, #68]	@ (80009f4 <HAL_UART_MspInit+0x68>)
 80009b0:	f042 0210 	orr.w	r2, r2, #16
 80009b4:	645a      	str	r2, [r3, #68]	@ 0x44
 80009b6:	6c5a      	ldr	r2, [r3, #68]	@ 0x44
 80009b8:	f002 0210 	and.w	r2, r2, #16
 80009bc:	9201      	str	r2, [sp, #4]
 80009be:	9a01      	ldr	r2, [sp, #4]
 80009c0:	9102      	str	r1, [sp, #8]
 80009c2:	6b1a      	ldr	r2, [r3, #48]	@ 0x30
 80009c4:	f042 0201 	orr.w	r2, r2, #1
 80009c8:	631a      	str	r2, [r3, #48]	@ 0x30
 80009ca:	6b1b      	ldr	r3, [r3, #48]	@ 0x30
 80009cc:	f003 0301 	and.w	r3, r3, #1
 80009d0:	9302      	str	r3, [sp, #8]
 80009d2:	9b02      	ldr	r3, [sp, #8]
 80009d4:	f44f 62c0 	mov.w	r2, #1536	@ 0x600
 80009d8:	2302      	movs	r3, #2
 80009da:	2103      	movs	r1, #3
 80009dc:	e9cd 2303 	strd	r2, r3, [sp, #12]
 80009e0:	2307      	movs	r3, #7
 80009e2:	e9cd 1306 	strd	r1, r3, [sp, #24]
 80009e6:	a903      	add	r1, sp, #12
 80009e8:	f000 fa16 	bl	8000e18 <HAL_GPIO_Init>
 80009ec:	b008      	add	sp, #32
 80009ee:	bd10      	pop	{r4, pc}
 80009f0:	40011000 	.word	0x40011000
 80009f4:	40020000 	.word	0x40020000

080009f8 <Reset_Handler>:
 80009f8:	f8df d034 	ldr.w	sp, [pc, #52]	@ 8000a30 <LoopFillZerobss+0xe>
 80009fc:	f7ff ffa0 	bl	8000940 <SystemInit>
 8000a00:	480c      	ldr	r0, [pc, #48]	@ (8000a34 <LoopFillZerobss+0x12>)
 8000a02:	490d      	ldr	r1, [pc, #52]	@ (8000a38 <LoopFillZerobss+0x16>)
 8000a04:	4a0d      	ldr	r2, [pc, #52]	@ (8000a3c <LoopFillZerobss+0x1a>)
 8000a06:	2300      	movs	r3, #0
 8000a08:	e002      	b.n	8000a10 <LoopCopyDataInit>

08000a0a <CopyDataInit>:
 8000a0a:	58d4      	ldr	r4, [r2, r3]
 8000a0c:	50c4      	str	r4, [r0, r3]
 8000a0e:	3304      	adds	r3, #4

08000a10 <LoopCopyDataInit>:
 8000a10:	18c4      	adds	r4, r0, r3
 8000a12:	428c      	cmp	r4, r1
 8000a14:	d3f9      	bcc.n	8000a0a <CopyDataInit>
 8000a16:	4a0a      	ldr	r2, [pc, #40]	@ (8000a40 <LoopFillZerobss+0x1e>)
 8000a18:	4c0a      	ldr	r4, [pc, #40]	@ (8000a44 <LoopFillZerobss+0x22>)
 8000a1a:	2300      	movs	r3, #0
 8000a1c:	e001      	b.n	8000a22 <LoopFillZerobss>

08000a1e <FillZerobss>:
 8000a1e:	6013      	str	r3, [r2, #0]
 8000a20:	3204      	adds	r2, #4

08000a22 <LoopFillZerobss>:
 8000a22:	42a2      	cmp	r2, r4
 8000a24:	d3fb      	bcc.n	8000a1e <FillZerobss>
 8000a26:	f001 f971 	bl	8001d0c <__libc_init_array>
 8000a2a:	f7ff fe91 	bl	8000750 <main>
 8000a2e:	4770      	bx	lr
 8000a30:	20020000 	.word	0x20020000
 8000a34:	20000000 	.word	0x20000000
 8000a38:	20000068 	.word	0x20000068
 8000a3c:	08002b5c 	.word	0x08002b5c
 8000a40:	20000068 	.word	0x20000068
 8000a44:	20000248 	.word	0x20000248

08000a48 <ADC_IRQHandler>:
 8000a48:	e7fe      	b.n	8000a48 <ADC_IRQHandler>
	...

08000a4c <HAL_InitTick>:
 8000a4c:	b538      	push	{r3, r4, r5, lr}
 8000a4e:	4b0e      	ldr	r3, [pc, #56]	@ (8000a88 <HAL_InitTick+0x3c>)
 8000a50:	781a      	ldrb	r2, [r3, #0]
 8000a52:	f44f 737a 	mov.w	r3, #1000	@ 0x3e8
 8000a56:	fbb3 f3f2 	udiv	r3, r3, r2
 8000a5a:	4a0c      	ldr	r2, [pc, #48]	@ (8000a8c <HAL_InitTick+0x40>)
 8000a5c:	4605      	mov	r5, r0
 8000a5e:	6810      	ldr	r0, [r2, #0]
 8000a60:	fbb0 f0f3 	udiv	r0, r0, r3
 8000a64:	f000 f898 	bl	8000b98 <HAL_SYSTICK_Config>
 8000a68:	4604      	mov	r4, r0
 8000a6a:	b958      	cbnz	r0, 8000a84 <HAL_InitTick+0x38>
 8000a6c:	2d0f      	cmp	r5, #15
 8000a6e:	d809      	bhi.n	8000a84 <HAL_InitTick+0x38>
 8000a70:	4602      	mov	r2, r0
 8000a72:	4629      	mov	r1, r5
 8000a74:	f04f 30ff 	mov.w	r0, #4294967295
 8000a78:	f000 f84a 	bl	8000b10 <HAL_NVIC_SetPriority>
 8000a7c:	4b04      	ldr	r3, [pc, #16]	@ (8000a90 <HAL_InitTick+0x44>)
 8000a7e:	4620      	mov	r0, r4
 8000a80:	601d      	str	r5, [r3, #0]
 8000a82:	bd38      	pop	{r3, r4, r5, pc}
 8000a84:	2001      	movs	r0, #1
 8000a86:	e7fc      	b.n	8000a82 <HAL_InitTick+0x36>
 8000a88:	20000004 	.word	0x20000004
 8000a8c:	20000000 	.word	0x20000000
 8000a90:	20000008 	.word	0x20000008

08000a94 <HAL_Init>:
 8000a94:	b508      	push	{r3, lr}
 8000a96:	4b0b      	ldr	r3, [pc, #44]	@ (8000ac4 <HAL_Init+0x30>)
 8000a98:	681a      	ldr	r2, [r3, #0]
 8000a9a:	f442 7200 	orr.w	r2, r2, #512	@ 0x200
 8000a9e:	601a      	str	r2, [r3, #0]
 8000aa0:	681a      	ldr	r2, [r3, #0]
 8000aa2:	f442 6280 	orr.w	r2, r2, #1024	@ 0x400
 8000aa6:	601a      	str	r2, [r3, #0]
 8000aa8:	681a      	ldr	r2, [r3, #0]
 8000aaa:	f442 7280 	orr.w	r2, r2, #256	@ 0x100
 8000aae:	601a      	str	r2, [r3, #0]
 8000ab0:	2003      	movs	r0, #3
 8000ab2:	f000 f81b 	bl	8000aec <HAL_NVIC_SetPriorityGrouping>
 8000ab6:	200f      	movs	r0, #15
 8000ab8:	f7ff ffc8 	bl	8000a4c <HAL_InitTick>
 8000abc:	f7ff fecc 	bl	8000858 <HAL_MspInit>
 8000ac0:	2000      	movs	r0, #0
 8000ac2:	bd08      	pop	{r3, pc}
 8000ac4:	40023c00 	.word	0x40023c00

08000ac8 <HAL_IncTick>:
 8000ac8:	4a03      	ldr	r2, [pc, #12]	@ (8000ad8 <HAL_IncTick+0x10>)
 8000aca:	4b04      	ldr	r3, [pc, #16]	@ (8000adc <HAL_IncTick+0x14>)
 8000acc:	6811      	ldr	r1, [r2, #0]
 8000ace:	781b      	ldrb	r3, [r3, #0]
 8000ad0:	440b      	add	r3, r1
 8000ad2:	6013      	str	r3, [r2, #0]
 8000ad4:	4770      	bx	lr
 8000ad6:	bf00      	nop
 8000ad8:	200000d8 	.word	0x200000d8
 8000adc:	20000004 	.word	0x20000004

08000ae0 <HAL_GetTick>:
 8000ae0:	4b01      	ldr	r3, [pc, #4]	@ (8000ae8 <HAL_GetTick+0x8>)
 8000ae2:	6818      	ldr	r0, [r3, #0]
 8000ae4:	4770      	bx	lr
 8000ae6:	bf00      	nop
 8000ae8:	200000d8 	.word	0x200000d8

08000aec <HAL_NVIC_SetPriorityGrouping>:
 8000aec:	4907      	ldr	r1, [pc, #28]	@ (8000b0c <HAL_NVIC_SetPriorityGrouping+0x20>)
 8000aee:	68ca      	ldr	r2, [r1, #12]
 8000af0:	f422 62e0 	bic.w	r2, r2, #1792	@ 0x700
 8000af4:	0203      	lsls	r3, r0, #8
 8000af6:	0412      	lsls	r2, r2, #16
 8000af8:	f403 63e0 	and.w	r3, r3, #1792	@ 0x700
 8000afc:	0c12      	lsrs	r2, r2, #16
 8000afe:	4313      	orrs	r3, r2
 8000b00:	f043 63bf 	orr.w	r3, r3, #100139008	@ 0x5f80000
 8000b04:	f443 3300 	orr.w	r3, r3, #131072	@ 0x20000
 8000b08:	60cb      	str	r3, [r1, #12]
 8000b0a:	4770      	bx	lr
 8000b0c:	e000ed00 	.word	0xe000ed00

08000b10 <HAL_NVIC_SetPriority>:
 8000b10:	4b16      	ldr	r3, [pc, #88]	@ (8000b6c <HAL_NVIC_SetPriority+0x5c>)
 8000b12:	b530      	push	{r4, r5, lr}
 8000b14:	68dc      	ldr	r4, [r3, #12]
 8000b16:	f3c4 2402 	ubfx	r4, r4, #8, #3
 8000b1a:	f1c4 0307 	rsb	r3, r4, #7
 8000b1e:	1d25      	adds	r5, r4, #4
 8000b20:	2b04      	cmp	r3, #4
 8000b22:	bf28      	it	cs
 8000b24:	2304      	movcs	r3, #4
 8000b26:	2d06      	cmp	r5, #6
 8000b28:	f04f 35ff 	mov.w	r5, #4294967295
 8000b2c:	bf8c      	ite	hi
 8000b2e:	3c03      	subhi	r4, #3
 8000b30:	2400      	movls	r4, #0
 8000b32:	fa05 f303 	lsl.w	r3, r5, r3
 8000b36:	ea21 0303 	bic.w	r3, r1, r3
 8000b3a:	40a5      	lsls	r5, r4
 8000b3c:	ea22 0205 	bic.w	r2, r2, r5
 8000b40:	40a3      	lsls	r3, r4
 8000b42:	2800      	cmp	r0, #0
 8000b44:	ea43 0302 	orr.w	r3, r3, r2
 8000b48:	bfac      	ite	ge
 8000b4a:	f100 4060 	addge.w	r0, r0, #3758096384	@ 0xe0000000
 8000b4e:	4a08      	ldrlt	r2, [pc, #32]	@ (8000b70 <HAL_NVIC_SetPriority+0x60>)
 8000b50:	ea4f 1303 	mov.w	r3, r3, lsl #4
 8000b54:	bfb8      	it	lt
 8000b56:	f000 000f 	andlt.w	r0, r0, #15
 8000b5a:	b2db      	uxtb	r3, r3
 8000b5c:	bfaa      	itet	ge
 8000b5e:	f500 4061 	addge.w	r0, r0, #57600	@ 0xe100
 8000b62:	5413      	strblt	r3, [r2, r0]
 8000b64:	f880 3300 	strbge.w	r3, [r0, #768]	@ 0x300
 8000b68:	bd30      	pop	{r4, r5, pc}
 8000b6a:	bf00      	nop
 8000b6c:	e000ed00 	.word	0xe000ed00
 8000b70:	e000ed14 	.word	0xe000ed14

08000b74 <HAL_NVIC_SystemReset>:
 8000b74:	f3bf 8f4f 	dsb	sy
 8000b78:	4905      	ldr	r1, [pc, #20]	@ (8000b90 <HAL_NVIC_SystemReset+0x1c>)
 8000b7a:	4b06      	ldr	r3, [pc, #24]	@ (8000b94 <HAL_NVIC_SystemReset+0x20>)
 8000b7c:	68ca      	ldr	r2, [r1, #12]
 8000b7e:	f402 62e0 	and.w	r2, r2, #1792	@ 0x700
 8000b82:	4313      	orrs	r3, r2
 8000b84:	60cb      	str	r3, [r1, #12]
 8000b86:	f3bf 8f4f 	dsb	sy
 8000b8a:	bf00      	nop
 8000b8c:	e7fd      	b.n	8000b8a <HAL_NVIC_SystemReset+0x16>
 8000b8e:	bf00      	nop
 8000b90:	e000ed00 	.word	0xe000ed00
 8000b94:	05fa0004 	.word	0x05fa0004

08000b98 <HAL_SYSTICK_Config>:
 8000b98:	3801      	subs	r0, #1
 8000b9a:	f1b0 7f80 	cmp.w	r0, #16777216	@ 0x1000000
 8000b9e:	d20b      	bcs.n	8000bb8 <HAL_SYSTICK_Config+0x20>
 8000ba0:	f04f 23e0 	mov.w	r3, #3758153728	@ 0xe000e000
 8000ba4:	4a05      	ldr	r2, [pc, #20]	@ (8000bbc <HAL_SYSTICK_Config+0x24>)
 8000ba6:	6158      	str	r0, [r3, #20]
 8000ba8:	21f0      	movs	r1, #240	@ 0xf0
 8000baa:	f882 1023 	strb.w	r1, [r2, #35]	@ 0x23
 8000bae:	2000      	movs	r0, #0
 8000bb0:	2207      	movs	r2, #7
 8000bb2:	6198      	str	r0, [r3, #24]
 8000bb4:	611a      	str	r2, [r3, #16]
 8000bb6:	4770      	bx	lr
 8000bb8:	2001      	movs	r0, #1
 8000bba:	4770      	bx	lr
 8000bbc:	e000ed00 	.word	0xe000ed00

08000bc0 <HAL_SYSTICK_IRQHandler>:
 8000bc0:	b508      	push	{r3, lr}
 8000bc2:	f7ff fe33 	bl	800082c <HAL_SYSTICK_Callback>
 8000bc6:	bd08      	pop	{r3, pc}

08000bc8 <FLASH_Program_DoubleWord>:
 8000bc8:	4909      	ldr	r1, [pc, #36]	@ (8000bf0 <FLASH_Program_DoubleWord+0x28>)
 8000bca:	b510      	push	{r4, lr}
 8000bcc:	690c      	ldr	r4, [r1, #16]
 8000bce:	f424 7440 	bic.w	r4, r4, #768	@ 0x300
 8000bd2:	610c      	str	r4, [r1, #16]
 8000bd4:	690c      	ldr	r4, [r1, #16]
 8000bd6:	f444 7440 	orr.w	r4, r4, #768	@ 0x300
 8000bda:	610c      	str	r4, [r1, #16]
 8000bdc:	690c      	ldr	r4, [r1, #16]
 8000bde:	f044 0401 	orr.w	r4, r4, #1
 8000be2:	610c      	str	r4, [r1, #16]
 8000be4:	6002      	str	r2, [r0, #0]
 8000be6:	f3bf 8f6f 	isb	sy
 8000bea:	6043      	str	r3, [r0, #4]
 8000bec:	bd10      	pop	{r4, pc}
 8000bee:	bf00      	nop
 8000bf0:	40023c00 	.word	0x40023c00

08000bf4 <FLASH_Program_Word>:
 8000bf4:	4b07      	ldr	r3, [pc, #28]	@ (8000c14 <FLASH_Program_Word+0x20>)
 8000bf6:	691a      	ldr	r2, [r3, #16]
 8000bf8:	f422 7240 	bic.w	r2, r2, #768	@ 0x300
 8000bfc:	611a      	str	r2, [r3, #16]
 8000bfe:	691a      	ldr	r2, [r3, #16]
 8000c00:	f442 7200 	orr.w	r2, r2, #512	@ 0x200
 8000c04:	611a      	str	r2, [r3, #16]
 8000c06:	691a      	ldr	r2, [r3, #16]
 8000c08:	f042 0201 	orr.w	r2, r2, #1
 8000c0c:	611a      	str	r2, [r3, #16]
 8000c0e:	6001      	str	r1, [r0, #0]
 8000c10:	4770      	bx	lr
 8000c12:	bf00      	nop
 8000c14:	40023c00 	.word	0x40023c00

08000c18 <FLASH_Program_HalfWord>:
 8000c18:	4b07      	ldr	r3, [pc, #28]	@ (8000c38 <FLASH_Program_HalfWord+0x20>)
 8000c1a:	691a      	ldr	r2, [r3, #16]
 8000c1c:	f422 7240 	bic.w	r2, r2, #768	@ 0x300
 8000c20:	611a      	str	r2, [r3, #16]
 8000c22:	691a      	ldr	r2, [r3, #16]
 8000c24:	f442 7280 	orr.w	r2, r2, #256	@ 0x100
 8000c28:	611a      	str	r2, [r3, #16]
 8000c2a:	691a      	ldr	r2, [r3, #16]
 8000c2c:	f042 0201 	orr.w	r2, r2, #1
 8000c30:	611a      	str	r2, [r3, #16]
 8000c32:	8001      	strh	r1, [r0, #0]
 8000c34:	4770      	bx	lr
 8000c36:	bf00      	nop
 8000c38:	40023c00 	.word	0x40023c00

08000c3c <FLASH_SetErrorCode>:
 8000c3c:	4b20      	ldr	r3, [pc, #128]	@ (8000cc0 <FLASH_SetErrorCode+0x84>)
 8000c3e:	68da      	ldr	r2, [r3, #12]
 8000c40:	06d0      	lsls	r0, r2, #27
 8000c42:	d506      	bpl.n	8000c52 <FLASH_SetErrorCode+0x16>
 8000c44:	491f      	ldr	r1, [pc, #124]	@ (8000cc4 <FLASH_SetErrorCode+0x88>)
 8000c46:	69ca      	ldr	r2, [r1, #28]
 8000c48:	f042 0210 	orr.w	r2, r2, #16
 8000c4c:	61ca      	str	r2, [r1, #28]
 8000c4e:	2210      	movs	r2, #16
 8000c50:	60da      	str	r2, [r3, #12]
 8000c52:	68da      	ldr	r2, [r3, #12]
 8000c54:	0691      	lsls	r1, r2, #26
 8000c56:	d506      	bpl.n	8000c66 <FLASH_SetErrorCode+0x2a>
 8000c58:	491a      	ldr	r1, [pc, #104]	@ (8000cc4 <FLASH_SetErrorCode+0x88>)
 8000c5a:	69ca      	ldr	r2, [r1, #28]
 8000c5c:	f042 0208 	orr.w	r2, r2, #8
 8000c60:	61ca      	str	r2, [r1, #28]
 8000c62:	2220      	movs	r2, #32
 8000c64:	60da      	str	r2, [r3, #12]
 8000c66:	4b16      	ldr	r3, [pc, #88]	@ (8000cc0 <FLASH_SetErrorCode+0x84>)
 8000c68:	68da      	ldr	r2, [r3, #12]
 8000c6a:	0652      	lsls	r2, r2, #25
 8000c6c:	d506      	bpl.n	8000c7c <FLASH_SetErrorCode+0x40>
 8000c6e:	4915      	ldr	r1, [pc, #84]	@ (8000cc4 <FLASH_SetErrorCode+0x88>)
 8000c70:	69ca      	ldr	r2, [r1, #28]
 8000c72:	f042 0204 	orr.w	r2, r2, #4
 8000c76:	61ca      	str	r2, [r1, #28]
 8000c78:	2240      	movs	r2, #64	@ 0x40
 8000c7a:	60da      	str	r2, [r3, #12]
 8000c7c:	68da      	ldr	r2, [r3, #12]
 8000c7e:	0610      	lsls	r0, r2, #24
 8000c80:	d506      	bpl.n	8000c90 <FLASH_SetErrorCode+0x54>
 8000c82:	4910      	ldr	r1, [pc, #64]	@ (8000cc4 <FLASH_SetErrorCode+0x88>)
 8000c84:	69ca      	ldr	r2, [r1, #28]
 8000c86:	f042 0202 	orr.w	r2, r2, #2
 8000c8a:	61ca      	str	r2, [r1, #28]
 8000c8c:	2280      	movs	r2, #128	@ 0x80
 8000c8e:	60da      	str	r2, [r3, #12]
 8000c90:	4b0b      	ldr	r3, [pc, #44]	@ (8000cc0 <FLASH_SetErrorCode+0x84>)
 8000c92:	68da      	ldr	r2, [r3, #12]
 8000c94:	05d1      	lsls	r1, r2, #23
 8000c96:	d507      	bpl.n	8000ca8 <FLASH_SetErrorCode+0x6c>
 8000c98:	490a      	ldr	r1, [pc, #40]	@ (8000cc4 <FLASH_SetErrorCode+0x88>)
 8000c9a:	69ca      	ldr	r2, [r1, #28]
 8000c9c:	f042 0201 	orr.w	r2, r2, #1
 8000ca0:	61ca      	str	r2, [r1, #28]
 8000ca2:	f44f 7280 	mov.w	r2, #256	@ 0x100
 8000ca6:	60da      	str	r2, [r3, #12]
 8000ca8:	68da      	ldr	r2, [r3, #12]
 8000caa:	0792      	lsls	r2, r2, #30
 8000cac:	d506      	bpl.n	8000cbc <FLASH_SetErrorCode+0x80>
 8000cae:	4905      	ldr	r1, [pc, #20]	@ (8000cc4 <FLASH_SetErrorCode+0x88>)
 8000cb0:	69ca      	ldr	r2, [r1, #28]
 8000cb2:	f042 0220 	orr.w	r2, r2, #32
 8000cb6:	61ca      	str	r2, [r1, #28]
 8000cb8:	2202      	movs	r2, #2
 8000cba:	60da      	str	r2, [r3, #12]
 8000cbc:	4770      	bx	lr
 8000cbe:	bf00      	nop
 8000cc0:	40023c00 	.word	0x40023c00
 8000cc4:	200000dc 	.word	0x200000dc

08000cc8 <HAL_FLASH_Unlock>:
 8000cc8:	4b06      	ldr	r3, [pc, #24]	@ (8000ce4 <HAL_FLASH_Unlock+0x1c>)
 8000cca:	691a      	ldr	r2, [r3, #16]
 8000ccc:	2a00      	cmp	r2, #0
 8000cce:	bfbf      	itttt	lt
 8000cd0:	4a05      	ldrlt	r2, [pc, #20]	@ (8000ce8 <HAL_FLASH_Unlock+0x20>)
 8000cd2:	605a      	strlt	r2, [r3, #4]
 8000cd4:	f102 3288 	addlt.w	r2, r2, #2290649224	@ 0x88888888
 8000cd8:	605a      	strlt	r2, [r3, #4]
 8000cda:	bfba      	itte	lt
 8000cdc:	6918      	ldrlt	r0, [r3, #16]
 8000cde:	0fc0      	lsrlt	r0, r0, #31
 8000ce0:	2000      	movge	r0, #0
 8000ce2:	4770      	bx	lr
 8000ce4:	40023c00 	.word	0x40023c00
 8000ce8:	45670123 	.word	0x45670123

08000cec <HAL_FLASH_Lock>:
 8000cec:	4a03      	ldr	r2, [pc, #12]	@ (8000cfc <HAL_FLASH_Lock+0x10>)
 8000cee:	6913      	ldr	r3, [r2, #16]
 8000cf0:	f043 4300 	orr.w	r3, r3, #2147483648	@ 0x80000000
 8000cf4:	6113      	str	r3, [r2, #16]
 8000cf6:	2000      	movs	r0, #0
 8000cf8:	4770      	bx	lr
 8000cfa:	bf00      	nop
 8000cfc:	40023c00 	.word	0x40023c00

08000d00 <FLASH_WaitForLastOperation>:
 8000d00:	4b11      	ldr	r3, [pc, #68]	@ (8000d48 <FLASH_WaitForLastOperation+0x48>)
 8000d02:	b570      	push	{r4, r5, r6, lr}
 8000d04:	2200      	movs	r2, #0
 8000d06:	4604      	mov	r4, r0
 8000d08:	61da      	str	r2, [r3, #28]
 8000d0a:	f7ff fee9 	bl	8000ae0 <HAL_GetTick>
 8000d0e:	4d0f      	ldr	r5, [pc, #60]	@ (8000d4c <FLASH_WaitForLastOperation+0x4c>)
 8000d10:	4606      	mov	r6, r0
 8000d12:	68eb      	ldr	r3, [r5, #12]
 8000d14:	03da      	lsls	r2, r3, #15
 8000d16:	d40c      	bmi.n	8000d32 <FLASH_WaitForLastOperation+0x32>
 8000d18:	68eb      	ldr	r3, [r5, #12]
 8000d1a:	07db      	lsls	r3, r3, #31
 8000d1c:	bf44      	itt	mi
 8000d1e:	2301      	movmi	r3, #1
 8000d20:	60eb      	strmi	r3, [r5, #12]
 8000d22:	68e8      	ldr	r0, [r5, #12]
 8000d24:	f410 70f9 	ands.w	r0, r0, #498	@ 0x1f2
 8000d28:	d007      	beq.n	8000d3a <FLASH_WaitForLastOperation+0x3a>
 8000d2a:	f7ff ff87 	bl	8000c3c <FLASH_SetErrorCode>
 8000d2e:	2001      	movs	r0, #1
 8000d30:	e003      	b.n	8000d3a <FLASH_WaitForLastOperation+0x3a>
 8000d32:	1c61      	adds	r1, r4, #1
 8000d34:	d0ed      	beq.n	8000d12 <FLASH_WaitForLastOperation+0x12>
 8000d36:	b90c      	cbnz	r4, 8000d3c <FLASH_WaitForLastOperation+0x3c>
 8000d38:	2003      	movs	r0, #3
 8000d3a:	bd70      	pop	{r4, r5, r6, pc}
 8000d3c:	f7ff fed0 	bl	8000ae0 <HAL_GetTick>
 8000d40:	1b80      	subs	r0, r0, r6
 8000d42:	42a0      	cmp	r0, r4
 8000d44:	d9e5      	bls.n	8000d12 <FLASH_WaitForLastOperation+0x12>
 8000d46:	e7f7      	b.n	8000d38 <FLASH_WaitForLastOperation+0x38>
 8000d48:	200000dc 	.word	0x200000dc
 8000d4c:	40023c00 	.word	0x40023c00

08000d50 <HAL_FLASH_Program>:
 8000d50:	e92d 41f0 	stmdb	sp!, {r4, r5, r6, r7, r8, lr}
 8000d54:	4e1f      	ldr	r6, [pc, #124]	@ (8000dd4 <HAL_FLASH_Program+0x84>)
 8000d56:	4698      	mov	r8, r3
 8000d58:	7e33      	ldrb	r3, [r6, #24]
 8000d5a:	2b01      	cmp	r3, #1
 8000d5c:	4607      	mov	r7, r0
 8000d5e:	460d      	mov	r5, r1
 8000d60:	4614      	mov	r4, r2
 8000d62:	d035      	beq.n	8000dd0 <HAL_FLASH_Program+0x80>
 8000d64:	2301      	movs	r3, #1
 8000d66:	f24c 3050 	movw	r0, #50000	@ 0xc350
 8000d6a:	7633      	strb	r3, [r6, #24]
 8000d6c:	f7ff ffc8 	bl	8000d00 <FLASH_WaitForLastOperation>
 8000d70:	b9b0      	cbnz	r0, 8000da0 <HAL_FLASH_Program+0x50>
 8000d72:	b9cf      	cbnz	r7, 8000da8 <HAL_FLASH_Program+0x58>
 8000d74:	4b18      	ldr	r3, [pc, #96]	@ (8000dd8 <HAL_FLASH_Program+0x88>)
 8000d76:	691a      	ldr	r2, [r3, #16]
 8000d78:	f422 7240 	bic.w	r2, r2, #768	@ 0x300
 8000d7c:	611a      	str	r2, [r3, #16]
 8000d7e:	691a      	ldr	r2, [r3, #16]
 8000d80:	611a      	str	r2, [r3, #16]
 8000d82:	691a      	ldr	r2, [r3, #16]
 8000d84:	b2e4      	uxtb	r4, r4
 8000d86:	f042 0201 	orr.w	r2, r2, #1
 8000d8a:	611a      	str	r2, [r3, #16]
 8000d8c:	702c      	strb	r4, [r5, #0]
 8000d8e:	f24c 3050 	movw	r0, #50000	@ 0xc350
 8000d92:	f7ff ffb5 	bl	8000d00 <FLASH_WaitForLastOperation>
 8000d96:	4a10      	ldr	r2, [pc, #64]	@ (8000dd8 <HAL_FLASH_Program+0x88>)
 8000d98:	6913      	ldr	r3, [r2, #16]
 8000d9a:	f023 0301 	bic.w	r3, r3, #1
 8000d9e:	6113      	str	r3, [r2, #16]
 8000da0:	2300      	movs	r3, #0
 8000da2:	7633      	strb	r3, [r6, #24]
 8000da4:	e8bd 81f0 	ldmia.w	sp!, {r4, r5, r6, r7, r8, pc}
 8000da8:	2f01      	cmp	r7, #1
 8000daa:	d104      	bne.n	8000db6 <HAL_FLASH_Program+0x66>
 8000dac:	b2a1      	uxth	r1, r4
 8000dae:	4628      	mov	r0, r5
 8000db0:	f7ff ff32 	bl	8000c18 <FLASH_Program_HalfWord>
 8000db4:	e7eb      	b.n	8000d8e <HAL_FLASH_Program+0x3e>
 8000db6:	2f02      	cmp	r7, #2
 8000db8:	d104      	bne.n	8000dc4 <HAL_FLASH_Program+0x74>
 8000dba:	4621      	mov	r1, r4
 8000dbc:	4628      	mov	r0, r5
 8000dbe:	f7ff ff19 	bl	8000bf4 <FLASH_Program_Word>
 8000dc2:	e7e4      	b.n	8000d8e <HAL_FLASH_Program+0x3e>
 8000dc4:	4622      	mov	r2, r4
 8000dc6:	4643      	mov	r3, r8
 8000dc8:	4628      	mov	r0, r5
 8000dca:	f7ff fefd 	bl	8000bc8 <FLASH_Program_DoubleWord>
 8000dce:	e7de      	b.n	8000d8e <HAL_FLASH_Program+0x3e>
 8000dd0:	2002      	movs	r0, #2
 8000dd2:	e7e7      	b.n	8000da4 <HAL_FLASH_Program+0x54>
 8000dd4:	200000dc 	.word	0x200000dc
 8000dd8:	40023c00 	.word	0x40023c00

08000ddc <FLASH_Erase_Sector>:
 8000ddc:	4b0d      	ldr	r3, [pc, #52]	@ (8000e14 <FLASH_Erase_Sector+0x38>)
 8000dde:	691a      	ldr	r2, [r3, #16]
 8000de0:	f422 7240 	bic.w	r2, r2, #768	@ 0x300
 8000de4:	611a      	str	r2, [r3, #16]
 8000de6:	691a      	ldr	r2, [r3, #16]
 8000de8:	2902      	cmp	r1, #2
 8000dea:	bf94      	ite	ls
 8000dec:	0209      	lslls	r1, r1, #8
 8000dee:	f44f 7140 	movhi.w	r1, #768	@ 0x300
 8000df2:	430a      	orrs	r2, r1
 8000df4:	611a      	str	r2, [r3, #16]
 8000df6:	691a      	ldr	r2, [r3, #16]
 8000df8:	f022 02f8 	bic.w	r2, r2, #248	@ 0xf8
 8000dfc:	611a      	str	r2, [r3, #16]
 8000dfe:	691a      	ldr	r2, [r3, #16]
 8000e00:	ea42 00c0 	orr.w	r0, r2, r0, lsl #3
 8000e04:	f040 0002 	orr.w	r0, r0, #2
 8000e08:	6118      	str	r0, [r3, #16]
 8000e0a:	691a      	ldr	r2, [r3, #16]
 8000e0c:	f442 3280 	orr.w	r2, r2, #65536	@ 0x10000
 8000e10:	611a      	str	r2, [r3, #16]
 8000e12:	4770      	bx	lr
 8000e14:	40023c00 	.word	0x40023c00

08000e18 <HAL_GPIO_Init>:
 8000e18:	e92d 4ff7 	stmdb	sp!, {r0, r1, r2, r4, r5, r6, r7, r8, r9, sl, fp, lr}
 8000e1c:	f8df 9180 	ldr.w	r9, [pc, #384]	@ 8000fa0 <HAL_GPIO_Init+0x188>
 8000e20:	4a5d      	ldr	r2, [pc, #372]	@ (8000f98 <HAL_GPIO_Init+0x180>)
 8000e22:	2300      	movs	r3, #0
 8000e24:	680d      	ldr	r5, [r1, #0]
 8000e26:	2401      	movs	r4, #1
 8000e28:	409c      	lsls	r4, r3
 8000e2a:	ea04 0605 	and.w	r6, r4, r5
 8000e2e:	43ac      	bics	r4, r5
 8000e30:	f040 80a3 	bne.w	8000f7a <HAL_GPIO_Init+0x162>
 8000e34:	684d      	ldr	r5, [r1, #4]
 8000e36:	2703      	movs	r7, #3
 8000e38:	f005 0403 	and.w	r4, r5, #3
 8000e3c:	ea4f 0843 	mov.w	r8, r3, lsl #1
 8000e40:	fa07 fc08 	lsl.w	ip, r7, r8
 8000e44:	1e67      	subs	r7, r4, #1
 8000e46:	2f01      	cmp	r7, #1
 8000e48:	ea6f 0c0c 	mvn.w	ip, ip
 8000e4c:	d834      	bhi.n	8000eb8 <HAL_GPIO_Init+0xa0>
 8000e4e:	6887      	ldr	r7, [r0, #8]
 8000e50:	ea07 0e0c 	and.w	lr, r7, ip
 8000e54:	68cf      	ldr	r7, [r1, #12]
 8000e56:	fa07 f708 	lsl.w	r7, r7, r8
 8000e5a:	ea47 070e 	orr.w	r7, r7, lr
 8000e5e:	6087      	str	r7, [r0, #8]
 8000e60:	6847      	ldr	r7, [r0, #4]
 8000e62:	ea27 0e06 	bic.w	lr, r7, r6
 8000e66:	f3c5 1700 	ubfx	r7, r5, #4, #1
 8000e6a:	409f      	lsls	r7, r3
 8000e6c:	ea47 070e 	orr.w	r7, r7, lr
 8000e70:	6047      	str	r7, [r0, #4]
 8000e72:	68c7      	ldr	r7, [r0, #12]
 8000e74:	ea07 0e0c 	and.w	lr, r7, ip
 8000e78:	688f      	ldr	r7, [r1, #8]
 8000e7a:	fa07 f708 	lsl.w	r7, r7, r8
 8000e7e:	ea47 070e 	orr.w	r7, r7, lr
 8000e82:	2c02      	cmp	r4, #2
 8000e84:	60c7      	str	r7, [r0, #12]
 8000e86:	d119      	bne.n	8000ebc <HAL_GPIO_Init+0xa4>
 8000e88:	ea4f 0ad3 	mov.w	sl, r3, lsr #3
 8000e8c:	eb00 0a8a 	add.w	sl, r0, sl, lsl #2
 8000e90:	f003 0b07 	and.w	fp, r3, #7
 8000e94:	f8da 7020 	ldr.w	r7, [sl, #32]
 8000e98:	ea4f 0b8b 	mov.w	fp, fp, lsl #2
 8000e9c:	f04f 0e0f 	mov.w	lr, #15
 8000ea0:	fa0e fe0b 	lsl.w	lr, lr, fp
 8000ea4:	ea27 0e0e 	bic.w	lr, r7, lr
 8000ea8:	690f      	ldr	r7, [r1, #16]
 8000eaa:	fa07 f70b 	lsl.w	r7, r7, fp
 8000eae:	ea47 070e 	orr.w	r7, r7, lr
 8000eb2:	f8ca 7020 	str.w	r7, [sl, #32]
 8000eb6:	e001      	b.n	8000ebc <HAL_GPIO_Init+0xa4>
 8000eb8:	2c03      	cmp	r4, #3
 8000eba:	d1da      	bne.n	8000e72 <HAL_GPIO_Init+0x5a>
 8000ebc:	6807      	ldr	r7, [r0, #0]
 8000ebe:	fa04 f408 	lsl.w	r4, r4, r8
 8000ec2:	ea07 070c 	and.w	r7, r7, ip
 8000ec6:	433c      	orrs	r4, r7
 8000ec8:	f415 3f40 	tst.w	r5, #196608	@ 0x30000
 8000ecc:	6004      	str	r4, [r0, #0]
 8000ece:	d054      	beq.n	8000f7a <HAL_GPIO_Init+0x162>
 8000ed0:	2400      	movs	r4, #0
 8000ed2:	9401      	str	r4, [sp, #4]
 8000ed4:	f8d9 4044 	ldr.w	r4, [r9, #68]	@ 0x44
 8000ed8:	f444 4480 	orr.w	r4, r4, #16384	@ 0x4000
 8000edc:	f8c9 4044 	str.w	r4, [r9, #68]	@ 0x44
 8000ee0:	f8d9 4044 	ldr.w	r4, [r9, #68]	@ 0x44
 8000ee4:	f023 0703 	bic.w	r7, r3, #3
 8000ee8:	f107 4780 	add.w	r7, r7, #1073741824	@ 0x40000000
 8000eec:	f404 4480 	and.w	r4, r4, #16384	@ 0x4000
 8000ef0:	f507 379c 	add.w	r7, r7, #79872	@ 0x13800
 8000ef4:	9401      	str	r4, [sp, #4]
 8000ef6:	f003 0c03 	and.w	ip, r3, #3
 8000efa:	9c01      	ldr	r4, [sp, #4]
 8000efc:	f8d7 e008 	ldr.w	lr, [r7, #8]
 8000f00:	ea4f 0c8c 	mov.w	ip, ip, lsl #2
 8000f04:	240f      	movs	r4, #15
 8000f06:	fa04 f40c 	lsl.w	r4, r4, ip
 8000f0a:	ea2e 0e04 	bic.w	lr, lr, r4
 8000f0e:	4c23      	ldr	r4, [pc, #140]	@ (8000f9c <HAL_GPIO_Init+0x184>)
 8000f10:	42a0      	cmp	r0, r4
 8000f12:	d039      	beq.n	8000f88 <HAL_GPIO_Init+0x170>
 8000f14:	f504 6480 	add.w	r4, r4, #1024	@ 0x400
 8000f18:	42a0      	cmp	r0, r4
 8000f1a:	d037      	beq.n	8000f8c <HAL_GPIO_Init+0x174>
 8000f1c:	f504 6480 	add.w	r4, r4, #1024	@ 0x400
 8000f20:	42a0      	cmp	r0, r4
 8000f22:	d035      	beq.n	8000f90 <HAL_GPIO_Init+0x178>
 8000f24:	f504 6480 	add.w	r4, r4, #1024	@ 0x400
 8000f28:	42a0      	cmp	r0, r4
 8000f2a:	d033      	beq.n	8000f94 <HAL_GPIO_Init+0x17c>
 8000f2c:	f504 6480 	add.w	r4, r4, #1024	@ 0x400
 8000f30:	42a0      	cmp	r0, r4
 8000f32:	bf14      	ite	ne
 8000f34:	2407      	movne	r4, #7
 8000f36:	2404      	moveq	r4, #4
 8000f38:	fa04 f40c 	lsl.w	r4, r4, ip
 8000f3c:	ea44 040e 	orr.w	r4, r4, lr
 8000f40:	60bc      	str	r4, [r7, #8]
 8000f42:	6894      	ldr	r4, [r2, #8]
 8000f44:	43f7      	mvns	r7, r6
 8000f46:	f415 1f80 	tst.w	r5, #1048576	@ 0x100000
 8000f4a:	bf0c      	ite	eq
 8000f4c:	403c      	andeq	r4, r7
 8000f4e:	4334      	orrne	r4, r6
 8000f50:	6094      	str	r4, [r2, #8]
 8000f52:	68d4      	ldr	r4, [r2, #12]
 8000f54:	f415 1f00 	tst.w	r5, #2097152	@ 0x200000
 8000f58:	bf0c      	ite	eq
 8000f5a:	403c      	andeq	r4, r7
 8000f5c:	4334      	orrne	r4, r6
 8000f5e:	60d4      	str	r4, [r2, #12]
 8000f60:	6854      	ldr	r4, [r2, #4]
 8000f62:	f415 3f00 	tst.w	r5, #131072	@ 0x20000
 8000f66:	bf0c      	ite	eq
 8000f68:	403c      	andeq	r4, r7
 8000f6a:	4334      	orrne	r4, r6
 8000f6c:	6054      	str	r4, [r2, #4]
 8000f6e:	6814      	ldr	r4, [r2, #0]
 8000f70:	03ed      	lsls	r5, r5, #15
 8000f72:	bf54      	ite	pl
 8000f74:	403c      	andpl	r4, r7
 8000f76:	4334      	orrmi	r4, r6
 8000f78:	6014      	str	r4, [r2, #0]
 8000f7a:	3301      	adds	r3, #1
 8000f7c:	2b10      	cmp	r3, #16
 8000f7e:	f47f af51 	bne.w	8000e24 <HAL_GPIO_Init+0xc>
 8000f82:	b003      	add	sp, #12
 8000f84:	e8bd 8ff0 	ldmia.w	sp!, {r4, r5, r6, r7, r8, r9, sl, fp, pc}
 8000f88:	2400      	movs	r4, #0
 8000f8a:	e7d5      	b.n	8000f38 <HAL_GPIO_Init+0x120>
 8000f8c:	2401      	movs	r4, #1
 8000f8e:	e7d3      	b.n	8000f38 <HAL_GPIO_Init+0x120>
 8000f90:	2402      	movs	r4, #2
 8000f92:	e7d1      	b.n	8000f38 <HAL_GPIO_Init+0x120>
 8000f94:	2403      	movs	r4, #3
 8000f96:	e7cf      	b.n	8000f38 <HAL_GPIO_Init+0x120>
 8000f98:	40013c00 	.word	0x40013c00
 8000f9c:	40020000 	.word	0x40020000
 8000fa0:	40023800 	.word	0x40023800

08000fa4 <HAL_GPIO_WritePin>:
 8000fa4:	b10a      	cbz	r2, 8000faa <HAL_GPIO_WritePin+0x6>
 8000fa6:	6181      	str	r1, [r0, #24]
 8000fa8:	4770      	bx	lr
 8000faa:	0409      	lsls	r1, r1, #16
 8000fac:	e7fb      	b.n	8000fa6 <HAL_GPIO_WritePin+0x2>
	...

08000fb0 <HAL_RCC_OscConfig>:
 8000fb0:	e92d 41f3 	stmdb	sp!, {r0, r1, r4, r5, r6, r7, r8, lr}
 8000fb4:	4604      	mov	r4, r0
 8000fb6:	b340      	cbz	r0, 800100a <HAL_RCC_OscConfig+0x5a>
 8000fb8:	6803      	ldr	r3, [r0, #0]
 8000fba:	07de      	lsls	r6, r3, #31
 8000fbc:	d410      	bmi.n	8000fe0 <HAL_RCC_OscConfig+0x30>
 8000fbe:	6823      	ldr	r3, [r4, #0]
 8000fc0:	079d      	lsls	r5, r3, #30
 8000fc2:	d45b      	bmi.n	800107c <HAL_RCC_OscConfig+0xcc>
 8000fc4:	6823      	ldr	r3, [r4, #0]
 8000fc6:	0719      	lsls	r1, r3, #28
 8000fc8:	f100 809d 	bmi.w	8001106 <HAL_RCC_OscConfig+0x156>
 8000fcc:	6823      	ldr	r3, [r4, #0]
 8000fce:	075a      	lsls	r2, r3, #29
 8000fd0:	f100 80bd 	bmi.w	800114e <HAL_RCC_OscConfig+0x19e>
 8000fd4:	69a3      	ldr	r3, [r4, #24]
 8000fd6:	2b00      	cmp	r3, #0
 8000fd8:	f040 8124 	bne.w	8001224 <HAL_RCC_OscConfig+0x274>
 8000fdc:	2000      	movs	r0, #0
 8000fde:	e02c      	b.n	800103a <HAL_RCC_OscConfig+0x8a>
 8000fe0:	4b8d      	ldr	r3, [pc, #564]	@ (8001218 <HAL_RCC_OscConfig+0x268>)
 8000fe2:	689a      	ldr	r2, [r3, #8]
 8000fe4:	f002 020c 	and.w	r2, r2, #12
 8000fe8:	2a04      	cmp	r2, #4
 8000fea:	d007      	beq.n	8000ffc <HAL_RCC_OscConfig+0x4c>
 8000fec:	689a      	ldr	r2, [r3, #8]
 8000fee:	f002 020c 	and.w	r2, r2, #12
 8000ff2:	2a08      	cmp	r2, #8
 8000ff4:	d10b      	bne.n	800100e <HAL_RCC_OscConfig+0x5e>
 8000ff6:	685b      	ldr	r3, [r3, #4]
 8000ff8:	0259      	lsls	r1, r3, #9
 8000ffa:	d508      	bpl.n	800100e <HAL_RCC_OscConfig+0x5e>
 8000ffc:	4b86      	ldr	r3, [pc, #536]	@ (8001218 <HAL_RCC_OscConfig+0x268>)
 8000ffe:	681b      	ldr	r3, [r3, #0]
 8001000:	039a      	lsls	r2, r3, #14
 8001002:	d5dc      	bpl.n	8000fbe <HAL_RCC_OscConfig+0xe>
 8001004:	6863      	ldr	r3, [r4, #4]
 8001006:	2b00      	cmp	r3, #0
 8001008:	d1d9      	bne.n	8000fbe <HAL_RCC_OscConfig+0xe>
 800100a:	2001      	movs	r0, #1
 800100c:	e015      	b.n	800103a <HAL_RCC_OscConfig+0x8a>
 800100e:	6863      	ldr	r3, [r4, #4]
 8001010:	4d81      	ldr	r5, [pc, #516]	@ (8001218 <HAL_RCC_OscConfig+0x268>)
 8001012:	f5b3 3f80 	cmp.w	r3, #65536	@ 0x10000
 8001016:	d113      	bne.n	8001040 <HAL_RCC_OscConfig+0x90>
 8001018:	682b      	ldr	r3, [r5, #0]
 800101a:	f443 3380 	orr.w	r3, r3, #65536	@ 0x10000
 800101e:	602b      	str	r3, [r5, #0]
 8001020:	f7ff fd5e 	bl	8000ae0 <HAL_GetTick>
 8001024:	4e7c      	ldr	r6, [pc, #496]	@ (8001218 <HAL_RCC_OscConfig+0x268>)
 8001026:	4605      	mov	r5, r0
 8001028:	6833      	ldr	r3, [r6, #0]
 800102a:	039b      	lsls	r3, r3, #14
 800102c:	d4c7      	bmi.n	8000fbe <HAL_RCC_OscConfig+0xe>
 800102e:	f7ff fd57 	bl	8000ae0 <HAL_GetTick>
 8001032:	1b40      	subs	r0, r0, r5
 8001034:	2864      	cmp	r0, #100	@ 0x64
 8001036:	d9f7      	bls.n	8001028 <HAL_RCC_OscConfig+0x78>
 8001038:	2003      	movs	r0, #3
 800103a:	b002      	add	sp, #8
 800103c:	e8bd 81f0 	ldmia.w	sp!, {r4, r5, r6, r7, r8, pc}
 8001040:	f5b3 2fa0 	cmp.w	r3, #327680	@ 0x50000
 8001044:	d104      	bne.n	8001050 <HAL_RCC_OscConfig+0xa0>
 8001046:	682b      	ldr	r3, [r5, #0]
 8001048:	f443 2380 	orr.w	r3, r3, #262144	@ 0x40000
 800104c:	602b      	str	r3, [r5, #0]
 800104e:	e7e3      	b.n	8001018 <HAL_RCC_OscConfig+0x68>
 8001050:	682a      	ldr	r2, [r5, #0]
 8001052:	f422 3280 	bic.w	r2, r2, #65536	@ 0x10000
 8001056:	602a      	str	r2, [r5, #0]
 8001058:	682a      	ldr	r2, [r5, #0]
 800105a:	f422 2280 	bic.w	r2, r2, #262144	@ 0x40000
 800105e:	602a      	str	r2, [r5, #0]
 8001060:	2b00      	cmp	r3, #0
 8001062:	d1dd      	bne.n	8001020 <HAL_RCC_OscConfig+0x70>
 8001064:	f7ff fd3c 	bl	8000ae0 <HAL_GetTick>
 8001068:	4606      	mov	r6, r0
 800106a:	682b      	ldr	r3, [r5, #0]
 800106c:	039f      	lsls	r7, r3, #14
 800106e:	d5a6      	bpl.n	8000fbe <HAL_RCC_OscConfig+0xe>
 8001070:	f7ff fd36 	bl	8000ae0 <HAL_GetTick>
 8001074:	1b80      	subs	r0, r0, r6
 8001076:	2864      	cmp	r0, #100	@ 0x64
 8001078:	d9f7      	bls.n	800106a <HAL_RCC_OscConfig+0xba>
 800107a:	e7dd      	b.n	8001038 <HAL_RCC_OscConfig+0x88>
 800107c:	4b66      	ldr	r3, [pc, #408]	@ (8001218 <HAL_RCC_OscConfig+0x268>)
 800107e:	689a      	ldr	r2, [r3, #8]
 8001080:	f012 0f0c 	tst.w	r2, #12
 8001084:	d007      	beq.n	8001096 <HAL_RCC_OscConfig+0xe6>
 8001086:	689a      	ldr	r2, [r3, #8]
 8001088:	f002 020c 	and.w	r2, r2, #12
 800108c:	2a08      	cmp	r2, #8
 800108e:	d111      	bne.n	80010b4 <HAL_RCC_OscConfig+0x104>
 8001090:	685b      	ldr	r3, [r3, #4]
 8001092:	025d      	lsls	r5, r3, #9
 8001094:	d40e      	bmi.n	80010b4 <HAL_RCC_OscConfig+0x104>
 8001096:	4a60      	ldr	r2, [pc, #384]	@ (8001218 <HAL_RCC_OscConfig+0x268>)
 8001098:	6813      	ldr	r3, [r2, #0]
 800109a:	0799      	lsls	r1, r3, #30
 800109c:	d502      	bpl.n	80010a4 <HAL_RCC_OscConfig+0xf4>
 800109e:	68e3      	ldr	r3, [r4, #12]
 80010a0:	2b01      	cmp	r3, #1
 80010a2:	d1b2      	bne.n	800100a <HAL_RCC_OscConfig+0x5a>
 80010a4:	6813      	ldr	r3, [r2, #0]
 80010a6:	6921      	ldr	r1, [r4, #16]
 80010a8:	f023 03f8 	bic.w	r3, r3, #248	@ 0xf8
 80010ac:	ea43 03c1 	orr.w	r3, r3, r1, lsl #3
 80010b0:	6013      	str	r3, [r2, #0]
 80010b2:	e787      	b.n	8000fc4 <HAL_RCC_OscConfig+0x14>
 80010b4:	68e2      	ldr	r2, [r4, #12]
 80010b6:	4b59      	ldr	r3, [pc, #356]	@ (800121c <HAL_RCC_OscConfig+0x26c>)
 80010b8:	b1b2      	cbz	r2, 80010e8 <HAL_RCC_OscConfig+0x138>
 80010ba:	2201      	movs	r2, #1
 80010bc:	601a      	str	r2, [r3, #0]
 80010be:	f7ff fd0f 	bl	8000ae0 <HAL_GetTick>
 80010c2:	4d55      	ldr	r5, [pc, #340]	@ (8001218 <HAL_RCC_OscConfig+0x268>)
 80010c4:	4606      	mov	r6, r0
 80010c6:	682b      	ldr	r3, [r5, #0]
 80010c8:	079b      	lsls	r3, r3, #30
 80010ca:	d507      	bpl.n	80010dc <HAL_RCC_OscConfig+0x12c>
 80010cc:	682b      	ldr	r3, [r5, #0]
 80010ce:	6922      	ldr	r2, [r4, #16]
 80010d0:	f023 03f8 	bic.w	r3, r3, #248	@ 0xf8
 80010d4:	ea43 03c2 	orr.w	r3, r3, r2, lsl #3
 80010d8:	602b      	str	r3, [r5, #0]
 80010da:	e773      	b.n	8000fc4 <HAL_RCC_OscConfig+0x14>
 80010dc:	f7ff fd00 	bl	8000ae0 <HAL_GetTick>
 80010e0:	1b80      	subs	r0, r0, r6
 80010e2:	2802      	cmp	r0, #2
 80010e4:	d9ef      	bls.n	80010c6 <HAL_RCC_OscConfig+0x116>
 80010e6:	e7a7      	b.n	8001038 <HAL_RCC_OscConfig+0x88>
 80010e8:	601a      	str	r2, [r3, #0]
 80010ea:	f7ff fcf9 	bl	8000ae0 <HAL_GetTick>
 80010ee:	4e4a      	ldr	r6, [pc, #296]	@ (8001218 <HAL_RCC_OscConfig+0x268>)
 80010f0:	4605      	mov	r5, r0
 80010f2:	6833      	ldr	r3, [r6, #0]
 80010f4:	079f      	lsls	r7, r3, #30
 80010f6:	f57f af65 	bpl.w	8000fc4 <HAL_RCC_OscConfig+0x14>
 80010fa:	f7ff fcf1 	bl	8000ae0 <HAL_GetTick>
 80010fe:	1b40      	subs	r0, r0, r5
 8001100:	2802      	cmp	r0, #2
 8001102:	d9f6      	bls.n	80010f2 <HAL_RCC_OscConfig+0x142>
 8001104:	e798      	b.n	8001038 <HAL_RCC_OscConfig+0x88>
 8001106:	6962      	ldr	r2, [r4, #20]
 8001108:	4b44      	ldr	r3, [pc, #272]	@ (800121c <HAL_RCC_OscConfig+0x26c>)
 800110a:	b182      	cbz	r2, 800112e <HAL_RCC_OscConfig+0x17e>
 800110c:	2201      	movs	r2, #1
 800110e:	f8c3 2e80 	str.w	r2, [r3, #3712]	@ 0xe80
 8001112:	f7ff fce5 	bl	8000ae0 <HAL_GetTick>
 8001116:	4e40      	ldr	r6, [pc, #256]	@ (8001218 <HAL_RCC_OscConfig+0x268>)
 8001118:	4605      	mov	r5, r0
 800111a:	6f73      	ldr	r3, [r6, #116]	@ 0x74
 800111c:	079b      	lsls	r3, r3, #30
 800111e:	f53f af55 	bmi.w	8000fcc <HAL_RCC_OscConfig+0x1c>
 8001122:	f7ff fcdd 	bl	8000ae0 <HAL_GetTick>
 8001126:	1b40      	subs	r0, r0, r5
 8001128:	2802      	cmp	r0, #2
 800112a:	d9f6      	bls.n	800111a <HAL_RCC_OscConfig+0x16a>
 800112c:	e784      	b.n	8001038 <HAL_RCC_OscConfig+0x88>
 800112e:	f8c3 2e80 	str.w	r2, [r3, #3712]	@ 0xe80
 8001132:	f7ff fcd5 	bl	8000ae0 <HAL_GetTick>
 8001136:	4e38      	ldr	r6, [pc, #224]	@ (8001218 <HAL_RCC_OscConfig+0x268>)
 8001138:	4605      	mov	r5, r0
 800113a:	6f73      	ldr	r3, [r6, #116]	@ 0x74
 800113c:	079f      	lsls	r7, r3, #30
 800113e:	f57f af45 	bpl.w	8000fcc <HAL_RCC_OscConfig+0x1c>
 8001142:	f7ff fccd 	bl	8000ae0 <HAL_GetTick>
 8001146:	1b40      	subs	r0, r0, r5
 8001148:	2802      	cmp	r0, #2
 800114a:	d9f6      	bls.n	800113a <HAL_RCC_OscConfig+0x18a>
 800114c:	e774      	b.n	8001038 <HAL_RCC_OscConfig+0x88>
 800114e:	4b32      	ldr	r3, [pc, #200]	@ (8001218 <HAL_RCC_OscConfig+0x268>)
 8001150:	6c1a      	ldr	r2, [r3, #64]	@ 0x40
 8001152:	f012 5280 	ands.w	r2, r2, #268435456	@ 0x10000000
 8001156:	d128      	bne.n	80011aa <HAL_RCC_OscConfig+0x1fa>
 8001158:	9201      	str	r2, [sp, #4]
 800115a:	6c1a      	ldr	r2, [r3, #64]	@ 0x40
 800115c:	f042 5280 	orr.w	r2, r2, #268435456	@ 0x10000000
 8001160:	641a      	str	r2, [r3, #64]	@ 0x40
 8001162:	6c1b      	ldr	r3, [r3, #64]	@ 0x40
 8001164:	f003 5380 	and.w	r3, r3, #268435456	@ 0x10000000
 8001168:	9301      	str	r3, [sp, #4]
 800116a:	9b01      	ldr	r3, [sp, #4]
 800116c:	2701      	movs	r7, #1
 800116e:	4d2c      	ldr	r5, [pc, #176]	@ (8001220 <HAL_RCC_OscConfig+0x270>)
 8001170:	682b      	ldr	r3, [r5, #0]
 8001172:	05d8      	lsls	r0, r3, #23
 8001174:	d51b      	bpl.n	80011ae <HAL_RCC_OscConfig+0x1fe>
 8001176:	68a3      	ldr	r3, [r4, #8]
 8001178:	4d27      	ldr	r5, [pc, #156]	@ (8001218 <HAL_RCC_OscConfig+0x268>)
 800117a:	2b01      	cmp	r3, #1
 800117c:	d127      	bne.n	80011ce <HAL_RCC_OscConfig+0x21e>
 800117e:	6f2b      	ldr	r3, [r5, #112]	@ 0x70
 8001180:	f043 0301 	orr.w	r3, r3, #1
 8001184:	672b      	str	r3, [r5, #112]	@ 0x70
 8001186:	f7ff fcab 	bl	8000ae0 <HAL_GetTick>
 800118a:	4e23      	ldr	r6, [pc, #140]	@ (8001218 <HAL_RCC_OscConfig+0x268>)
 800118c:	4605      	mov	r5, r0
 800118e:	f241 3888 	movw	r8, #5000	@ 0x1388
 8001192:	6f33      	ldr	r3, [r6, #112]	@ 0x70
 8001194:	079a      	lsls	r2, r3, #30
 8001196:	d539      	bpl.n	800120c <HAL_RCC_OscConfig+0x25c>
 8001198:	2f00      	cmp	r7, #0
 800119a:	f43f af1b 	beq.w	8000fd4 <HAL_RCC_OscConfig+0x24>
 800119e:	4a1e      	ldr	r2, [pc, #120]	@ (8001218 <HAL_RCC_OscConfig+0x268>)
 80011a0:	6c13      	ldr	r3, [r2, #64]	@ 0x40
 80011a2:	f023 5380 	bic.w	r3, r3, #268435456	@ 0x10000000
 80011a6:	6413      	str	r3, [r2, #64]	@ 0x40
 80011a8:	e714      	b.n	8000fd4 <HAL_RCC_OscConfig+0x24>
 80011aa:	2700      	movs	r7, #0
 80011ac:	e7df      	b.n	800116e <HAL_RCC_OscConfig+0x1be>
 80011ae:	682b      	ldr	r3, [r5, #0]
 80011b0:	f443 7380 	orr.w	r3, r3, #256	@ 0x100
 80011b4:	602b      	str	r3, [r5, #0]
 80011b6:	f7ff fc93 	bl	8000ae0 <HAL_GetTick>
 80011ba:	4606      	mov	r6, r0
 80011bc:	682b      	ldr	r3, [r5, #0]
 80011be:	05d9      	lsls	r1, r3, #23
 80011c0:	d4d9      	bmi.n	8001176 <HAL_RCC_OscConfig+0x1c6>
 80011c2:	f7ff fc8d 	bl	8000ae0 <HAL_GetTick>
 80011c6:	1b80      	subs	r0, r0, r6
 80011c8:	2802      	cmp	r0, #2
 80011ca:	d9f7      	bls.n	80011bc <HAL_RCC_OscConfig+0x20c>
 80011cc:	e734      	b.n	8001038 <HAL_RCC_OscConfig+0x88>
 80011ce:	2b05      	cmp	r3, #5
 80011d0:	d104      	bne.n	80011dc <HAL_RCC_OscConfig+0x22c>
 80011d2:	6f2b      	ldr	r3, [r5, #112]	@ 0x70
 80011d4:	f043 0304 	orr.w	r3, r3, #4
 80011d8:	672b      	str	r3, [r5, #112]	@ 0x70
 80011da:	e7d0      	b.n	800117e <HAL_RCC_OscConfig+0x1ce>
 80011dc:	6f2a      	ldr	r2, [r5, #112]	@ 0x70
 80011de:	f022 0201 	bic.w	r2, r2, #1
 80011e2:	672a      	str	r2, [r5, #112]	@ 0x70
 80011e4:	6f2a      	ldr	r2, [r5, #112]	@ 0x70
 80011e6:	f022 0204 	bic.w	r2, r2, #4
 80011ea:	672a      	str	r2, [r5, #112]	@ 0x70
 80011ec:	2b00      	cmp	r3, #0
 80011ee:	d1ca      	bne.n	8001186 <HAL_RCC_OscConfig+0x1d6>
 80011f0:	f7ff fc76 	bl	8000ae0 <HAL_GetTick>
 80011f4:	f241 3888 	movw	r8, #5000	@ 0x1388
 80011f8:	4606      	mov	r6, r0
 80011fa:	6f2b      	ldr	r3, [r5, #112]	@ 0x70
 80011fc:	079b      	lsls	r3, r3, #30
 80011fe:	d5cb      	bpl.n	8001198 <HAL_RCC_OscConfig+0x1e8>
 8001200:	f7ff fc6e 	bl	8000ae0 <HAL_GetTick>
 8001204:	1b80      	subs	r0, r0, r6
 8001206:	4540      	cmp	r0, r8
 8001208:	d9f7      	bls.n	80011fa <HAL_RCC_OscConfig+0x24a>
 800120a:	e715      	b.n	8001038 <HAL_RCC_OscConfig+0x88>
 800120c:	f7ff fc68 	bl	8000ae0 <HAL_GetTick>
 8001210:	1b40      	subs	r0, r0, r5
 8001212:	4540      	cmp	r0, r8
 8001214:	d9bd      	bls.n	8001192 <HAL_RCC_OscConfig+0x1e2>
 8001216:	e70f      	b.n	8001038 <HAL_RCC_OscConfig+0x88>
 8001218:	40023800 	.word	0x40023800
 800121c:	42470000 	.word	0x42470000
 8001220:	40007000 	.word	0x40007000
 8001224:	4d37      	ldr	r5, [pc, #220]	@ (8001304 <HAL_RCC_OscConfig+0x354>)
 8001226:	68aa      	ldr	r2, [r5, #8]
 8001228:	f002 020c 	and.w	r2, r2, #12
 800122c:	2a08      	cmp	r2, #8
 800122e:	d03e      	beq.n	80012ae <HAL_RCC_OscConfig+0x2fe>
 8001230:	2b02      	cmp	r3, #2
 8001232:	4b35      	ldr	r3, [pc, #212]	@ (8001308 <HAL_RCC_OscConfig+0x358>)
 8001234:	f04f 0200 	mov.w	r2, #0
 8001238:	661a      	str	r2, [r3, #96]	@ 0x60
 800123a:	d12b      	bne.n	8001294 <HAL_RCC_OscConfig+0x2e4>
 800123c:	f7ff fc50 	bl	8000ae0 <HAL_GetTick>
 8001240:	4606      	mov	r6, r0
 8001242:	682b      	ldr	r3, [r5, #0]
 8001244:	0199      	lsls	r1, r3, #6
 8001246:	d41f      	bmi.n	8001288 <HAL_RCC_OscConfig+0x2d8>
 8001248:	e9d4 3207 	ldrd	r3, r2, [r4, #28]
 800124c:	4313      	orrs	r3, r2
 800124e:	6a62      	ldr	r2, [r4, #36]	@ 0x24
 8001250:	ea43 1382 	orr.w	r3, r3, r2, lsl #6
 8001254:	6ae2      	ldr	r2, [r4, #44]	@ 0x2c
 8001256:	ea43 6302 	orr.w	r3, r3, r2, lsl #24
 800125a:	6aa2      	ldr	r2, [r4, #40]	@ 0x28
 800125c:	0852      	lsrs	r2, r2, #1
 800125e:	3a01      	subs	r2, #1
 8001260:	ea43 4302 	orr.w	r3, r3, r2, lsl #16
 8001264:	606b      	str	r3, [r5, #4]
 8001266:	4b28      	ldr	r3, [pc, #160]	@ (8001308 <HAL_RCC_OscConfig+0x358>)
 8001268:	4d26      	ldr	r5, [pc, #152]	@ (8001304 <HAL_RCC_OscConfig+0x354>)
 800126a:	2201      	movs	r2, #1
 800126c:	661a      	str	r2, [r3, #96]	@ 0x60
 800126e:	f7ff fc37 	bl	8000ae0 <HAL_GetTick>
 8001272:	4604      	mov	r4, r0
 8001274:	682b      	ldr	r3, [r5, #0]
 8001276:	019a      	lsls	r2, r3, #6
 8001278:	f53f aeb0 	bmi.w	8000fdc <HAL_RCC_OscConfig+0x2c>
 800127c:	f7ff fc30 	bl	8000ae0 <HAL_GetTick>
 8001280:	1b00      	subs	r0, r0, r4
 8001282:	2802      	cmp	r0, #2
 8001284:	d9f6      	bls.n	8001274 <HAL_RCC_OscConfig+0x2c4>
 8001286:	e6d7      	b.n	8001038 <HAL_RCC_OscConfig+0x88>
 8001288:	f7ff fc2a 	bl	8000ae0 <HAL_GetTick>
 800128c:	1b80      	subs	r0, r0, r6
 800128e:	2802      	cmp	r0, #2
 8001290:	d9d7      	bls.n	8001242 <HAL_RCC_OscConfig+0x292>
 8001292:	e6d1      	b.n	8001038 <HAL_RCC_OscConfig+0x88>
 8001294:	f7ff fc24 	bl	8000ae0 <HAL_GetTick>
 8001298:	4604      	mov	r4, r0
 800129a:	682b      	ldr	r3, [r5, #0]
 800129c:	019b      	lsls	r3, r3, #6
 800129e:	f57f ae9d 	bpl.w	8000fdc <HAL_RCC_OscConfig+0x2c>
 80012a2:	f7ff fc1d 	bl	8000ae0 <HAL_GetTick>
 80012a6:	1b00      	subs	r0, r0, r4
 80012a8:	2802      	cmp	r0, #2
 80012aa:	d9f6      	bls.n	800129a <HAL_RCC_OscConfig+0x2ea>
 80012ac:	e6c4      	b.n	8001038 <HAL_RCC_OscConfig+0x88>
 80012ae:	2b01      	cmp	r3, #1
 80012b0:	f43f aeab 	beq.w	800100a <HAL_RCC_OscConfig+0x5a>
 80012b4:	686b      	ldr	r3, [r5, #4]
 80012b6:	69e2      	ldr	r2, [r4, #28]
 80012b8:	f403 0180 	and.w	r1, r3, #4194304	@ 0x400000
 80012bc:	4291      	cmp	r1, r2
 80012be:	f47f aea4 	bne.w	800100a <HAL_RCC_OscConfig+0x5a>
 80012c2:	6a21      	ldr	r1, [r4, #32]
 80012c4:	f003 023f 	and.w	r2, r3, #63	@ 0x3f
 80012c8:	428a      	cmp	r2, r1
 80012ca:	f47f ae9e 	bne.w	800100a <HAL_RCC_OscConfig+0x5a>
 80012ce:	6a61      	ldr	r1, [r4, #36]	@ 0x24
 80012d0:	f647 72c0 	movw	r2, #32704	@ 0x7fc0
 80012d4:	401a      	ands	r2, r3
 80012d6:	ebb2 1f81 	cmp.w	r2, r1, lsl #6
 80012da:	f47f ae96 	bne.w	800100a <HAL_RCC_OscConfig+0x5a>
 80012de:	6aa2      	ldr	r2, [r4, #40]	@ 0x28
 80012e0:	0852      	lsrs	r2, r2, #1
 80012e2:	f403 3140 	and.w	r1, r3, #196608	@ 0x30000
 80012e6:	3a01      	subs	r2, #1
 80012e8:	ebb1 4f02 	cmp.w	r1, r2, lsl #16
 80012ec:	f47f ae8d 	bne.w	800100a <HAL_RCC_OscConfig+0x5a>
 80012f0:	6ae2      	ldr	r2, [r4, #44]	@ 0x2c
 80012f2:	f003 6370 	and.w	r3, r3, #251658240	@ 0xf000000
 80012f6:	ebb3 6f02 	cmp.w	r3, r2, lsl #24
 80012fa:	bf14      	ite	ne
 80012fc:	2001      	movne	r0, #1
 80012fe:	2000      	moveq	r0, #0
 8001300:	e69b      	b.n	800103a <HAL_RCC_OscConfig+0x8a>
 8001302:	bf00      	nop
 8001304:	40023800 	.word	0x40023800
 8001308:	42470000 	.word	0x42470000

0800130c <HAL_RCC_GetSysClockFreq>:
 800130c:	4913      	ldr	r1, [pc, #76]	@ (800135c <HAL_RCC_GetSysClockFreq+0x50>)
 800130e:	b508      	push	{r3, lr}
 8001310:	688b      	ldr	r3, [r1, #8]
 8001312:	f003 030c 	and.w	r3, r3, #12
 8001316:	2b04      	cmp	r3, #4
 8001318:	d01c      	beq.n	8001354 <HAL_RCC_GetSysClockFreq+0x48>
 800131a:	2b08      	cmp	r3, #8
 800131c:	d11c      	bne.n	8001358 <HAL_RCC_GetSysClockFreq+0x4c>
 800131e:	684a      	ldr	r2, [r1, #4]
 8001320:	684b      	ldr	r3, [r1, #4]
 8001322:	6849      	ldr	r1, [r1, #4]
 8001324:	f413 0380 	ands.w	r3, r3, #4194304	@ 0x400000
 8001328:	bf14      	ite	ne
 800132a:	480d      	ldrne	r0, [pc, #52]	@ (8001360 <HAL_RCC_GetSysClockFreq+0x54>)
 800132c:	480d      	ldreq	r0, [pc, #52]	@ (8001364 <HAL_RCC_GetSysClockFreq+0x58>)
 800132e:	f3c1 1188 	ubfx	r1, r1, #6, #9
 8001332:	bf18      	it	ne
 8001334:	2300      	movne	r3, #0
 8001336:	f002 023f 	and.w	r2, r2, #63	@ 0x3f
 800133a:	fba1 0100 	umull	r0, r1, r1, r0
 800133e:	f7fe ff9f 	bl	8000280 <__aeabi_uldivmod>
 8001342:	4b06      	ldr	r3, [pc, #24]	@ (800135c <HAL_RCC_GetSysClockFreq+0x50>)
 8001344:	685b      	ldr	r3, [r3, #4]
 8001346:	f3c3 4301 	ubfx	r3, r3, #16, #2
 800134a:	3301      	adds	r3, #1
 800134c:	005b      	lsls	r3, r3, #1
 800134e:	fbb0 f0f3 	udiv	r0, r0, r3
 8001352:	bd08      	pop	{r3, pc}
 8001354:	4802      	ldr	r0, [pc, #8]	@ (8001360 <HAL_RCC_GetSysClockFreq+0x54>)
 8001356:	e7fc      	b.n	8001352 <HAL_RCC_GetSysClockFreq+0x46>
 8001358:	4802      	ldr	r0, [pc, #8]	@ (8001364 <HAL_RCC_GetSysClockFreq+0x58>)
 800135a:	e7fa      	b.n	8001352 <HAL_RCC_GetSysClockFreq+0x46>
 800135c:	40023800 	.word	0x40023800
 8001360:	00b71b00 	.word	0x00b71b00
 8001364:	00f42400 	.word	0x00f42400

08001368 <HAL_RCC_ClockConfig>:
 8001368:	e92d 41f0 	stmdb	sp!, {r4, r5, r6, r7, r8, lr}
 800136c:	460d      	mov	r5, r1
 800136e:	4604      	mov	r4, r0
 8001370:	b910      	cbnz	r0, 8001378 <HAL_RCC_ClockConfig+0x10>
 8001372:	2001      	movs	r0, #1
 8001374:	e8bd 81f0 	ldmia.w	sp!, {r4, r5, r6, r7, r8, pc}
 8001378:	4b43      	ldr	r3, [pc, #268]	@ (8001488 <HAL_RCC_ClockConfig+0x120>)
 800137a:	681a      	ldr	r2, [r3, #0]
 800137c:	f002 0207 	and.w	r2, r2, #7
 8001380:	428a      	cmp	r2, r1
 8001382:	d328      	bcc.n	80013d6 <HAL_RCC_ClockConfig+0x6e>
 8001384:	6821      	ldr	r1, [r4, #0]
 8001386:	078f      	lsls	r7, r1, #30
 8001388:	d42d      	bmi.n	80013e6 <HAL_RCC_ClockConfig+0x7e>
 800138a:	07c8      	lsls	r0, r1, #31
 800138c:	d440      	bmi.n	8001410 <HAL_RCC_ClockConfig+0xa8>
 800138e:	4b3e      	ldr	r3, [pc, #248]	@ (8001488 <HAL_RCC_ClockConfig+0x120>)
 8001390:	681a      	ldr	r2, [r3, #0]
 8001392:	f002 0207 	and.w	r2, r2, #7
 8001396:	42aa      	cmp	r2, r5
 8001398:	d865      	bhi.n	8001466 <HAL_RCC_ClockConfig+0xfe>
 800139a:	6822      	ldr	r2, [r4, #0]
 800139c:	0751      	lsls	r1, r2, #29
 800139e:	d46b      	bmi.n	8001478 <HAL_RCC_ClockConfig+0x110>
 80013a0:	0713      	lsls	r3, r2, #28
 80013a2:	d507      	bpl.n	80013b4 <HAL_RCC_ClockConfig+0x4c>
 80013a4:	4a39      	ldr	r2, [pc, #228]	@ (800148c <HAL_RCC_ClockConfig+0x124>)
 80013a6:	6921      	ldr	r1, [r4, #16]
 80013a8:	6893      	ldr	r3, [r2, #8]
 80013aa:	f423 4360 	bic.w	r3, r3, #57344	@ 0xe000
 80013ae:	ea43 03c1 	orr.w	r3, r3, r1, lsl #3
 80013b2:	6093      	str	r3, [r2, #8]
 80013b4:	f7ff ffaa 	bl	800130c <HAL_RCC_GetSysClockFreq>
 80013b8:	4b34      	ldr	r3, [pc, #208]	@ (800148c <HAL_RCC_ClockConfig+0x124>)
 80013ba:	4a35      	ldr	r2, [pc, #212]	@ (8001490 <HAL_RCC_ClockConfig+0x128>)
 80013bc:	689b      	ldr	r3, [r3, #8]
 80013be:	f3c3 1303 	ubfx	r3, r3, #4, #4
 80013c2:	5cd3      	ldrb	r3, [r2, r3]
 80013c4:	40d8      	lsrs	r0, r3
 80013c6:	4b33      	ldr	r3, [pc, #204]	@ (8001494 <HAL_RCC_ClockConfig+0x12c>)
 80013c8:	6018      	str	r0, [r3, #0]
 80013ca:	4b33      	ldr	r3, [pc, #204]	@ (8001498 <HAL_RCC_ClockConfig+0x130>)
 80013cc:	6818      	ldr	r0, [r3, #0]
 80013ce:	f7ff fb3d 	bl	8000a4c <HAL_InitTick>
 80013d2:	2000      	movs	r0, #0
 80013d4:	e7ce      	b.n	8001374 <HAL_RCC_ClockConfig+0xc>
 80013d6:	b2ca      	uxtb	r2, r1
 80013d8:	701a      	strb	r2, [r3, #0]
 80013da:	681b      	ldr	r3, [r3, #0]
 80013dc:	f003 0307 	and.w	r3, r3, #7
 80013e0:	428b      	cmp	r3, r1
 80013e2:	d1c6      	bne.n	8001372 <HAL_RCC_ClockConfig+0xa>
 80013e4:	e7ce      	b.n	8001384 <HAL_RCC_ClockConfig+0x1c>
 80013e6:	4b29      	ldr	r3, [pc, #164]	@ (800148c <HAL_RCC_ClockConfig+0x124>)
 80013e8:	f011 0f04 	tst.w	r1, #4
 80013ec:	bf1e      	ittt	ne
 80013ee:	689a      	ldrne	r2, [r3, #8]
 80013f0:	f442 52e0 	orrne.w	r2, r2, #7168	@ 0x1c00
 80013f4:	609a      	strne	r2, [r3, #8]
 80013f6:	070e      	lsls	r6, r1, #28
 80013f8:	bf42      	ittt	mi
 80013fa:	689a      	ldrmi	r2, [r3, #8]
 80013fc:	f442 4260 	orrmi.w	r2, r2, #57344	@ 0xe000
 8001400:	609a      	strmi	r2, [r3, #8]
 8001402:	689a      	ldr	r2, [r3, #8]
 8001404:	68a0      	ldr	r0, [r4, #8]
 8001406:	f022 02f0 	bic.w	r2, r2, #240	@ 0xf0
 800140a:	4302      	orrs	r2, r0
 800140c:	609a      	str	r2, [r3, #8]
 800140e:	e7bc      	b.n	800138a <HAL_RCC_ClockConfig+0x22>
 8001410:	6862      	ldr	r2, [r4, #4]
 8001412:	4b1e      	ldr	r3, [pc, #120]	@ (800148c <HAL_RCC_ClockConfig+0x124>)
 8001414:	2a01      	cmp	r2, #1
 8001416:	d11c      	bne.n	8001452 <HAL_RCC_ClockConfig+0xea>
 8001418:	681b      	ldr	r3, [r3, #0]
 800141a:	f413 3f00 	tst.w	r3, #131072	@ 0x20000
 800141e:	d0a8      	beq.n	8001372 <HAL_RCC_ClockConfig+0xa>
 8001420:	4e1a      	ldr	r6, [pc, #104]	@ (800148c <HAL_RCC_ClockConfig+0x124>)
 8001422:	68b3      	ldr	r3, [r6, #8]
 8001424:	f023 0303 	bic.w	r3, r3, #3
 8001428:	4313      	orrs	r3, r2
 800142a:	60b3      	str	r3, [r6, #8]
 800142c:	f7ff fb58 	bl	8000ae0 <HAL_GetTick>
 8001430:	f241 3888 	movw	r8, #5000	@ 0x1388
 8001434:	4607      	mov	r7, r0
 8001436:	68b3      	ldr	r3, [r6, #8]
 8001438:	6862      	ldr	r2, [r4, #4]
 800143a:	f003 030c 	and.w	r3, r3, #12
 800143e:	ebb3 0f82 	cmp.w	r3, r2, lsl #2
 8001442:	d0a4      	beq.n	800138e <HAL_RCC_ClockConfig+0x26>
 8001444:	f7ff fb4c 	bl	8000ae0 <HAL_GetTick>
 8001448:	1bc0      	subs	r0, r0, r7
 800144a:	4540      	cmp	r0, r8
 800144c:	d9f3      	bls.n	8001436 <HAL_RCC_ClockConfig+0xce>
 800144e:	2003      	movs	r0, #3
 8001450:	e790      	b.n	8001374 <HAL_RCC_ClockConfig+0xc>
 8001452:	1e91      	subs	r1, r2, #2
 8001454:	2901      	cmp	r1, #1
 8001456:	681b      	ldr	r3, [r3, #0]
 8001458:	d802      	bhi.n	8001460 <HAL_RCC_ClockConfig+0xf8>
 800145a:	f013 7f00 	tst.w	r3, #33554432	@ 0x2000000
 800145e:	e7de      	b.n	800141e <HAL_RCC_ClockConfig+0xb6>
 8001460:	f013 0f02 	tst.w	r3, #2
 8001464:	e7db      	b.n	800141e <HAL_RCC_ClockConfig+0xb6>
 8001466:	b2ea      	uxtb	r2, r5
 8001468:	701a      	strb	r2, [r3, #0]
 800146a:	681b      	ldr	r3, [r3, #0]
 800146c:	f003 0307 	and.w	r3, r3, #7
 8001470:	42ab      	cmp	r3, r5
 8001472:	f47f af7e 	bne.w	8001372 <HAL_RCC_ClockConfig+0xa>
 8001476:	e790      	b.n	800139a <HAL_RCC_ClockConfig+0x32>
 8001478:	4904      	ldr	r1, [pc, #16]	@ (800148c <HAL_RCC_ClockConfig+0x124>)
 800147a:	68e0      	ldr	r0, [r4, #12]
 800147c:	688b      	ldr	r3, [r1, #8]
 800147e:	f423 53e0 	bic.w	r3, r3, #7168	@ 0x1c00
 8001482:	4303      	orrs	r3, r0
 8001484:	608b      	str	r3, [r1, #8]
 8001486:	e78b      	b.n	80013a0 <HAL_RCC_ClockConfig+0x38>
 8001488:	40023c00 	.word	0x40023c00
 800148c:	40023800 	.word	0x40023800
 8001490:	08002a2d 	.word	0x08002a2d
 8001494:	20000000 	.word	0x20000000
 8001498:	20000008 	.word	0x20000008

0800149c <HAL_RCC_GetPCLK1Freq>:
 800149c:	4b04      	ldr	r3, [pc, #16]	@ (80014b0 <HAL_RCC_GetPCLK1Freq+0x14>)
 800149e:	4a05      	ldr	r2, [pc, #20]	@ (80014b4 <HAL_RCC_GetPCLK1Freq+0x18>)
 80014a0:	689b      	ldr	r3, [r3, #8]
 80014a2:	f3c3 2382 	ubfx	r3, r3, #10, #3
 80014a6:	5cd3      	ldrb	r3, [r2, r3]
 80014a8:	4a03      	ldr	r2, [pc, #12]	@ (80014b8 <HAL_RCC_GetPCLK1Freq+0x1c>)
 80014aa:	6810      	ldr	r0, [r2, #0]
 80014ac:	40d8      	lsrs	r0, r3
 80014ae:	4770      	bx	lr
 80014b0:	40023800 	.word	0x40023800
 80014b4:	08002a25 	.word	0x08002a25
 80014b8:	20000000 	.word	0x20000000

080014bc <HAL_RCC_GetPCLK2Freq>:
 80014bc:	4b04      	ldr	r3, [pc, #16]	@ (80014d0 <HAL_RCC_GetPCLK2Freq+0x14>)
 80014be:	4a05      	ldr	r2, [pc, #20]	@ (80014d4 <HAL_RCC_GetPCLK2Freq+0x18>)
 80014c0:	689b      	ldr	r3, [r3, #8]
 80014c2:	f3c3 3342 	ubfx	r3, r3, #13, #3
 80014c6:	5cd3      	ldrb	r3, [r2, r3]
 80014c8:	4a03      	ldr	r2, [pc, #12]	@ (80014d8 <HAL_RCC_GetPCLK2Freq+0x1c>)
 80014ca:	6810      	ldr	r0, [r2, #0]
 80014cc:	40d8      	lsrs	r0, r3
 80014ce:	4770      	bx	lr
 80014d0:	40023800 	.word	0x40023800
 80014d4:	08002a25 	.word	0x08002a25
 80014d8:	20000000 	.word	0x20000000

080014dc <UART_EndRxTransfer>:
 80014dc:	6802      	ldr	r2, [r0, #0]
 80014de:	f102 030c 	add.w	r3, r2, #12
 80014e2:	e853 3f00 	ldrex	r3, [r3]
 80014e6:	f423 7390 	bic.w	r3, r3, #288	@ 0x120
 80014ea:	320c      	adds	r2, #12
 80014ec:	e842 3100 	strex	r1, r3, [r2]
 80014f0:	6802      	ldr	r2, [r0, #0]
 80014f2:	2900      	cmp	r1, #0
 80014f4:	d1f2      	bne.n	80014dc <UART_EndRxTransfer>
 80014f6:	f102 0314 	add.w	r3, r2, #20
 80014fa:	e853 3f00 	ldrex	r3, [r3]
 80014fe:	f023 0301 	bic.w	r3, r3, #1
 8001502:	f102 0c14 	add.w	ip, r2, #20
 8001506:	e84c 3100 	strex	r1, r3, [ip]
 800150a:	2900      	cmp	r1, #0
 800150c:	d1f3      	bne.n	80014f6 <UART_EndRxTransfer+0x1a>
 800150e:	6b03      	ldr	r3, [r0, #48]	@ 0x30
 8001510:	2b01      	cmp	r3, #1
 8001512:	d10b      	bne.n	800152c <UART_EndRxTransfer+0x50>
 8001514:	f102 030c 	add.w	r3, r2, #12
 8001518:	e853 3f00 	ldrex	r3, [r3]
 800151c:	f023 0310 	bic.w	r3, r3, #16
 8001520:	f102 0c0c 	add.w	ip, r2, #12
 8001524:	e84c 3100 	strex	r1, r3, [ip]
 8001528:	2900      	cmp	r1, #0
 800152a:	d1f3      	bne.n	8001514 <UART_EndRxTransfer+0x38>
 800152c:	2320      	movs	r3, #32
 800152e:	f880 3042 	strb.w	r3, [r0, #66]	@ 0x42
 8001532:	2300      	movs	r3, #0
 8001534:	6303      	str	r3, [r0, #48]	@ 0x30
 8001536:	4770      	bx	lr

08001538 <UART_SetConfig>:
 8001538:	6802      	ldr	r2, [r0, #0]
 800153a:	68c1      	ldr	r1, [r0, #12]
 800153c:	b538      	push	{r3, r4, r5, lr}
 800153e:	6913      	ldr	r3, [r2, #16]
 8001540:	f423 5340 	bic.w	r3, r3, #12288	@ 0x3000
 8001544:	430b      	orrs	r3, r1
 8001546:	6113      	str	r3, [r2, #16]
 8001548:	4605      	mov	r5, r0
 800154a:	6883      	ldr	r3, [r0, #8]
 800154c:	6900      	ldr	r0, [r0, #16]
 800154e:	68d1      	ldr	r1, [r2, #12]
 8001550:	4303      	orrs	r3, r0
 8001552:	6968      	ldr	r0, [r5, #20]
 8001554:	4303      	orrs	r3, r0
 8001556:	69e8      	ldr	r0, [r5, #28]
 8001558:	f421 4116 	bic.w	r1, r1, #38400	@ 0x9600
 800155c:	f021 010c 	bic.w	r1, r1, #12
 8001560:	4303      	orrs	r3, r0
 8001562:	430b      	orrs	r3, r1
 8001564:	60d3      	str	r3, [r2, #12]
 8001566:	6953      	ldr	r3, [r2, #20]
 8001568:	69a9      	ldr	r1, [r5, #24]
 800156a:	f423 7340 	bic.w	r3, r3, #768	@ 0x300
 800156e:	430b      	orrs	r3, r1
 8001570:	6153      	str	r3, [r2, #20]
 8001572:	4b1f      	ldr	r3, [pc, #124]	@ (80015f0 <UART_SetConfig+0xb8>)
 8001574:	429a      	cmp	r2, r3
 8001576:	d003      	beq.n	8001580 <UART_SetConfig+0x48>
 8001578:	f503 6380 	add.w	r3, r3, #1024	@ 0x400
 800157c:	429a      	cmp	r2, r3
 800157e:	d124      	bne.n	80015ca <UART_SetConfig+0x92>
 8001580:	f7ff ff9c 	bl	80014bc <HAL_RCC_GetPCLK2Freq>
 8001584:	69ea      	ldr	r2, [r5, #28]
 8001586:	2119      	movs	r1, #25
 8001588:	f5b2 4f00 	cmp.w	r2, #32768	@ 0x8000
 800158c:	e9d5 4300 	ldrd	r4, r3, [r5]
 8001590:	fba0 0101 	umull	r0, r1, r0, r1
 8001594:	d11c      	bne.n	80015d0 <UART_SetConfig+0x98>
 8001596:	18da      	adds	r2, r3, r3
 8001598:	f04f 0500 	mov.w	r5, #0
 800159c:	eb45 0305 	adc.w	r3, r5, r5
 80015a0:	f7fe fe6e 	bl	8000280 <__aeabi_uldivmod>
 80015a4:	2264      	movs	r2, #100	@ 0x64
 80015a6:	fbb0 f1f2 	udiv	r1, r0, r2
 80015aa:	fb02 0311 	mls	r3, r2, r1, r0
 80015ae:	00db      	lsls	r3, r3, #3
 80015b0:	3332      	adds	r3, #50	@ 0x32
 80015b2:	fbb3 f3f2 	udiv	r3, r3, r2
 80015b6:	f003 0207 	and.w	r2, r3, #7
 80015ba:	005b      	lsls	r3, r3, #1
 80015bc:	eb02 1201 	add.w	r2, r2, r1, lsl #4
 80015c0:	f403 73f8 	and.w	r3, r3, #496	@ 0x1f0
 80015c4:	4413      	add	r3, r2
 80015c6:	60a3      	str	r3, [r4, #8]
 80015c8:	bd38      	pop	{r3, r4, r5, pc}
 80015ca:	f7ff ff67 	bl	800149c <HAL_RCC_GetPCLK1Freq>
 80015ce:	e7d9      	b.n	8001584 <UART_SetConfig+0x4c>
 80015d0:	009a      	lsls	r2, r3, #2
 80015d2:	0f9b      	lsrs	r3, r3, #30
 80015d4:	f7fe fe54 	bl	8000280 <__aeabi_uldivmod>
 80015d8:	2264      	movs	r2, #100	@ 0x64
 80015da:	fbb0 f1f2 	udiv	r1, r0, r2
 80015de:	fb02 0311 	mls	r3, r2, r1, r0
 80015e2:	011b      	lsls	r3, r3, #4
 80015e4:	3332      	adds	r3, #50	@ 0x32
 80015e6:	fbb3 f3f2 	udiv	r3, r3, r2
 80015ea:	eb03 1301 	add.w	r3, r3, r1, lsl #4
 80015ee:	e7ea      	b.n	80015c6 <UART_SetConfig+0x8e>
 80015f0:	40011000 	.word	0x40011000

080015f4 <UART_WaitOnFlagUntilTimeout.constprop.0>:
 80015f4:	b5f7      	push	{r0, r1, r2, r4, r5, r6, r7, lr}
 80015f6:	4605      	mov	r5, r0
 80015f8:	460c      	mov	r4, r1
 80015fa:	4617      	mov	r7, r2
 80015fc:	461e      	mov	r6, r3
 80015fe:	682a      	ldr	r2, [r5, #0]
 8001600:	6813      	ldr	r3, [r2, #0]
 8001602:	ea34 0303 	bics.w	r3, r4, r3
 8001606:	d101      	bne.n	800160c <UART_WaitOnFlagUntilTimeout.constprop.0+0x18>
 8001608:	2000      	movs	r0, #0
 800160a:	e021      	b.n	8001650 <UART_WaitOnFlagUntilTimeout.constprop.0+0x5c>
 800160c:	1c70      	adds	r0, r6, #1
 800160e:	d0f7      	beq.n	8001600 <UART_WaitOnFlagUntilTimeout.constprop.0+0xc>
 8001610:	f7ff fa66 	bl	8000ae0 <HAL_GetTick>
 8001614:	1bc0      	subs	r0, r0, r7
 8001616:	4286      	cmp	r6, r0
 8001618:	d31c      	bcc.n	8001654 <UART_WaitOnFlagUntilTimeout.constprop.0+0x60>
 800161a:	b1de      	cbz	r6, 8001654 <UART_WaitOnFlagUntilTimeout.constprop.0+0x60>
 800161c:	682b      	ldr	r3, [r5, #0]
 800161e:	68da      	ldr	r2, [r3, #12]
 8001620:	0751      	lsls	r1, r2, #29
 8001622:	d5ec      	bpl.n	80015fe <UART_WaitOnFlagUntilTimeout.constprop.0+0xa>
 8001624:	2c80      	cmp	r4, #128	@ 0x80
 8001626:	d0ea      	beq.n	80015fe <UART_WaitOnFlagUntilTimeout.constprop.0+0xa>
 8001628:	2c40      	cmp	r4, #64	@ 0x40
 800162a:	d0e8      	beq.n	80015fe <UART_WaitOnFlagUntilTimeout.constprop.0+0xa>
 800162c:	681a      	ldr	r2, [r3, #0]
 800162e:	0712      	lsls	r2, r2, #28
 8001630:	d5e5      	bpl.n	80015fe <UART_WaitOnFlagUntilTimeout.constprop.0+0xa>
 8001632:	2400      	movs	r4, #0
 8001634:	9401      	str	r4, [sp, #4]
 8001636:	681a      	ldr	r2, [r3, #0]
 8001638:	9201      	str	r2, [sp, #4]
 800163a:	685b      	ldr	r3, [r3, #4]
 800163c:	9301      	str	r3, [sp, #4]
 800163e:	4628      	mov	r0, r5
 8001640:	9b01      	ldr	r3, [sp, #4]
 8001642:	f7ff ff4b 	bl	80014dc <UART_EndRxTransfer>
 8001646:	2308      	movs	r3, #8
 8001648:	646b      	str	r3, [r5, #68]	@ 0x44
 800164a:	f885 4040 	strb.w	r4, [r5, #64]	@ 0x40
 800164e:	2001      	movs	r0, #1
 8001650:	b003      	add	sp, #12
 8001652:	bdf0      	pop	{r4, r5, r6, r7, pc}
 8001654:	2003      	movs	r0, #3
 8001656:	e7fb      	b.n	8001650 <UART_WaitOnFlagUntilTimeout.constprop.0+0x5c>

08001658 <HAL_UART_Init>:
 8001658:	b510      	push	{r4, lr}
 800165a:	4604      	mov	r4, r0
 800165c:	b348      	cbz	r0, 80016b2 <HAL_UART_Init+0x5a>
 800165e:	f890 3041 	ldrb.w	r3, [r0, #65]	@ 0x41
 8001662:	f003 02ff 	and.w	r2, r3, #255	@ 0xff
 8001666:	b91b      	cbnz	r3, 8001670 <HAL_UART_Init+0x18>
 8001668:	f880 2040 	strb.w	r2, [r0, #64]	@ 0x40
 800166c:	f7ff f98e 	bl	800098c <HAL_UART_MspInit>
 8001670:	6822      	ldr	r2, [r4, #0]
 8001672:	2324      	movs	r3, #36	@ 0x24
 8001674:	f884 3041 	strb.w	r3, [r4, #65]	@ 0x41
 8001678:	68d3      	ldr	r3, [r2, #12]
 800167a:	f423 5300 	bic.w	r3, r3, #8192	@ 0x2000
 800167e:	60d3      	str	r3, [r2, #12]
 8001680:	4620      	mov	r0, r4
 8001682:	f7ff ff59 	bl	8001538 <UART_SetConfig>
 8001686:	6823      	ldr	r3, [r4, #0]
 8001688:	691a      	ldr	r2, [r3, #16]
 800168a:	f422 4290 	bic.w	r2, r2, #18432	@ 0x4800
 800168e:	611a      	str	r2, [r3, #16]
 8001690:	695a      	ldr	r2, [r3, #20]
 8001692:	f022 022a 	bic.w	r2, r2, #42	@ 0x2a
 8001696:	615a      	str	r2, [r3, #20]
 8001698:	68da      	ldr	r2, [r3, #12]
 800169a:	f442 5200 	orr.w	r2, r2, #8192	@ 0x2000
 800169e:	60da      	str	r2, [r3, #12]
 80016a0:	2000      	movs	r0, #0
 80016a2:	2320      	movs	r3, #32
 80016a4:	6460      	str	r0, [r4, #68]	@ 0x44
 80016a6:	f884 3041 	strb.w	r3, [r4, #65]	@ 0x41
 80016aa:	f884 3042 	strb.w	r3, [r4, #66]	@ 0x42
 80016ae:	6360      	str	r0, [r4, #52]	@ 0x34
 80016b0:	bd10      	pop	{r4, pc}
 80016b2:	2001      	movs	r0, #1
 80016b4:	e7fc      	b.n	80016b0 <HAL_UART_Init+0x58>

080016b6 <HAL_UART_Transmit>:
 80016b6:	e92d 43f8 	stmdb	sp!, {r3, r4, r5, r6, r7, r8, r9, lr}
 80016ba:	4698      	mov	r8, r3
 80016bc:	f890 3041 	ldrb.w	r3, [r0, #65]	@ 0x41
 80016c0:	2b20      	cmp	r3, #32
 80016c2:	4604      	mov	r4, r0
 80016c4:	460e      	mov	r6, r1
 80016c6:	4617      	mov	r7, r2
 80016c8:	d13f      	bne.n	800174a <HAL_UART_Transmit+0x94>
 80016ca:	2900      	cmp	r1, #0
 80016cc:	d03f      	beq.n	800174e <HAL_UART_Transmit+0x98>
 80016ce:	2a00      	cmp	r2, #0
 80016d0:	d03d      	beq.n	800174e <HAL_UART_Transmit+0x98>
 80016d2:	2321      	movs	r3, #33	@ 0x21
 80016d4:	2500      	movs	r5, #0
 80016d6:	6445      	str	r5, [r0, #68]	@ 0x44
 80016d8:	f880 3041 	strb.w	r3, [r0, #65]	@ 0x41
 80016dc:	f7ff fa00 	bl	8000ae0 <HAL_GetTick>
 80016e0:	68a3      	ldr	r3, [r4, #8]
 80016e2:	84a7      	strh	r7, [r4, #36]	@ 0x24
 80016e4:	f5b3 5f80 	cmp.w	r3, #4096	@ 0x1000
 80016e8:	4681      	mov	r9, r0
 80016ea:	84e7      	strh	r7, [r4, #38]	@ 0x26
 80016ec:	d103      	bne.n	80016f6 <HAL_UART_Transmit+0x40>
 80016ee:	6923      	ldr	r3, [r4, #16]
 80016f0:	b90b      	cbnz	r3, 80016f6 <HAL_UART_Transmit+0x40>
 80016f2:	4635      	mov	r5, r6
 80016f4:	461e      	mov	r6, r3
 80016f6:	8ce3      	ldrh	r3, [r4, #38]	@ 0x26
 80016f8:	b29b      	uxth	r3, r3
 80016fa:	b953      	cbnz	r3, 8001712 <HAL_UART_Transmit+0x5c>
 80016fc:	4643      	mov	r3, r8
 80016fe:	464a      	mov	r2, r9
 8001700:	2140      	movs	r1, #64	@ 0x40
 8001702:	4620      	mov	r0, r4
 8001704:	f7ff ff76 	bl	80015f4 <UART_WaitOnFlagUntilTimeout.constprop.0>
 8001708:	2320      	movs	r3, #32
 800170a:	b950      	cbnz	r0, 8001722 <HAL_UART_Transmit+0x6c>
 800170c:	f884 3041 	strb.w	r3, [r4, #65]	@ 0x41
 8001710:	e00a      	b.n	8001728 <HAL_UART_Transmit+0x72>
 8001712:	4643      	mov	r3, r8
 8001714:	464a      	mov	r2, r9
 8001716:	2180      	movs	r1, #128	@ 0x80
 8001718:	4620      	mov	r0, r4
 800171a:	f7ff ff6b 	bl	80015f4 <UART_WaitOnFlagUntilTimeout.constprop.0>
 800171e:	b128      	cbz	r0, 800172c <HAL_UART_Transmit+0x76>
 8001720:	2320      	movs	r3, #32
 8001722:	f884 3041 	strb.w	r3, [r4, #65]	@ 0x41
 8001726:	2003      	movs	r0, #3
 8001728:	e8bd 83f8 	ldmia.w	sp!, {r3, r4, r5, r6, r7, r8, r9, pc}
 800172c:	6822      	ldr	r2, [r4, #0]
 800172e:	b94e      	cbnz	r6, 8001744 <HAL_UART_Transmit+0x8e>
 8001730:	f835 3b02 	ldrh.w	r3, [r5], #2
 8001734:	f3c3 0308 	ubfx	r3, r3, #0, #9
 8001738:	6053      	str	r3, [r2, #4]
 800173a:	8ce1      	ldrh	r1, [r4, #38]	@ 0x26
 800173c:	3901      	subs	r1, #1
 800173e:	b289      	uxth	r1, r1
 8001740:	84e1      	strh	r1, [r4, #38]	@ 0x26
 8001742:	e7d8      	b.n	80016f6 <HAL_UART_Transmit+0x40>
 8001744:	f816 3b01 	ldrb.w	r3, [r6], #1
 8001748:	e7f6      	b.n	8001738 <HAL_UART_Transmit+0x82>
 800174a:	2002      	movs	r0, #2
 800174c:	e7ec      	b.n	8001728 <HAL_UART_Transmit+0x72>
 800174e:	2001      	movs	r0, #1
 8001750:	e7ea      	b.n	8001728 <HAL_UART_Transmit+0x72>
	...

08001754 <read_settings_boot_state>:
 8001754:	4b01      	ldr	r3, [pc, #4]	@ (800175c <read_settings_boot_state+0x8>)
 8001756:	7818      	ldrb	r0, [r3, #0]
 8001758:	b240      	sxtb	r0, r0
 800175a:	4770      	bx	lr
 800175c:	08004000 	.word	0x08004000

08001760 <write_settings_boot_state>:
 8001760:	b5f8      	push	{r3, r4, r5, r6, r7, lr}
 8001762:	4c15      	ldr	r4, [pc, #84]	@ (80017b8 <write_settings_boot_state+0x58>)
 8001764:	4607      	mov	r7, r0
 8001766:	6826      	ldr	r6, [r4, #0]
 8001768:	f7ff faae 	bl	8000cc8 <HAL_FLASH_Unlock>
 800176c:	4605      	mov	r5, r0
 800176e:	b128      	cbz	r0, 800177c <write_settings_boot_state+0x1c>
 8001770:	4812      	ldr	r0, [pc, #72]	@ (80017bc <write_settings_boot_state+0x5c>)
 8001772:	f000 f997 	bl	8001aa4 <puts>
 8001776:	f04f 30ff 	mov.w	r0, #4294967295
 800177a:	bdf8      	pop	{r3, r4, r5, r6, r7, pc}
 800177c:	2201      	movs	r2, #1
 800177e:	4621      	mov	r1, r4
 8001780:	480f      	ldr	r0, [pc, #60]	@ (80017c0 <write_settings_boot_state+0x60>)
 8001782:	f000 f927 	bl	80019d4 <iprintf>
 8001786:	2102      	movs	r1, #2
 8001788:	2001      	movs	r0, #1
 800178a:	f7ff fb27 	bl	8000ddc <FLASH_Erase_Sector>
 800178e:	4621      	mov	r1, r4
 8001790:	480c      	ldr	r0, [pc, #48]	@ (80017c4 <write_settings_boot_state+0x64>)
 8001792:	f000 f91f 	bl	80019d4 <iprintf>
 8001796:	f026 02ff 	bic.w	r2, r6, #255	@ 0xff
 800179a:	433a      	orrs	r2, r7
 800179c:	462b      	mov	r3, r5
 800179e:	4621      	mov	r1, r4
 80017a0:	2002      	movs	r0, #2
 80017a2:	f7ff fad5 	bl	8000d50 <HAL_FLASH_Program>
 80017a6:	b108      	cbz	r0, 80017ac <write_settings_boot_state+0x4c>
 80017a8:	4807      	ldr	r0, [pc, #28]	@ (80017c8 <write_settings_boot_state+0x68>)
 80017aa:	e7e2      	b.n	8001772 <write_settings_boot_state+0x12>
 80017ac:	f7ff fa9e 	bl	8000cec <HAL_FLASH_Lock>
 80017b0:	2800      	cmp	r0, #0
 80017b2:	d0e2      	beq.n	800177a <write_settings_boot_state+0x1a>
 80017b4:	4805      	ldr	r0, [pc, #20]	@ (80017cc <write_settings_boot_state+0x6c>)
 80017b6:	e7dc      	b.n	8001772 <write_settings_boot_state+0x12>
 80017b8:	08004000 	.word	0x08004000
 80017bc:	08002a3d 	.word	0x08002a3d
 80017c0:	08002a51 	.word	0x08002a51
 80017c4:	08002a84 	.word	0x08002a84
 80017c8:	08002aa9 	.word	0x08002aa9
 80017cc:	08002ac8 	.word	0x08002ac8

080017d0 <read_settings_boot_partition>:
 80017d0:	4b01      	ldr	r3, [pc, #4]	@ (80017d8 <read_settings_boot_partition+0x8>)
 80017d2:	7858      	ldrb	r0, [r3, #1]
 80017d4:	b240      	sxtb	r0, r0
 80017d6:	4770      	bx	lr
 80017d8:	08004000 	.word	0x08004000

080017dc <write_settings_boot_partition>:
 80017dc:	b5f8      	push	{r3, r4, r5, r6, r7, lr}
 80017de:	4c16      	ldr	r4, [pc, #88]	@ (8001838 <write_settings_boot_partition+0x5c>)
 80017e0:	4607      	mov	r7, r0
 80017e2:	6826      	ldr	r6, [r4, #0]
 80017e4:	f7ff fa70 	bl	8000cc8 <HAL_FLASH_Unlock>
 80017e8:	4605      	mov	r5, r0
 80017ea:	b128      	cbz	r0, 80017f8 <write_settings_boot_partition+0x1c>
 80017ec:	4813      	ldr	r0, [pc, #76]	@ (800183c <write_settings_boot_partition+0x60>)
 80017ee:	f000 f959 	bl	8001aa4 <puts>
 80017f2:	f04f 30ff 	mov.w	r0, #4294967295
 80017f6:	bdf8      	pop	{r3, r4, r5, r6, r7, pc}
 80017f8:	2201      	movs	r2, #1
 80017fa:	4621      	mov	r1, r4
 80017fc:	4810      	ldr	r0, [pc, #64]	@ (8001840 <write_settings_boot_partition+0x64>)
 80017fe:	f000 f8e9 	bl	80019d4 <iprintf>
 8001802:	2102      	movs	r1, #2
 8001804:	2001      	movs	r0, #1
 8001806:	f7ff fae9 	bl	8000ddc <FLASH_Erase_Sector>
 800180a:	4621      	mov	r1, r4
 800180c:	480d      	ldr	r0, [pc, #52]	@ (8001844 <write_settings_boot_partition+0x68>)
 800180e:	f000 f8e1 	bl	80019d4 <iprintf>
 8001812:	f426 427f 	bic.w	r2, r6, #65280	@ 0xff00
 8001816:	ea42 2207 	orr.w	r2, r2, r7, lsl #8
 800181a:	462b      	mov	r3, r5
 800181c:	4621      	mov	r1, r4
 800181e:	2002      	movs	r0, #2
 8001820:	f7ff fa96 	bl	8000d50 <HAL_FLASH_Program>
 8001824:	b108      	cbz	r0, 800182a <write_settings_boot_partition+0x4e>
 8001826:	4808      	ldr	r0, [pc, #32]	@ (8001848 <write_settings_boot_partition+0x6c>)
 8001828:	e7e1      	b.n	80017ee <write_settings_boot_partition+0x12>
 800182a:	f7ff fa5f 	bl	8000cec <HAL_FLASH_Lock>
 800182e:	2800      	cmp	r0, #0
 8001830:	d0e1      	beq.n	80017f6 <write_settings_boot_partition+0x1a>
 8001832:	4806      	ldr	r0, [pc, #24]	@ (800184c <write_settings_boot_partition+0x70>)
 8001834:	e7db      	b.n	80017ee <write_settings_boot_partition+0x12>
 8001836:	bf00      	nop
 8001838:	08004000 	.word	0x08004000
 800183c:	08002a3d 	.word	0x08002a3d
 8001840:	08002ae6 	.word	0x08002ae6
 8001844:	08002a84 	.word	0x08002a84
 8001848:	08002aa9 	.word	0x08002aa9
 800184c:	08002ac8 	.word	0x08002ac8

08001850 <std>:
 8001850:	2300      	movs	r3, #0
 8001852:	b510      	push	{r4, lr}
 8001854:	4604      	mov	r4, r0
 8001856:	e9c0 3300 	strd	r3, r3, [r0]
 800185a:	e9c0 3304 	strd	r3, r3, [r0, #16]
 800185e:	6083      	str	r3, [r0, #8]
 8001860:	8181      	strh	r1, [r0, #12]
 8001862:	6643      	str	r3, [r0, #100]	@ 0x64
 8001864:	81c2      	strh	r2, [r0, #14]
 8001866:	6183      	str	r3, [r0, #24]
 8001868:	4619      	mov	r1, r3
 800186a:	2208      	movs	r2, #8
 800186c:	305c      	adds	r0, #92	@ 0x5c
 800186e:	f000 f9f9 	bl	8001c64 <memset>
 8001872:	4b0d      	ldr	r3, [pc, #52]	@ (80018a8 <std+0x58>)
 8001874:	6263      	str	r3, [r4, #36]	@ 0x24
 8001876:	4b0d      	ldr	r3, [pc, #52]	@ (80018ac <std+0x5c>)
 8001878:	62a3      	str	r3, [r4, #40]	@ 0x28
 800187a:	4b0d      	ldr	r3, [pc, #52]	@ (80018b0 <std+0x60>)
 800187c:	62e3      	str	r3, [r4, #44]	@ 0x2c
 800187e:	4b0d      	ldr	r3, [pc, #52]	@ (80018b4 <std+0x64>)
 8001880:	6323      	str	r3, [r4, #48]	@ 0x30
 8001882:	4b0d      	ldr	r3, [pc, #52]	@ (80018b8 <std+0x68>)
 8001884:	6224      	str	r4, [r4, #32]
 8001886:	429c      	cmp	r4, r3
 8001888:	d006      	beq.n	8001898 <std+0x48>
 800188a:	f103 0268 	add.w	r2, r3, #104	@ 0x68
 800188e:	4294      	cmp	r4, r2
 8001890:	d002      	beq.n	8001898 <std+0x48>
 8001892:	33d0      	adds	r3, #208	@ 0xd0
 8001894:	429c      	cmp	r4, r3
 8001896:	d105      	bne.n	80018a4 <std+0x54>
 8001898:	f104 0058 	add.w	r0, r4, #88	@ 0x58
 800189c:	e8bd 4010 	ldmia.w	sp!, {r4, lr}
 80018a0:	f000 ba58 	b.w	8001d54 <__retarget_lock_init_recursive>
 80018a4:	bd10      	pop	{r4, pc}
 80018a6:	bf00      	nop
 80018a8:	08001ab5 	.word	0x08001ab5
 80018ac:	08001ad7 	.word	0x08001ad7
 80018b0:	08001b0f 	.word	0x08001b0f
 80018b4:	08001b33 	.word	0x08001b33
 80018b8:	200000fc 	.word	0x200000fc

080018bc <stdio_exit_handler>:
 80018bc:	4a02      	ldr	r2, [pc, #8]	@ (80018c8 <stdio_exit_handler+0xc>)
 80018be:	4903      	ldr	r1, [pc, #12]	@ (80018cc <stdio_exit_handler+0x10>)
 80018c0:	4803      	ldr	r0, [pc, #12]	@ (80018d0 <stdio_exit_handler+0x14>)
 80018c2:	f000 b869 	b.w	8001998 <_fwalk_sglue>
 80018c6:	bf00      	nop
 80018c8:	2000000c 	.word	0x2000000c
 80018cc:	080025f5 	.word	0x080025f5
 80018d0:	2000001c 	.word	0x2000001c

080018d4 <cleanup_stdio>:
 80018d4:	6841      	ldr	r1, [r0, #4]
 80018d6:	4b0c      	ldr	r3, [pc, #48]	@ (8001908 <cleanup_stdio+0x34>)
 80018d8:	4299      	cmp	r1, r3
 80018da:	b510      	push	{r4, lr}
 80018dc:	4604      	mov	r4, r0
 80018de:	d001      	beq.n	80018e4 <cleanup_stdio+0x10>
 80018e0:	f000 fe88 	bl	80025f4 <_fflush_r>
 80018e4:	68a1      	ldr	r1, [r4, #8]
 80018e6:	4b09      	ldr	r3, [pc, #36]	@ (800190c <cleanup_stdio+0x38>)
 80018e8:	4299      	cmp	r1, r3
 80018ea:	d002      	beq.n	80018f2 <cleanup_stdio+0x1e>
 80018ec:	4620      	mov	r0, r4
 80018ee:	f000 fe81 	bl	80025f4 <_fflush_r>
 80018f2:	68e1      	ldr	r1, [r4, #12]
 80018f4:	4b06      	ldr	r3, [pc, #24]	@ (8001910 <cleanup_stdio+0x3c>)
 80018f6:	4299      	cmp	r1, r3
 80018f8:	d004      	beq.n	8001904 <cleanup_stdio+0x30>
 80018fa:	4620      	mov	r0, r4
 80018fc:	e8bd 4010 	ldmia.w	sp!, {r4, lr}
 8001900:	f000 be78 	b.w	80025f4 <_fflush_r>
 8001904:	bd10      	pop	{r4, pc}
 8001906:	bf00      	nop
 8001908:	200000fc 	.word	0x200000fc
 800190c:	20000164 	.word	0x20000164
 8001910:	200001cc 	.word	0x200001cc

08001914 <global_stdio_init.part.0>:
 8001914:	b510      	push	{r4, lr}
 8001916:	4b0b      	ldr	r3, [pc, #44]	@ (8001944 <global_stdio_init.part.0+0x30>)
 8001918:	4c0b      	ldr	r4, [pc, #44]	@ (8001948 <global_stdio_init.part.0+0x34>)
 800191a:	4a0c      	ldr	r2, [pc, #48]	@ (800194c <global_stdio_init.part.0+0x38>)
 800191c:	601a      	str	r2, [r3, #0]
 800191e:	4620      	mov	r0, r4
 8001920:	2200      	movs	r2, #0
 8001922:	2104      	movs	r1, #4
 8001924:	f7ff ff94 	bl	8001850 <std>
 8001928:	f104 0068 	add.w	r0, r4, #104	@ 0x68
 800192c:	2201      	movs	r2, #1
 800192e:	2109      	movs	r1, #9
 8001930:	f7ff ff8e 	bl	8001850 <std>
 8001934:	f104 00d0 	add.w	r0, r4, #208	@ 0xd0
 8001938:	2202      	movs	r2, #2
 800193a:	e8bd 4010 	ldmia.w	sp!, {r4, lr}
 800193e:	2112      	movs	r1, #18
 8001940:	f7ff bf86 	b.w	8001850 <std>
 8001944:	20000234 	.word	0x20000234
 8001948:	200000fc 	.word	0x200000fc
 800194c:	080018bd 	.word	0x080018bd

08001950 <__sfp_lock_acquire>:
 8001950:	4801      	ldr	r0, [pc, #4]	@ (8001958 <__sfp_lock_acquire+0x8>)
 8001952:	f000 ba00 	b.w	8001d56 <__retarget_lock_acquire_recursive>
 8001956:	bf00      	nop
 8001958:	2000023d 	.word	0x2000023d

0800195c <__sfp_lock_release>:
 800195c:	4801      	ldr	r0, [pc, #4]	@ (8001964 <__sfp_lock_release+0x8>)
 800195e:	f000 b9fb 	b.w	8001d58 <__retarget_lock_release_recursive>
 8001962:	bf00      	nop
 8001964:	2000023d 	.word	0x2000023d

08001968 <__sinit>:
 8001968:	b510      	push	{r4, lr}
 800196a:	4604      	mov	r4, r0
 800196c:	f7ff fff0 	bl	8001950 <__sfp_lock_acquire>
 8001970:	6a23      	ldr	r3, [r4, #32]
 8001972:	b11b      	cbz	r3, 800197c <__sinit+0x14>
 8001974:	e8bd 4010 	ldmia.w	sp!, {r4, lr}
 8001978:	f7ff bff0 	b.w	800195c <__sfp_lock_release>
 800197c:	4b04      	ldr	r3, [pc, #16]	@ (8001990 <__sinit+0x28>)
 800197e:	6223      	str	r3, [r4, #32]
 8001980:	4b04      	ldr	r3, [pc, #16]	@ (8001994 <__sinit+0x2c>)
 8001982:	681b      	ldr	r3, [r3, #0]
 8001984:	2b00      	cmp	r3, #0
 8001986:	d1f5      	bne.n	8001974 <__sinit+0xc>
 8001988:	f7ff ffc4 	bl	8001914 <global_stdio_init.part.0>
 800198c:	e7f2      	b.n	8001974 <__sinit+0xc>
 800198e:	bf00      	nop
 8001990:	080018d5 	.word	0x080018d5
 8001994:	20000234 	.word	0x20000234

08001998 <_fwalk_sglue>:
 8001998:	e92d 43f8 	stmdb	sp!, {r3, r4, r5, r6, r7, r8, r9, lr}
 800199c:	4607      	mov	r7, r0
 800199e:	4688      	mov	r8, r1
 80019a0:	4614      	mov	r4, r2
 80019a2:	2600      	movs	r6, #0
 80019a4:	e9d4 9501 	ldrd	r9, r5, [r4, #4]
 80019a8:	f1b9 0901 	subs.w	r9, r9, #1
 80019ac:	d505      	bpl.n	80019ba <_fwalk_sglue+0x22>
 80019ae:	6824      	ldr	r4, [r4, #0]
 80019b0:	2c00      	cmp	r4, #0
 80019b2:	d1f7      	bne.n	80019a4 <_fwalk_sglue+0xc>
 80019b4:	4630      	mov	r0, r6
 80019b6:	e8bd 83f8 	ldmia.w	sp!, {r3, r4, r5, r6, r7, r8, r9, pc}
 80019ba:	89ab      	ldrh	r3, [r5, #12]
 80019bc:	2b01      	cmp	r3, #1
 80019be:	d907      	bls.n	80019d0 <_fwalk_sglue+0x38>
 80019c0:	f9b5 300e 	ldrsh.w	r3, [r5, #14]
 80019c4:	3301      	adds	r3, #1
 80019c6:	d003      	beq.n	80019d0 <_fwalk_sglue+0x38>
 80019c8:	4629      	mov	r1, r5
 80019ca:	4638      	mov	r0, r7
 80019cc:	47c0      	blx	r8
 80019ce:	4306      	orrs	r6, r0
 80019d0:	3568      	adds	r5, #104	@ 0x68
 80019d2:	e7e9      	b.n	80019a8 <_fwalk_sglue+0x10>

080019d4 <iprintf>:
 80019d4:	b40f      	push	{r0, r1, r2, r3}
 80019d6:	b507      	push	{r0, r1, r2, lr}
 80019d8:	4906      	ldr	r1, [pc, #24]	@ (80019f4 <iprintf+0x20>)
 80019da:	ab04      	add	r3, sp, #16
 80019dc:	6808      	ldr	r0, [r1, #0]
 80019de:	f853 2b04 	ldr.w	r2, [r3], #4
 80019e2:	6881      	ldr	r1, [r0, #8]
 80019e4:	9301      	str	r3, [sp, #4]
 80019e6:	f000 fadb 	bl	8001fa0 <_vfiprintf_r>
 80019ea:	b003      	add	sp, #12
 80019ec:	f85d eb04 	ldr.w	lr, [sp], #4
 80019f0:	b004      	add	sp, #16
 80019f2:	4770      	bx	lr
 80019f4:	20000018 	.word	0x20000018

080019f8 <_puts_r>:
 80019f8:	6a03      	ldr	r3, [r0, #32]
 80019fa:	b570      	push	{r4, r5, r6, lr}
 80019fc:	6884      	ldr	r4, [r0, #8]
 80019fe:	4605      	mov	r5, r0
 8001a00:	460e      	mov	r6, r1
 8001a02:	b90b      	cbnz	r3, 8001a08 <_puts_r+0x10>
 8001a04:	f7ff ffb0 	bl	8001968 <__sinit>
 8001a08:	6e63      	ldr	r3, [r4, #100]	@ 0x64
 8001a0a:	07db      	lsls	r3, r3, #31
 8001a0c:	d405      	bmi.n	8001a1a <_puts_r+0x22>
 8001a0e:	89a3      	ldrh	r3, [r4, #12]
 8001a10:	0598      	lsls	r0, r3, #22
 8001a12:	d402      	bmi.n	8001a1a <_puts_r+0x22>
 8001a14:	6da0      	ldr	r0, [r4, #88]	@ 0x58
 8001a16:	f000 f99e 	bl	8001d56 <__retarget_lock_acquire_recursive>
 8001a1a:	89a3      	ldrh	r3, [r4, #12]
 8001a1c:	0719      	lsls	r1, r3, #28
 8001a1e:	d502      	bpl.n	8001a26 <_puts_r+0x2e>
 8001a20:	6923      	ldr	r3, [r4, #16]
 8001a22:	2b00      	cmp	r3, #0
 8001a24:	d135      	bne.n	8001a92 <_puts_r+0x9a>
 8001a26:	4621      	mov	r1, r4
 8001a28:	4628      	mov	r0, r5
 8001a2a:	f000 f8c5 	bl	8001bb8 <__swsetup_r>
 8001a2e:	b380      	cbz	r0, 8001a92 <_puts_r+0x9a>
 8001a30:	f04f 35ff 	mov.w	r5, #4294967295
 8001a34:	6e63      	ldr	r3, [r4, #100]	@ 0x64
 8001a36:	07da      	lsls	r2, r3, #31
 8001a38:	d405      	bmi.n	8001a46 <_puts_r+0x4e>
 8001a3a:	89a3      	ldrh	r3, [r4, #12]
 8001a3c:	059b      	lsls	r3, r3, #22
 8001a3e:	d402      	bmi.n	8001a46 <_puts_r+0x4e>
 8001a40:	6da0      	ldr	r0, [r4, #88]	@ 0x58
 8001a42:	f000 f989 	bl	8001d58 <__retarget_lock_release_recursive>
 8001a46:	4628      	mov	r0, r5
 8001a48:	bd70      	pop	{r4, r5, r6, pc}
 8001a4a:	2b00      	cmp	r3, #0
 8001a4c:	da04      	bge.n	8001a58 <_puts_r+0x60>
 8001a4e:	69a2      	ldr	r2, [r4, #24]
 8001a50:	429a      	cmp	r2, r3
 8001a52:	dc17      	bgt.n	8001a84 <_puts_r+0x8c>
 8001a54:	290a      	cmp	r1, #10
 8001a56:	d015      	beq.n	8001a84 <_puts_r+0x8c>
 8001a58:	6823      	ldr	r3, [r4, #0]
 8001a5a:	1c5a      	adds	r2, r3, #1
 8001a5c:	6022      	str	r2, [r4, #0]
 8001a5e:	7019      	strb	r1, [r3, #0]
 8001a60:	68a3      	ldr	r3, [r4, #8]
 8001a62:	f816 1f01 	ldrb.w	r1, [r6, #1]!
 8001a66:	3b01      	subs	r3, #1
 8001a68:	60a3      	str	r3, [r4, #8]
 8001a6a:	2900      	cmp	r1, #0
 8001a6c:	d1ed      	bne.n	8001a4a <_puts_r+0x52>
 8001a6e:	2b00      	cmp	r3, #0
 8001a70:	da11      	bge.n	8001a96 <_puts_r+0x9e>
 8001a72:	4622      	mov	r2, r4
 8001a74:	210a      	movs	r1, #10
 8001a76:	4628      	mov	r0, r5
 8001a78:	f000 f85f 	bl	8001b3a <__swbuf_r>
 8001a7c:	3001      	adds	r0, #1
 8001a7e:	d0d7      	beq.n	8001a30 <_puts_r+0x38>
 8001a80:	250a      	movs	r5, #10
 8001a82:	e7d7      	b.n	8001a34 <_puts_r+0x3c>
 8001a84:	4622      	mov	r2, r4
 8001a86:	4628      	mov	r0, r5
 8001a88:	f000 f857 	bl	8001b3a <__swbuf_r>
 8001a8c:	3001      	adds	r0, #1
 8001a8e:	d1e7      	bne.n	8001a60 <_puts_r+0x68>
 8001a90:	e7ce      	b.n	8001a30 <_puts_r+0x38>
 8001a92:	3e01      	subs	r6, #1
 8001a94:	e7e4      	b.n	8001a60 <_puts_r+0x68>
 8001a96:	6823      	ldr	r3, [r4, #0]
 8001a98:	1c5a      	adds	r2, r3, #1
 8001a9a:	6022      	str	r2, [r4, #0]
 8001a9c:	220a      	movs	r2, #10
 8001a9e:	701a      	strb	r2, [r3, #0]
 8001aa0:	e7ee      	b.n	8001a80 <_puts_r+0x88>
	...

08001aa4 <puts>:
 8001aa4:	4b02      	ldr	r3, [pc, #8]	@ (8001ab0 <puts+0xc>)
 8001aa6:	4601      	mov	r1, r0
 8001aa8:	6818      	ldr	r0, [r3, #0]
 8001aaa:	f7ff bfa5 	b.w	80019f8 <_puts_r>
 8001aae:	bf00      	nop
 8001ab0:	20000018 	.word	0x20000018

08001ab4 <__sread>:
 8001ab4:	b510      	push	{r4, lr}
 8001ab6:	460c      	mov	r4, r1
 8001ab8:	f9b1 100e 	ldrsh.w	r1, [r1, #14]
 8001abc:	f000 f8fc 	bl	8001cb8 <_read_r>
 8001ac0:	2800      	cmp	r0, #0
 8001ac2:	bfab      	itete	ge
 8001ac4:	6d63      	ldrge	r3, [r4, #84]	@ 0x54
 8001ac6:	89a3      	ldrhlt	r3, [r4, #12]
 8001ac8:	181b      	addge	r3, r3, r0
 8001aca:	f423 5380 	biclt.w	r3, r3, #4096	@ 0x1000
 8001ace:	bfac      	ite	ge
 8001ad0:	6563      	strge	r3, [r4, #84]	@ 0x54
 8001ad2:	81a3      	strhlt	r3, [r4, #12]
 8001ad4:	bd10      	pop	{r4, pc}

08001ad6 <__swrite>:
 8001ad6:	e92d 41f0 	stmdb	sp!, {r4, r5, r6, r7, r8, lr}
 8001ada:	461f      	mov	r7, r3
 8001adc:	898b      	ldrh	r3, [r1, #12]
 8001ade:	05db      	lsls	r3, r3, #23
 8001ae0:	4605      	mov	r5, r0
 8001ae2:	460c      	mov	r4, r1
 8001ae4:	4616      	mov	r6, r2
 8001ae6:	d505      	bpl.n	8001af4 <__swrite+0x1e>
 8001ae8:	f9b1 100e 	ldrsh.w	r1, [r1, #14]
 8001aec:	2302      	movs	r3, #2
 8001aee:	2200      	movs	r2, #0
 8001af0:	f000 f8d0 	bl	8001c94 <_lseek_r>
 8001af4:	89a3      	ldrh	r3, [r4, #12]
 8001af6:	f9b4 100e 	ldrsh.w	r1, [r4, #14]
 8001afa:	f423 5380 	bic.w	r3, r3, #4096	@ 0x1000
 8001afe:	81a3      	strh	r3, [r4, #12]
 8001b00:	4632      	mov	r2, r6
 8001b02:	463b      	mov	r3, r7
 8001b04:	4628      	mov	r0, r5
 8001b06:	e8bd 41f0 	ldmia.w	sp!, {r4, r5, r6, r7, r8, lr}
 8001b0a:	f000 b8e7 	b.w	8001cdc <_write_r>

08001b0e <__sseek>:
 8001b0e:	b510      	push	{r4, lr}
 8001b10:	460c      	mov	r4, r1
 8001b12:	f9b1 100e 	ldrsh.w	r1, [r1, #14]
 8001b16:	f000 f8bd 	bl	8001c94 <_lseek_r>
 8001b1a:	1c43      	adds	r3, r0, #1
 8001b1c:	89a3      	ldrh	r3, [r4, #12]
 8001b1e:	bf15      	itete	ne
 8001b20:	6560      	strne	r0, [r4, #84]	@ 0x54
 8001b22:	f423 5380 	biceq.w	r3, r3, #4096	@ 0x1000
 8001b26:	f443 5380 	orrne.w	r3, r3, #4096	@ 0x1000
 8001b2a:	81a3      	strheq	r3, [r4, #12]
 8001b2c:	bf18      	it	ne
 8001b2e:	81a3      	strhne	r3, [r4, #12]
 8001b30:	bd10      	pop	{r4, pc}

08001b32 <__sclose>:
 8001b32:	f9b1 100e 	ldrsh.w	r1, [r1, #14]
 8001b36:	f000 b89d 	b.w	8001c74 <_close_r>

08001b3a <__swbuf_r>:
 8001b3a:	b5f8      	push	{r3, r4, r5, r6, r7, lr}
 8001b3c:	460e      	mov	r6, r1
 8001b3e:	4614      	mov	r4, r2
 8001b40:	4605      	mov	r5, r0
 8001b42:	b118      	cbz	r0, 8001b4c <__swbuf_r+0x12>
 8001b44:	6a03      	ldr	r3, [r0, #32]
 8001b46:	b90b      	cbnz	r3, 8001b4c <__swbuf_r+0x12>
 8001b48:	f7ff ff0e 	bl	8001968 <__sinit>
 8001b4c:	69a3      	ldr	r3, [r4, #24]
 8001b4e:	60a3      	str	r3, [r4, #8]
 8001b50:	89a3      	ldrh	r3, [r4, #12]
 8001b52:	071a      	lsls	r2, r3, #28
 8001b54:	d501      	bpl.n	8001b5a <__swbuf_r+0x20>
 8001b56:	6923      	ldr	r3, [r4, #16]
 8001b58:	b943      	cbnz	r3, 8001b6c <__swbuf_r+0x32>
 8001b5a:	4621      	mov	r1, r4
 8001b5c:	4628      	mov	r0, r5
 8001b5e:	f000 f82b 	bl	8001bb8 <__swsetup_r>
 8001b62:	b118      	cbz	r0, 8001b6c <__swbuf_r+0x32>
 8001b64:	f04f 37ff 	mov.w	r7, #4294967295
 8001b68:	4638      	mov	r0, r7
 8001b6a:	bdf8      	pop	{r3, r4, r5, r6, r7, pc}
 8001b6c:	6823      	ldr	r3, [r4, #0]
 8001b6e:	6922      	ldr	r2, [r4, #16]
 8001b70:	1a98      	subs	r0, r3, r2
 8001b72:	6963      	ldr	r3, [r4, #20]
 8001b74:	b2f6      	uxtb	r6, r6
 8001b76:	4283      	cmp	r3, r0
 8001b78:	4637      	mov	r7, r6
 8001b7a:	dc05      	bgt.n	8001b88 <__swbuf_r+0x4e>
 8001b7c:	4621      	mov	r1, r4
 8001b7e:	4628      	mov	r0, r5
 8001b80:	f000 fd38 	bl	80025f4 <_fflush_r>
 8001b84:	2800      	cmp	r0, #0
 8001b86:	d1ed      	bne.n	8001b64 <__swbuf_r+0x2a>
 8001b88:	68a3      	ldr	r3, [r4, #8]
 8001b8a:	3b01      	subs	r3, #1
 8001b8c:	60a3      	str	r3, [r4, #8]
 8001b8e:	6823      	ldr	r3, [r4, #0]
 8001b90:	1c5a      	adds	r2, r3, #1
 8001b92:	6022      	str	r2, [r4, #0]
 8001b94:	701e      	strb	r6, [r3, #0]
 8001b96:	6962      	ldr	r2, [r4, #20]
 8001b98:	1c43      	adds	r3, r0, #1
 8001b9a:	429a      	cmp	r2, r3
 8001b9c:	d004      	beq.n	8001ba8 <__swbuf_r+0x6e>
 8001b9e:	89a3      	ldrh	r3, [r4, #12]
 8001ba0:	07db      	lsls	r3, r3, #31
 8001ba2:	d5e1      	bpl.n	8001b68 <__swbuf_r+0x2e>
 8001ba4:	2e0a      	cmp	r6, #10
 8001ba6:	d1df      	bne.n	8001b68 <__swbuf_r+0x2e>
 8001ba8:	4621      	mov	r1, r4
 8001baa:	4628      	mov	r0, r5
 8001bac:	f000 fd22 	bl	80025f4 <_fflush_r>
 8001bb0:	2800      	cmp	r0, #0
 8001bb2:	d0d9      	beq.n	8001b68 <__swbuf_r+0x2e>
 8001bb4:	e7d6      	b.n	8001b64 <__swbuf_r+0x2a>
	...

08001bb8 <__swsetup_r>:
 8001bb8:	b538      	push	{r3, r4, r5, lr}
 8001bba:	4b29      	ldr	r3, [pc, #164]	@ (8001c60 <__swsetup_r+0xa8>)
 8001bbc:	4605      	mov	r5, r0
 8001bbe:	6818      	ldr	r0, [r3, #0]
 8001bc0:	460c      	mov	r4, r1
 8001bc2:	b118      	cbz	r0, 8001bcc <__swsetup_r+0x14>
 8001bc4:	6a03      	ldr	r3, [r0, #32]
 8001bc6:	b90b      	cbnz	r3, 8001bcc <__swsetup_r+0x14>
 8001bc8:	f7ff fece 	bl	8001968 <__sinit>
 8001bcc:	f9b4 300c 	ldrsh.w	r3, [r4, #12]
 8001bd0:	0719      	lsls	r1, r3, #28
 8001bd2:	d422      	bmi.n	8001c1a <__swsetup_r+0x62>
 8001bd4:	06da      	lsls	r2, r3, #27
 8001bd6:	d407      	bmi.n	8001be8 <__swsetup_r+0x30>
 8001bd8:	2209      	movs	r2, #9
 8001bda:	602a      	str	r2, [r5, #0]
 8001bdc:	f043 0340 	orr.w	r3, r3, #64	@ 0x40
 8001be0:	81a3      	strh	r3, [r4, #12]
 8001be2:	f04f 30ff 	mov.w	r0, #4294967295
 8001be6:	e033      	b.n	8001c50 <__swsetup_r+0x98>
 8001be8:	0758      	lsls	r0, r3, #29
 8001bea:	d512      	bpl.n	8001c12 <__swsetup_r+0x5a>
 8001bec:	6b61      	ldr	r1, [r4, #52]	@ 0x34
 8001bee:	b141      	cbz	r1, 8001c02 <__swsetup_r+0x4a>
 8001bf0:	f104 0344 	add.w	r3, r4, #68	@ 0x44
 8001bf4:	4299      	cmp	r1, r3
 8001bf6:	d002      	beq.n	8001bfe <__swsetup_r+0x46>
 8001bf8:	4628      	mov	r0, r5
 8001bfa:	f000 f8af 	bl	8001d5c <_free_r>
 8001bfe:	2300      	movs	r3, #0
 8001c00:	6363      	str	r3, [r4, #52]	@ 0x34
 8001c02:	89a3      	ldrh	r3, [r4, #12]
 8001c04:	f023 0324 	bic.w	r3, r3, #36	@ 0x24
 8001c08:	81a3      	strh	r3, [r4, #12]
 8001c0a:	2300      	movs	r3, #0
 8001c0c:	6063      	str	r3, [r4, #4]
 8001c0e:	6923      	ldr	r3, [r4, #16]
 8001c10:	6023      	str	r3, [r4, #0]
 8001c12:	89a3      	ldrh	r3, [r4, #12]
 8001c14:	f043 0308 	orr.w	r3, r3, #8
 8001c18:	81a3      	strh	r3, [r4, #12]
 8001c1a:	6923      	ldr	r3, [r4, #16]
 8001c1c:	b94b      	cbnz	r3, 8001c32 <__swsetup_r+0x7a>
 8001c1e:	89a3      	ldrh	r3, [r4, #12]
 8001c20:	f403 7320 	and.w	r3, r3, #640	@ 0x280
 8001c24:	f5b3 7f00 	cmp.w	r3, #512	@ 0x200
 8001c28:	d003      	beq.n	8001c32 <__swsetup_r+0x7a>
 8001c2a:	4621      	mov	r1, r4
 8001c2c:	4628      	mov	r0, r5
 8001c2e:	f000 fd2f 	bl	8002690 <__smakebuf_r>
 8001c32:	f9b4 300c 	ldrsh.w	r3, [r4, #12]
 8001c36:	f013 0201 	ands.w	r2, r3, #1
 8001c3a:	d00a      	beq.n	8001c52 <__swsetup_r+0x9a>
 8001c3c:	2200      	movs	r2, #0
 8001c3e:	60a2      	str	r2, [r4, #8]
 8001c40:	6962      	ldr	r2, [r4, #20]
 8001c42:	4252      	negs	r2, r2
 8001c44:	61a2      	str	r2, [r4, #24]
 8001c46:	6922      	ldr	r2, [r4, #16]
 8001c48:	b942      	cbnz	r2, 8001c5c <__swsetup_r+0xa4>
 8001c4a:	f013 0080 	ands.w	r0, r3, #128	@ 0x80
 8001c4e:	d1c5      	bne.n	8001bdc <__swsetup_r+0x24>
 8001c50:	bd38      	pop	{r3, r4, r5, pc}
 8001c52:	0799      	lsls	r1, r3, #30
 8001c54:	bf58      	it	pl
 8001c56:	6962      	ldrpl	r2, [r4, #20]
 8001c58:	60a2      	str	r2, [r4, #8]
 8001c5a:	e7f4      	b.n	8001c46 <__swsetup_r+0x8e>
 8001c5c:	2000      	movs	r0, #0
 8001c5e:	e7f7      	b.n	8001c50 <__swsetup_r+0x98>
 8001c60:	20000018 	.word	0x20000018

08001c64 <memset>:
 8001c64:	4402      	add	r2, r0
 8001c66:	4603      	mov	r3, r0
 8001c68:	4293      	cmp	r3, r2
 8001c6a:	d100      	bne.n	8001c6e <memset+0xa>
 8001c6c:	4770      	bx	lr
 8001c6e:	f803 1b01 	strb.w	r1, [r3], #1
 8001c72:	e7f9      	b.n	8001c68 <memset+0x4>

08001c74 <_close_r>:
 8001c74:	b538      	push	{r3, r4, r5, lr}
 8001c76:	4d06      	ldr	r5, [pc, #24]	@ (8001c90 <_close_r+0x1c>)
 8001c78:	2300      	movs	r3, #0
 8001c7a:	4604      	mov	r4, r0
 8001c7c:	4608      	mov	r0, r1
 8001c7e:	602b      	str	r3, [r5, #0]
 8001c80:	f7fe fe31 	bl	80008e6 <_close>
 8001c84:	1c43      	adds	r3, r0, #1
 8001c86:	d102      	bne.n	8001c8e <_close_r+0x1a>
 8001c88:	682b      	ldr	r3, [r5, #0]
 8001c8a:	b103      	cbz	r3, 8001c8e <_close_r+0x1a>
 8001c8c:	6023      	str	r3, [r4, #0]
 8001c8e:	bd38      	pop	{r3, r4, r5, pc}
 8001c90:	20000238 	.word	0x20000238

08001c94 <_lseek_r>:
 8001c94:	b538      	push	{r3, r4, r5, lr}
 8001c96:	4d07      	ldr	r5, [pc, #28]	@ (8001cb4 <_lseek_r+0x20>)
 8001c98:	4604      	mov	r4, r0
 8001c9a:	4608      	mov	r0, r1
 8001c9c:	4611      	mov	r1, r2
 8001c9e:	2200      	movs	r2, #0
 8001ca0:	602a      	str	r2, [r5, #0]
 8001ca2:	461a      	mov	r2, r3
 8001ca4:	f7fe fe29 	bl	80008fa <_lseek>
 8001ca8:	1c43      	adds	r3, r0, #1
 8001caa:	d102      	bne.n	8001cb2 <_lseek_r+0x1e>
 8001cac:	682b      	ldr	r3, [r5, #0]
 8001cae:	b103      	cbz	r3, 8001cb2 <_lseek_r+0x1e>
 8001cb0:	6023      	str	r3, [r4, #0]
 8001cb2:	bd38      	pop	{r3, r4, r5, pc}
 8001cb4:	20000238 	.word	0x20000238

08001cb8 <_read_r>:
 8001cb8:	b538      	push	{r3, r4, r5, lr}
 8001cba:	4d07      	ldr	r5, [pc, #28]	@ (8001cd8 <_read_r+0x20>)
 8001cbc:	4604      	mov	r4, r0
 8001cbe:	4608      	mov	r0, r1
 8001cc0:	4611      	mov	r1, r2
 8001cc2:	2200      	movs	r2, #0
 8001cc4:	602a      	str	r2, [r5, #0]
 8001cc6:	461a      	mov	r2, r3
 8001cc8:	f7fe fdf1 	bl	80008ae <_read>
 8001ccc:	1c43      	adds	r3, r0, #1
 8001cce:	d102      	bne.n	8001cd6 <_read_r+0x1e>
 8001cd0:	682b      	ldr	r3, [r5, #0]
 8001cd2:	b103      	cbz	r3, 8001cd6 <_read_r+0x1e>
 8001cd4:	6023      	str	r3, [r4, #0]
 8001cd6:	bd38      	pop	{r3, r4, r5, pc}
 8001cd8:	20000238 	.word	0x20000238

08001cdc <_write_r>:
 8001cdc:	b538      	push	{r3, r4, r5, lr}
 8001cde:	4d07      	ldr	r5, [pc, #28]	@ (8001cfc <_write_r+0x20>)
 8001ce0:	4604      	mov	r4, r0
 8001ce2:	4608      	mov	r0, r1
 8001ce4:	4611      	mov	r1, r2
 8001ce6:	2200      	movs	r2, #0
 8001ce8:	602a      	str	r2, [r5, #0]
 8001cea:	461a      	mov	r2, r3
 8001cec:	f7fe fded 	bl	80008ca <_write>
 8001cf0:	1c43      	adds	r3, r0, #1
 8001cf2:	d102      	bne.n	8001cfa <_write_r+0x1e>
 8001cf4:	682b      	ldr	r3, [r5, #0]
 8001cf6:	b103      	cbz	r3, 8001cfa <_write_r+0x1e>
 8001cf8:	6023      	str	r3, [r4, #0]
 8001cfa:	bd38      	pop	{r3, r4, r5, pc}
 8001cfc:	20000238 	.word	0x20000238

08001d00 <__errno>:
 8001d00:	4b01      	ldr	r3, [pc, #4]	@ (8001d08 <__errno+0x8>)
 8001d02:	6818      	ldr	r0, [r3, #0]
 8001d04:	4770      	bx	lr
 8001d06:	bf00      	nop
 8001d08:	20000018 	.word	0x20000018

08001d0c <__libc_init_array>:
 8001d0c:	b570      	push	{r4, r5, r6, lr}
 8001d0e:	4d0d      	ldr	r5, [pc, #52]	@ (8001d44 <__libc_init_array+0x38>)
 8001d10:	4c0d      	ldr	r4, [pc, #52]	@ (8001d48 <__libc_init_array+0x3c>)
 8001d12:	1b64      	subs	r4, r4, r5
 8001d14:	10a4      	asrs	r4, r4, #2
 8001d16:	2600      	movs	r6, #0
 8001d18:	42a6      	cmp	r6, r4
 8001d1a:	d109      	bne.n	8001d30 <__libc_init_array+0x24>
 8001d1c:	4d0b      	ldr	r5, [pc, #44]	@ (8001d4c <__libc_init_array+0x40>)
 8001d1e:	4c0c      	ldr	r4, [pc, #48]	@ (8001d50 <__libc_init_array+0x44>)
 8001d20:	f000 fd24 	bl	800276c <_init>
 8001d24:	1b64      	subs	r4, r4, r5
 8001d26:	10a4      	asrs	r4, r4, #2
 8001d28:	2600      	movs	r6, #0
 8001d2a:	42a6      	cmp	r6, r4
 8001d2c:	d105      	bne.n	8001d3a <__libc_init_array+0x2e>
 8001d2e:	bd70      	pop	{r4, r5, r6, pc}
 8001d30:	f855 3b04 	ldr.w	r3, [r5], #4
 8001d34:	4798      	blx	r3
 8001d36:	3601      	adds	r6, #1
 8001d38:	e7ee      	b.n	8001d18 <__libc_init_array+0xc>
 8001d3a:	f855 3b04 	ldr.w	r3, [r5], #4
 8001d3e:	4798      	blx	r3
 8001d40:	3601      	adds	r6, #1
 8001d42:	e7f2      	b.n	8001d2a <__libc_init_array+0x1e>
 8001d44:	08002b54 	.word	0x08002b54
 8001d48:	08002b54 	.word	0x08002b54
 8001d4c:	08002b54 	.word	0x08002b54
 8001d50:	08002b58 	.word	0x08002b58

08001d54 <__retarget_lock_init_recursive>:
 8001d54:	4770      	bx	lr

08001d56 <__retarget_lock_acquire_recursive>:
 8001d56:	4770      	bx	lr

08001d58 <__retarget_lock_release_recursive>:
 8001d58:	4770      	bx	lr
	...

08001d5c <_free_r>:
 8001d5c:	b538      	push	{r3, r4, r5, lr}
 8001d5e:	4605      	mov	r5, r0
 8001d60:	2900      	cmp	r1, #0
 8001d62:	d041      	beq.n	8001de8 <_free_r+0x8c>
 8001d64:	f851 3c04 	ldr.w	r3, [r1, #-4]
 8001d68:	1f0c      	subs	r4, r1, #4
 8001d6a:	2b00      	cmp	r3, #0
 8001d6c:	bfb8      	it	lt
 8001d6e:	18e4      	addlt	r4, r4, r3
 8001d70:	f000 f8e0 	bl	8001f34 <__malloc_lock>
 8001d74:	4a1d      	ldr	r2, [pc, #116]	@ (8001dec <_free_r+0x90>)
 8001d76:	6813      	ldr	r3, [r2, #0]
 8001d78:	b933      	cbnz	r3, 8001d88 <_free_r+0x2c>
 8001d7a:	6063      	str	r3, [r4, #4]
 8001d7c:	6014      	str	r4, [r2, #0]
 8001d7e:	4628      	mov	r0, r5
 8001d80:	e8bd 4038 	ldmia.w	sp!, {r3, r4, r5, lr}
 8001d84:	f000 b8dc 	b.w	8001f40 <__malloc_unlock>
 8001d88:	42a3      	cmp	r3, r4
 8001d8a:	d908      	bls.n	8001d9e <_free_r+0x42>
 8001d8c:	6820      	ldr	r0, [r4, #0]
 8001d8e:	1821      	adds	r1, r4, r0
 8001d90:	428b      	cmp	r3, r1
 8001d92:	bf01      	itttt	eq
 8001d94:	6819      	ldreq	r1, [r3, #0]
 8001d96:	685b      	ldreq	r3, [r3, #4]
 8001d98:	1809      	addeq	r1, r1, r0
 8001d9a:	6021      	streq	r1, [r4, #0]
 8001d9c:	e7ed      	b.n	8001d7a <_free_r+0x1e>
 8001d9e:	461a      	mov	r2, r3
 8001da0:	685b      	ldr	r3, [r3, #4]
 8001da2:	b10b      	cbz	r3, 8001da8 <_free_r+0x4c>
 8001da4:	42a3      	cmp	r3, r4
 8001da6:	d9fa      	bls.n	8001d9e <_free_r+0x42>
 8001da8:	6811      	ldr	r1, [r2, #0]
 8001daa:	1850      	adds	r0, r2, r1
 8001dac:	42a0      	cmp	r0, r4
 8001dae:	d10b      	bne.n	8001dc8 <_free_r+0x6c>
 8001db0:	6820      	ldr	r0, [r4, #0]
 8001db2:	4401      	add	r1, r0
 8001db4:	1850      	adds	r0, r2, r1
 8001db6:	4283      	cmp	r3, r0
 8001db8:	6011      	str	r1, [r2, #0]
 8001dba:	d1e0      	bne.n	8001d7e <_free_r+0x22>
 8001dbc:	6818      	ldr	r0, [r3, #0]
 8001dbe:	685b      	ldr	r3, [r3, #4]
 8001dc0:	6053      	str	r3, [r2, #4]
 8001dc2:	4408      	add	r0, r1
 8001dc4:	6010      	str	r0, [r2, #0]
 8001dc6:	e7da      	b.n	8001d7e <_free_r+0x22>
 8001dc8:	d902      	bls.n	8001dd0 <_free_r+0x74>
 8001dca:	230c      	movs	r3, #12
 8001dcc:	602b      	str	r3, [r5, #0]
 8001dce:	e7d6      	b.n	8001d7e <_free_r+0x22>
 8001dd0:	6820      	ldr	r0, [r4, #0]
 8001dd2:	1821      	adds	r1, r4, r0
 8001dd4:	428b      	cmp	r3, r1
 8001dd6:	bf04      	itt	eq
 8001dd8:	6819      	ldreq	r1, [r3, #0]
 8001dda:	685b      	ldreq	r3, [r3, #4]
 8001ddc:	6063      	str	r3, [r4, #4]
 8001dde:	bf04      	itt	eq
 8001de0:	1809      	addeq	r1, r1, r0
 8001de2:	6021      	streq	r1, [r4, #0]
 8001de4:	6054      	str	r4, [r2, #4]
 8001de6:	e7ca      	b.n	8001d7e <_free_r+0x22>
 8001de8:	bd38      	pop	{r3, r4, r5, pc}
 8001dea:	bf00      	nop
 8001dec:	20000244 	.word	0x20000244

08001df0 <sbrk_aligned>:
 8001df0:	b570      	push	{r4, r5, r6, lr}
 8001df2:	4e0f      	ldr	r6, [pc, #60]	@ (8001e30 <sbrk_aligned+0x40>)
 8001df4:	460c      	mov	r4, r1
 8001df6:	6831      	ldr	r1, [r6, #0]
 8001df8:	4605      	mov	r5, r0
 8001dfa:	b911      	cbnz	r1, 8001e02 <sbrk_aligned+0x12>
 8001dfc:	f000 fca6 	bl	800274c <_sbrk_r>
 8001e00:	6030      	str	r0, [r6, #0]
 8001e02:	4621      	mov	r1, r4
 8001e04:	4628      	mov	r0, r5
 8001e06:	f000 fca1 	bl	800274c <_sbrk_r>
 8001e0a:	1c43      	adds	r3, r0, #1
 8001e0c:	d103      	bne.n	8001e16 <sbrk_aligned+0x26>
 8001e0e:	f04f 34ff 	mov.w	r4, #4294967295
 8001e12:	4620      	mov	r0, r4
 8001e14:	bd70      	pop	{r4, r5, r6, pc}
 8001e16:	1cc4      	adds	r4, r0, #3
 8001e18:	f024 0403 	bic.w	r4, r4, #3
 8001e1c:	42a0      	cmp	r0, r4
 8001e1e:	d0f8      	beq.n	8001e12 <sbrk_aligned+0x22>
 8001e20:	1a21      	subs	r1, r4, r0
 8001e22:	4628      	mov	r0, r5
 8001e24:	f000 fc92 	bl	800274c <_sbrk_r>
 8001e28:	3001      	adds	r0, #1
 8001e2a:	d1f2      	bne.n	8001e12 <sbrk_aligned+0x22>
 8001e2c:	e7ef      	b.n	8001e0e <sbrk_aligned+0x1e>
 8001e2e:	bf00      	nop
 8001e30:	20000240 	.word	0x20000240

08001e34 <_malloc_r>:
 8001e34:	e92d 43f8 	stmdb	sp!, {r3, r4, r5, r6, r7, r8, r9, lr}
 8001e38:	1ccd      	adds	r5, r1, #3
 8001e3a:	f025 0503 	bic.w	r5, r5, #3
 8001e3e:	3508      	adds	r5, #8
 8001e40:	2d0c      	cmp	r5, #12
 8001e42:	bf38      	it	cc
 8001e44:	250c      	movcc	r5, #12
 8001e46:	2d00      	cmp	r5, #0
 8001e48:	4606      	mov	r6, r0
 8001e4a:	db01      	blt.n	8001e50 <_malloc_r+0x1c>
 8001e4c:	42a9      	cmp	r1, r5
 8001e4e:	d904      	bls.n	8001e5a <_malloc_r+0x26>
 8001e50:	230c      	movs	r3, #12
 8001e52:	6033      	str	r3, [r6, #0]
 8001e54:	2000      	movs	r0, #0
 8001e56:	e8bd 83f8 	ldmia.w	sp!, {r3, r4, r5, r6, r7, r8, r9, pc}
 8001e5a:	f8df 80d4 	ldr.w	r8, [pc, #212]	@ 8001f30 <_malloc_r+0xfc>
 8001e5e:	f000 f869 	bl	8001f34 <__malloc_lock>
 8001e62:	f8d8 3000 	ldr.w	r3, [r8]
 8001e66:	461c      	mov	r4, r3
 8001e68:	bb44      	cbnz	r4, 8001ebc <_malloc_r+0x88>
 8001e6a:	4629      	mov	r1, r5
 8001e6c:	4630      	mov	r0, r6
 8001e6e:	f7ff ffbf 	bl	8001df0 <sbrk_aligned>
 8001e72:	1c43      	adds	r3, r0, #1
 8001e74:	4604      	mov	r4, r0
 8001e76:	d158      	bne.n	8001f2a <_malloc_r+0xf6>
 8001e78:	f8d8 4000 	ldr.w	r4, [r8]
 8001e7c:	4627      	mov	r7, r4
 8001e7e:	2f00      	cmp	r7, #0
 8001e80:	d143      	bne.n	8001f0a <_malloc_r+0xd6>
 8001e82:	2c00      	cmp	r4, #0
 8001e84:	d04b      	beq.n	8001f1e <_malloc_r+0xea>
 8001e86:	6823      	ldr	r3, [r4, #0]
 8001e88:	4639      	mov	r1, r7
 8001e8a:	4630      	mov	r0, r6
 8001e8c:	eb04 0903 	add.w	r9, r4, r3
 8001e90:	f000 fc5c 	bl	800274c <_sbrk_r>
 8001e94:	4581      	cmp	r9, r0
 8001e96:	d142      	bne.n	8001f1e <_malloc_r+0xea>
 8001e98:	6821      	ldr	r1, [r4, #0]
 8001e9a:	1a6d      	subs	r5, r5, r1
 8001e9c:	4629      	mov	r1, r5
 8001e9e:	4630      	mov	r0, r6
 8001ea0:	f7ff ffa6 	bl	8001df0 <sbrk_aligned>
 8001ea4:	3001      	adds	r0, #1
 8001ea6:	d03a      	beq.n	8001f1e <_malloc_r+0xea>
 8001ea8:	6823      	ldr	r3, [r4, #0]
 8001eaa:	442b      	add	r3, r5
 8001eac:	6023      	str	r3, [r4, #0]
 8001eae:	f8d8 3000 	ldr.w	r3, [r8]
 8001eb2:	685a      	ldr	r2, [r3, #4]
 8001eb4:	bb62      	cbnz	r2, 8001f10 <_malloc_r+0xdc>
 8001eb6:	f8c8 7000 	str.w	r7, [r8]
 8001eba:	e00f      	b.n	8001edc <_malloc_r+0xa8>
 8001ebc:	6822      	ldr	r2, [r4, #0]
 8001ebe:	1b52      	subs	r2, r2, r5
 8001ec0:	d420      	bmi.n	8001f04 <_malloc_r+0xd0>
 8001ec2:	2a0b      	cmp	r2, #11
 8001ec4:	d917      	bls.n	8001ef6 <_malloc_r+0xc2>
 8001ec6:	1961      	adds	r1, r4, r5
 8001ec8:	42a3      	cmp	r3, r4
 8001eca:	6025      	str	r5, [r4, #0]
 8001ecc:	bf18      	it	ne
 8001ece:	6059      	strne	r1, [r3, #4]
 8001ed0:	6863      	ldr	r3, [r4, #4]
 8001ed2:	bf08      	it	eq
 8001ed4:	f8c8 1000 	streq.w	r1, [r8]
 8001ed8:	5162      	str	r2, [r4, r5]
 8001eda:	604b      	str	r3, [r1, #4]
 8001edc:	4630      	mov	r0, r6
 8001ede:	f000 f82f 	bl	8001f40 <__malloc_unlock>
 8001ee2:	f104 000b 	add.w	r0, r4, #11
 8001ee6:	1d23      	adds	r3, r4, #4
 8001ee8:	f020 0007 	bic.w	r0, r0, #7
 8001eec:	1ac2      	subs	r2, r0, r3
 8001eee:	bf1c      	itt	ne
 8001ef0:	1a1b      	subne	r3, r3, r0
 8001ef2:	50a3      	strne	r3, [r4, r2]
 8001ef4:	e7af      	b.n	8001e56 <_malloc_r+0x22>
 8001ef6:	6862      	ldr	r2, [r4, #4]
 8001ef8:	42a3      	cmp	r3, r4
 8001efa:	bf0c      	ite	eq
 8001efc:	f8c8 2000 	streq.w	r2, [r8]
 8001f00:	605a      	strne	r2, [r3, #4]
 8001f02:	e7eb      	b.n	8001edc <_malloc_r+0xa8>
 8001f04:	4623      	mov	r3, r4
 8001f06:	6864      	ldr	r4, [r4, #4]
 8001f08:	e7ae      	b.n	8001e68 <_malloc_r+0x34>
 8001f0a:	463c      	mov	r4, r7
 8001f0c:	687f      	ldr	r7, [r7, #4]
 8001f0e:	e7b6      	b.n	8001e7e <_malloc_r+0x4a>
 8001f10:	461a      	mov	r2, r3
 8001f12:	685b      	ldr	r3, [r3, #4]
 8001f14:	42a3      	cmp	r3, r4
 8001f16:	d1fb      	bne.n	8001f10 <_malloc_r+0xdc>
 8001f18:	2300      	movs	r3, #0
 8001f1a:	6053      	str	r3, [r2, #4]
 8001f1c:	e7de      	b.n	8001edc <_malloc_r+0xa8>
 8001f1e:	230c      	movs	r3, #12
 8001f20:	6033      	str	r3, [r6, #0]
 8001f22:	4630      	mov	r0, r6
 8001f24:	f000 f80c 	bl	8001f40 <__malloc_unlock>
 8001f28:	e794      	b.n	8001e54 <_malloc_r+0x20>
 8001f2a:	6005      	str	r5, [r0, #0]
 8001f2c:	e7d6      	b.n	8001edc <_malloc_r+0xa8>
 8001f2e:	bf00      	nop
 8001f30:	20000244 	.word	0x20000244

08001f34 <__malloc_lock>:
 8001f34:	4801      	ldr	r0, [pc, #4]	@ (8001f3c <__malloc_lock+0x8>)
 8001f36:	f7ff bf0e 	b.w	8001d56 <__retarget_lock_acquire_recursive>
 8001f3a:	bf00      	nop
 8001f3c:	2000023c 	.word	0x2000023c

08001f40 <__malloc_unlock>:
 8001f40:	4801      	ldr	r0, [pc, #4]	@ (8001f48 <__malloc_unlock+0x8>)
 8001f42:	f7ff bf09 	b.w	8001d58 <__retarget_lock_release_recursive>
 8001f46:	bf00      	nop
 8001f48:	2000023c 	.word	0x2000023c

08001f4c <__sfputc_r>:
 8001f4c:	6893      	ldr	r3, [r2, #8]
 8001f4e:	3b01      	subs	r3, #1
 8001f50:	2b00      	cmp	r3, #0
 8001f52:	b410      	push	{r4}
 8001f54:	6093      	str	r3, [r2, #8]
 8001f56:	da08      	bge.n	8001f6a <__sfputc_r+0x1e>
 8001f58:	6994      	ldr	r4, [r2, #24]
 8001f5a:	42a3      	cmp	r3, r4
 8001f5c:	db01      	blt.n	8001f62 <__sfputc_r+0x16>
 8001f5e:	290a      	cmp	r1, #10
 8001f60:	d103      	bne.n	8001f6a <__sfputc_r+0x1e>
 8001f62:	f85d 4b04 	ldr.w	r4, [sp], #4
 8001f66:	f7ff bde8 	b.w	8001b3a <__swbuf_r>
 8001f6a:	6813      	ldr	r3, [r2, #0]
 8001f6c:	1c58      	adds	r0, r3, #1
 8001f6e:	6010      	str	r0, [r2, #0]
 8001f70:	7019      	strb	r1, [r3, #0]
 8001f72:	4608      	mov	r0, r1
 8001f74:	f85d 4b04 	ldr.w	r4, [sp], #4
 8001f78:	4770      	bx	lr

08001f7a <__sfputs_r>:
 8001f7a:	b5f8      	push	{r3, r4, r5, r6, r7, lr}
 8001f7c:	4606      	mov	r6, r0
 8001f7e:	460f      	mov	r7, r1
 8001f80:	4614      	mov	r4, r2
 8001f82:	18d5      	adds	r5, r2, r3
 8001f84:	42ac      	cmp	r4, r5
 8001f86:	d101      	bne.n	8001f8c <__sfputs_r+0x12>
 8001f88:	2000      	movs	r0, #0
 8001f8a:	e007      	b.n	8001f9c <__sfputs_r+0x22>
 8001f8c:	f814 1b01 	ldrb.w	r1, [r4], #1
 8001f90:	463a      	mov	r2, r7
 8001f92:	4630      	mov	r0, r6
 8001f94:	f7ff ffda 	bl	8001f4c <__sfputc_r>
 8001f98:	1c43      	adds	r3, r0, #1
 8001f9a:	d1f3      	bne.n	8001f84 <__sfputs_r+0xa>
 8001f9c:	bdf8      	pop	{r3, r4, r5, r6, r7, pc}
	...

08001fa0 <_vfiprintf_r>:
 8001fa0:	e92d 4ff0 	stmdb	sp!, {r4, r5, r6, r7, r8, r9, sl, fp, lr}
 8001fa4:	460d      	mov	r5, r1
 8001fa6:	b09d      	sub	sp, #116	@ 0x74
 8001fa8:	4614      	mov	r4, r2
 8001faa:	4698      	mov	r8, r3
 8001fac:	4606      	mov	r6, r0
 8001fae:	b118      	cbz	r0, 8001fb8 <_vfiprintf_r+0x18>
 8001fb0:	6a03      	ldr	r3, [r0, #32]
 8001fb2:	b90b      	cbnz	r3, 8001fb8 <_vfiprintf_r+0x18>
 8001fb4:	f7ff fcd8 	bl	8001968 <__sinit>
 8001fb8:	6e6b      	ldr	r3, [r5, #100]	@ 0x64
 8001fba:	07d9      	lsls	r1, r3, #31
 8001fbc:	d405      	bmi.n	8001fca <_vfiprintf_r+0x2a>
 8001fbe:	89ab      	ldrh	r3, [r5, #12]
 8001fc0:	059a      	lsls	r2, r3, #22
 8001fc2:	d402      	bmi.n	8001fca <_vfiprintf_r+0x2a>
 8001fc4:	6da8      	ldr	r0, [r5, #88]	@ 0x58
 8001fc6:	f7ff fec6 	bl	8001d56 <__retarget_lock_acquire_recursive>
 8001fca:	89ab      	ldrh	r3, [r5, #12]
 8001fcc:	071b      	lsls	r3, r3, #28
 8001fce:	d501      	bpl.n	8001fd4 <_vfiprintf_r+0x34>
 8001fd0:	692b      	ldr	r3, [r5, #16]
 8001fd2:	b99b      	cbnz	r3, 8001ffc <_vfiprintf_r+0x5c>
 8001fd4:	4629      	mov	r1, r5
 8001fd6:	4630      	mov	r0, r6
 8001fd8:	f7ff fdee 	bl	8001bb8 <__swsetup_r>
 8001fdc:	b170      	cbz	r0, 8001ffc <_vfiprintf_r+0x5c>
 8001fde:	6e6b      	ldr	r3, [r5, #100]	@ 0x64
 8001fe0:	07dc      	lsls	r4, r3, #31
 8001fe2:	d504      	bpl.n	8001fee <_vfiprintf_r+0x4e>
 8001fe4:	f04f 30ff 	mov.w	r0, #4294967295
 8001fe8:	b01d      	add	sp, #116	@ 0x74
 8001fea:	e8bd 8ff0 	ldmia.w	sp!, {r4, r5, r6, r7, r8, r9, sl, fp, pc}
 8001fee:	89ab      	ldrh	r3, [r5, #12]
 8001ff0:	0598      	lsls	r0, r3, #22
 8001ff2:	d4f7      	bmi.n	8001fe4 <_vfiprintf_r+0x44>
 8001ff4:	6da8      	ldr	r0, [r5, #88]	@ 0x58
 8001ff6:	f7ff feaf 	bl	8001d58 <__retarget_lock_release_recursive>
 8001ffa:	e7f3      	b.n	8001fe4 <_vfiprintf_r+0x44>
 8001ffc:	2300      	movs	r3, #0
 8001ffe:	9309      	str	r3, [sp, #36]	@ 0x24
 8002000:	2320      	movs	r3, #32
 8002002:	f88d 3029 	strb.w	r3, [sp, #41]	@ 0x29
 8002006:	f8cd 800c 	str.w	r8, [sp, #12]
 800200a:	2330      	movs	r3, #48	@ 0x30
 800200c:	f8df 81ac 	ldr.w	r8, [pc, #428]	@ 80021bc <_vfiprintf_r+0x21c>
 8002010:	f88d 302a 	strb.w	r3, [sp, #42]	@ 0x2a
 8002014:	f04f 0901 	mov.w	r9, #1
 8002018:	4623      	mov	r3, r4
 800201a:	469a      	mov	sl, r3
 800201c:	f813 2b01 	ldrb.w	r2, [r3], #1
 8002020:	b10a      	cbz	r2, 8002026 <_vfiprintf_r+0x86>
 8002022:	2a25      	cmp	r2, #37	@ 0x25
 8002024:	d1f9      	bne.n	800201a <_vfiprintf_r+0x7a>
 8002026:	ebba 0b04 	subs.w	fp, sl, r4
 800202a:	d00b      	beq.n	8002044 <_vfiprintf_r+0xa4>
 800202c:	465b      	mov	r3, fp
 800202e:	4622      	mov	r2, r4
 8002030:	4629      	mov	r1, r5
 8002032:	4630      	mov	r0, r6
 8002034:	f7ff ffa1 	bl	8001f7a <__sfputs_r>
 8002038:	3001      	adds	r0, #1
 800203a:	f000 80a7 	beq.w	800218c <_vfiprintf_r+0x1ec>
 800203e:	9a09      	ldr	r2, [sp, #36]	@ 0x24
 8002040:	445a      	add	r2, fp
 8002042:	9209      	str	r2, [sp, #36]	@ 0x24
 8002044:	f89a 3000 	ldrb.w	r3, [sl]
 8002048:	2b00      	cmp	r3, #0
 800204a:	f000 809f 	beq.w	800218c <_vfiprintf_r+0x1ec>
 800204e:	2300      	movs	r3, #0
 8002050:	f04f 32ff 	mov.w	r2, #4294967295
 8002054:	e9cd 2305 	strd	r2, r3, [sp, #20]
 8002058:	f10a 0a01 	add.w	sl, sl, #1
 800205c:	9304      	str	r3, [sp, #16]
 800205e:	9307      	str	r3, [sp, #28]
 8002060:	f88d 3053 	strb.w	r3, [sp, #83]	@ 0x53
 8002064:	931a      	str	r3, [sp, #104]	@ 0x68
 8002066:	4654      	mov	r4, sl
 8002068:	2205      	movs	r2, #5
 800206a:	f814 1b01 	ldrb.w	r1, [r4], #1
 800206e:	4853      	ldr	r0, [pc, #332]	@ (80021bc <_vfiprintf_r+0x21c>)
 8002070:	f7fe f8b6 	bl	80001e0 <memchr>
 8002074:	9a04      	ldr	r2, [sp, #16]
 8002076:	b9d8      	cbnz	r0, 80020b0 <_vfiprintf_r+0x110>
 8002078:	06d1      	lsls	r1, r2, #27
 800207a:	bf44      	itt	mi
 800207c:	2320      	movmi	r3, #32
 800207e:	f88d 3053 	strbmi.w	r3, [sp, #83]	@ 0x53
 8002082:	0713      	lsls	r3, r2, #28
 8002084:	bf44      	itt	mi
 8002086:	232b      	movmi	r3, #43	@ 0x2b
 8002088:	f88d 3053 	strbmi.w	r3, [sp, #83]	@ 0x53
 800208c:	f89a 3000 	ldrb.w	r3, [sl]
 8002090:	2b2a      	cmp	r3, #42	@ 0x2a
 8002092:	d015      	beq.n	80020c0 <_vfiprintf_r+0x120>
 8002094:	9a07      	ldr	r2, [sp, #28]
 8002096:	4654      	mov	r4, sl
 8002098:	2000      	movs	r0, #0
 800209a:	f04f 0c0a 	mov.w	ip, #10
 800209e:	4621      	mov	r1, r4
 80020a0:	f811 3b01 	ldrb.w	r3, [r1], #1
 80020a4:	3b30      	subs	r3, #48	@ 0x30
 80020a6:	2b09      	cmp	r3, #9
 80020a8:	d94b      	bls.n	8002142 <_vfiprintf_r+0x1a2>
 80020aa:	b1b0      	cbz	r0, 80020da <_vfiprintf_r+0x13a>
 80020ac:	9207      	str	r2, [sp, #28]
 80020ae:	e014      	b.n	80020da <_vfiprintf_r+0x13a>
 80020b0:	eba0 0308 	sub.w	r3, r0, r8
 80020b4:	fa09 f303 	lsl.w	r3, r9, r3
 80020b8:	4313      	orrs	r3, r2
 80020ba:	9304      	str	r3, [sp, #16]
 80020bc:	46a2      	mov	sl, r4
 80020be:	e7d2      	b.n	8002066 <_vfiprintf_r+0xc6>
 80020c0:	9b03      	ldr	r3, [sp, #12]
 80020c2:	1d19      	adds	r1, r3, #4
 80020c4:	681b      	ldr	r3, [r3, #0]
 80020c6:	9103      	str	r1, [sp, #12]
 80020c8:	2b00      	cmp	r3, #0
 80020ca:	bfbb      	ittet	lt
 80020cc:	425b      	neglt	r3, r3
 80020ce:	f042 0202 	orrlt.w	r2, r2, #2
 80020d2:	9307      	strge	r3, [sp, #28]
 80020d4:	9307      	strlt	r3, [sp, #28]
 80020d6:	bfb8      	it	lt
 80020d8:	9204      	strlt	r2, [sp, #16]
 80020da:	7823      	ldrb	r3, [r4, #0]
 80020dc:	2b2e      	cmp	r3, #46	@ 0x2e
 80020de:	d10a      	bne.n	80020f6 <_vfiprintf_r+0x156>
 80020e0:	7863      	ldrb	r3, [r4, #1]
 80020e2:	2b2a      	cmp	r3, #42	@ 0x2a
 80020e4:	d132      	bne.n	800214c <_vfiprintf_r+0x1ac>
 80020e6:	9b03      	ldr	r3, [sp, #12]
 80020e8:	1d1a      	adds	r2, r3, #4
 80020ea:	681b      	ldr	r3, [r3, #0]
 80020ec:	9203      	str	r2, [sp, #12]
 80020ee:	ea43 73e3 	orr.w	r3, r3, r3, asr #31
 80020f2:	3402      	adds	r4, #2
 80020f4:	9305      	str	r3, [sp, #20]
 80020f6:	f8df a0d4 	ldr.w	sl, [pc, #212]	@ 80021cc <_vfiprintf_r+0x22c>
 80020fa:	7821      	ldrb	r1, [r4, #0]
 80020fc:	2203      	movs	r2, #3
 80020fe:	4650      	mov	r0, sl
 8002100:	f7fe f86e 	bl	80001e0 <memchr>
 8002104:	b138      	cbz	r0, 8002116 <_vfiprintf_r+0x176>
 8002106:	9b04      	ldr	r3, [sp, #16]
 8002108:	eba0 000a 	sub.w	r0, r0, sl
 800210c:	2240      	movs	r2, #64	@ 0x40
 800210e:	4082      	lsls	r2, r0
 8002110:	4313      	orrs	r3, r2
 8002112:	3401      	adds	r4, #1
 8002114:	9304      	str	r3, [sp, #16]
 8002116:	f814 1b01 	ldrb.w	r1, [r4], #1
 800211a:	4829      	ldr	r0, [pc, #164]	@ (80021c0 <_vfiprintf_r+0x220>)
 800211c:	f88d 1028 	strb.w	r1, [sp, #40]	@ 0x28
 8002120:	2206      	movs	r2, #6
 8002122:	f7fe f85d 	bl	80001e0 <memchr>
 8002126:	2800      	cmp	r0, #0
 8002128:	d03f      	beq.n	80021aa <_vfiprintf_r+0x20a>
 800212a:	4b26      	ldr	r3, [pc, #152]	@ (80021c4 <_vfiprintf_r+0x224>)
 800212c:	bb1b      	cbnz	r3, 8002176 <_vfiprintf_r+0x1d6>
 800212e:	9b03      	ldr	r3, [sp, #12]
 8002130:	3307      	adds	r3, #7
 8002132:	f023 0307 	bic.w	r3, r3, #7
 8002136:	3308      	adds	r3, #8
 8002138:	9303      	str	r3, [sp, #12]
 800213a:	9b09      	ldr	r3, [sp, #36]	@ 0x24
 800213c:	443b      	add	r3, r7
 800213e:	9309      	str	r3, [sp, #36]	@ 0x24
 8002140:	e76a      	b.n	8002018 <_vfiprintf_r+0x78>
 8002142:	fb0c 3202 	mla	r2, ip, r2, r3
 8002146:	460c      	mov	r4, r1
 8002148:	2001      	movs	r0, #1
 800214a:	e7a8      	b.n	800209e <_vfiprintf_r+0xfe>
 800214c:	2300      	movs	r3, #0
 800214e:	3401      	adds	r4, #1
 8002150:	9305      	str	r3, [sp, #20]
 8002152:	4619      	mov	r1, r3
 8002154:	f04f 0c0a 	mov.w	ip, #10
 8002158:	4620      	mov	r0, r4
 800215a:	f810 2b01 	ldrb.w	r2, [r0], #1
 800215e:	3a30      	subs	r2, #48	@ 0x30
 8002160:	2a09      	cmp	r2, #9
 8002162:	d903      	bls.n	800216c <_vfiprintf_r+0x1cc>
 8002164:	2b00      	cmp	r3, #0
 8002166:	d0c6      	beq.n	80020f6 <_vfiprintf_r+0x156>
 8002168:	9105      	str	r1, [sp, #20]
 800216a:	e7c4      	b.n	80020f6 <_vfiprintf_r+0x156>
 800216c:	fb0c 2101 	mla	r1, ip, r1, r2
 8002170:	4604      	mov	r4, r0
 8002172:	2301      	movs	r3, #1
 8002174:	e7f0      	b.n	8002158 <_vfiprintf_r+0x1b8>
 8002176:	ab03      	add	r3, sp, #12
 8002178:	9300      	str	r3, [sp, #0]
 800217a:	462a      	mov	r2, r5
 800217c:	4b12      	ldr	r3, [pc, #72]	@ (80021c8 <_vfiprintf_r+0x228>)
 800217e:	a904      	add	r1, sp, #16
 8002180:	4630      	mov	r0, r6
 8002182:	f3af 8000 	nop.w
 8002186:	4607      	mov	r7, r0
 8002188:	1c78      	adds	r0, r7, #1
 800218a:	d1d6      	bne.n	800213a <_vfiprintf_r+0x19a>
 800218c:	6e6b      	ldr	r3, [r5, #100]	@ 0x64
 800218e:	07d9      	lsls	r1, r3, #31
 8002190:	d405      	bmi.n	800219e <_vfiprintf_r+0x1fe>
 8002192:	89ab      	ldrh	r3, [r5, #12]
 8002194:	059a      	lsls	r2, r3, #22
 8002196:	d402      	bmi.n	800219e <_vfiprintf_r+0x1fe>
 8002198:	6da8      	ldr	r0, [r5, #88]	@ 0x58
 800219a:	f7ff fddd 	bl	8001d58 <__retarget_lock_release_recursive>
 800219e:	89ab      	ldrh	r3, [r5, #12]
 80021a0:	065b      	lsls	r3, r3, #25
 80021a2:	f53f af1f 	bmi.w	8001fe4 <_vfiprintf_r+0x44>
 80021a6:	9809      	ldr	r0, [sp, #36]	@ 0x24
 80021a8:	e71e      	b.n	8001fe8 <_vfiprintf_r+0x48>
 80021aa:	ab03      	add	r3, sp, #12
 80021ac:	9300      	str	r3, [sp, #0]
 80021ae:	462a      	mov	r2, r5
 80021b0:	4b05      	ldr	r3, [pc, #20]	@ (80021c8 <_vfiprintf_r+0x228>)
 80021b2:	a904      	add	r1, sp, #16
 80021b4:	4630      	mov	r0, r6
 80021b6:	f000 f879 	bl	80022ac <_printf_i>
 80021ba:	e7e4      	b.n	8002186 <_vfiprintf_r+0x1e6>
 80021bc:	08002b18 	.word	0x08002b18
 80021c0:	08002b22 	.word	0x08002b22
 80021c4:	00000000 	.word	0x00000000
 80021c8:	08001f7b 	.word	0x08001f7b
 80021cc:	08002b1e 	.word	0x08002b1e

080021d0 <_printf_common>:
 80021d0:	e92d 47f0 	stmdb	sp!, {r4, r5, r6, r7, r8, r9, sl, lr}
 80021d4:	4616      	mov	r6, r2
 80021d6:	4698      	mov	r8, r3
 80021d8:	688a      	ldr	r2, [r1, #8]
 80021da:	690b      	ldr	r3, [r1, #16]
 80021dc:	f8dd 9020 	ldr.w	r9, [sp, #32]
 80021e0:	4293      	cmp	r3, r2
 80021e2:	bfb8      	it	lt
 80021e4:	4613      	movlt	r3, r2
 80021e6:	6033      	str	r3, [r6, #0]
 80021e8:	f891 2043 	ldrb.w	r2, [r1, #67]	@ 0x43
 80021ec:	4607      	mov	r7, r0
 80021ee:	460c      	mov	r4, r1
 80021f0:	b10a      	cbz	r2, 80021f6 <_printf_common+0x26>
 80021f2:	3301      	adds	r3, #1
 80021f4:	6033      	str	r3, [r6, #0]
 80021f6:	6823      	ldr	r3, [r4, #0]
 80021f8:	0699      	lsls	r1, r3, #26
 80021fa:	bf42      	ittt	mi
 80021fc:	6833      	ldrmi	r3, [r6, #0]
 80021fe:	3302      	addmi	r3, #2
 8002200:	6033      	strmi	r3, [r6, #0]
 8002202:	6825      	ldr	r5, [r4, #0]
 8002204:	f015 0506 	ands.w	r5, r5, #6
 8002208:	d106      	bne.n	8002218 <_printf_common+0x48>
 800220a:	f104 0a19 	add.w	sl, r4, #25
 800220e:	68e3      	ldr	r3, [r4, #12]
 8002210:	6832      	ldr	r2, [r6, #0]
 8002212:	1a9b      	subs	r3, r3, r2
 8002214:	42ab      	cmp	r3, r5
 8002216:	dc26      	bgt.n	8002266 <_printf_common+0x96>
 8002218:	f894 3043 	ldrb.w	r3, [r4, #67]	@ 0x43
 800221c:	6822      	ldr	r2, [r4, #0]
 800221e:	3b00      	subs	r3, #0
 8002220:	bf18      	it	ne
 8002222:	2301      	movne	r3, #1
 8002224:	0692      	lsls	r2, r2, #26
 8002226:	d42b      	bmi.n	8002280 <_printf_common+0xb0>
 8002228:	f104 0243 	add.w	r2, r4, #67	@ 0x43
 800222c:	4641      	mov	r1, r8
 800222e:	4638      	mov	r0, r7
 8002230:	47c8      	blx	r9
 8002232:	3001      	adds	r0, #1
 8002234:	d01e      	beq.n	8002274 <_printf_common+0xa4>
 8002236:	6823      	ldr	r3, [r4, #0]
 8002238:	6922      	ldr	r2, [r4, #16]
 800223a:	f003 0306 	and.w	r3, r3, #6
 800223e:	2b04      	cmp	r3, #4
 8002240:	bf02      	ittt	eq
 8002242:	68e5      	ldreq	r5, [r4, #12]
 8002244:	6833      	ldreq	r3, [r6, #0]
 8002246:	1aed      	subeq	r5, r5, r3
 8002248:	68a3      	ldr	r3, [r4, #8]
 800224a:	bf0c      	ite	eq
 800224c:	ea25 75e5 	biceq.w	r5, r5, r5, asr #31
 8002250:	2500      	movne	r5, #0
 8002252:	4293      	cmp	r3, r2
 8002254:	bfc4      	itt	gt
 8002256:	1a9b      	subgt	r3, r3, r2
 8002258:	18ed      	addgt	r5, r5, r3
 800225a:	2600      	movs	r6, #0
 800225c:	341a      	adds	r4, #26
 800225e:	42b5      	cmp	r5, r6
 8002260:	d11a      	bne.n	8002298 <_printf_common+0xc8>
 8002262:	2000      	movs	r0, #0
 8002264:	e008      	b.n	8002278 <_printf_common+0xa8>
 8002266:	2301      	movs	r3, #1
 8002268:	4652      	mov	r2, sl
 800226a:	4641      	mov	r1, r8
 800226c:	4638      	mov	r0, r7
 800226e:	47c8      	blx	r9
 8002270:	3001      	adds	r0, #1
 8002272:	d103      	bne.n	800227c <_printf_common+0xac>
 8002274:	f04f 30ff 	mov.w	r0, #4294967295
 8002278:	e8bd 87f0 	ldmia.w	sp!, {r4, r5, r6, r7, r8, r9, sl, pc}
 800227c:	3501      	adds	r5, #1
 800227e:	e7c6      	b.n	800220e <_printf_common+0x3e>
 8002280:	18e1      	adds	r1, r4, r3
 8002282:	1c5a      	adds	r2, r3, #1
 8002284:	2030      	movs	r0, #48	@ 0x30
 8002286:	f881 0043 	strb.w	r0, [r1, #67]	@ 0x43
 800228a:	4422      	add	r2, r4
 800228c:	f894 1045 	ldrb.w	r1, [r4, #69]	@ 0x45
 8002290:	f882 1043 	strb.w	r1, [r2, #67]	@ 0x43
 8002294:	3302      	adds	r3, #2
 8002296:	e7c7      	b.n	8002228 <_printf_common+0x58>
 8002298:	2301      	movs	r3, #1
 800229a:	4622      	mov	r2, r4
 800229c:	4641      	mov	r1, r8
 800229e:	4638      	mov	r0, r7
 80022a0:	47c8      	blx	r9
 80022a2:	3001      	adds	r0, #1
 80022a4:	d0e6      	beq.n	8002274 <_printf_common+0xa4>
 80022a6:	3601      	adds	r6, #1
 80022a8:	e7d9      	b.n	800225e <_printf_common+0x8e>
	...

080022ac <_printf_i>:
 80022ac:	e92d 47ff 	stmdb	sp!, {r0, r1, r2, r3, r4, r5, r6, r7, r8, r9, sl, lr}
 80022b0:	7e0f      	ldrb	r7, [r1, #24]
 80022b2:	9e0c      	ldr	r6, [sp, #48]	@ 0x30
 80022b4:	2f78      	cmp	r7, #120	@ 0x78
 80022b6:	4691      	mov	r9, r2
 80022b8:	4680      	mov	r8, r0
 80022ba:	460c      	mov	r4, r1
 80022bc:	469a      	mov	sl, r3
 80022be:	f101 0243 	add.w	r2, r1, #67	@ 0x43
 80022c2:	d807      	bhi.n	80022d4 <_printf_i+0x28>
 80022c4:	2f62      	cmp	r7, #98	@ 0x62
 80022c6:	d80a      	bhi.n	80022de <_printf_i+0x32>
 80022c8:	2f00      	cmp	r7, #0
 80022ca:	f000 80d2 	beq.w	8002472 <_printf_i+0x1c6>
 80022ce:	2f58      	cmp	r7, #88	@ 0x58
 80022d0:	f000 80b9 	beq.w	8002446 <_printf_i+0x19a>
 80022d4:	f104 0642 	add.w	r6, r4, #66	@ 0x42
 80022d8:	f884 7042 	strb.w	r7, [r4, #66]	@ 0x42
 80022dc:	e03a      	b.n	8002354 <_printf_i+0xa8>
 80022de:	f1a7 0363 	sub.w	r3, r7, #99	@ 0x63
 80022e2:	2b15      	cmp	r3, #21
 80022e4:	d8f6      	bhi.n	80022d4 <_printf_i+0x28>
 80022e6:	a101      	add	r1, pc, #4	@ (adr r1, 80022ec <_printf_i+0x40>)
 80022e8:	f851 f023 	ldr.w	pc, [r1, r3, lsl #2]
 80022ec:	08002345 	.word	0x08002345
 80022f0:	08002359 	.word	0x08002359
 80022f4:	080022d5 	.word	0x080022d5
 80022f8:	080022d5 	.word	0x080022d5
 80022fc:	080022d5 	.word	0x080022d5
 8002300:	080022d5 	.word	0x080022d5
 8002304:	08002359 	.word	0x08002359
 8002308:	080022d5 	.word	0x080022d5
 800230c:	080022d5 	.word	0x080022d5
 8002310:	080022d5 	.word	0x080022d5
 8002314:	080022d5 	.word	0x080022d5
 8002318:	08002459 	.word	0x08002459
 800231c:	08002383 	.word	0x08002383
 8002320:	08002413 	.word	0x08002413
 8002324:	080022d5 	.word	0x080022d5
 8002328:	080022d5 	.word	0x080022d5
 800232c:	0800247b 	.word	0x0800247b
 8002330:	080022d5 	.word	0x080022d5
 8002334:	08002383 	.word	0x08002383
 8002338:	080022d5 	.word	0x080022d5
 800233c:	080022d5 	.word	0x080022d5
 8002340:	0800241b 	.word	0x0800241b
 8002344:	6833      	ldr	r3, [r6, #0]
 8002346:	1d1a      	adds	r2, r3, #4
 8002348:	681b      	ldr	r3, [r3, #0]
 800234a:	6032      	str	r2, [r6, #0]
 800234c:	f104 0642 	add.w	r6, r4, #66	@ 0x42
 8002350:	f884 3042 	strb.w	r3, [r4, #66]	@ 0x42
 8002354:	2301      	movs	r3, #1
 8002356:	e09d      	b.n	8002494 <_printf_i+0x1e8>
 8002358:	6833      	ldr	r3, [r6, #0]
 800235a:	6820      	ldr	r0, [r4, #0]
 800235c:	1d19      	adds	r1, r3, #4
 800235e:	6031      	str	r1, [r6, #0]
 8002360:	0606      	lsls	r6, r0, #24
 8002362:	d501      	bpl.n	8002368 <_printf_i+0xbc>
 8002364:	681d      	ldr	r5, [r3, #0]
 8002366:	e003      	b.n	8002370 <_printf_i+0xc4>
 8002368:	0645      	lsls	r5, r0, #25
 800236a:	d5fb      	bpl.n	8002364 <_printf_i+0xb8>
 800236c:	f9b3 5000 	ldrsh.w	r5, [r3]
 8002370:	2d00      	cmp	r5, #0
 8002372:	da03      	bge.n	800237c <_printf_i+0xd0>
 8002374:	232d      	movs	r3, #45	@ 0x2d
 8002376:	426d      	negs	r5, r5
 8002378:	f884 3043 	strb.w	r3, [r4, #67]	@ 0x43
 800237c:	4859      	ldr	r0, [pc, #356]	@ (80024e4 <_printf_i+0x238>)
 800237e:	230a      	movs	r3, #10
 8002380:	e011      	b.n	80023a6 <_printf_i+0xfa>
 8002382:	6821      	ldr	r1, [r4, #0]
 8002384:	6833      	ldr	r3, [r6, #0]
 8002386:	0608      	lsls	r0, r1, #24
 8002388:	f853 5b04 	ldr.w	r5, [r3], #4
 800238c:	d402      	bmi.n	8002394 <_printf_i+0xe8>
 800238e:	0649      	lsls	r1, r1, #25
 8002390:	bf48      	it	mi
 8002392:	b2ad      	uxthmi	r5, r5
 8002394:	2f6f      	cmp	r7, #111	@ 0x6f
 8002396:	4853      	ldr	r0, [pc, #332]	@ (80024e4 <_printf_i+0x238>)
 8002398:	6033      	str	r3, [r6, #0]
 800239a:	bf14      	ite	ne
 800239c:	230a      	movne	r3, #10
 800239e:	2308      	moveq	r3, #8
 80023a0:	2100      	movs	r1, #0
 80023a2:	f884 1043 	strb.w	r1, [r4, #67]	@ 0x43
 80023a6:	6866      	ldr	r6, [r4, #4]
 80023a8:	60a6      	str	r6, [r4, #8]
 80023aa:	2e00      	cmp	r6, #0
 80023ac:	bfa2      	ittt	ge
 80023ae:	6821      	ldrge	r1, [r4, #0]
 80023b0:	f021 0104 	bicge.w	r1, r1, #4
 80023b4:	6021      	strge	r1, [r4, #0]
 80023b6:	b90d      	cbnz	r5, 80023bc <_printf_i+0x110>
 80023b8:	2e00      	cmp	r6, #0
 80023ba:	d04b      	beq.n	8002454 <_printf_i+0x1a8>
 80023bc:	4616      	mov	r6, r2
 80023be:	fbb5 f1f3 	udiv	r1, r5, r3
 80023c2:	fb03 5711 	mls	r7, r3, r1, r5
 80023c6:	5dc7      	ldrb	r7, [r0, r7]
 80023c8:	f806 7d01 	strb.w	r7, [r6, #-1]!
 80023cc:	462f      	mov	r7, r5
 80023ce:	42bb      	cmp	r3, r7
 80023d0:	460d      	mov	r5, r1
 80023d2:	d9f4      	bls.n	80023be <_printf_i+0x112>
 80023d4:	2b08      	cmp	r3, #8
 80023d6:	d10b      	bne.n	80023f0 <_printf_i+0x144>
 80023d8:	6823      	ldr	r3, [r4, #0]
 80023da:	07df      	lsls	r7, r3, #31
 80023dc:	d508      	bpl.n	80023f0 <_printf_i+0x144>
 80023de:	6923      	ldr	r3, [r4, #16]
 80023e0:	6861      	ldr	r1, [r4, #4]
 80023e2:	4299      	cmp	r1, r3
 80023e4:	bfde      	ittt	le
 80023e6:	2330      	movle	r3, #48	@ 0x30
 80023e8:	f806 3c01 	strble.w	r3, [r6, #-1]
 80023ec:	f106 36ff 	addle.w	r6, r6, #4294967295
 80023f0:	1b92      	subs	r2, r2, r6
 80023f2:	6122      	str	r2, [r4, #16]
 80023f4:	f8cd a000 	str.w	sl, [sp]
 80023f8:	464b      	mov	r3, r9
 80023fa:	aa03      	add	r2, sp, #12
 80023fc:	4621      	mov	r1, r4
 80023fe:	4640      	mov	r0, r8
 8002400:	f7ff fee6 	bl	80021d0 <_printf_common>
 8002404:	3001      	adds	r0, #1
 8002406:	d14a      	bne.n	800249e <_printf_i+0x1f2>
 8002408:	f04f 30ff 	mov.w	r0, #4294967295
 800240c:	b004      	add	sp, #16
 800240e:	e8bd 87f0 	ldmia.w	sp!, {r4, r5, r6, r7, r8, r9, sl, pc}
 8002412:	6823      	ldr	r3, [r4, #0]
 8002414:	f043 0320 	orr.w	r3, r3, #32
 8002418:	6023      	str	r3, [r4, #0]
 800241a:	4833      	ldr	r0, [pc, #204]	@ (80024e8 <_printf_i+0x23c>)
 800241c:	2778      	movs	r7, #120	@ 0x78
 800241e:	f884 7045 	strb.w	r7, [r4, #69]	@ 0x45
 8002422:	6823      	ldr	r3, [r4, #0]
 8002424:	6831      	ldr	r1, [r6, #0]
 8002426:	061f      	lsls	r7, r3, #24
 8002428:	f851 5b04 	ldr.w	r5, [r1], #4
 800242c:	d402      	bmi.n	8002434 <_printf_i+0x188>
 800242e:	065f      	lsls	r7, r3, #25
 8002430:	bf48      	it	mi
 8002432:	b2ad      	uxthmi	r5, r5
 8002434:	6031      	str	r1, [r6, #0]
 8002436:	07d9      	lsls	r1, r3, #31
 8002438:	bf44      	itt	mi
 800243a:	f043 0320 	orrmi.w	r3, r3, #32
 800243e:	6023      	strmi	r3, [r4, #0]
 8002440:	b11d      	cbz	r5, 800244a <_printf_i+0x19e>
 8002442:	2310      	movs	r3, #16
 8002444:	e7ac      	b.n	80023a0 <_printf_i+0xf4>
 8002446:	4827      	ldr	r0, [pc, #156]	@ (80024e4 <_printf_i+0x238>)
 8002448:	e7e9      	b.n	800241e <_printf_i+0x172>
 800244a:	6823      	ldr	r3, [r4, #0]
 800244c:	f023 0320 	bic.w	r3, r3, #32
 8002450:	6023      	str	r3, [r4, #0]
 8002452:	e7f6      	b.n	8002442 <_printf_i+0x196>
 8002454:	4616      	mov	r6, r2
 8002456:	e7bd      	b.n	80023d4 <_printf_i+0x128>
 8002458:	6833      	ldr	r3, [r6, #0]
 800245a:	6825      	ldr	r5, [r4, #0]
 800245c:	6961      	ldr	r1, [r4, #20]
 800245e:	1d18      	adds	r0, r3, #4
 8002460:	6030      	str	r0, [r6, #0]
 8002462:	062e      	lsls	r6, r5, #24
 8002464:	681b      	ldr	r3, [r3, #0]
 8002466:	d501      	bpl.n	800246c <_printf_i+0x1c0>
 8002468:	6019      	str	r1, [r3, #0]
 800246a:	e002      	b.n	8002472 <_printf_i+0x1c6>
 800246c:	0668      	lsls	r0, r5, #25
 800246e:	d5fb      	bpl.n	8002468 <_printf_i+0x1bc>
 8002470:	8019      	strh	r1, [r3, #0]
 8002472:	2300      	movs	r3, #0
 8002474:	6123      	str	r3, [r4, #16]
 8002476:	4616      	mov	r6, r2
 8002478:	e7bc      	b.n	80023f4 <_printf_i+0x148>
 800247a:	6833      	ldr	r3, [r6, #0]
 800247c:	1d1a      	adds	r2, r3, #4
 800247e:	6032      	str	r2, [r6, #0]
 8002480:	681e      	ldr	r6, [r3, #0]
 8002482:	6862      	ldr	r2, [r4, #4]
 8002484:	2100      	movs	r1, #0
 8002486:	4630      	mov	r0, r6
 8002488:	f7fd feaa 	bl	80001e0 <memchr>
 800248c:	b108      	cbz	r0, 8002492 <_printf_i+0x1e6>
 800248e:	1b80      	subs	r0, r0, r6
 8002490:	6060      	str	r0, [r4, #4]
 8002492:	6863      	ldr	r3, [r4, #4]
 8002494:	6123      	str	r3, [r4, #16]
 8002496:	2300      	movs	r3, #0
 8002498:	f884 3043 	strb.w	r3, [r4, #67]	@ 0x43
 800249c:	e7aa      	b.n	80023f4 <_printf_i+0x148>
 800249e:	6923      	ldr	r3, [r4, #16]
 80024a0:	4632      	mov	r2, r6
 80024a2:	4649      	mov	r1, r9
 80024a4:	4640      	mov	r0, r8
 80024a6:	47d0      	blx	sl
 80024a8:	3001      	adds	r0, #1
 80024aa:	d0ad      	beq.n	8002408 <_printf_i+0x15c>
 80024ac:	6823      	ldr	r3, [r4, #0]
 80024ae:	079b      	lsls	r3, r3, #30
 80024b0:	d413      	bmi.n	80024da <_printf_i+0x22e>
 80024b2:	68e0      	ldr	r0, [r4, #12]
 80024b4:	9b03      	ldr	r3, [sp, #12]
 80024b6:	4298      	cmp	r0, r3
 80024b8:	bfb8      	it	lt
 80024ba:	4618      	movlt	r0, r3
 80024bc:	e7a6      	b.n	800240c <_printf_i+0x160>
 80024be:	2301      	movs	r3, #1
 80024c0:	4632      	mov	r2, r6
 80024c2:	4649      	mov	r1, r9
 80024c4:	4640      	mov	r0, r8
 80024c6:	47d0      	blx	sl
 80024c8:	3001      	adds	r0, #1
 80024ca:	d09d      	beq.n	8002408 <_printf_i+0x15c>
 80024cc:	3501      	adds	r5, #1
 80024ce:	68e3      	ldr	r3, [r4, #12]
 80024d0:	9903      	ldr	r1, [sp, #12]
 80024d2:	1a5b      	subs	r3, r3, r1
 80024d4:	42ab      	cmp	r3, r5
 80024d6:	dcf2      	bgt.n	80024be <_printf_i+0x212>
 80024d8:	e7eb      	b.n	80024b2 <_printf_i+0x206>
 80024da:	2500      	movs	r5, #0
 80024dc:	f104 0619 	add.w	r6, r4, #25
 80024e0:	e7f5      	b.n	80024ce <_printf_i+0x222>
 80024e2:	bf00      	nop
 80024e4:	08002b29 	.word	0x08002b29
 80024e8:	08002b3a 	.word	0x08002b3a

080024ec <__sflush_r>:
 80024ec:	f9b1 200c 	ldrsh.w	r2, [r1, #12]
 80024f0:	e92d 41f0 	stmdb	sp!, {r4, r5, r6, r7, r8, lr}
 80024f4:	0716      	lsls	r6, r2, #28
 80024f6:	4605      	mov	r5, r0
 80024f8:	460c      	mov	r4, r1
 80024fa:	d454      	bmi.n	80025a6 <__sflush_r+0xba>
 80024fc:	684b      	ldr	r3, [r1, #4]
 80024fe:	2b00      	cmp	r3, #0
 8002500:	dc02      	bgt.n	8002508 <__sflush_r+0x1c>
 8002502:	6c0b      	ldr	r3, [r1, #64]	@ 0x40
 8002504:	2b00      	cmp	r3, #0
 8002506:	dd48      	ble.n	800259a <__sflush_r+0xae>
 8002508:	6ae6      	ldr	r6, [r4, #44]	@ 0x2c
 800250a:	2e00      	cmp	r6, #0
 800250c:	d045      	beq.n	800259a <__sflush_r+0xae>
 800250e:	2300      	movs	r3, #0
 8002510:	f412 5280 	ands.w	r2, r2, #4096	@ 0x1000
 8002514:	682f      	ldr	r7, [r5, #0]
 8002516:	6a21      	ldr	r1, [r4, #32]
 8002518:	602b      	str	r3, [r5, #0]
 800251a:	d030      	beq.n	800257e <__sflush_r+0x92>
 800251c:	6d62      	ldr	r2, [r4, #84]	@ 0x54
 800251e:	89a3      	ldrh	r3, [r4, #12]
 8002520:	0759      	lsls	r1, r3, #29
 8002522:	d505      	bpl.n	8002530 <__sflush_r+0x44>
 8002524:	6863      	ldr	r3, [r4, #4]
 8002526:	1ad2      	subs	r2, r2, r3
 8002528:	6b63      	ldr	r3, [r4, #52]	@ 0x34
 800252a:	b10b      	cbz	r3, 8002530 <__sflush_r+0x44>
 800252c:	6c23      	ldr	r3, [r4, #64]	@ 0x40
 800252e:	1ad2      	subs	r2, r2, r3
 8002530:	2300      	movs	r3, #0
 8002532:	6ae6      	ldr	r6, [r4, #44]	@ 0x2c
 8002534:	6a21      	ldr	r1, [r4, #32]
 8002536:	4628      	mov	r0, r5
 8002538:	47b0      	blx	r6
 800253a:	1c43      	adds	r3, r0, #1
 800253c:	89a3      	ldrh	r3, [r4, #12]
 800253e:	d106      	bne.n	800254e <__sflush_r+0x62>
 8002540:	6829      	ldr	r1, [r5, #0]
 8002542:	291d      	cmp	r1, #29
 8002544:	d82b      	bhi.n	800259e <__sflush_r+0xb2>
 8002546:	4a2a      	ldr	r2, [pc, #168]	@ (80025f0 <__sflush_r+0x104>)
 8002548:	410a      	asrs	r2, r1
 800254a:	07d6      	lsls	r6, r2, #31
 800254c:	d427      	bmi.n	800259e <__sflush_r+0xb2>
 800254e:	2200      	movs	r2, #0
 8002550:	6062      	str	r2, [r4, #4]
 8002552:	04d9      	lsls	r1, r3, #19
 8002554:	6922      	ldr	r2, [r4, #16]
 8002556:	6022      	str	r2, [r4, #0]
 8002558:	d504      	bpl.n	8002564 <__sflush_r+0x78>
 800255a:	1c42      	adds	r2, r0, #1
 800255c:	d101      	bne.n	8002562 <__sflush_r+0x76>
 800255e:	682b      	ldr	r3, [r5, #0]
 8002560:	b903      	cbnz	r3, 8002564 <__sflush_r+0x78>
 8002562:	6560      	str	r0, [r4, #84]	@ 0x54
 8002564:	6b61      	ldr	r1, [r4, #52]	@ 0x34
 8002566:	602f      	str	r7, [r5, #0]
 8002568:	b1b9      	cbz	r1, 800259a <__sflush_r+0xae>
 800256a:	f104 0344 	add.w	r3, r4, #68	@ 0x44
 800256e:	4299      	cmp	r1, r3
 8002570:	d002      	beq.n	8002578 <__sflush_r+0x8c>
 8002572:	4628      	mov	r0, r5
 8002574:	f7ff fbf2 	bl	8001d5c <_free_r>
 8002578:	2300      	movs	r3, #0
 800257a:	6363      	str	r3, [r4, #52]	@ 0x34
 800257c:	e00d      	b.n	800259a <__sflush_r+0xae>
 800257e:	2301      	movs	r3, #1
 8002580:	4628      	mov	r0, r5
 8002582:	47b0      	blx	r6
 8002584:	4602      	mov	r2, r0
 8002586:	1c50      	adds	r0, r2, #1
 8002588:	d1c9      	bne.n	800251e <__sflush_r+0x32>
 800258a:	682b      	ldr	r3, [r5, #0]
 800258c:	2b00      	cmp	r3, #0
 800258e:	d0c6      	beq.n	800251e <__sflush_r+0x32>
 8002590:	2b1d      	cmp	r3, #29
 8002592:	d001      	beq.n	8002598 <__sflush_r+0xac>
 8002594:	2b16      	cmp	r3, #22
 8002596:	d11e      	bne.n	80025d6 <__sflush_r+0xea>
 8002598:	602f      	str	r7, [r5, #0]
 800259a:	2000      	movs	r0, #0
 800259c:	e022      	b.n	80025e4 <__sflush_r+0xf8>
 800259e:	f043 0340 	orr.w	r3, r3, #64	@ 0x40
 80025a2:	b21b      	sxth	r3, r3
 80025a4:	e01b      	b.n	80025de <__sflush_r+0xf2>
 80025a6:	690f      	ldr	r7, [r1, #16]
 80025a8:	2f00      	cmp	r7, #0
 80025aa:	d0f6      	beq.n	800259a <__sflush_r+0xae>
 80025ac:	0793      	lsls	r3, r2, #30
 80025ae:	680e      	ldr	r6, [r1, #0]
 80025b0:	bf08      	it	eq
 80025b2:	694b      	ldreq	r3, [r1, #20]
 80025b4:	600f      	str	r7, [r1, #0]
 80025b6:	bf18      	it	ne
 80025b8:	2300      	movne	r3, #0
 80025ba:	eba6 0807 	sub.w	r8, r6, r7
 80025be:	608b      	str	r3, [r1, #8]
 80025c0:	f1b8 0f00 	cmp.w	r8, #0
 80025c4:	dde9      	ble.n	800259a <__sflush_r+0xae>
 80025c6:	6a21      	ldr	r1, [r4, #32]
 80025c8:	6aa6      	ldr	r6, [r4, #40]	@ 0x28
 80025ca:	4643      	mov	r3, r8
 80025cc:	463a      	mov	r2, r7
 80025ce:	4628      	mov	r0, r5
 80025d0:	47b0      	blx	r6
 80025d2:	2800      	cmp	r0, #0
 80025d4:	dc08      	bgt.n	80025e8 <__sflush_r+0xfc>
 80025d6:	f9b4 300c 	ldrsh.w	r3, [r4, #12]
 80025da:	f043 0340 	orr.w	r3, r3, #64	@ 0x40
 80025de:	81a3      	strh	r3, [r4, #12]
 80025e0:	f04f 30ff 	mov.w	r0, #4294967295
 80025e4:	e8bd 81f0 	ldmia.w	sp!, {r4, r5, r6, r7, r8, pc}
 80025e8:	4407      	add	r7, r0
 80025ea:	eba8 0800 	sub.w	r8, r8, r0
 80025ee:	e7e7      	b.n	80025c0 <__sflush_r+0xd4>
 80025f0:	dfbffffe 	.word	0xdfbffffe

080025f4 <_fflush_r>:
 80025f4:	b538      	push	{r3, r4, r5, lr}
 80025f6:	690b      	ldr	r3, [r1, #16]
 80025f8:	4605      	mov	r5, r0
 80025fa:	460c      	mov	r4, r1
 80025fc:	b913      	cbnz	r3, 8002604 <_fflush_r+0x10>
 80025fe:	2500      	movs	r5, #0
 8002600:	4628      	mov	r0, r5
 8002602:	bd38      	pop	{r3, r4, r5, pc}
 8002604:	b118      	cbz	r0, 800260e <_fflush_r+0x1a>
 8002606:	6a03      	ldr	r3, [r0, #32]
 8002608:	b90b      	cbnz	r3, 800260e <_fflush_r+0x1a>
 800260a:	f7ff f9ad 	bl	8001968 <__sinit>
 800260e:	f9b4 300c 	ldrsh.w	r3, [r4, #12]
 8002612:	2b00      	cmp	r3, #0
 8002614:	d0f3      	beq.n	80025fe <_fflush_r+0xa>
 8002616:	6e62      	ldr	r2, [r4, #100]	@ 0x64
 8002618:	07d0      	lsls	r0, r2, #31
 800261a:	d404      	bmi.n	8002626 <_fflush_r+0x32>
 800261c:	0599      	lsls	r1, r3, #22
 800261e:	d402      	bmi.n	8002626 <_fflush_r+0x32>
 8002620:	6da0      	ldr	r0, [r4, #88]	@ 0x58
 8002622:	f7ff fb98 	bl	8001d56 <__retarget_lock_acquire_recursive>
 8002626:	4628      	mov	r0, r5
 8002628:	4621      	mov	r1, r4
 800262a:	f7ff ff5f 	bl	80024ec <__sflush_r>
 800262e:	6e63      	ldr	r3, [r4, #100]	@ 0x64
 8002630:	07da      	lsls	r2, r3, #31
 8002632:	4605      	mov	r5, r0
 8002634:	d4e4      	bmi.n	8002600 <_fflush_r+0xc>
 8002636:	89a3      	ldrh	r3, [r4, #12]
 8002638:	059b      	lsls	r3, r3, #22
 800263a:	d4e1      	bmi.n	8002600 <_fflush_r+0xc>
 800263c:	6da0      	ldr	r0, [r4, #88]	@ 0x58
 800263e:	f7ff fb8b 	bl	8001d58 <__retarget_lock_release_recursive>
 8002642:	e7dd      	b.n	8002600 <_fflush_r+0xc>

08002644 <__swhatbuf_r>:
 8002644:	b570      	push	{r4, r5, r6, lr}
 8002646:	460c      	mov	r4, r1
 8002648:	f9b1 100e 	ldrsh.w	r1, [r1, #14]
 800264c:	2900      	cmp	r1, #0
 800264e:	b096      	sub	sp, #88	@ 0x58
 8002650:	4615      	mov	r5, r2
 8002652:	461e      	mov	r6, r3
 8002654:	da0d      	bge.n	8002672 <__swhatbuf_r+0x2e>
 8002656:	89a3      	ldrh	r3, [r4, #12]
 8002658:	f013 0f80 	tst.w	r3, #128	@ 0x80
 800265c:	f04f 0100 	mov.w	r1, #0
 8002660:	bf14      	ite	ne
 8002662:	2340      	movne	r3, #64	@ 0x40
 8002664:	f44f 6380 	moveq.w	r3, #1024	@ 0x400
 8002668:	2000      	movs	r0, #0
 800266a:	6031      	str	r1, [r6, #0]
 800266c:	602b      	str	r3, [r5, #0]
 800266e:	b016      	add	sp, #88	@ 0x58
 8002670:	bd70      	pop	{r4, r5, r6, pc}
 8002672:	466a      	mov	r2, sp
 8002674:	f000 f848 	bl	8002708 <_fstat_r>
 8002678:	2800      	cmp	r0, #0
 800267a:	dbec      	blt.n	8002656 <__swhatbuf_r+0x12>
 800267c:	9901      	ldr	r1, [sp, #4]
 800267e:	f401 4170 	and.w	r1, r1, #61440	@ 0xf000
 8002682:	f5a1 5300 	sub.w	r3, r1, #8192	@ 0x2000
 8002686:	4259      	negs	r1, r3
 8002688:	4159      	adcs	r1, r3
 800268a:	f44f 6380 	mov.w	r3, #1024	@ 0x400
 800268e:	e7eb      	b.n	8002668 <__swhatbuf_r+0x24>

08002690 <__smakebuf_r>:
 8002690:	898b      	ldrh	r3, [r1, #12]
 8002692:	b5f7      	push	{r0, r1, r2, r4, r5, r6, r7, lr}
 8002694:	079d      	lsls	r5, r3, #30
 8002696:	4606      	mov	r6, r0
 8002698:	460c      	mov	r4, r1
 800269a:	d507      	bpl.n	80026ac <__smakebuf_r+0x1c>
 800269c:	f104 0347 	add.w	r3, r4, #71	@ 0x47
 80026a0:	6023      	str	r3, [r4, #0]
 80026a2:	6123      	str	r3, [r4, #16]
 80026a4:	2301      	movs	r3, #1
 80026a6:	6163      	str	r3, [r4, #20]
 80026a8:	b003      	add	sp, #12
 80026aa:	bdf0      	pop	{r4, r5, r6, r7, pc}
 80026ac:	ab01      	add	r3, sp, #4
 80026ae:	466a      	mov	r2, sp
 80026b0:	f7ff ffc8 	bl	8002644 <__swhatbuf_r>
 80026b4:	9f00      	ldr	r7, [sp, #0]
 80026b6:	4605      	mov	r5, r0
 80026b8:	4639      	mov	r1, r7
 80026ba:	4630      	mov	r0, r6
 80026bc:	f7ff fbba 	bl	8001e34 <_malloc_r>
 80026c0:	b948      	cbnz	r0, 80026d6 <__smakebuf_r+0x46>
 80026c2:	f9b4 300c 	ldrsh.w	r3, [r4, #12]
 80026c6:	059a      	lsls	r2, r3, #22
 80026c8:	d4ee      	bmi.n	80026a8 <__smakebuf_r+0x18>
 80026ca:	f023 0303 	bic.w	r3, r3, #3
 80026ce:	f043 0302 	orr.w	r3, r3, #2
 80026d2:	81a3      	strh	r3, [r4, #12]
 80026d4:	e7e2      	b.n	800269c <__smakebuf_r+0xc>
 80026d6:	89a3      	ldrh	r3, [r4, #12]
 80026d8:	6020      	str	r0, [r4, #0]
 80026da:	f043 0380 	orr.w	r3, r3, #128	@ 0x80
 80026de:	81a3      	strh	r3, [r4, #12]
 80026e0:	9b01      	ldr	r3, [sp, #4]
 80026e2:	e9c4 0704 	strd	r0, r7, [r4, #16]
 80026e6:	b15b      	cbz	r3, 8002700 <__smakebuf_r+0x70>
 80026e8:	f9b4 100e 	ldrsh.w	r1, [r4, #14]
 80026ec:	4630      	mov	r0, r6
 80026ee:	f000 f81d 	bl	800272c <_isatty_r>
 80026f2:	b128      	cbz	r0, 8002700 <__smakebuf_r+0x70>
 80026f4:	89a3      	ldrh	r3, [r4, #12]
 80026f6:	f023 0303 	bic.w	r3, r3, #3
 80026fa:	f043 0301 	orr.w	r3, r3, #1
 80026fe:	81a3      	strh	r3, [r4, #12]
 8002700:	89a3      	ldrh	r3, [r4, #12]
 8002702:	431d      	orrs	r5, r3
 8002704:	81a5      	strh	r5, [r4, #12]
 8002706:	e7cf      	b.n	80026a8 <__smakebuf_r+0x18>

08002708 <_fstat_r>:
 8002708:	b538      	push	{r3, r4, r5, lr}
 800270a:	4d07      	ldr	r5, [pc, #28]	@ (8002728 <_fstat_r+0x20>)
 800270c:	2300      	movs	r3, #0
 800270e:	4604      	mov	r4, r0
 8002710:	4608      	mov	r0, r1
 8002712:	4611      	mov	r1, r2
 8002714:	602b      	str	r3, [r5, #0]
 8002716:	f7fe f8e9 	bl	80008ec <_fstat>
 800271a:	1c43      	adds	r3, r0, #1
 800271c:	d102      	bne.n	8002724 <_fstat_r+0x1c>
 800271e:	682b      	ldr	r3, [r5, #0]
 8002720:	b103      	cbz	r3, 8002724 <_fstat_r+0x1c>
 8002722:	6023      	str	r3, [r4, #0]
 8002724:	bd38      	pop	{r3, r4, r5, pc}
 8002726:	bf00      	nop
 8002728:	20000238 	.word	0x20000238

0800272c <_isatty_r>:
 800272c:	b538      	push	{r3, r4, r5, lr}
 800272e:	4d06      	ldr	r5, [pc, #24]	@ (8002748 <_isatty_r+0x1c>)
 8002730:	2300      	movs	r3, #0
 8002732:	4604      	mov	r4, r0
 8002734:	4608      	mov	r0, r1
 8002736:	602b      	str	r3, [r5, #0]
 8002738:	f7fe f8dd 	bl	80008f6 <_isatty>
 800273c:	1c43      	adds	r3, r0, #1
 800273e:	d102      	bne.n	8002746 <_isatty_r+0x1a>
 8002740:	682b      	ldr	r3, [r5, #0]
 8002742:	b103      	cbz	r3, 8002746 <_isatty_r+0x1a>
 8002744:	6023      	str	r3, [r4, #0]
 8002746:	bd38      	pop	{r3, r4, r5, pc}
 8002748:	20000238 	.word	0x20000238

0800274c <_sbrk_r>:
 800274c:	b538      	push	{r3, r4, r5, lr}
 800274e:	4d06      	ldr	r5, [pc, #24]	@ (8002768 <_sbrk_r+0x1c>)
 8002750:	2300      	movs	r3, #0
 8002752:	4604      	mov	r4, r0
 8002754:	4608      	mov	r0, r1
 8002756:	602b      	str	r3, [r5, #0]
 8002758:	f7fe f8d2 	bl	8000900 <_sbrk>
 800275c:	1c43      	adds	r3, r0, #1
 800275e:	d102      	bne.n	8002766 <_sbrk_r+0x1a>
 8002760:	682b      	ldr	r3, [r5, #0]
 8002762:	b103      	cbz	r3, 8002766 <_sbrk_r+0x1a>
 8002764:	6023      	str	r3, [r4, #0]
 8002766:	bd38      	pop	{r3, r4, r5, pc}
 8002768:	20000238 	.word	0x20000238

0800276c <_init>:
 800276c:	b5f8      	push	{r3, r4, r5, r6, r7, lr}
 800276e:	bf00      	nop
 8002770:	bcf8      	pop	{r3, r4, r5, r6, r7}
 8002772:	bc08      	pop	{r3}
 8002774:	469e      	mov	lr, r3
 8002776:	4770      	bx	lr

08002778 <_fini>:
 8002778:	b5f8      	push	{r3, r4, r5, r6, r7, lr}
 800277a:	bf00      	nop
 800277c:	bcf8      	pop	{r3, r4, r5, r6, r7}
 800277e:	bc08      	pop	{r3}
 8002780:	469e      	mov	lr, r3
 8002782:	4770      	bx	lr
